:020000040800F2
:10000000B8040020F5400008D13F0008D33F0008A5
:100010001D410008214100082541000800000000A2
:10002000000000000000000000000000D53F0008B4
:10003000D73F000800000000D93F0008DB3F000860
:10004000294100082D4100083141000835410008D0
:10005000394100083D410008EB3F000841410008DC
:1000600045410008494100084D4100085141000840
:1000700055410008594100085D41000861410008F0
:1000800065410008694100086D41000871410008A0
:1000900075410008794100087D4100088141000850
:1000A00085410008894100088D4100089141000800
:1000B00095410008994100089D410008A1410008B0
:1000C000A5410008A9410008AD410008B141000860
:1000D000B5410008B9410008BD410008C141000810
:1000E000F13F0008C5410008C9410008CD410008A2
:1000F000D1410008D5410008D9410008DD41000880
:10010000E1410008E5410008E9410008ED4100082F
:10011000F1410008F5410008F9410008FD410008DF
:100120000142000805420008094200080D4200088B
:100130001142000815420008194200081D4200083B
:100140002142000825420008294200082D420008EB
:100150003142000835420008394200083D4200089B
:100160004142000845420008494200084D4200084B
:1001700051420008554200085942000800000000A2
:100180005D420008614200082DE9F04F80460FF201
:10019000A47095B015461E46D0E90023CDE913237F
:1001A00003AF00200391B8610DF1340900E0651937
:1001B0000020ADF8020013AB4FF0FF3229460DF1DD
:1001C000020000F0C3FB0446012C04DA2878441E28
:1001D000A441E443E40FBDF8020025280CBFA4F1BC
:1001E000010BA346BBF1010F0EDBAA461AF8011B57
:1001F0000398C0470028039000F0DA80B869401CDB
:10020000BBF1010BB861F1D1BDF80200252804D182
:100210000020F8603861786105E00028C7D1B8692E
:1002200006E340F0010015F8011F2029F9D0232929
:100230000DD02B2904D02D2906D030290AD00CE06E
:1002400040F0020080B2EEE740F00400FAE740F030
:100250000800F7E740F01000F4E72A290ED13168D2
:10026000316051F8042B3160002A3A6204D55142C2
:1002700040F00400396280B26D1C13E00021396245
:100280000BE0396A6FF00043994205D001EB81031E
:1002900002EB4301303939626D1C2A78A2F130013A
:1002A0000A29EED329782E2903D04FF0FF31F961C6
:1002B0001FE015F8011F2A2907D1316831606D1C34
:1002C00051F8042B3160FA6113E00021F9610BE071
:1002D000F9696FF00043994205D001EB810302EB0D
:1002E00043013039F9616D1C2A78A2F130010A29E5
:1002F000EED3B8840FF24460297800F037FB08B1E0
:1003000015F8010B8DF832009DF83200682804BF03
:100310002878682803D162208DF832006D1C0DA862
:10032000B86015F8014B252C13D0582C4BD0632CFA
:1003300000F0A380642C18BF692C7CD06F2C42D0B5
:10034000702C36D0732C0AD0752C18BF782C3AD06C
:10035000B6E00120F86025208DF83400BAE09DF861
:1003600032006C283068306018D050F8044B306090
:100370007C60D7F81CA0BAF1000F04D5204600F02D
:100380000DFB824607E052460021204600F022FB8A
:1003900008B1A0EB040AC7F810A09BE050F8042BAA
:1003A000306002A9404600F02DF9002840F192800B
:1003B0003CE23068306050F8041B306002910DA8B8
:1003C0007860782155E09DF832006C280DD07128B6
:1003D00018BF6A2809D13068C01D20F007023260BA
:1003E000D2E900010832326004E03168316051F82E
:1003F000040B316002909DF83200682802D102A8F7
:10040000008803E0622802D102A80078029097F8E1
:100410002400000728D5029830B344F02000782843
:1004200022D1F868302100F80910401C411CF96005
:1004300000F8094018E09DF83200314600F0BCF8A1
:100440000028029002D5F8682D2109E0B88C8107B8
:1004500002D5F8682B2103E0C00705D5F8682021F4
:1004600000F80910401CF8600DA8F96808187860B9
:10047000214602A800F0DFF92CE09DF832006C283C
:1004800009D00120F8603068306050F8041B3060FB
:100490008DF834101EE03068306001AA50F8041B5B
:1004A0003060ADF804100020ADF8060002A94FF04E
:1004B000FF30F861404600F0A5F800280AD577E73C
:1004C0000120F86025208DF834001CB10220F8606E
:1004D00089F80140386AF968401A7969401A39691F
:1004E000441A97F82400400711D42020012C8DF8DD
:1004F00000000CDBA24601236A4602A9404600F038
:1005000001FA00287FF454AFBAF1010AF3D1D7F809
:100510000CB0BBF1000F0DF1340A0DD01AF8011B1D
:100520000398C047002803903FF442AFB869401CCD
:10053000BBF1010BB861F1D1D7F814A03020BAF1AA
:10054000010F8DF800000BDB01236A4602A940462B
:1005500000F0D8F900287FF42BAFBAF1010AF3D1EB
:10056000D7F810B0D7F804A0BBF1000F0DD01AF8DF
:10057000011B0398C047002803903FF419AFB869E6
:10058000401CBBF1010BB861F1D197F82400400782
:100590007FF50EAE2020012C8DF80000FFF608AE8E
:1005A00001236A4602A9404600F0ACF900287FF416
:1005B000FFAE641EF4D1FBE5622815D068280CD08C
:1005C0006C2818BF742816D07A2814D10A680A60DB
:1005D00052F8040B0A60002170470A680A6052F85A
:1005E000040B0A6000B20BE00A680A6052F8040BC0
:1005F0000A6040B204E00A680A6052F8040B0A601C
:10060000C11770472DE9F44F0D4694B02F6A002FA3
:10061000804648BF6FF0004700F008FA696A40184A
:1006200001900FF22030D0E90023CDE9022395F8A4
:100630002800400702D40198412805D240200DF13E
:1006400010090190002606E000F0F6F95FEA0009C3
:10065000F8D1EBE03F1B012FC0F294801498018881
:1006600002AA0DF1010000F03FFA0028044600F153
:100670009C801498008810B9641E00F19680A742EF
:10068000C0F28080286901992218914268D26E6276
:100690004042A969401A6969461A95F8280040073E
:1006A00010D42020012E8DF800000BDBB246012370
:1006B0006A462946404600F025F9002875D1BAF16E
:1006C000010AF4D1D5F810B0BBF1000FCA460CD026
:1006D0001AF8011B6868C0470028686065D0E8699F
:1006E000401CBBF1010BE861F2D130208DF8000015
:1006F000D5F818A0BAF1010F0ADB01236A46294692
:10070000404600F0FFF800284FD1BAF1010AF4D1B9
:10071000D5F814B0D5F808A0BBF1000F0CD01AF82A
:10072000011B6868C047002868603ED0E869401C2B
:10073000BBF1010BE861F2D195F8280040070DD517
:100740002020012E8DF8000008DB01236A4629468F
:10075000404600F0D7F840BB761EF6D100262E6149
:10076000224628690DF10101484400F0CBF92869BF
:10077000201828611498801C1490801E008800287E
:100780007FF468AF686A2969401AA969401A6969E3
:10079000471A95F8280040070FD4012F0DDB3C467F
:1007A00068682021C047686010B94FF0FF3635E017
:1007B000E869401C641EE861F2D12B694A4629466B
:1007C000404600F09FF80028EFD1AC69012C0ADB0D
:1007D00068683021C04700286860E6D0E869401C9E
:1007E000641EE861F4D16B69AA682946404600F0AE
:1007F00089F80028D9D195F8280040070CD5012F99
:100800000ADB68682021C04700286860CDD0E8690D
:10081000401C7F1EE861F4D12E616E6204A8814500
:100820001CBF484600F0AAF9304601E04FF0FF3007
:1008300015B0BDE8F08FF0B4C2686F2908BF082476
:1008400005D041F02003782B14BF0A24102418236C
:100850000668642918BF6929374602D1002E48BFAF
:100860007F425FB9056A4DB9082C27D190F828104E
:10087000090723D530211723D1751FE0B7FBF4F604
:1008800004FB16773037FFB25D1E3A2FA4BFA1F1EB
:10089000510C6744AF542B46370003D085689E182F
:1008A000B542EBD3082C09D190F82810090705D5DB
:1008B000995C302902D05B1E302199549A188260CD
:1008C000C3F11801026A4161914208DA511A81614B
:1008D0004FF6EF72018D11400185F0BC7047002A80
:1008E0000ED590F8282002F01402102A08D1426A8E
:1008F0000369D21A8369D21A531A012BA8BF8361E4
:10090000F0BC7047F8B504460D4616461F46002059
:1009100077B116F8011B6868A047686030B1E869D4
:10092000401CE86100207F1EF3D1F2BD4FF0FF3084
:10093000F2BD00000000000000000000686C747A46
:100940004C0000000000000000000000F8B5044664
:100950000D4616461F4600F051F93B4632462946E1
:10096000204601B0BDE8F04000F05FB90278C9B29E
:100970008A421AB11CBF10F8012FF9E718BF0020F6
:1009800070478268521C8260426832B10268531C10
:10099000036011704168491E4160704700F1010316
:1009A000810704D010F8011B89B18107FAD10268D0
:1009B000B2F10131914311F0803F04BF50F8042F90
:1009C000F6E710F8011B11B110F8011BFBE7C01A84
:1009D00070470000C9B2830706D0521E22D310F818
:1009E000013B9942F7D11FE0083A13D302F1040208
:1009F00041EA012141EA014150F8043B121F21BFA5
:100A00004B40A3F1013C2CEA030C1CF0803FF3D0D7
:100A1000C9B2001F083210F8013B521E28BF91EAEC
:100A2000030FF8D818BF0120401E704780B500F0B2
:100A3000E5F8012002BD000070B5054605F10F0084
:100A4000C408C046C046E400A54232D2082C04D2F5
:100A5000082402E0083000F091F8224802681100F2
:100A60000CD1011D0A6802B31368A34238BF111DDF
:100A7000F8D310E01D68A5420DD2191D0B68002B9C
:100A8000F8D11268011D00E0191D0B6893420CD0CB
:100A90001D68A542F8D361B10D682A68A2F1080368
:100AA000A3420AD26A680A600FE000F0E1F8002869
:100AB000D0D1C046C046002070BD63190B60121B28
:100AC0006E685E600B681A602C60096800291DBFA3
:100AD0004A68002A091D00210160C046C04605F190
:100AE000080070BD5C0A002070B504460D4616462D
:100AF00000F084F8324629462046BDE8704000F0F8
:100B000087B8000062B38B0708D0521E11F8013B72
:100B100000F8013B00F024808B07F6D1830740F0FA
:100B2000208000BF103A07D330B4B1E83810103A33
:100B3000A0E83810F9D230BC530724BFB1E8081040
:100B4000A0E8081044BF51F8043B40F8043BD2072A
:100B500024BF31F8022B20F8022B44BF0B7803701E
:100B60007047083A07D3B1E80810083A40F8043B48
:100B700040F804CBF7D25307E4E7000000B9704710
:100B800038B5A0F108042068082833D310F0070F07
:100B900030D1C046C0461848416809B18C4203D2E2
:100BA0006160446017E019464B680BB1A342FAD369
:100BB0000B685D18AC421BD3A54204D12268D21841
:100BC0000A600C4607E04A681AB123681B199A426A
:100BD0000ED362604C60616851B1226813198B4278
:100BE00006D10023036008688018206048686060B0
:100BF000C046C04631BD00005C0A002080B5DFF869
:100C00000C0000F04BF8806902BD00004400002099
:100C100030B430B90FF24800D0E90045C2E90045D0
:100C20001BE00170012030BC704730B431B90FF2C5
:100C30003800D0E90045C3E900450EE01AB930BCE0
:100C40006FF00100704708B10A7802800978481EE9
:100C5000804130BCC043C00F7047002030BC70479B
:100C60000000000000000000000000000000000084
:100C70000749086808B1002070470648C008C0004E
:100C800008600549C908C900091A0160704700BF1A
:100C90006C0A0020BF040020B80600207047000046
:100CA00010B592B00EA80FF22C51DFF8144500F0E9
:100CB000B1F80AA80FF22C5100F0ACF806A80FF218
:100CC000345100F0A7F804F10C0000900723012232
:100CD0000EA9022000F0D1FB70BB04F10E000590BC
:100CE0001423012004900AAA10200390022100205E
:100CF0000290019010200090A08900F0F3FBD8B979
:100D000004F11000059014230120049006AA10207D
:100D10000390022101200290002001900C200090FD
:100D2000A08900F0DFFB38B9228AE1890FF2D440B4
:100D300000F010FD002004E00FF2085000F00AFD62
:100D4000472012B010BD00B5DFF878048BB00078F2
:100D500040BB0FF2145000F0FDFC0FF228510CC9FB
:100D600007A80CC0002000F031FD4FF4FA60069097
:100D700005904FF480413C20049007AB0020039085
:100D8000002228200290019000200090084600F0E8
:100D9000C8FE40B30FF2F44000F0DCFC642000F029
:100DA00018FF20E007A80FF2085100F033F80021E7
:100DB000002001F0B6F80FF2085000F0CBFC002044
:100DC0000690059004900390002307A8029000224B
:100DD0000D20019000210020009000F0D6FD01467A
:100DE000BBA000F0B7FC0BB000BD10B5DFF8D043DE
:100DF00086B0A07860B90FF2E44000F0ABFC01A827
:100E00000FF2F84100F006F800F01CF80120A07085
:100E100006B010BD1022FFF785BE10B5DFF8A04365
:100E200086B0E07860B90FF2E44000F093FC01A8CE
:100E30000FF2F841FFF7EEFF00F004F80120E07038
:100E400006B010BD01A800900223E0884FF6FF72A3
:100E5000012100F0D2BBF8B504460D46002000F099
:100E6000CBFC00269BA704E0315D384600F072FC05
:100E7000761CAE42F8DBF1BD10B5D24AD04C88B03A
:100E80001278012A46D1D04A1278002A3BD003A812
:100E90000FF2A8411422FFF745FEA0698DF81C004F
:100EA000010A8DF81D10010C8DF81E10010E8DF831
:100EB0001F1030B90FF2984000F04CFC00F087FE94
:100EC000E06100F04DF803A800901423E189A089A7
:100ED000002200F05DFB642804D101A801F079F83C
:100EE0000028F0D0A069401CA061D0D000F0D1F85B
:100EF0000028CCD100F06BFEE16900F0D3F800F0DF
:100F000066FEE061C3E700900B46E189A08900F02E
:100F10003FFB07E0034660890A46411CE08889B22E
:100F200000F0F0FB08B010BD10B50FF26C40A44CFF
:100F300084B00088ADF8000000F012F82089811C10
:100F4000E0886B46022289B200F0A5FB462804D156
:100F500001A801F03EF80028F0D0012060701FBD0C
:100F60000A219A480068414301A801F02AB810B547
:100F7000934B1C8A641CA04203D1BDE8104010466C
:100F800069E7D989891C884202BF10780128587006
:100F900010BD70B504468A480FF21846012242611E
:100FA000C18005250FF2F43000F0D4FB295D3046F6
:100FB00000F0D0FB6D1E012DF8DA21780FF2FC3025
:100FC000BDE8704000F0C6BB10B57D4C00206061EC
:100FD0000FF2F03000F0BEFB0120207000206070A6
:100FE000A070E0702071607110BD38B5744C764B04
:100FF0001B7815462289521C002B3AD0714B1B7866
:10100000002B36D190423AD1606A60B90FF240307D
:1010100000F0A0FB00F0DBFD2062697C287C00F082
:101020002FF8401EA062287C697C00F029F8A16A94
:101030004A1C904204D0E26A8218511A491EE162A9
:10104000A062606A401C606219D000F022F8B0B95A
:1010500000F0BDFD216A00F025F8E16A19B10FF238
:10106000743000F077FB00F0B2FD20620020E062F7
:1010700031BD904203D12846BDE83440EBE631BD96
:1010800040EA0120A97C40EA0140E97C40EA016095
:1010900070474FF4FA71B0FBF1F14FF4FA7202FBB2
:1010A00011007047401A00EE100AF8EE400A9FED5A
:1010B000431AC1EE200AFDEEE00A10EE903A10EE5F
:1010C000102A4FF4FA710FF2942000F043BB000095
:1010D00025640A0025630000411C0078042800D024
:1010E000704738B50878052804D03E2805D0FF2879
:1010F0000ED031BDBDE8314066E7881C017801297A
:101100005BD1401CBDE83440B0F80110401D40E701
:101110008D1C2C4829880078294C40F60142891AF8
:1011200006D00E3914D0491E39D0891E1AD031BDCF
:1011300027480078012803D1A81C831CC21D02E0A7
:10114000A81C831C421D99781888BDE838400EE71A
:10115000A81CBDE838408178421D891EB0F8030004
:10116000C9B242E748BB0FF2802000F0F3FAA17841
:10117000A81C39B1217929B9B0F803100FF29420D5
:10118000218108E0E178C1B16179B1B9B0F803100B
:101190000FF298206181BDE8344000F0DBBA60B9FD
:1011A000A07820B1207910B90120207131BDE078FC
:1011B00018B1607908B90120607131BD00409C47C9
:1011C00000000020B1000020700A00201841000833
:1011D000B0000020669A0C200008969EE2119EB195
:1011E000E0F273D9669A0C200008969EE2119EB137
:1011F000E1F273D9669A0C200008969EE2119EB126
:10120000E2F273D953616D706C6520536572766933
:1012100063652061646465642E0A545820436861E4
:10122000722048616E646C6520253034582C205241
:101230005820436861722048616E646C65202530D7
:1012400034580A004572726F72207768696C6520A5
:10125000616464696E672053616D706C65205365CD
:1012600072766963652E0A00436C69656E7420436B
:10127000726561746520436F6E6E656374696F6E2D
:101280000A000000AA0000E1800200004572726FAF
:1012900072207768696C65207374617274696E6717
:1012A00020636F6E6E656374696F6E2E0A000000B6
:1012B00009426C75654E52475F43686174000000D7
:1012C00047656E6572616C20446973636F76657201
:1012D00061626C65204D6F6465200000537461721B
:1012E000742072656164696E672054582043686198
:1012F000722048616E646C650A000000669A0C20DA
:101300000008969EE2119EB1E1F273D953746172A6
:10131000742072656164696E672052582043686169
:10132000722048616E646C650A000000669A0C20A9
:101330000008969EE2119EB1E2F273D93031323349
:1013400034353637383941424344454600000000C1
:10135000546573742073746172740A00256420707C
:1013600061636B6574732E20456C617073656420D6
:1013700074696D653A202564206D732E204170706C
:10138000207468726F7567687075743A20256420E0
:101390006B6270732E0A000001000000436F6E6ED6
:1013A000656374656420746F206465766963653A6B
:1013B00000000000253032582D0000002530325842
:1013C0000A000000446973636F6E6E656374656440
:1013D0000A0000002564206C6F7374207061636BD9
:1013E00065742873290A00004556545F424C5545E0
:1013F0005F474154545F444953435F524541445F02
:10140000434841525F42595F555549445F524553E5
:10141000500A0000545820436861722048616E648D
:101420006C6520253034580A0000000052582043D3
:101430006861722048616E646C6520253034580AFA
:101440000000000000B587B000F013F900F002F9C9
:1014500040F20110ADF80600002100F009F8002864
:101460004CBFFF209DF8000007B000BDC0B2049043
:101470000120069001A800F06FBC70B58CB0012867
:101480008DF81C0014460CBF022610261D4632465D
:101490000DF11D0000F0A9FD701C07A9C0B20322C8
:1014A0004454441CE4B268466554002100F0A3FD96
:1014B00000F0DFF800F0CEF84FF4817000F062F831
:1014C000601CC0B204900320FFF7D3FF002848BF80
:1014D000FF2005D49DF8000010B9109900F049F8DC
:1014E0000CB070BDF1B58EB00D4616461F460222F7
:1014F0000EA900F0CDF807AC012DA57031460CBF48
:10150000022510252A4600F074F8E81CC0B2411CE0
:101510000755C9B214980855491C1598C9B2032239
:101520000855491C1698C9B20855491C1798C9B2E4
:101530004D1C0855EDB21898285500F01FF800F022
:1015400098F800F087F84FF4827000F01BF8681CE0
:10155000C0B204900320FFF78CFF002848BFFF2093
:1015600005D49DF8000010B9199900F002F80FB0E9
:10157000F0BDBDF8010008800020704700216846DA
:1015800000F039BDADF80600002107A803907047B0
:1015900033B51C46A01DA7B081281546A8BF422020
:1015A0001FDA022227A900F073F8022228A900F00E
:1015B00096F82C998DF820508DF82140224600F0A5
:1015C00012F800F056F800F045F84FF48370FFF77A
:1015D000D9FFA01DFFF74AFF00284CBFFF209DF850
:1015E000000029B030BD0DF1220000F0FEBC224603
:1015F00019460DF11F0000F0F8BC17B58DB01C4660
:1016000002220DA900F044F802220EA900F067F8AA
:1016100002220FA908A800F0E8FC8DF82240012C56
:101620000CBF022410241299224600F08EF800F01C
:1016300020F800F00FF84FF48B7000F011F80F2035
:101640000290FFF715FF00284CBFFF209DF8000017
:1016500010B010BD3F20ADF80400CDF814D0704795
:10166000ADF80600002107A80390E01DC0B2049069
:1016700070471822002101A800F0BDBC8DF8204061
:10168000224629460DF1210000F0AFBC022228A914
:1016900007A800F0AABC33B51446601DA7B0812886
:1016A0001D46A8BF422016DA022227A9FFF7F0FF45
:1016B000022228A900F013F8FFF7E0FFFFF7D9FF97
:1016C000FFF7C8FF40F2211000F00DF800284CBFD2
:1016D000FF209DF8000029B030BD022229A90DF19C
:1016E0001E0000F082BCADF80600002107A80390A0
:1016F000601DC0B204900F2002900120069001A846
:1017000000F02ABB10B58EB0152A144628BF42201F
:1017100018D2ADF81C00ADF81E108DF82040194607
:10172000FFF7B0FFFFF7A5FFFFF794FF40F223108C
:10173000FFF728FF601DFFF79AFE00284CBFFF202F
:101740009DF800000EB010BD10990DF1230000F0BF
:101750004CBC00000EB400B5A0B0024621AB802105
:10176000684600F053FC82B24FF496736946044811
:1017700000F0A7FC08B101F053F820B05DF810FBB1
:101780008809002010B586B0044600F090F83CB9F6
:10179000DFF82401016841F00101016000F010F858
:1017A0000FF2241030F8140000F07AF802200490B0
:1017B000DFF8080150F8240001F0C6F806B010BDAB
:1017C000006800F001000090009870470FF2F801E7
:1017D000DFF8E83031F8101053F82000012201F052
:1017E00097B90FF2E401DFF8D43031F8101053F854
:1017F0002000002201F08CB90FF2CC01DFF8BC20F0
:1018000031F8101052F8200001F087B930B587B0D8
:1018100004460D4600F04BF854B9DFF89C0001680F
:1018200041F004010160006800F00400009000989D
:10183000DFF88C000FF294013DB931F814100191DA
:101840000021029100F01AF816E0012D14D131F8B0
:1018500014100191DFF86C100291002100F00EF8D5
:101860000FF26C0030F8144000220F2160B201F03A
:1018700091F960B201F0ABF907B030BD03910221DC
:10188000049101A950F8240001F05EB80FF23C0168
:10189000DFF82C2031F8101052F8200001F032B996
:1018A000019001A90120029000200390704701A837
:1018B000142101F0BDB900004C100240300000209E
:1018C0003400002000002110200000000020000053
:1018D000280010B58AB08DF800008DF801108DF841
:1018E00002201C46072200F008F900F0C0F800F0C2
:1018F00012F98A20ADF80E0000210320069001A8FD
:101900000790072000F0AFF8002848BFFF200ED452
:101910009DF8040058B9BDF8050020800C99BDF869
:10192000070008800D99BDF80900088000200AB062
:1019300010BD70B58AB00C468DF8080015461E46DD
:10194000072200F0CFF800F092F800F0DAF88A20D1
:10195000ADF80E00002102A8059001200690072096
:1019600000F081F8002848BFFF200CD49DF800004B
:1019700048B9BDF801002080BDF803002880BDF8FB
:101980000500308000200AB070BD76B592B000F03E
:101990004FF828BF42201BD200F052F800F02AF87E
:1019A0009DF8600000F02CF800F035F800F01AF80F
:1019B00000F010F800F0A0F800F098F8832000F094
:1019C00047F800F0FFF800284CBFFF209DF800000A
:1019D00014B070BDA41CE4B207A802221EA92018EE
:1019E00000F003BB6419E4B207A802221DA9201865
:1019F00000F0FBBA022213A90DF11F0000F0F5BAA6
:101A00001A998DF822008DF821608DF823502A460E
:101A100009A800F0EABA05F10800C0B207A9451C00
:101A20004454EDB21C9907A82246281800F0DDBAEC
:101A3000199D1B9C54FA85F10E3129291E467047C9
:101A40008DF81C00022212A90DF11D0000F0CDBA84
:101A5000ADF80600002107A80390A01CC0B20490B6
:101A6000704706900120089003A800F075B918226D
:101A7000002103A800F0BFBA30B58FB08DF81C006C
:101A80008DF81D1014461D461022214600F03FF827
:101A9000129814998DF82F008DF82E501822139853
:101AA0008DF830000DF131000160002115988DF89E
:101AB000350001A800F09FFA00F018F8862000F029
:101AC0000BF81A20049000F07DF800284CBFFF208E
:101AD0009DF800000FB030BDADF80600002107A84A
:101AE000039070470021684600F085BA3F20ADF8AA
:101AF0000400CDF814D070471822002101A800F08E
:101B00007ABA3F20ADF80C00CDF81CD070470DF12B
:101B10001E0000F06ABA3F20ADF80C00CDF814D0DA
:101B2000704700B58DB000F016F800F026F8BDF84B
:101B30004000ADF81200BDF8440000F027F800F0B6
:101B400016F89C2000F030F800284CBFFF209DF8CC
:101B500000000DB000BDADF80400ADF806108DF822
:101B60000820194606220DF1090000F03EBA3F2078
:101B7000ADF81C00CDF82CD070470E988DF80F00F2
:101B800018220F98ADF8100000217047ADF814002E
:101B90001298ADF816001398ADF818001498ADF827
:101BA0001A0007A800F027BAADF81E00002101A80E
:101BB000099018200A900F20089001200C9007A887
:101BC00000F0CAB80120069001A800F0C5B801F0E5
:101BD00056B801F057B8000038B5B14C201D01F0DF
:101BE00061F804F10C0001F05DF800258C2010FB79
:101BF000054000F11401201D01F06AF86D1C052D4F
:101C0000F4DB31BD00F108010A78042A01D001207B
:101C1000704790F888008978C01E814214BF022066
:101C20000020704710B5A2B00020009001F007FA24
:101C30009B4C10E0694604F10C0001F05FF801F0E4
:101C4000FBF900980830FFF747FA01F0F8F900991E
:101C5000201D01F03DF804F10C0001F026F80028E9
:101C6000E8D0207850B90EE0802201A98D4801F01B
:101C700047F9C0B210B101A8FFF72EFA01F036F90A
:101C80000028F1D1207001F0D7F922B010BD38B58D
:101C90000020009001F0D6F9824C814D04E0281D0F
:101CA00001F00CF801F0CEF901F020F918B3281D6D
:101CB00000F0FBFFD8B96946281D01F01FF8009815
:101CC00000F108018022204601F01AF9C0B2002874
:101CD0000099E4D081F888000098FFF793FF00286E
:101CE0000099DCD105F10C0000F0F2FFDAE70120E9
:101CF000287001F0A7F931BD01F0A8B830B5890509
:101D000083B0890D41EA8020ADF80400144601201B
:101D10008DF800001D468DF80640032201A90DF143
:101D2000010000F062F92346042229466846FFF7C5
:101D3000E3FF37BD38B504460D4607E0694628463F
:101D400000F0DCFF0099204600F0C2FF284600F0BA
:101D5000ACFF0028F2D031BD2DE9F041044686B039
:101D600060884F4F884680052188800D40EA812594
:101D70004D4800680A21B0FBF1F600200090ADB29A
:101D800002A800F08FFFE068A3686188C2B22088D3
:101D9000FFF7B4FFB8F1000F59D106B9012631465B
:101DA00004A800F00EF905E0009902A800F090FFE9
:101DB00001F042F904A800F00CF9002867D107F1FE
:101DC0000C0000F072FF0028F4D101F038F96946E8
:101DD00007F10C0000F092FF009800F10802107863
:101DE0000428E1D10098527800F10B0190F88800A6
:101DF000C01E0E2A37D00F2A04D0102A47D03E2A00
:101E000038D008E04A88AA4241D162680F2A15D02A
:101E1000087800283BD1009902A800F059FF381D2E
:101E200000F043FF0028C3D001A907F10C0000F027
:101E300065FF0199381D00F04BFFB9E762699042D8
:101E4000C8BF104660610246206900F0CEF80099D4
:101E5000381D00F033FF00F029F801F0EDF8002004
:101E600006B0BDE8F081B1F80120AA420FD1C91C2B
:101E7000C01EE3E70A7863689A42CCD16269401ECB
:101E80009042C8BF104660610246491CDCE700F082
:101E90000DF801F0D1F84FF0FF30E1E7000000004D
:101EA000B8060020F80900201841000802A907F12F
:101EB0000C003FE7F0B589B000F024F800F06BF8B3
:101EC00000F074F8042000F077F8012000F01FF80B
:101ED000002848BFFF2013D49DF8000080B99DF86A
:101EE00001002070BDF8020028809DF804003070C9
:101EF000BDF8050038800E99BDF807000880002065
:101F000009B0F0BD04460D4616461F467047ADF8B1
:101F10000E0000210020059006900920089003A8DB
:101F20001AE730B58FB000F01DF88DF81C40202C5A
:101F3000A8BF1F2400F010F800F01BF800F024F8F0
:101F4000092000F01BF800F02BF800284CBFFF2000
:101F50009DF800000FB030BD224629460DF11D004E
:101F600000F043B804460D462022002107A800F0E7
:101F700042B81822002101A800F03DB8ADF80600D3
:101F8000002107A8039070470820ADF80400CDF8A1
:101F900014D07047044609220021684600F02BB88F
:101FA000202004900120069001A8D5E618220021E7
:101FB00003A800F020B80820ADF80C00CDF81CD024
:101FC000704710B504466160FFE7FFF700FE206030
:101FD00010BD10B50446FFF7FAFD22686168801A4B
:101FE000401C81428041C00F10BD10B50446FEF771
:101FF00089FD204610BD10B5044610460A4601462C
:10200000204601F03DF8204610BD000008B584B020
:102010000023029311B90093019302E00090481E3F
:10202000019004AB6946074878441830FEF7ACF8D5
:10203000009911B1009A00211170002858BF029830
:1020400005B000BD3FE9FFFF38B504000BD004F137
:102050006805687818B92870204600F08DFA00F0FD
:102060000DF8012801D1012032BD606A08B100F0ED
:1020700025F800F014F821F02A0109E00220687028
:1020800020680168490849000160204600F06CB8EA
:10209000816000F00CF8BDE8324000F0F6B920682D
:1020A000416821F490414160206881687047206850
:1020B000016841F00101016020467047204600F0B0
:1020C00081B9F8B5044604F150070D46787E012821
:1020D0001CBF787E22281E4640D1002D18BF002A42
:1020E00001D10120F2BD387E012837D00120387699
:1020F0000020F861787E22280CBF322012207876EA
:102100003A807A8001E0216808857888A8B1401E6D
:10211000788033460022802100F022F898B9A06828
:10212000B0F5805F04BF2069002811BF15F8010BCE
:1021300035F8020BC005C00DE5E73346002240210B
:1021400000F00EF808B10320F2BD787E32280CBFF3
:1021500022200120787600203876F2BD0220F2BDE0
:10216000204600F0B7B90000F8B50446894B226854
:1021700010681840A368184323691843636918431B
:10218000E3691843106010265068E36820F440505B
:102190001843506000210025A0697F4B9A421CBF64
:1021A000276A3843976827F43067384390607B4F3D
:1021B0007B48BA421FD1006800F00300032847D8CB
:1021C000DFE800F0023626450126E069B0F5004F51
:1021D00040F0B98066B1012E00F09E80022E00F022
:1021E0009E80042E00F09D80082E00F09E80A2E0CC
:1021F00001F06AFA97E06B4FBA420BD1006810F019
:102200000C005DD0042813D0082801D00C280DE064
:1022100002261DE0644FBA420CD1006810F0300075
:102220004ED0102804D02028F2D030280FD00FE054
:1022300004260DE05D4FBA4223D1006810F0C000C3
:102240003ED04028F4D08028E2D0C02800D1082613
:102250009A42BAD1300006D0022E33D0042E33D0A9
:10226000082E34D092E001F02FFA002800F08F8081
:10227000616801EB4102904202D30A03824229D2F3
:1022800084E04B4FBA420CD1006810F4407017D074
:10229000B0F5807FCCD0B0F5007FB9D0B0F5407FED
:1022A000C4E79A42D4D1006810F4406008D0B0F579
:1022B000806FBDD0B0F5006FAAD0B0F5406FB5E724
:1022C0000026C5E73B48D3E701F0A7F9CDE74FF477
:1022D0000040CDE736B1022E07D0042E07D0082EDD
:1022E0000ED012E001F0F0F903E033480AE001F00B
:1022F00094F9010E62680002002301F04FFA05E034
:102300004FF40000B0FBF1F000E00125A0F54071B2
:102310002A4A91423AD22EE001F0DEF903E0284841
:1023200005E001F07AF9400001E04FF48030616887
:10233000B0FBF1F100E001254FF6F0700840C1F369
:102340004201084317E046B1012E09D0022E0AD0FF
:10235000042E0AD0082E11D018E001F0B5F906E0DD
:1023600001F0BAF903E013480AE001F056F9616898
:10237000B0FBF1F080B22168C86008E04FF4004083
:102380006168B0FBF1F080B2D06000E00125284622
:10239000F2BD0000F369FFEF00800040003801400B
:1023A000881002400044004000480040004C0040BB
:1023B000005000400024F400000024F400FD0F0051
:1023C0000048E80190F82410C90706D501684A685A
:1023D000836A22F400321A434A6090F82410890775
:1023E00006D501684A68C36A22F480321A434A60FB
:1023F00090F82410490706D501684A68036B22F457
:1024000080221A434A6090F82410090706D5016813
:102410004A68436B22F400421A434A6090F8241041
:10242000C90606D501688A68836B22F480521A4374
:102430008A6090F82410890606D501688A68C36B03
:1024400022F400521A438A6090F82410490610D5ED
:1024500001684A68036C22F480121A434A60026CD5
:10246000B2F5801F05D14A68436C22F4C0021A43BA
:102470004A6090F82410090606D501684A68806C05
:1024800022F4002210434860704770B5044604F1FE
:102490006805002068606FF07E46206800680007CD
:1024A00006D5334600224FF40011FFF759FE50B90C
:1024B00020680068400708D5334600224FF48001A9
:1024C000FFF74EFE08B1032070BD012068700020A8
:1024D000287070BD2DE9F84304460E4691461F460C
:1024E00000F0CDFBB9F1000F804604F168050FD173
:1024F0002068C0693040B0422BD017F1010FF7D0EF
:10250000AFB100F0BCFBA0EB08008742F0D20EE0B8
:102510002068C0693040B0421BD117F1010FF7D0DD
:102520002FB100F0ACFBA0EB08008742F0D220688E
:1025300000F012F821F0200101602068016821F408
:102540008071016000F00FF868700020287003208F
:1025500000E00020BDE8F283016821F08001016005
:1025600020680168704720688168490849008160D7
:10257000012070470000000000B59F4887B000F0C0
:1025800023F800F021F8C16841F40031C16001A9CD
:10259000C06800F4003000900098042001900220F0
:1025A0000290012003900220049000F007F8082018
:1025B000019001A900F002F807B000BD07200590C6
:1025C0004FF0904000F0C0B9016841F00101016096
:1025D000016801F0010100910099704780B58748BA
:1025E000874901604FF41651416000218160C1604C
:1025F000016181610C214161FFF726FD00281CBFAC
:10260000BDE8014000F00CB901BD10B50FF220216A
:102610007C4C8EB00CC90BA80FF21C210CC00CC94D
:1026200009A80CC000F008FB0020FFF7ABF8002160
:102630000020FFF7EBF801F029F9FFF7CFFF00F0DA
:1026400026FCFFF7C9FA00F03EFC06A904A801F039
:1026500075F900F038FCBDF818209DF810100FF245
:10266000E010FFF777F89DF810003128A4BF012093
:1026700020706078002807BF06220BA9062209A94E
:1026800007A8FFF7B2FC07AA0621002001F081F994
:1026900020B101460FF2BC10FFF75CF8FEF7D2FE46
:1026A00018B10FF2D010FFF755F8617820780129A2
:1026B00009D1012803D100F04EF8012008E000F014
:1026C00044F801200AE0012805D100F044F8042074
:1026D000FFF7FFF804E000F038F80320FFF729F9CE
:1026E00018B10FF2A410FFF735F80120039007236B
:1026F0004548029000220020019000211020009007
:102700000120FFF7B9F918B90FF29010FFF722F87E
:10271000607801280CD10FF29C10FFF71BF8FEF730
:10272000BFFA002814BF0FF2CC100FF2A81001E07E
:102730000FF2E010FFF70EF80421012001F054F928
:10274000FFF770FA00F011F8FAE70DF1120305AA8D
:102750000DF1160170470DF1120001900DF11603F5
:1027600005A80090072200217047F0B5274C85B0DE
:10277000207818B1FEF7E7FA002020702148244C99
:102780004078244DE0B92868234E244F20B1387892
:1027900010B9FEF72AFB05E0286818B1307808B9AF
:1027A000FEF73BFB286800281CBF3878002807D0BC
:1027B000307828B1207818B9FFF713F8FEF7B4FB8A
:1027C0000020FFF763F8A0B90020FFF75FF80028AA
:1027D000FAD0286800281CBF2078002809D0684655
:1027E0000FF250111422FEF79DF914216846FEF7EE
:1027F00043FB05B0F0BD00004C10024088090020EA
:1028000000440040B000002040E201000000002031
:10281000010000201400002005000020040000201A
:1028200080B50020FEF7E8FF642000F02BFAF8E7FF
:10283000BB0000E180020000AA0000E1800200006D
:1028400048577665722025642C204657766572209D
:1028500025640A0053657474696E672042445F41C1
:10286000444452206661696C6564203078253032BA
:10287000782E0A00474154545F496E69742066619E
:10288000696C65642E0A00004741505F496E6974A7
:10289000206661696C65642E0A000000424C452088
:1028A000537461636B20496E697469616C697A6500
:1028B000642E0A005345525645523A20424C452058
:1028C000537461636B20496E697469616C697A65E0
:1028D000640A00005365727669636520616464650B
:1028E00064207375636365737366756C6C792E0A07
:1028F000000000004572726F72207768696C652075
:10290000616464696E6720736572766963652E0A17
:1029100000000000434C49454E543A20424C4520AB
:10292000537461636B20496E697469616C697A657F
:10293000640A000030313233343536373839414299
:10294000434445464748494A2DE9F84700227A4B17
:10295000DFF8E881DFF8E8914FF00F0A30E005FA80
:102960000EFE4EEA040448F82C406FEA070C1C687F
:102970000CEA040E4C68E40348BF47EA0E0EC3F8A5
:1029800000E05C680CEA040E4C68A40348BF47EA08
:102990000E0EC3F804E09C680CEA040E4C68E402D6
:1029A00048BF47EA0E0EC3F808E0DC680CEA040CE6
:1029B0004C68A40248BF47EA0C0CC3F80CC0521C78
:1029C0000F6837FA02F400F09B804FF0010C0CFA0C
:1029D00002F42740F3D04D68022D18BF122D11D1FB
:1029E000D50800EB850C02F00706DCF820504FEA12
:1029F000860E0AFA0EF6B5430E6906FA0EF6354350
:102A0000CCF820504FEA420C0326056806FA0CF673
:102A10006FEA060E0E7906F003060EEA050506FAC1
:102A20000CF635430560E4434D68012D18BF022DB7
:102A300003D0112D18BF122D0FD18568CE680EEA74
:102A4000050506FA0CF63543856045684E68C6F301
:102A5000001625409640354345604D6805F0030655
:102A6000032E06D1C66AC5F3C005344095402C43F9
:102A7000C462C4680EEA040E8C6804FA0CF444EADA
:102A80000E04C4604C68E40099D5D9F8004044F0C5
:102A90000104C9F800404FEA920CD9F8004004F054
:102AA0000104009402F00305009C58F82C404FEA02
:102AB000850E0AFA0EF5AC43B0F1904F08BF002521
:102AC0001DD0204DA84208BF012518D01E4DA84298
:102AD00008BF022513D01D4DA84208BF03250ED004
:102AE0001B4DA84208BF042509D01A4DA84208BFB3
:102AF000052504D0184DA8420CBF062507252EE752
:102B0000BDE8F1870069084018BF0120C0B27047D6
:102B1000002A14BF8161816270474269514041615E
:102B200070470E4A1368034200D1704780B51060A9
:102B300000F08FFF01BD00000004014008000140CB
:102B4000601002400004004800080048000C0048E3
:102B50000010004800140048001800481404014008
:102B60000901002806D52B4A00F00F00801800F854
:102B7000041C7047284A8154704728490A684FF658
:102B8000FF031A4000F0070042EA0020244A1043E5
:102B90000860704738B5214B1B68C3F30223C3F1AB
:102BA0000704052C28BF04241D1D072D34BF002356
:102BB000DB1E012505FA04F4641E2140994005FA44
:102BC00003F35B1E1A401143BDE83440C8E70121FE
:102BD00000F01F029140134A04E0012100F01F029F
:102BE0009140114A400942F82010704710B5401E2C
:102BF000B0F1807F01D3012010BD0C4C60600F212B
:102C00004FF0FF30FFF7ACFF0020A06007202060EE
:102C1000002010BD18ED00E000E400E00CED00E045
:102C20000000FA0500E100E080E100E010E000E0D3
:102C3000002200F011BF000080B50320FFF79DFFC8
:102C40000F2000F005F800F002F8002002BD7047E8
:102C500010B50446114800684FF47A71B0FBF1F0EA
:102C6000FFF7C4FF002221464FF0FF30FFF792FF2D
:102C7000002010BD0A480168491C016070470848DF
:102C80000068704738B50446FFF7F9FF0546FFF7BF
:102C9000F6FF401BA042FAD331BD000038000020EF
:102CA000640A0020006040607047EFF3108172B644
:102CB000026882420CBF012000201CE0EFF310826A
:102CC00072B603680B60486001600868416029E0E3
:102CD000EFF3108272B6086043684B604160486849
:102CE00001601FE0EFF3108172B6436802681A605A
:102CF00042680068426081F31088704738B50C461E
:102D0000EFF3108572B6016821600068FFE7FFF7F6
:102D1000E9FF2168002008602168486085F3108879
:102D200031BD086082F31088704700000068C74911
:102D3000884200D0704700B5C54887B0016841F0AF
:102D400001010160016801F0010100910099016831
:102D500041F002010160016801F002010091009957
:102D600000F061F800F05FF8416941F48051416181
:102D700001A9406900F48050009000984FF48070E1
:102D8000019001200290039000200490059000F033
:102D900049F900224FF4807100F04AF908200190AF
:102DA00001A90220029003900320049005200590C1
:102DB000A848FFF7C9FD402000F027F8802000F068
:102DC00024F80220019001A90120029000F014F8DB
:102DD00000F02CF90120019001A99F4802900020E9
:102DE00000F00AF8002203210620FFF7D3FE062098
:102DF000FFF7EDFE07B000BD039003200490002014
:102E000005904FF09040FFF79FBD019001A902206F
:102E100002900020039003200490052005904FF0BD
:102E20009040FFF791BD016841F001010160016828
:102E300001F0010100910099016841F00101016078
:102E4000016801F001010091009970472DE9F041FE
:102E500004468248DFF8088284B00D4600680A21E3
:102E6000B0FBF1F116461F4601A8FFF7AAF8F8B229
:102E70000090F3B22A462146404600F087F820B180
:102E800001A8FFF7A6F80028F1D0BDE8FF8174483B
:102E90006E4901604FF482714160002181604FF4FE
:102EA000E061C1600021016141614FF40071816105
:102EB0000021016241620721C1620821C161002134
:102EC000816200F0E3BD80B500224FF4807100F014
:102ED000AFF80520FFF7D6FE01224FF4807100F015
:102EE000A7F8BDE802400520FFF7CCBE80B5012160
:102EF0004FF09040FFF706FE012818BF002002BDEA
:102F00002DE9F04186B005460E46FF2017468DF8A4
:102F1000050004A80FF250110CC90CC0002200F0EB
:102F200086F80F200090052302AA04A900F077F884
:102F30009DF808000024022819D19DF80C009DF886
:102F40000B1051EA002812D047450DDAB8460BE0C5
:102F50000F200090012301AA0DF1050100F05FF898
:102F60009DF80400A055641CE4B24445F0DB00F079
:102F70005DF8002002E000BF0098401C009000981F
:102F80000228F8DB204606B0BDE8F0812DE9F043C9
:102F9000884691461E460FF2D801C5B005460CC9B9
:102FA00003A80FF2D4010CC00CC901A800270CC063
:102FB0000620FFF712FE002200F039F80F200090E3
:102FC000052301AA03A900F02AF89DF804000228AD
:102FD0001AD14C9C9DF8050054FA86F1884210DB0A
:102FE00036B10F200090334605AA414600F017F88D
:102FF00064B10F200090234605AA494600F00FF85F
:1030000004E06FF0010701E04FF0FF3700F00EF829
:103010000620FFF7DCFD384645B0BDE8F0832846C2
:1030200000F09ABD4FF09040FFF78EBC01220221C4
:103030004FF09040FFF76CBD0620FFF7C8BD06209B
:10304000FFF7CBBD07490120086070470030014001
:103050004C10024000040048000011101841000804
:10306000F8090020140401400B00000000000000DB
:103070000A00000000000000AA000000000000009C
:1030800062F30F2262F31F42401810F0030308D0CE
:10309000C91A1FD3DB0748BF00F8012D28BF20F84D
:1030A000022D130030B414461546103928BF20E90C
:1030B0003C00FAD8490728BF20E90C0048BF40F877
:1030C000042D890028BF20F8022D48BF00F8012DEB
:1030D00030BC7047C91818BF00F8012DCB0728BFB6
:1030E00000F8012D704700002DE9F8430446DFF891
:1030F0007C562078DFF86C66C00626D5B06810F0E4
:103100000C0F3AD13068800702D5A069002832D070
:10311000306800074EBF30686868000900F0F001B1
:10312000206A814206D200F0E1FA002823D100F0A3
:10313000BEF905E000F0BBF9206A00F0D7FAD0B97B
:1031400000F06BFAB26800F054FA2078C00774D52A
:1031500000F0A9F9082808D000F0A5F90C2802BF52
:10316000F06800F0030003282AD13068800364D59A
:103170006068002861D101208AE1A06900283068D8
:1031800010D040F0010000F085F907463068800754
:1031900005D4FFF774FDC01B0328F7D375E100F0D9
:1031A00086F9D2E74008400000F074F9074630681D
:1031B0008007CAD5FFF763FDC01B0328F7D364E17E
:1031C00000F06BF920F4802000F064F907463068C5
:1031D000800305D5FFF753FDC01B6528F7D354E1E5
:1031E0006068B0F5803F07D0B0F5A02F00F055F92A
:1031F00006D140F480203060306840F4803001E037
:1032000020F480203060606858B1FFF738FD074631
:103210003068800311D4FFF732FDC01B6528F7D357
:1032200033E1FFF72CFD07463068800305D5FFF733
:1032300026FDC01B6528F7D327E12078800719D524
:1032400000F031F9042808D000F02DF90C2802BF55
:10325000F06800F00300022822D13068400502D552
:10326000E068002887D07068216920F0F85040EAB3
:10327000016070602078000741D5606900286868A7
:103280002ED040F001006860FFF7F9FC074668683F
:10329000800734D4FFF7F3FCC01B0328F7D3F4E016
:1032A000E068002830680DD040F4807000F0F2F83B
:1032B000074630684005D6D4FFF7E1FCC01B032861
:1032C000F7D3E2E020F4807000F0E4F807463068BD
:1032D0004005CFD5FFF7D3FCC01B0328F7D3D4E0BC
:1032E000400840006860FFF7CAFC0746686880072E
:1032F00005D5FFF7C4FCC01B0328F7D3C5E0207831
:10330000400766D5B06DC0004FF000080AD4B06D1C
:1033100040F08050B0654FF00108B06D00F0805073
:1033200000900098DFF84894D9F80000C00512D446
:10333000D9F8000040F48070C9F80000FFF79FFC46
:103340000746D9F80000C00505D4FFF798FCC01B5C
:103350000328F6D399E0A06801280CD008B92868A2
:103360000DE0052828680AD1400840002860286838
:1033700040F004002860286840F0010005E04008A3
:1033800040002860286820F00400286041F2893954
:10339000A06858B1FFF773FC07462868800711D46E
:1033A000FFF76DFCC01B4845F7D36EE0FFF767FCE5
:1033B00007462868800705D5FFF761FCC01B484514
:1033C000F7D362E0B8F1000F03D0B06D20F0805069
:1033D000B065606A00285AD0B16801F00C010C2970
:1033E0003FF4C9AE0228306820F08070306038D1D8
:1033F000FFF745FC07463068800105D5FFF73FFC25
:10340000C01B0328F7D340E0E06A216B401E09028D
:1034100041EA0010616B090940EA4140A16A084392
:10342000A16B891E0905490D40EA4150E16B891ED7
:10343000090601F07E410843F060306840F080707A
:103440003060F06840F08070F060FFF718FC0746CD
:10345000306880011BD4FFF712FCC01B0328F7D390
:1034600013E0F068DFF80C1380088000F060F0686B
:103470000840F060FFF703FC07463068800106D57E
:10348000FFF7FDFBC01B0328F7D3032000E000205B
:10349000BDE8F2833060FFF7F2BB306820F4803083
:1034A000306030687047B06800F00C0070473068DA
:1034B00040F0080030603068216A20F0F0000843D6
:1034C00030607068E16920F47F4040EA012070605C
:1034D00070472DE9F843DFF8A0620446306888465B
:1034E00000F00700404502D200F08DF864D120784A
:1034F000DFF87072800705D5B868A16820F0F00089
:103500000843B8602078C0074ED56068022802D111
:103510003968890308E0032802D13968890103E08A
:103520000028396802D1890702D445E0490543D50E
:10353000B968890840EA8100B86041F28939FFF72B
:103540009EFB0546606802280AD1B86800F00C00AE
:10355000082829D0FFF793FB401B4845F5D321E00D
:1035600003280AD1B86800F00C000C281CD0FFF723
:1035700086FB401B4845F5D314E048B9B86810F005
:103580000C0F11D0FFF77BFB401B4845F6D309E039
:10359000B86800F00C00042806D0FFF770FB401B51
:1035A0004845F5D3032022E0306800F0070080454D
:1035B00004D200F028F801D0012018E0207840075C
:1035C00005D5B868E16820F4E0600843B860207869
:1035D000000706D5B868216920F4605040EAC100B0
:1035E000B86000F01AF8BA6800F003F80020BDE8EF
:1035F000F2836249C2F30312515CC8405A49086021
:103600000F20FFF725BB3068C00848EAC0003060D3
:10361000306800F007004045704752498B6800222F
:10362000002013F00C0F09D08B6803F00C030C2B57
:1036300002BFCB6803F00303012B13D10A68120702
:1036400004D4504A1268C2F3032202E00A68C2F3AB
:1036500003124D4B53F822208B6813F00C0F0ED140
:1036600010460CE08B6803F00C03042B08BF47489E
:1036700005D08B6803F00C03082B08BF44488B6807
:1036800003F00C030C2B1ED1C868CB68C3F30213E4
:103690005B1C00F00300022802D0032802D005E0E2
:1036A0003A4800E03A48B0FBF3F001E0B2FBF3F037
:1036B000CA68C968C1F34161C2F30622491C50437C
:1036C0004900B0FBF1F0704727482D4A00681268A6
:1036D0003049C2F3022206E02348294A00681268F2
:1036E0002C49C2F3C222515CC840704770B52A4EC3
:1036F00082B0054630680024C00002D500F0F8FB17
:103700000EE0306840F080503060306800F080504B
:103710000090009800F0ECFB316821F0805131609E
:10372000B0F5007F04D1812D0DD3A12D0AD305E082
:10373000812D28BF032406D2802D01D1022402E06E
:10374000702D00D101240C480168C90844EAC10168
:103750000160006800F00700A04214BF01200020B3
:1037600076BD00000010024038000020901002409A
:1037700000700040FFFFEEFE00200240503F0008B6
:103780000810024094100240603F00080024F4003A
:1037900000127A0010410008581002401B4213D159
:1037A000094236D12AB18446B0FBF2F002FB10C2C6
:1037B000704700F0A5BBFCD30022002370470B002C
:1037C0000200002100207047904271EB030CF6D3F9
:1037D00070B5B1FA81F4B3FA83F52C1BA340C4F1A0
:1037E000200532FA05F63343A2405FF00046E6407A
:1037F00002E05B085FEA3202841A71EB030524BF22
:10380000204629467641F4D302000B003000002107
:1038100070BD012ACFD970B5140C20D0B1FA81F453
:10382000B2FA82F5C4F120046419B4F12006D6D3AB
:10383000B2405FF00044F440002502E052085FEA25
:103840003303C61A71EB020E24BF30467146644141
:103850006D41F3D302000B002000290070BD0C461F
:10386000B1FBF2F102FB11452D0445EA1045B5FB11
:10387000F2F402FB145580B240EA0545B5FBF2F0C4
:1038800002FB105240EA044070BD000000B595B044
:1038900068461421FFF7CCF90FF2600105A891ECFE
:1038A000100B80EC100B1020059001200B90602075
:1038B0000D9000200C9002200E9001200F9010908F
:1038C00028201190022014900720129004201390B9
:1038D00005A8FFF709FC00B1FEE70F2000900421C6
:1038E0000320019000200290039004906846FFF7A7
:1038F000F0FD00B1FEE715B000BD000000000000C3
:1039000000000000000000000000000000000000B7
:1039100000000000000000000000000000000000A7
:103920000000000000000000000000000000000097
:1039300000000000000000000000000070B584B02E
:10394000064601A800900C460DF10A0302AA0DF1EB
:1039500006010DF10900FEF7ADFAC5B2A5B9BDF833
:103960000600000A3070BDF8060000022080BDF895
:1039700004100906090F40EA01102080BDF8041068
:1039800001F00F0108432080FEF74CF9284604B0EF
:1039900070BD10B50C461146A21CA8B0812AA8BF64
:1039A00042201FDA8DF81C008DF81D4022460DF1D3
:1039B0001E00FEF71AFB00F03BF800F033F80C2075
:1039C000ADF80600002107A80390A01CC0B2049027
:1039D0000120069001A8FEF7BFF900284CBFFF2088
:1039E0009DF8000028B010BD00B589B08DF8040026
:1039F0008DF805101822002102A8FEF7FCFA00F04D
:103A000022F80F2000F019F80220059001200790FD
:103A100002A8FEF7A1F900284CBFFF209DF8000086
:103A200009B000BD3F20ADF80400CDF814D07047B8
:103A30001822002101A8FEF7DEBAADF80A00002125
:103A400001A8049070473F20ADF80800CDF818D0C9
:103A50007047FEF71CB9000000B500BF1300964682
:103A60009446103928BFA0E80C50FAD85FEA417C90
:103A700028BF0CC048BF40F8042BC90728BF20F856
:103A8000022B48BF00F8012B00BD000070B50400F8
:103A900001D1012070BD04F15C05687818B9287067
:103AA0002046FFF743F90220687040F2017300F0EE
:103AB000FDF9E2689A4204D30021B2F5706F05D196
:103AC00006E0B2F5E06F4FF4805101D00026A66207
:103AD000266B26B99A422CBF022201222263626819
:103AE000A3681A4323691A4363691A43A36903F459
:103AF00000731A43E3691A43236A1A43A36A1A43F9
:103B00000260226B022A03D1026842F40062026062
:103B1000A269636A120C02F004021A43636B1A432F
:103B2000E3681A4311434160E16A01610020686063
:103B300001206870002070BD3B4601220121304603
:103B400000F034B901684DF6FF7211400160016860
:103B500041F40051016070472DE9F84F064689464F
:103B600092469B46FFF78BF806F15C04804620786E
:103B70000025012808BF022000F0F68001202070F7
:103B80006078012818BF022540F0E980B9F1000FE4
:103B90001CBFBAF1000FBBF1000F00F0DF80052061
:103BA00006F1380760706560C7F808A0A7F80EB086
:103BB000A7F80CB0C7F80090A7F806B0A7F804B0B3
:103BC00000F0E0F802D13068FFF7BCFF40F201716D
:103BD000F068884202D2F889022804DB3068426823
:103BE00022F4805203E03068426842F4805242601E
:103BF00030680268520603D4026842F04002026054
:103C0000F068DDF8289088423AD3F98889B9F889B4
:103C1000F8B900F0B7F840F08B804B46FFF78DFF06
:103C200000287CD1F1683068B1F5706F6ED1C06842
:103C30007CE03068826892070BD500F097F8491E47
:103C4000F98089B2002904BFB16AB1F5005F00F0C4
:103C5000A7F8F88958B130688168C90707D5B968ED
:103C6000C0680880881CB860F889401EF88119F186
:103C7000010FCAD0FFF703F800F08EF8C5D343E078
:103C8000F98811B9F889C0B9C3E73068826892072A
:103C900013D5022903DB00F069F8891E04E03968B6
:103CA00000F074F8F988491EF980F988002904BFEA
:103CB000B16AB1F5005F00F073F8F989E1B13068DD
:103CC0008268D20718D5BA6802290EDBC168118054
:103CD000911CB960F989891EF98189B202290BDA30
:103CE000416841F48051416006E0511CB960007B9D
:103CF0001070F889401EF88119F1010FC0D0FEF74D
:103D0000BEFF00F049F8BBD3032528E000F034F8EB
:103D1000306B02280CD14B46FFF70FFF20B16068D3
:103D200040F002006060EFE73068007B00F025F8AB
:103D300030688168C90607D5616841F00201616099
:103D400001254FF6EF7181604946304600F0B4F826
:103D500010B12020606001E0606800B10125012001
:103D60006070002020702846BDE8F28F3A6832F873
:103D7000023BC3603A607047007BADF80000BDF8BD
:103D800000007047B06AB0F5005F7047491C3960A9
:103D9000491E097801737047A0EB08004845704739
:103DA00003D1016841F48051016070472DE9F04171
:103DB00004460D4690461F46FEF761FF0646206802
:103DC00080682840404516D017F1010FF7D027B181
:103DD000FEF755FF801BB842F1D300F043F807D13E
:103DE000A168B1F5004F18BFB1F5806F00F043F83E
:103DF00000F047F800E00020BDE8F0812DE9F04137
:103E000082B004460D4616461F46FEF738FF804630
:103E1000206881682940B14221D0B5F5C06F08BF44
:103E2000002E04D1007B8DF800009DF8000017F1F2
:103E3000010FEDD02FB1FEF722FFA0EB0800B84232
:103E4000E6D300F00FF807D1A168B1F5004F18BF15
:103E5000B1F5806F00F00FF800F013F800E00020DB
:103E6000BDE8F6812068416821F0E00141606168A9
:103E7000B1F5827F704703D1016821F040010160F4
:103E80007047A16AB1F5005F08D101684DF6FF7275
:103E900011400160016841F40051016004F15C00CF
:103EA00001214170002101700320704720680168E2
:103EB00021F040010160704738B50D4604462B469D
:103EC00000224FF4C051FFF799FF10B900F00AF833
:103ED00008B100F001F832BD206E40F020002066ED
:103EE000032070472B460022802120465EE7000019
:103EF000DFF80800006800F4C06070470070004000
:103F0000704700000E480F4A016841F470010160DB
:103F10000D48016841F001010160002181600168E4
:103F2000114001604FF48051C160016821F480218B
:103F30000160002181614FF0006004490860704712
:103F400088ED00E0FFFFF6EA0010024008ED00E017
:103F50000000000000000000010203040607080939
:103F6000A0860100400D0300801A060000350C00F9
:103F700040420F0080841E0000093D0000127A00BC
:103F80000024F40000366E010048E801006CDC02F9
:103F900019E050F8041BCB0744BFA9F101035918DD
:103FA000121F0023042A41F8043BF9D25FEA827C05
:103FB0000B4604D54FF0000CA1F800C09B1CD107A4
:103FC00044BF0021197050F8042B002AE1D170473A
:103FD0007047FEE770477047704780B5FEF74AFEAE
:103FE00008480168491C016001BD0120FEF799BD28
:103FF00080B54FF40050FEF794FD0349012008708E
:1040000001BD0000680A0020710A002030B5016877
:1040100042688468091801EB5203D20748BF4C4438
:104020000C30994200D130BD11F9012B11F8015B20
:10403000002A04F8015B02D5521CF9D1F1E7521EA7
:10404000F4D5EEE710B5074979441831064C7C44A5
:10405000163404E00A68081D511888470146A14239
:10406000F8D110BD2C000000480000004EF6885129
:10407000CEF20001086840F470000860BFF34F8F73
:10408000BFF36F8F4FF00070E1EE100A7047000031
:1040900001FFFFFFBC030000B80600200000000085
:1040A0006DFFFFFFC00100002200000000000020A3
:1040B00000F00BF8002801D0FFF7C4FF0020C04635
:1040C000C046FEF7A2FA00F002F80120704700F0A7
:1040D00001B800000746384600F002F8FBE7000090
:1040E00080B5C046C046024A11001820ABBEFBE7AF
:1040F000260002000148804701480047053F0008AC
:1041000005410008C046C046FFF7B0FFFFF7D0FFEB
:104110000000000001020304E8030000FFF7FEBFF7
:10412000FFF7FEBFFFF7FEBFFFF7FEBFFFF7FEBFC3
:10413000FFF7FEBFFFF7FEBFFFF7FEBFFFF7FEBFB3
:10414000FFF7FEBFFFF7FEBFFFF7FEBFFFF7FEBFA3
:10415000FFF7FEBFFFF7FEBFFFF7FEBFFFF7FEBF93
:10416000FFF7FEBFFFF7FEBFFFF7FEBFFFF7FEBF83
:10417000FFF7FEBFFFF7FEBFFFF7FEBFFFF7FEBF73
:10418000FFF7FEBFFFF7FEBFFFF7FEBFFFF7FEBF63
:10419000FFF7FEBFFFF7FEBFFFF7FEBFFFF7FEBF53
:1041A000FFF7FEBFFFF7FEBFFFF7FEBFFFF7FEBF43
:1041B000FFF7FEBFFFF7FEBFFFF7FEBFFFF7FEBF33
:1041C000FFF7FEBFFFF7FEBFFFF7FEBFFFF7FEBF23
:1041D000FFF7FEBFFFF7FEBFFFF7FEBFFFF7FEBF13
:1041E000FFF7FEBFFFF7FEBFFFF7FEBFFFF7FEBF03
:1041F000FFF7FEBFFFF7FEBFFFF7FEBFFFF7FEBFF3
:10420000FFF7FEBFFFF7FEBFFFF7FEBFFFF7FEBFE2
:10421000FFF7FEBFFFF7FEBFFFF7FEBFFFF7FEBFD2
:10422000FFF7FEBFFFF7FEBFFFF7FEBFFFF7FEBFC2
:10423000FFF7FEBFFFF7FEBFFFF7FEBFFFF7FEBFB2
:10424000FFF7FEBFFFF7FEBFFFF7FEBFFFF7FEBFA2
:10425000FFF7FEBFFFF7FEBFFFF7FEBFFFF7FEBF92
:10426000FFF7FEBF0001CE00074800080048000924
:054270003D8A00000181
:00000001FF
