:020000040800F2
:10000000B8040020F142000885410008874100083B
:10001000194300081D4300082143000800000000A8
:1000200000000000000000000000000089410008FE
:100030008B410008000000008D4100088F4100083E
:1000400025430008294300082D43000831430008D8
:100050003543000839430008A34100083D43000828
:100060004143000845430008494300084D43000848
:100070005143000855430008594300085D430008F8
:100080006143000865430008694300086D430008A8
:100090007143000875430008794300087D43000858
:1000A0008143000885430008894300088D43000808
:1000B0009143000895430008994300089D430008B8
:1000C000A1430008A5430008A9430008AD43000868
:1000D000B1430008B5430008B9430008BD43000818
:1000E000A9410008C1430008C5430008C9430008EE
:1000F000CD430008D1430008D5430008D943000888
:10010000DD430008E1430008E5430008E943000837
:10011000ED430008F1430008F5430008F9430008E7
:10012000FD43000801440008054400080944000894
:100130000D44000811440008154400081944000843
:100140001D440008214400082544000829440008F3
:100150002D440008314400083544000839440008A3
:100160003D44000841440008454400084944000853
:100170004D440008514400085544000800000000A8
:10018000594400085D4400082DE9F041044682B05E
:100190002078DFF8DC57C00640F1B880A86810F07E
:1001A0000C0F40F0D2802868800703D5A069002892
:1001B00000F0C7802868276A00074EBF2868D5F876
:1001C0009400000900F0F000B84248D2A86D002663
:1001D000C00002D500F0E2FB0EE0A86D40F08050B8
:1001E000A865A86D00F080500090009800F0D6FB44
:1001F000A96D21F08051A965B0F5007F05D1812F4F
:100200000ED3A12F0BD302260AE0812F28BF03268D
:1002100006D2802F01D1022602E0702F00D10126E4
:10022000DFF854070168C90846EAC10101600068A7
:1002300000F00700B04240F08480286840F00800D9
:1002400028602868216A20F0F00008432860686868
:10025000E16920F47F4040EA0120686047E02868B7
:1002600040F00800286000262868216A20F0F0008D
:10027000084328606868E16920F47F4040EA012073
:100280006860276AA86DC00002D500F087FB0EE009
:10029000A86D40F08050A865A86D00F080500090D7
:1002A000009800F07BFBA96D21F08051A965B0F5A5
:1002B000007F05D1812F0ED3A12F0BD302260AE098
:1002C000812F28BF032606D2802F01D1022602E00B
:1002D000702F00D10126DFF8A0060168C90846EAA0
:1002E000C1010160006800F00700B04229D100F0B0
:1002F000D3FAAA68DFF88416C2F30312515CC8402F
:10030000DFF8701608600F2000F05EFB2078C00751
:1003100040F1A680A86800F00C00082809D0A86861
:1003200000F00C000C2802BFE86800F0030003286E
:1003300045D12868800340F193806068002840F030
:100340008F80012002B0BDE8F081A06900282868F4
:1003500023D040F00100286000F04DFB06462868DD
:10036000800708D400F047FB801B0328F7D3032045
:1003700002B0BDE8F081286840F0080028602868D5
:10038000216A20F0F000084328606868E16920F4E1
:100390007F4040EA01206860B8E7400840002860DC
:1003A00000F029FB064628688007AFD500F023FB44
:1003B000801B0328F7D3032002B0BDE8F081286832
:1003C00020F480302860286820F48020286000F025
:1003D00012FB06462868800308D500F00CFB801B42
:1003E0006528F7D3032002B0BDE8F0816068B0F55E
:1003F000803F03D1286840F4803010E0B0F5A02F92
:10040000286820F480302860286806D140F48020D5
:100410002860286840F4803001E020F480202860C3
:10042000606870B100F0E7FA06462868800317D4C8
:1004300000F0E1FA801B6528F7D3032002B0BDE885
:10044000F08100F0D8FA06462868800308D500F04D
:10045000D2FA801B6528F7D3032002B0BDE8F081F3
:10046000207880071CD5A86800F00C00042809D06B
:10047000A86800F00C000C2802BFE86800F0030038
:1004800002282AD12868400503D5E06800283FF4F7
:1004900058AF6868216920F0F85040EA0160686050
:1004A0002078000755D560690028D5F894003CD025
:1004B00040F00100C5F8940000F09DFA4FEA0006F4
:1004C000D5F89400800744D400F095FA801B0328E7
:1004D000F6D3032002B0BDE8F081E0680028286868
:1004E00011D040F48070286000F085FA0646286834
:1004F0004005CED400F07FFA801B0328F7D30320F9
:1005000002B0BDE8F08120F48070286000F073FA3A
:10051000064628684005C3D500F06DFA801B032805
:10052000F7D3032002B0BDE8F08140084000C5F8D1
:10053000940000F060FA0646D5F89400800708D5CC
:1005400000F059FA801B0328F6D3032002B0BDE85F
:10055000F0812078400740F17F80A86D0027C0001F
:1005600009D4A86D40F08050A8650127A86D00F05F
:10057000805000900098DFF80884D8F80000C0058B
:1005800015D4D8F8000040F48070C8F8000000F0DE
:1005900032FA0646D8F80000C00508D400F02BFA5D
:1005A000801B0328F6D3032002B0BDE8F081A068C9
:1005B000012804D1D5F8900040F001001EE010B9E8
:1005C000D5F8900012E00528D5F890000ED140082B
:1005D0004000C5F89000D5F8900040F00400C5F840
:1005E0009000D5F8900040F0010007E0400840007E
:1005F000C5F89000D5F8900020F00400C5F89000F0
:10060000A06890B100F0F7F94FEA000641F289388E
:10061000D5F8900080071AD400F0EDF9801B404512
:10062000F6D3032002B0BDE8F08100F0E4F90646FD
:1006300041F28938D5F89000800708D500F0DBF941
:10064000801B4045F6D3032002B0BDE8F0811FB106
:10065000A86D20F08050A865606A002862D0A96863
:1006600001F00C010C293FF46CAE0228286820F040
:10067000807028603ED100F0BEF9064628688001EF
:1006800008D500F0B8F9801B0328F7D3032002B087
:10069000BDE8F081E06A216B401E090241EA0010CA
:1006A000616B090940EA4140A16A0843A16B891EB8
:1006B0000905490D40EA4150E16B891E090601F028
:1006C0007E410843E860286840F080702860E86850
:1006D00040F08070E86000F08EF9064628688001DE
:1006E00020D400F088F9801B0328F7D3032002B040
:1006F000BDE8F081E868DFF88C1280088000E860CF
:10070000E8680840E86000F076F90646286880014D
:1007100008D500F070F9801B0328F7D3032002B03E
:10072000BDE8F081002002B0BDE8F0812DE9F04184
:10073000DFF8446204463068884600F00700404510
:1007400009D23068C00848EAC0003060306800F064
:10075000070040457AD12078DFF81472800705D56C
:10076000B868A16820F0F0000843B8602078C0079E
:100770005DD56068022802D13968890308E0032842
:1007800002D13968890103E00028396804D189075A
:1007900004D40120BDE8F081490557D5B96889081E
:1007A00040EA8100B86000F026F90546606802283A
:1007B0000ED1B86800F00C00082838D000F01BF902
:1007C000401B41F289318842F3D30320BDE8F08118
:1007D00003280ED1B86800F00C000C2827D000F0D8
:1007E0000AF9401B41F289318842F3D30320BDE866
:1007F000F08168B9B86810F00C0F18D000F0FBF861
:10080000401B41F289318842F4D30320BDE8F081D6
:10081000B86800F00C00042809D000F0ECF8401B88
:1008200041F289318842F3D30320BDE8F08130687A
:1008300000F0070080450CD23068C00848EAC000CC
:100840003060306800F00700404502D00120BDE86C
:10085000F0812078400705D5B868E16820F4E060B1
:100860000843B8602078000706D5B868216920F4ED
:10087000605040EAC100B86000F00EF8BA683F4925
:10088000C2F30312515CC8403A4908600F2000F0DF
:100890009BF80020BDE8F08135498B6800220020DC
:1008A00013F00C0F09D08B6803F00C030C2B02BF64
:1008B000CB6803F00303012B12D10A68334B1207F4
:1008C00059BFD1F89420C2F303220A68C2F303127D
:1008D00053F822208B6813F00C0F0ED110460CE059
:1008E0008B6803F00C03042B08BF294805D08B68E4
:1008F00003F00C03082B08BF26488B6803F00C0399
:100900000C2B20D1C868CB68C3F302135B1C00F02A
:100910000300022802D0032804D007E01C48B0FBE3
:10092000F3F005E01B48B0FBF3F001E0B2FBF3F09D
:10093000CA68C968C1F34161C2F30622491C504329
:100940004900B0FBF1F070470A480F4A006812688E
:100950001149C2F30222515CC840704705480A4A57
:10096000006812680C49C2F3C222515CC84070474B
:1009700000100240380000200020024044410008DE
:1009800000700040FFFFEEFE0810024054410008D6
:100990000024F40000127A000C430008DFF808007D
:1009A000006800F4C06070470070004000B581B07E
:1009B000032000F035F80F2000F006F800F003F8EF
:1009C000002001B000BD704710B504461248006811
:1009D0004FF47A71B0FBF1F000F06AF80022214682
:1009E0004FF0FF3000F029F8002010BD0B480168DF
:1009F000491C0160704709480068704730B581B0F4
:100A00000446FFF7F8FF0546FFF7F5FF401BA0423D
:100A1000FAD301B030BD000038000020680A002081
:100A20002C490A684FF6FF031A4000F0070042EA1B
:100A30000020294A10430860704730B4254B1B68DA
:100A4000C3F30223C3F10704052C28BF04241D1D92
:100A5000072D34BF0023DB1E012505FA04F4641EB4
:100A60002140994005FA03F35B1E1A401143090126
:100A7000002807D5194A00F00F00801800F8041C60
:100A800030BC7047164A815430BC7047012100F0D9
:100A90001F029140134A400942F82010704701217B
:100AA00000F01F029140104A400942F820107047A0
:100AB000401EB0F1807F01D3012070470B49486090
:100AC000F02081F8130D00208860072008600020C6
:100AD000704700000CED00E00000FA0518ED00E0A2
:100AE00000E400E000E100E080E100E010E000E070
:100AF00030B50FF2885193B03CC90EA80FF28C515B
:100B00003CC03CC90AA80FF294513CC03CC906A89D
:100B10000EA93CC0DFF8504504F10C0000900723FB
:100B20000122022000F0FFFB78BB04F10E000590CB
:100B30001423012004900AAA10200390022100200F
:100B40000290019010200090A08900F02EFCE0B9E6
:100B500004F11000059014230120049006AA10202F
:100B60000390022101200290002001900C200090AF
:100B7000A08900F01AFC40B9228AE1890FF22C50BA
:100B800000F05AFD002013B030BD0FF2605000F0AD
:100B900053FD472013B030BD30B5DFF8D0048BB023
:100BA000007848BB0FF2685000F046FD0FF27C5110
:100BB0000CC907A80CC0002000F07DFD4FF4FA60BE
:100BC000069005904FF480413C20049007AB002034
:100BD00003900022282002900190002000900846F7
:100BE00000F0F9FE48B30FF24C5000F025FD6420F0
:100BF00000F037FF0BB030BD0FF25C513CC907A8C5
:100C000000213CC0002001F0EDF80FF25C5000F034
:100C100013FD00200690059004900390002307A880
:100C2000029000220D20019000210020009000F091
:100C300034FE01466FA000F0FFFC0BB030BD70B574
:100C4000DFF8244486B0A07898B90FF2385000F04D
:100C5000F3FC0FF250516CC901A801216CC001A82E
:100C600000900223E0884FF6FF7200F035FC01206F
:100C7000A07006B070BD70B5DFF8EC4386B0E078C8
:100C800098B90FF2305000F0D7FC0FF248516CC900
:100C900001A801216CC001A800900223E0884FF652
:100CA000FF7200F019FC0120E07006B070BD00007A
:100CB000F0B50346DFF8B403DFF8AC4389B0007841
:100CC000012869D1DFF8A8030078002800F05B80D4
:100CD0000FF21051ECC903A8ECC0A0698DF81C00FC
:100CE000010A8DF81D10010C8DF81E10010E8DF8F3
:100CF0001F1030B90FF2005000F09EFC00F0AFFE64
:100D0000E061DFF87003006800EB8001490001A892
:100D100001F0A2F803A800901423E189A089002221
:100D200000F09CFB642804D101A801F09CF8002885
:100D3000F0D0A069401CA061CAD04FF4FA71B0FB9A
:100D4000F1F14FF4FA7202FB11000028C0D100F05B
:100D500086FEE169401A00EE100AF8EE400A9FEDA7
:100D6000641AC1EE200AFDEEE00A10EE903A10EE91
:100D7000102A4FF4FA710FF28C4000F05DFC00F085
:100D80006EFEE061A4E700930B46E189A089002292
:100D900000F064FB09B0F0BD60890A46411CE088A0
:100DA00089B200F018FC09B0F0BD10B50FF2904008
:100DB000DFF8B44284B00088ADF80000DFF8B40278
:100DC000006800EB8001490001A801F045F8208986
:100DD000811CE0886B46022289B200F0BEFB4628E7
:100DE00004D101A801F03FF80028F0D00120607084
:100DF00004B010BD25640A0070B50D469C49097801
:100E00000029144662D09949097800295ED1964D8F
:100E10002989491C88426AD1686A90B90FF2D83092
:100E200000F00AFC00F01BFE2862617C207C40EA96
:100E30000120A17C40EA0140E17C40EA0160401EC3
:100E4000A862207C617C40EA0120A17C40EA01404C
:100E5000E17C40EA0160A96A4A1C904204D0EA6A37
:100E60008218511A491EE962A862686A401C6862C9
:100E70003DD04FF4FA71B0FBF1F14FF4FA7202FB7E
:100E80001100A0BB00F0EBFD296A401A00EE100A29
:100E9000F8EE400A9FED161AC1EE200AFDEEE00AB8
:100EA00010EE903A10EE102A4FF4FA710FF254300F
:100EB00000F0C2FBE96A19B10FF2C03000F0BCFBD0
:100EC00000F0CDFD28620020E86270BD6649098906
:100ED000491C88420BD1002000F003FC3DB161A603
:100EE00014F8011B304600F0A7FB6D1EF8D170BD51
:100EF00000409C47411C0078042800D0704770B522
:100F00000878052804D03E2811D0FF2839D070BDBC
:100F1000554C002060610FF2543000F08DFB012031
:100F2000207000206070A070E070207197E0881C35
:100F30000178012940F094804B4C401C451D6161B3
:100F4000B0F80100E0800FF214340FF2F82000F046
:100F500073FB6979204600F06FFB2979204600F089
:100F60006BFBE978204600F067FBA978204600F08B
:100F700063FB6978204600F05FFB29780FF2E420DC
:100F800059E08D1C40F601412888401A06D00E38E1
:100F90002BD0401E53D0801E31D070BD324C36490C
:100FA000208A0978401C012907BFA91CCD1DA91C56
:100FB0004D1D891C8E78098881420DD1002000F0DA
:100FC00090FB002E4CD027A415F8011B204600F002
:100FD00033FB761EF8D170BDE089801C814204BFCE
:100FE000287801283CD1607070BDA81CBDE8704015
:100FF0008178421D891EB0F80300C9B2FCE61B4887
:10100000007868BB0FF28820174C00F015FBA17820
:10101000A81C39B1217929B9B0F803100FF29C202E
:10102000218108E0E178D9B16179C9B9B0F803103C
:101030000FF2A0206181BDE8704000F0FDBA0B48BE
:10104000007868B9084CA07820B1207910B9012047
:10105000207170BDE07818B1607908B90120607125
:1010600070BD00002563000000000020F909002089
:10107000B000002014430008F8090020669A0C20F4
:101080000008969EE2119EB1E0F273D9669A0C2098
:101090000008969EE2119EB1E1F273D9669A0C2087
:1010A0000008969EE2119EB1E2F273D953616D7011
:1010B0006C6520536572766963652061646465645C
:1010C0002E0A545820436861722048616E646C6532
:1010D00020253034582C2052582043686172204813
:1010E000616E646C6520253034580A004572726F59
:1010F00072207768696C6520616464696E6720534B
:10110000616D706C6520536572766963652E0A00A7
:10111000436C69656E742043726561746520436F2A
:101120006E6E656374696F6E0A000000AA0000E1CC
:10113000800200004572726F72207768696C6520CA
:101140007374617274696E6720636F6E6E65637429
:10115000696F6E2E0A00000009426C75654E524799
:101160005F4368617400000047656E6572616C20C2
:10117000446973636F76657261626C65204D6F645C
:101180006520000053746172742072656164696E39
:101190006720545820436861722048616E646C6512
:1011A0000A000000669A0C200008969EE2119EB18B
:1011B000E1F273D953746172742072656164696E6F
:1011C0006720525820436861722048616E646C65E4
:1011D0000A000000669A0C200008969EE2119EB15B
:1011E000E2F273D93031323334353637383941424F
:1011F00043444546000000005465737420737461D5
:1012000072740A002564207061636B6574732E200C
:10121000456C61707365642074696D653A2025645E
:10122000206D732E20417070207468726F7567682E
:101230007075743A202564206B6270732E0A00006A
:1012400001000000436F6E6E656374656420746F07
:10125000206465766963653A0000000025303258E5
:101260002D000000253032580A00000044697363E5
:101270006F6E6E65637465640A0000002564206CFF
:101280006F7374207061636B65742873290A0000A2
:101290004556545F424C55455F474154545F44495D
:1012A00053435F524541445F434841525F42595F57
:1012B000555549445F524553500A00005458204345
:1012C0006861722048616E646C6520253034580A6C
:1012D00000000000525820436861722048616E642B
:1012E0006C6520253034580A0000000000B587B036
:1012F0001822002101A800F0C8FD3F20ADF804002D
:10130000CDF814D040F20110ADF806000021012004
:10131000069001A800F055FC00284CBFFF209DF866
:10132000000007B000BD70B58CB001288DF81C001E
:1013300014460CBF022610261D4632460DF11D0034
:1013400000F09DFD701C07A9C0B203224454441C48
:10135000E4B268466554002100F097FD1822002190
:1013600001A800F092FD3F20ADF80400CDF814D0A4
:101370004FF48170ADF80600002107A80390601CAF
:10138000C0B204900320069001A800F01AFC0028C7
:1013900048BFFF2007D49DF8000020B91099BDF880
:1013A0000100088000200CB070BDF1B58EB00D4674
:1013B00016461F4602220EA907A800F060FD07ACE2
:1013C000012DA57031460CBF022510252A460DF1CE
:1013D0001F0000F054FDE81CC0B2411C0755C9B203
:1013E00014980855491C1598C9B203220855491C80
:1013F0001698C9B20855491C1798C9B24D1C085512
:10140000EDB2189828550021684600F03EFD1822DC
:10141000002101A800F039FD3F20ADF80400CDF80F
:1014200014D04FF48270ADF80600002107A8039095
:10143000681CC0B204900320069001A800F0C1FB14
:10144000002848BFFF2007D49DF8000020B9199953
:10145000BDF80100088000200FB0F0BD33B51C4678
:10146000A01DA7B081281546A8BF422032DA02226B
:1014700027A907A800F003FD022228A90DF11E00EC
:1014800000F0FDFC2C998DF820508DF8214022466B
:101490000DF1220000F0F3FC1822002101A800F059
:1014A000F4FC3F20ADF80400CDF814D04FF4837065
:1014B000ADF80600002107A80390A01DC0B204905B
:1014C0000120069001A800F07CFB00284CBFFF2003
:1014D0009DF8000029B030BD17B58DB01C46022222
:1014E0000DA907A800F0CBFC02220EA90DF11E00E9
:1014F00000F0C5FC02220FA908A800F0C0FC8DF87E
:101500002240012C0CBF02241024129922460DF116
:10151000230000F0B4FC1822002101A800F0B5FC63
:101520003F20ADF80400CDF814D04FF48B70ADF827
:101530000600002107A80390E01DC0B204900F2010
:1015400002900120069001A800F03BFB00284CBF50
:10155000FF209DF8000010B010BD33B51446601D8B
:10156000A7B081281D46A8BF422032DA022227A94F
:1015700007A800F084FC022228A90DF11E0000F04B
:101580007EFC8DF82040224629460DF1210000F016
:1015900076FC1822002101A800F077FC3F20ADF86E
:1015A0000400CDF814D040F22110ADF8060000215F
:1015B00007A80390601DC0B204900F200290012084
:1015C000069001A800F0FDFA00284CBFFF209DF80E
:1015D000000029B030BD10B58EB0152A144628BFC2
:1015E000422027D2ADF81C00ADF81E108DF8204027
:1015F00019460DF1210000F042FC1822002101A83B
:1016000000F043FC3F20ADF80400CDF814D040F2C8
:101610002310ADF80600002107A80390601D049078
:101620000120069001A800F0CCFA00284CBFFF2052
:101630009DF800000EB010BD0EB400B5A0B002467B
:1016400021AB8021684600F02BFC82B24FF49673E8
:101650006946044800F075FC08B101F069F820B053
:101660005DF810FB8809002010B586B001A90022A2
:10167000002300241CC10CC150B9DFF824110A68F2
:1016800042F001020A60096801F00101009100992D
:101690000FF21C11DFF80C2131F8101001910393A7
:1016A000012102910221049101A952F8200001F0C8
:1016B000D5F806B010BD0FF2F801DFF8E83031F8C8
:1016C000101053F82000012201F0A5B90FF2E0013B
:1016D000DFF8D03031F8101053F82000002201F06C
:1016E0009AB90FF2CC01DFF8BC2031F8101052F893
:1016F000200001F095B930B587B0044601A800225A
:10170000002300252CC00CC054B9DFF894000268F7
:1017100042F004020260006800F0040000900098AB
:1017200089B90FF2900030F8140001900293022062
:101730000490039301A9DFF8700050F8240001F031
:101740008DF807B030BD01291DD10FF2680030F8C7
:1017500014000190039301A9DFF8500002900220C9
:101760000490DFF8440050F8240001F077F80FF2FD
:10177000480030F8144000220F2160B2FFF75DF9F5
:1017800060B2FFF783F907B030BD0FF22801DFF830
:10179000182031F8101052F8200001F035B900007F
:1017A0004C100240300000203400002000002110C6
:1017B0002000000000200000280010B58AB08DF83D
:1017C00000008DF801108DF802201C460722002130
:1017D00001A800F05AFB1822002103A800F055FBD5
:1017E0003F20ADF80C00CDF814D08A20ADF80E00E3
:1017F00000210320069001A807900720089003A865
:1018000000F0DFF9002848BFFF200ED49DF8040047
:1018100058B9BDF8050020800C99BDF80700088074
:101820000D99BDF80900088000200AB010BD70B500
:101830008AB00C468DF8080015461E460722002186
:10184000684600F022FB1822002103A800F01DFBCF
:101850003F20ADF80C00CDF81CD08A20ADF80E006A
:10186000002102A80590012006900720089003A8F7
:1018700000F0A7F9002848BFFF200CD49DF8000015
:1018800048B9BDF801002080BDF803002880BDF8EC
:101890000500308000200AB070BD76B592B0199D69
:1018A0001B9C54FA85F10E3129291E4628BF42207F
:1018B00054D28DF81C00022212A90DF11D0000F077
:1018C000DEFA022213A90DF11F0000F0D8FA9DF8EC
:1018D00060001A998DF822008DF821608DF8235050
:1018E0002A4609A800F0CBFA05F10800C0B207A902
:1018F000451C4454EDB21C9907A82246281800F054
:10190000BEFA6419E4B207A802221DA9201800F04B
:10191000B6FAA41CE4B207A802221EA9201800F0FF
:10192000AEFA1822002101A800F0AFFA3F20ADF86E
:101930000400CDF814D08320ADF80600002107A8DC
:101940000390A01CC0B204900120069001A800F0F2
:1019500038F900284CBFFF209DF8000014B070BD7E
:1019600030B58FB08DF81C008DF81D1014461D4643
:10197000102221460DF11E0000F081FA12981499F0
:101980008DF82F008DF82E50182213988DF8300006
:101990000DF131000160002115988DF8350001A886
:1019A00000F073FA3F20ADF80400CDF814D0862083
:1019B000ADF80600002107A803901A20049001202A
:1019C000069001A800F0FDF800284CBFFF209DF80C
:1019D00000000FB030BD00B58DB0ADF80400ADF81B
:1019E00006108DF80820194606220DF1090000F0B6
:1019F00046FA0E988DF80F0018220F98ADF81000D7
:101A000000211098ADF812001198ADF8140012984A
:101A1000ADF81600BDF84C00ADF818001498ADF8FC
:101A20001A0007A800F031FA3F20ADF81C00CDF8ED
:101A30002CD09C20ADF81E00002101A80990182090
:101A40000A900F20089001200C9007A800F0B9F828
:101A500000284CBFFF209DF800000DB000BDFEF730
:101A6000CABFFEF7CBBF8268521C8260426832B1A7
:101A70000268531C036011704168491E4160704741
:101A800010B5DFF8C443201D00F0EEFF04F10C0098
:101A900000F0EAFF04F11401201D00F0FFFF04F143
:101AA000A001201D00F0FAFF04F59671201D00F042
:101AB000F5FF04F5DC71201D00F0F0FF04F5117155
:101AC000201DBDE8104000F0E9BF10B5A2B0002015
:101AD000009001F0CBF9DFF8704304F10C0000F046
:101AE000C6FFB0B9694604F10C0000F0E3FF01F055
:101AF000BAF900980830FFF7FDF901F0B7F900993D
:101B0000201D00F0CBFF04F10C0000F0B0FF002816
:101B1000E8D0207858B90FE0802201A9DFF82C0323
:101B200001F0FEF8C0B210B101A8FFF7E3F901F02F
:101B3000EBF80028F0D1207001F095F922B010BD2B
:101B400030B581B00020009001F093F9DFF8FC423D
:101B5000DFF8F45205E00099281D00F093FF01F032
:101B600088F901F0D1F850B3281D00F080FF10BBB8
:101B70006946281D00F09EFF009800F108018022B0
:101B8000204601F0CDF8C0B20028E4D0009981F8D9
:101B90008800009800F108010A78042A01BF8978BA
:101BA00090F88800C01E8142D5D1009905F10C0043
:101BB00000F074FFD3E70120287001F05AF901B05A
:101BC00030BD2DE9F043044687B060880E4680059D
:101BD0002188800D40EA81201FFA80F9DFF8740225
:101BE00000680A21B0FBF1F70020019003A800F083
:101BF0003BFF60882188D4F80880E5688DF80A509A
:101C00008005800D40EA8120ADF808000322012004
:101C10008DF8000002A90DF1010000F030F9EBB2DF
:101C200004224146684601F018F8002E5BD107B93E
:101C30000127394605A800F00FF9DFF80C6205E02E
:101C4000019903A800F02AFF01F00DF905A800F0A2
:101C50000AF900286BD106F10C0000F008FF0028FB
:101C6000F4D101F003F901A906F10C0000F022FF04
:101C7000019800F1080210780428E1D10198527807
:101C800000F10B0190F88800C01E0E2A32D00F2AF6
:101C900004D0102A4BD03E2A33D008E04A884A4567
:101CA00045D162680F2A15D0087800283FD10199E4
:101CB00003A800F0F3FE301D00F0D9FE0028C3D0C9
:101CC000694606F10C0000F0F5FE0099301D00F0A9
:101CD000E5FEB9E762699042C8BF104660610246FE
:101CE000206900F0CCF8DFF860610199301D00F048
:101CF000C9FE31E0B1F801204A4518D1C91CC01E07
:101D0000E8E70A7863689A42D1D16269401E90423E
:101D1000C8BF104660610246491CE1E7694603A856
:101D200000F0C8FE0099DFF8280100F0B7FE03A814
:101D300000F09DFE0028F1D001F095F84FF0FF3043
:101D400007B0BDE8F08302A903A800F0B3FE029932
:101D500006F10C0000F0A2FE03A800F088FE0028A7
:101D6000F1D001F080F8002007B0BDE8F083F0B5B5
:101D700089B004460D4616461F46092200216846D2
:101D800000F083F81822002103A800F07EF8042058
:101D9000ADF80C00CDF81CD00120ADF80E000021EC
:101DA0000020059006900920089003A8FFF709FF7E
:101DB000002848BFFF2013D49DF8000080B99DF88B
:101DC00001002070BDF8020028809DF804003070EA
:101DD000BDF8050038800E99BDF807000880002086
:101DE00009B0F0BD30B58FB004460D462022002169
:101DF00007A800F04AF88DF81C40202CA8BF1F242B
:101E0000224629460DF11D0000F039F81822002164
:101E100001A800F03AF80820ADF80400CDF814D07D
:101E20000920ADF80600002107A8039020200490A7
:101E30000120069001A8FFF7C4FE00284CBFFF2038
:101E40009DF800000FB030BDB8060020FC0900204E
:101E5000C40600201443000810B504466160FFF773
:101E6000FEFD206010BD10B50446FFF7F8FD2268A6
:101E70006168801A401C81428041C00F10BD10B5BE
:101E8000044601F015F8204610BD10B50446104672
:101E90000A460146204601F047F8204610BD0000E2
:101EA00008B584B00023029311B90093019302E0B6
:101EB0000090481E019004AB6946074878441830EA
:101EC00001F066F8009911B1009A00211170002804
:101ED00058BF029805B000BD8FFBFFFF10B504008E
:101EE00014D094F8690020B984F86800204600F006
:101EF000B7FA022084F8690020680168490849009F
:101F00000160204600F0AAF8012801D1012010BD8F
:101F1000606A10B1204600F0F3F92068416821F4AE
:101F2000904141602068816821F02A018160206829
:101F3000016841F0010101602046BDE8104000F059
:101F400042BAF0B5044681B094F8690001281CBF7C
:101F500094F8690022280E461D467CD1002E14BF3D
:101F6000002A012078D094F86800012873D001205D
:101F700084F868000020E06694F8690022280CBF0D
:101F80003220122084F86900A4F85020A4F85220CE
:101F900000E00185B4F8520000283DD0401EA4F8AE
:101FA0005200FEF728FD07462068C169090625D4BE
:101FB00015F1010FF8D025B1FEF71DFDC01B8542BC
:101FC000F2D22068016821F0800101602068016878
:101FD00021F0200101602068016821F48071016016
:101FE00020688168490849008160012084F86900FF
:101FF000002084F8680001B00320F0BDA168B1F5AD
:10200000805F04BF2169002911BF16F8011B36F853
:10201000021BC905C90DBCE7FEF7EDFC06462068AA
:10202000C06940060AD415F1010FF8D0002DC8D0C0
:10203000FEF7E1FC801B8542F1D2C2E794F869000B
:1020400032280CBF2220012084F86900002084F887
:10205000680001B0F0BD022001B0F0BDF0B504464B
:1020600081B022689A4B10681840A368184323690E
:10207000184363691843E3691843106010265068D9
:10208000E36820F440501843506000210025A06907
:10209000904B9A421CBF276A3843976827F43067F1
:1020A000384390608C48824220D18C48006800F010
:1020B000030003284ED8DFE800F0023C2B4C012639
:1020C000E069B0F5004F40F0D980082E00F2CA80D8
:1020D000DFE806F005AFB6C8BBC8C8C8C200FEF747
:1020E00033FC61684000B0FBF1F1BCE07C48824207
:1020F00010D17A48006800F00C000C282AD8DFE8DC
:1021000000F06529292918292929072929292800C2
:1021100002261FE0734882420DD17048006810F01B
:10212000300053D0102804D02028F1D0302810D00F
:1021300010E004260EE06C48824226D16748006811
:1021400010F0C00042D04028F3D08028E0D0C02852
:1021500000D108269A42B3D1082E00F2B580DFE8FC
:1021600006F005B337B339B3B3B33C00FEF7ECFB6D
:10217000002800F0AA80616801EB41029042C0F0A3
:10218000A3800A0382422BD29EE0584882420DD19E
:102190005248006810F4407018D0B0F5807FC8D065
:1021A000B0F5007FB4D0B0F5407FC0E79A42D1D1FE
:1021B0004A48006810F4406008D0B0F5806FB8D08D
:1021C000B0F5006FA4D0B0F5406FB0E70026C1E7CE
:1021D0004748D0E7FEF760FBCAE74FF40040CAE784
:1021E000082E1BD8DFE806F0051A081A0C1A1A1A6E
:1021F0001500FEF7A9FB05E03E48B0FBF1F00EE04C
:10220000FEF74AFB010E62680002002301F0A2FA09
:1022100005E04FF40000B0FBF1F000E00125A0F56F
:102220004071354A91424FD22168C860284601B0BA
:10223000F0BDFEF793FB61684000B0FBF1F112E0E6
:1022400061682E48B0FBF1F10DE0FEF725FB6168F7
:102250004000B0FBF1F106E061684FF48030B0FB64
:10226000F1F100E001254FF6F0700840C1F34201A2
:1022700008432168C860284601B0F0BD082E23D865
:10228000DFE806F005080B220D2222221800FEF7D7
:102290005BFB06E0FEF762FB03E015480CE0FEF78F
:1022A000FBFA6168B0FBF1F0216880B2C86001B050
:1022B0002846F0BD4FF400406168B0FBF1F080B2F9
:1022C000D06001B02846F0BD0125284601B0F0BD20
:1022D000F369FFEF008000400038014088100240A1
:1022E0000044004000480040004C004000500040C6
:1022F0000024F400000024F400FD0F000048E80171
:1023000090F82410C90706D501684A68836A22F448
:1023100000321A434A6090F82410890706D50168F4
:102320004A68C36A22F480321A434A6090F8241043
:10233000490706D501684A68036B22F480221A43D4
:102340004A6090F82410090706D501684A68436B73
:1023500022F400421A434A6090F82410C90606D5B8
:1023600001688A68836B22F480521A438A6090F86D
:102370002410890606D501688A68C36B22F40052CE
:102380001A438A6090F82410490610D501684A68FB
:10239000036C22F480121A434A60026CB2F5801F6B
:1023A00005D14A68436C22F4C0021A434A6090F88F
:1023B0002410090606D501684A68806C22F40022C0
:1023C00010434860704730B5044681B00020E06695
:1023D0002068006800070DD5FEF70DFB0546206854
:1023E000C069800206D4FEF706FB401BB0F1007FF7
:1023F000F5D310E020680068400729D5FEF7FBFA06
:1024000005462068C069400222D4FEF7F4FA401B5A
:10241000B0F1007FF5D32068016821F080010160F0
:102420002068016821F0200101602068016821F422
:10243000807101602068816849084900816001203D
:1024400084F86900002084F8680001B0032030BDE2
:10245000012084F86900002084F8680001B030BDD4
:1024600000B5DFF8A80287B0016841F00101016002
:10247000016801F0010100910099016841F001013A
:102480000160016801F0010100910099C16841F407
:102490000031C16001A9C06800F4003000900098CC
:1024A0000420019002200290012003900220049059
:1024B000072005904FF0904000F0D0F908200190DF
:1024C00001A9072005904FF0904000F0C7F907B030
:1024D00000BD2DE9F0470FF26C218D4C92B00CC974
:1024E0000BA80FF268210CC00CC909A80CC0FEF79C
:1024F0005DFA0020FFF7B8F800210020FFF7FBF895
:1025000001F0A0F9834820604FF41650606000206D
:10251000A060E0602061A0610C2060612046FFF7B0
:10252000DDFC30B10020FFF7DCF86420FEF766FA2E
:10253000F8E700F0B4FBFFF7A3FA00F0CCFB06A924
:1025400004A801F0D7F900F0C6FBBDF818209DF8EB
:1025500010100FF20020FFF76FF89DF810003128DF
:10256000A4BF012084F8700094F87100002807BF10
:1025700006220BA9062209A907A8FFF780FC07AAD3
:102580000621002001F0E1F920B101460FF2D81038
:10259000FFF752F8FEF7AAFE18B10FF2EC10FFF7A2
:1025A0004BF894F8711094F87000012913D10128A8
:1025B0000AD10DF1120001900DF1160305A800904B
:1025C00007220021012012E00DF1120305AA0DF1EE
:1025D0001601012014E001280CD10DF11200019028
:1025E0000DF1160305A80090072200210420FFF733
:1025F000E4F807E00DF1120305AA0DF1160103201E
:10260000FFF715F918B10FF29410FFF715F8012034
:1026100003900723404802900022002001900021EF
:10262000102000900120FFF79BF918B90FF28010DD
:10263000FFF702F894F8710001280CD10FF288100E
:10264000FEF7FAFFFEF754FA002814BF0FF2B81095
:102650000FF2941001E00FF2D010FEF7EDFF04210D
:10266000012001F0A3F90FF2E0152C4EDFF8B09035
:10267000DFF8B0802C4FDFF8B4A02FE0386820B12D
:1026800099F8000008B9FEF7F6FA386800281CBF70
:1026900098F80000002808D099F8000028B1307898
:1026A00018B9FFF713F8FEF780FB0020FFF76DF86D
:1026B000A0B90020FFF769F80028FAD03868002890
:1026C0001CBF3078002809D0B5E80E500DA8143D85
:1026D000A0E80E5014210DA8FEF7EAFAFFF7F5F96D
:1026E0009AF8000020B1FEF757FA00208AF800009F
:1026F00094F871000028D8D138680028BED098F826
:1027000000000028BAD1FEF79AFABEE74C1002404A
:10271000880900200044004040E201000100002040
:10272000050000200400002014000020000000200C
:1027300000B581B00020FEF7D4FF6420FEF75EF9FB
:10274000F8E70000BB0000E180020000AA0000E101
:102750008002000048577665722025642C20465779
:102760007665722025640A0053657474696E67206B
:1027700042445F41444452206661696C6564203084
:1027800078253032782E0A00474154545F496E69EB
:1027900074206661696C65642E0A00004741505FD1
:1027A000496E6974206661696C65642E0A000000D8
:1027B000424C4520537461636B20496E69746961B2
:1027C0006C697A65642E0A005345525645523A2088
:1027D000424C4520537461636B20496E6974696192
:1027E0006C697A65640A00005365727669636520D6
:1027F0006164646564207375636365737366756C87
:102800006C792E0A000000004572726F72207768A2
:10281000696C6520616464696E67207365727669AE
:1028200063652E0A00000000434C49454E543A208F
:10283000424C4520537461636B20496E6974696131
:102840006C697A65640A00003031323334353637CA
:1028500038394142434445464748494A2DE9F04FFB
:1028600081B00C68764BDFF8DC81DFF8DC91002268
:10287000002C4FF00F0A4FF0010B00F0C1800C68E4
:102880000BFA02FC1CEA040E00F0B5804C68022C26
:1028900018BF122C0ED1D40800EB840402F00705F7
:1028A000266AAD000AFA05F7BE430F6907FA05F577
:1028B000354325625400032506680F79A540ED4392
:1028C00007F003072E40A7403E4306604E68012EE6
:1028D00018BF022E03D0112E18BF122E0ED18668FB
:1028E000CF682E40A7403E43866046684F68C7F3D6
:1028F000001726EA0C0697403E4346604E6806F0F5
:102900000307032F07D1C76AC6F3C00627EA0C07DF
:1029100096403E43C662D0F80CC005EA0C0C8D68A8
:1029200005FA04F444EA0C04C4604C68E40062D57F
:10293000D9F8004044F00104C9F800404FEA920C75
:10294000D9F8005005F001040094009C58F82C5070
:1029500002F00304A400B543B0F1904F08BF002675
:102960001DD03A4EB04208BF012618D0384EB042B2
:1029700008BF022613D0374EB04208BF03260ED040
:10298000354EB04208BF042609D0344EB04208BFCD
:10299000052604D0324EB0420CBF0626072606FAA2
:1029A00004F42C4348F82C406FEA0E0C1C684D6868
:1029B0000CEA0404ED0348BF4EEA04041C605C68A2
:1029C0004D680CEA0404AD0348BF4EEA04045C60A1
:1029D0009C684D680CEA0404ED0248BF4EEA04040A
:1029E0009C60DC680CEA040C4C68A40248BF4EEA08
:1029F0000C0CC3F80CC0521C0C68D4407FF43FAFE1
:102A000001B0BDE8F08F000000690840401E804121
:102A1000C043C00F7047002A14BF816181627047B4
:102A200042695140416170470E4A1368034200D128
:102A3000704700B581B0106000F0DCFF01B000BD50
:102A400000040140080001406010024000040048FA
:102A500000080048000C004800100048001400481E
:102A60000018004814040140006040607047EFF314
:102A7000108172B6026882420CBF0120002081F3EF
:102A800010887047EFF3108272B603680B604860DD
:102A900001600868416082F310887047EFF310828C
:102AA00072B6086043684B6041604868016082F319
:102AB0001088704730B4EFF3108272B603680B6071
:102AC000EFF31083006872B6456804682C604468B0
:102AD0000068446083F3108800200B681860096860
:102AE000486082F3108830BC704700000068DFF84F
:102AF0008C13884200D0704700B5DFF8840387B09C
:102B0000016841F001010160016801F001010091DB
:102B10000099016841F002010160016801F00201C1
:102B200000910099016841F001010160016801F024
:102B3000010100910099016841F001010160016803
:102B400001F0010100910099016841F0010101606B
:102B5000016801F0010100910099016841F0010153
:102B60000160016801F0010100910099416941F49F
:102B70008051416101A9406900F4805000900098A3
:102B80004FF4807001900120029003900020049087
:102B900005904FF09040FFF761FE00224FF48071E6
:102BA0004FF09040FFF737FF0820019001A9022065
:102BB000029003900320049005200590DFF8C402E2
:102BC000FFF74CFE4020019001A902200290002056
:102BD000039003200490052005904FF09040FFF7EC
:102BE0003DFE8020019001A9022002900020039068
:102BF00003200490052005904FF09040FFF72EFE33
:102C00000220019001A9012002900390032004906A
:102C1000002005904FF09040FFF720FE0122022196
:102C20004FF09040FFF7F7FE0120019001A9964870
:102C300002900020039003200490002005904FF0A4
:102C40009040FFF70BFE002203210620FDF7F5FE62
:102C50000620FDF71BFF07B000BD2DE9F04104463B
:102C60008A48DFF82C8284B00D4600680A21B0FB48
:102C7000F1F116461F4601A8FFF7EEF8F8B20090F2
:102C8000F3B22A462146404600F09AF820B101A846
:102C9000FFF7E9F80028F1D004B0BDE8F0817C48E6
:102CA000764901604FF482714160002181604FF4E8
:102CB000E061C1600021016141614FF400718161F7
:102CC0000021016241620721C1620821C161002126
:102CD000816200F091BE00B581B000224FF4807196
:102CE0004FF09040FFF797FE0520FDF787FE012289
:102CF0004FF480714FF09040FFF78DFE01B05DF80A
:102D000004EB0520FDF77ABE00B581B001214FF03C
:102D10009040FFF779FE012818BF002001B000BDE8
:102D20002DE9F04186B005460E46FF2090468DF80D
:102D3000050004A80FF260110CC90CC0002202218A
:102D40004FF09040FFF767FE0F200090052302AA86
:102D500004A9284600F0ADFE9DF8080000240228D2
:102D60001BD19DF80C009DF80B1051EA002714D0E0
:102D7000B845B8BF4746012F0FDB0F200090012355
:102D800001AA0DF10501284600F093FE9DF804000C
:102D9000A055641CE4B2BC42EFDB012202214FF0DB
:102DA0009040FFF738FE002002E000BF0098401C72
:102DB000009000980228F8DB204606B0BDE8F081BC
:102DC0002DE9F043884691461E460FF2D401C5B066
:102DD00005460CC903A80FF2D0010CC00CC901A80C
:102DE00000270CC00620FDF75AFE002202214FF0FA
:102DF0009040FFF710FE0F200090052301AA03A9C1
:102E0000284600F056FE9DF8040002281CD14C9C78
:102E10009DF8050054FA86F1884212DB3EB10F207E
:102E20000090334605AA4146284600F042FE6CB1A8
:102E30000F200090234605AA4946284600F039FE97
:102E400004E06FF0010701E04FF0FF37012202219B
:102E50004FF09040FFF7DFFD0620FDF717FE3846E4
:102E600045B0BDE8F0830620FDF710BE0620FDF753
:102E700016BE08490120086070470000003001407C
:102E80004C100240000400480000111014430008D8
:102E9000FC090020140401400B00000000000000A9
:102EA0000A00000000000000AA000000000000006E
:102EB00062B38B0708D0521E11F8013B00F8013BAA
:102EC00000F024808B07F6D1830740F0208000BFFC
:102ED000103A07D330B4B1E83810103AA0E83810EF
:102EE000F9D230BC530724BFB1E80810A0E808109D
:102EF00044BF51F8043B40F8043BD20724BF31F8EB
:102F0000022B20F8022B44BF0B7803707047083A5D
:102F100007D3B1E80810083A40F8043B40F804CB66
:102F2000F7D25307E4E7000062F30F2262F31F4277
:102F3000401810F0030308D0C91A1FD3DB0748BF9D
:102F400000F8012D28BF20F8022D130030B41446DC
:102F50001546103928BF20E93C00FAD8490728BF98
:102F600020E90C0048BF40F8042D890028BF20F854
:102F7000022D48BF00F8012D30BC7047C91818BF9A
:102F800000F8012DCB0728BF00F8012D7047000085
:102F90002DE9F04F80460FF2A47095B015461E46FD
:102FA000D0E90023CDE9132303AF00200391B861DA
:102FB0000DF1340900E065190020ADF8020013ABF3
:102FC0004FF0FF3229460DF1020000F030FF0446B9
:102FD000012C04DA2878441EA441E443E40FBDF830
:102FE000020025280CBFA4F1010BA346BBF1010F81
:102FF0000EDBAA461AF8011B0398C047002803906D
:1030000000F0DA80B869401CBBF1010BB861F1D166
:10301000BDF80200252804D10020F86038617861ED
:1030200005E00028C7D1B86906E340F0010015F8B3
:10303000011F2029F9D023290DD02B2904D02D29B7
:1030400006D030290AD00CE040F0020080B2EEE752
:1030500040F00400FAE740F00800F7E740F0100005
:10306000F4E72A290ED13168316051F8042B316020
:10307000002A3A6204D5514240F00400396280B21D
:103080006D1C13E0002139620BE0396A6FF00043D8
:10309000994205D001EB810302EB430130393962DB
:1030A0006D1C2A78A2F130010A29EED329782E2945
:1030B00003D04FF0FF31F9611FE015F8011F2A29F5
:1030C00007D1316831606D1C51F8042B3160FA6111
:1030D00013E00021F9610BE0F9696FF000439942B8
:1030E00005D001EB810302EB43013039F9616D1C1E
:1030F0002A78A2F130010A29EED3B8840FF2446095
:10310000297800F0A5FE08B115F8010B8DF8320002
:103110009DF83200682804BF2878682803D162200F
:103120008DF832006D1C0DA8B86015F8014B252CE8
:1031300013D0582C4BD0632C00F0A380642C18BF04
:10314000692C7CD06F2C42D0702C36D0732C0AD0D6
:10315000752C18BF782C3AD0B6E00120F8602520F5
:103160008DF83400BAE09DF832006C283068306089
:1031700018D050F8044B30607C60D7F81CA0BAF12E
:10318000000F04D5204600F06FFE824607E052464D
:103190000021204600F084FE08B1A0EB040AC7F825
:1031A00010A09BE050F8042B306002A9404600F0CC
:1031B0002DF9002840F192803CE23068306050F8F0
:1031C000041B306002910DA87860782155E09DF8CD
:1031D00032006C280DD0712818BF6A2809D13068D8
:1031E000C01D20F007023260D2E9000108323260CF
:1031F00004E03168316051F8040B316002909DF8B1
:103200003200682802D102A8008803E0622802D1B7
:1032100002A80078029097F82400000728D50298A9
:1032200030B344F02000782822D1F868302100F82B
:103230000910401C411CF96000F8094018E09DF895
:103240003200314600F0BCF80028029002D5F86840
:103250002D2109E0B88C810702D5F8682B2103E005
:10326000C00705D5F868202100F80910401CF86057
:103270000DA8F96808187860214602A800F0DFF967
:103280002CE09DF832006C2809D00120F8603068ED
:10329000306050F8041B30608DF834101EE0306848
:1032A000306001AA50F8041B3060ADF80410002013
:1032B000ADF8060002A94FF0FF30F861404600F07B
:1032C000A5F800280AD577E70120F86025208DF8B9
:1032D00034001CB10220F86089F80140386AF968AE
:1032E000401A7969401A3969441A97F8240040074E
:1032F00011D42020012C8DF800000CDBA246012304
:103300006A4602A9404600F001FA00287FF454AF53
:10331000BAF1010AF3D1D7F80CB0BBF1000F0DF1EF
:10332000340A0DD01AF8011B0398C04700280390F7
:103330003FF442AFB869401CBBF1010BB861F1D159
:10334000D7F814A03020BAF1010F8DF800000BDB84
:1033500001236A4602A9404600F0D8F900287FF40C
:103360002BAFBAF1010AF3D1D7F810B0D7F804A007
:10337000BBF1000F0DD01AF8011B0398C0470028BD
:1033800003903FF419AFB869401CBBF1010BB86161
:10339000F1D197F8240040077FF50EAE2020012CD4
:1033A0008DF80000FFF608AE01236A4602A94046E8
:1033B00000F0ACF900287FF4FFAE641EF4D1FBE509
:1033C000622815D068280CD06C2818BF742816D035
:1033D0007A2814D10A680A6052F8040B0A600021A6
:1033E00070470A680A6052F8040B0A6000B20BE0EA
:1033F0000A680A6052F8040B0A6040B204E00A68E6
:103400000A6052F8040B0A60C11770472DE9F44FA7
:103410000D4694B02F6A002F804648BF6FF00047DA
:1034200000F06AFD696A401801900FF22030D0E97F
:103430000023CDE9022395F82800400702D4019823
:10344000412805D240200DF110090190002606E028
:1034500000F058FD5FEA0009F8D1EBE03F1B012FB7
:10346000C0F294801498018802AA0DF1010000F0C6
:10347000A1FD0028044600F19C801498008810B932
:10348000641E00F19680A742C0F2808028690199ED
:103490002218914268D26E624042A969401A696955
:1034A000461A95F82800400710D42020012E8DF8E8
:1034B00000000BDBB24601236A462946404600F075
:1034C00025F9002875D1BAF1010AF4D1D5F810B068
:1034D000BBF1000FCA460CD01AF8011B6868C04740
:1034E0000028686065D0E869401CBBF1010BE86109
:1034F000F2D130208DF80000D5F818A0BAF1010FF4
:103500000ADB01236A462946404600F0FFF80028FE
:103510004FD1BAF1010AF4D1D5F814B0D5F808A00A
:10352000BBF1000F0CD01AF8011B6868C0470028D7
:1035300068603ED0E869401CBBF1010BE861F2D144
:1035400095F8280040070DD52020012E8DF80000A9
:1035500008DB01236A462946404600F0D7F840BB05
:10356000761EF6D100262E61224628690DF1010152
:103570004844FFF79DFC2869201828611498801C96
:103580001490801E008800287FF468AF686A29695B
:10359000401AA969401A6969471A95F82800400736
:1035A0000FD4012F0DDB3C4668682021C0476860BE
:1035B00010B94FF0FF3635E0E869401C641EE86141
:1035C000F2D12B694A462946404600F09FF8002870
:1035D000EFD1AC69012C0ADB68683021C0470028B4
:1035E0006860E6D0E869401C641EE861F4D16B694C
:1035F000AA682946404600F089F80028D9D195F8F4
:10360000280040070CD5012F0ADB68682021C0473D
:1036100000286860CDD0E869401C7F1EE861F4D1C5
:103620002E616E6204A881451CBF484600F0D0FCA4
:10363000304601E04FF0FF3015B0BDE8F08FF0B438
:10364000C2686F2908BF082405D041F02003782BF9
:1036500014BF0A24102418230668642918BF692996
:10366000374602D1002E48BF7F425FB9056A4DB987
:10367000082C27D190F82810090723D530211723CB
:10368000D1751FE0B7FBF4F604FB16773037FFB2B5
:103690005D1E3A2FA4BFA1F1510C6744AF542B46D5
:1036A000370003D085689E18B542EBD3082C09D1AA
:1036B00090F82810090705D5995C302902D05B1EC7
:1036C000302199549A188260C3F11801026A41614D
:1036D000914208DA511A81614FF6EF72018D114063
:1036E0000185F0BC7047002A0ED590F8282002F022
:1036F0001402102A08D1426A0369D21A8369D21AC5
:10370000531A012BA8BF8361F0BC7047F8B504467B
:103710000D4616461F46002077B116F8011B686853
:10372000A047686030B1E869401CE86100207F1E56
:10373000F3D1F2BD4FF0FF30F2BD000000000000F9
:1037400000000000686C747A4C000000000000006B
:10375000000000001B4213D1094236D12AB1844631
:10376000B0FBF2F002FB10C2704700F071BCFCD35A
:103770000022002370470B00020000210020704748
:10378000904271EB030CF6D370B5B1FA81F4B3FA41
:1037900083F52C1BA340C4F1200532FA05F6334310
:1037A000A2405FF00046E64002E05B085FEA3202BA
:1037B000841A71EB030524BF204629467641F4D3D1
:1037C00002000B003000002170BD012ACFD970B576
:1037D000140C20D0B1FA81F4B2FA82F5C4F12004BD
:1037E0006419B4F12006D6D3B2405FF00044F4402F
:1037F000002502E052085FEA3303C61A71EB020E9D
:1038000024BF3046714664416D41F3D302000B0082
:103810002000290070BD0C46B1FBF2F102FB1145FE
:103820002D0445EA1045B5FBF2F402FB145580B2B5
:1038300040EA0545B5FBF2F002FB105240EA0440B5
:1038400070BD000000B595B068460021002200233D
:103850000EC006C00FF25C0191EC100B80EC100B57
:10386000102005900C9201200B9060200D900220FA
:103870000E9001200F90109028201190022014909B
:10388000072012900420139005A8FCF77DFC00B1DE
:10389000FEE70F20009004210320019000200290F9
:1038A000039004906846FCF741FF00B1FEE715B0B5
:1038B00000BD00000000000000000000000000004B
:1038C00000000000000000000000000000000000F8
:1038D00000000000000000000000000000000000E8
:1038E00000000000000000000000000000000000D8
:1038F0000000000070B584B0064601A800900C4698
:103900000DF10A0302AA0DF106010DF10900FEF7FF
:103910002EFAC5B2A5B9BDF80600000A3070BDF890
:10392000060000022080BDF804100906090F40EAD5
:1039300001102080BDF8041001F00F010843208021
:10394000FEF7C3F8284604B070BD10B50C4611460A
:10395000A21CA8B0812AA8BF422025DA8DF81C003D
:103960008DF81D4022460DF11E00FEF788FA182240
:10397000002101A8FEF789FA3F20ADF80400CDF838
:1039800014D00C20ADF80600002107A80390A01C5D
:10399000C0B204900120069001A8FEF712F9002899
:1039A0004CBFFF209DF8000028B010BD00B589B0C5
:1039B0008DF804008DF805101822002102A8FEF7EA
:1039C00064FA3F20ADF80800CDF818D00F20ADF80C
:1039D0000A00002101A80490022005900120079010
:1039E00002A8FEF7EEF800284CBFFF209DF800006B
:1039F00009B000BDFEF7A4B830B581B0040008BF1F
:103A0000012054D094F85D0020B984F85C00204671
:103A1000FFF76CF8022084F85D0040F20173206823
:103A2000016821F040010160E2689A4204D300215C
:103A3000B2F5706F05D106E0B2F5E06F4FF480513A
:103A400001D00025A562256B25B99A422CBF022220
:103A5000012222636268A3681A4323691A436369D7
:103A60001A43A36903F400731A43E3691A43236AF0
:103A70001A43A36A1A430260226B022A03D1026826
:103A800042F400620260A269636A120C02F004024E
:103A90001A43636B1A43E3681A4311434160E16AB6
:103AA000016100202066012084F85D00002001B043
:103AB00030BD2DE9F04381B004460F46904699464B
:103AC000FCF799FF064694F85C000025012808BF22
:103AD000022000F0A981012084F85C0094F85D00C8
:103AE000012818BF022540F09881002F1CBFB8F1B3
:103AF000000FB9F1000F00F08F81052084F85D0000
:103B00002566C4F84080A4F84690A4F84490A763C2
:103B1000A4F83E90A4F83C90A06AB0F5005F09D1EB
:103B2000206801684DF6FF7211400160016841F4A0
:103B30000051016040F20171E068884203D2B4F89C
:103B40004600022804DB2068426822F4805203E029
:103B50002068426842F4805242602068026852063F
:103B600003D4026842F040020260E068089F884285
:103B700079D3E18F002945D1B4F84600002857D108
:103B8000A06AB0F5005F40F0E980FCF734FF06461C
:103B900020688168C90700F1BB8017F1010FF7D0D9
:103BA00027B1FCF728FF801BB842F1D32068416899
:103BB00021F0E00141606168B1F5827F0AD1A1681E
:103BC000B1F5004F18BFB1F5806F03D1016821F046
:103BD00040010160A16AB1F5005F08D101684DF6AE
:103BE000FF7211400160016841F400510160012041
:103BF00084F85D0084F85C500325206E40F00200DC
:103C000020660AE120688268920711D5A26B32F81B
:103C1000023BC360491EE187A26389B2002904BF49
:103C2000A16AB1F5005F03D1016841F480510160E0
:103C3000B4F8460068B120688168C90709D5216CCD
:103C4000C0680880881C2064B4F84600401EA4F8B0
:103C5000460017F1010F8CD0FCF7CDFE801BB84257
:103C600087D30325D9E0E18F19B9B4F8460008BB22
:103C700086E72068826892071CD5022906DBA26BC2
:103C800032F8023BC360A263891E07E0A16B491CA6
:103C9000A163491E09780173E18F491EE187E18F15
:103CA000002904BFA16AB1F5005F03D1016841F4A6
:103CB00080510160B4F8461001B320688268D207D1
:103CC0001CD5226C022910DBC1681180911C216473
:103CD000B4F84610891EA4F8461089B202290DDAFC
:103CE000416841F48051416008E0511C2164007B2F
:103CF0001070B4F84600401EA4F8460017F1010FFA
:103D0000B1D0FCF778FE801BB842ACD3032584E029
:103D1000E168B1F5706F08BFC0681BD0007BADF8DB
:103D20000000BDF80000206B022817D1FCF763FEED
:103D3000064620688168C9070BD417F1010FF8D037
:103D4000002F3FF433AFFCF756FE801BB842F0D390
:103D50002CE7007BADF80000BDF80000206881680A
:103D6000C90607D5216E41F00201216601254FF6F3
:103D7000EF718160FCF73FFE06462068806810F412
:103D8000C05F09D017F1010FF7D0AFB1FCF733FED8
:103D9000801BB842F1D30FE0FCF72DFE06462068E9
:103DA0008068000636D517F1010FF8D027B1FCF76F
:103DB00022FE801BB842F2D32068416821F0E00166
:103DC00041606168B1F5827F0AD1A168B1F5004F09
:103DD00018BFB1F5806F03D1016821F04001016087
:103DE000A16AB1F5005F08D101684DF6FF7211407C
:103DF0000160016841F400510160012084F85D0018
:103E0000002084F85C00206E40F020002066202016
:103E1000206601E0206E00B10125012084F85D00DC
:103E2000002084F85C00284601B0BDE8F083F8B5B6
:103E300004460D4616461F4600F00CF93B46324636
:103E40002946204601B0BDE8F04000F01AB9000054
:103E50000278C9B28A421AB11CBF10F8012FF9E7E3
:103E600018BF00207047000000F10103810704D053
:103E700010F8011B89B18107FAD10268B2F1013152
:103E8000914311F0803F04BF50F8042FF6E710F87B
:103E9000011B11B110F8011BFBE7C01A70470000AD
:103EA000C9B2830706D0521E22D310F8013B9942B3
:103EB000F7D11FE0083A13D302F1040241EA0121CD
:103EC00041EA014150F8043B121F21BF4B40A3F1CE
:103ED000013C2CEA030C1CF0803FF3D0C9B2001F58
:103EE000083210F8013B521E28BF91EA030FF8D8A0
:103EF00018BF0120401E704780B500F0ABF80120CC
:103F000002BD000070B5054605F10F00C408C046AB
:103F1000C046E400A54232D2082C04D2082402E0B4
:103F2000083000F055F82248026811000CD1011D3C
:103F30000A6802B31368A34238BF111DF8D310E01A
:103F40001D68A5420DD2191D0B68002BF8D112680F
:103F5000011D00E0191D0B6893420CD01D68A5429D
:103F6000F8D361B10D682A68A2F10803A3420AD20E
:103F70006A680A600FE000F0A7F80028D0D1C046B8
:103F8000C046002070BD63190B60121B6E685E6036
:103F90000B681A602C60096800291DBF4A68002A56
:103FA000091D00210160C046C04605F1080070BD32
:103FB000600A002070B504460D46164600F04AF827
:103FC000324629462046BDE8704000F04DB800005A
:103FD00000B9704738B5A0F108042068082833D329
:103FE00010F0070F30D1C046C0461848416809B1EB
:103FF0008C4203D26160446017E019464B680BB1F4
:10400000A342FAD30B685D18AC421BD3A54204D17E
:104010002268D2180A600C4607E04A681AB1236881
:104020001B199A420ED362604C60616851B12268DC
:1040300013198B4206D100230360086880182060A2
:1040400048686060C046C04631BD0000600A00207C
:104050007047000080B5DFF80C0000F04BF8806975
:1040600002BD00004400002030B430B90FF2480017
:10407000D0E90045C2E900451BE00170012030BCD9
:10408000704730B431B90FF23800D0E90045C3E9C8
:1040900000450EE01AB930BC6FF00100704708B15E
:1040A0000A7802800978481E804130BCC043C00FA6
:1040B0007047002030BC7047000000000000000086
:1040C00000000000000000000749086808B1002057
:1040D00070470648C008C00008600549C908C90003
:1040E000091A0160704700BF700A0020BF04002059
:1040F000B8060020704700000F48104BD0F8801021
:1041000041F47001C0F880100D490A6842F00102C4
:104110000A6000228A600A681A400A604FF48052DE
:10412000CA600A6822F480220A6000228A614FF085
:10413000006101607047000008ED00E0FFFFF6EA53
:104140000010024000000000000000000102030413
:1041500006070809A0860100400D0300801A06002A
:1041600000350C0040420F0080841E0000093D0015
:1041700000127A000024F40000366E010048E801C5
:10418000006CDC027047FEE770477047704700B56F
:1041900081B0FCF72BFC0A480168491C016001B0A2
:1041A00000BD0120FEF740BC00B581B04FF40050C7
:1041B000FEF73AFC03490120087001B000BD000081
:1041C0006C0A0020FA09002019E050F8041BCB0704
:1041D00044BFA9F101035918121F0023042A41F812
:1041E000043BF9D25FEA827C0B4604D54FF0000C09
:1041F000A1F800C09B1CD10744BF0021197050F8E2
:10420000042B002AE1D1704730B501684268846808
:10421000091801EB5203D20748BF4C440C309942B5
:1042200000D130BD11F9012B11F8015B002A04F80F
:10423000015B02D5521CF9D1F1E7521EF4D5EEE72D
:1042400010B5074979441831064C7C44163404E013
:104250000A68081D511888470146A142F8D110BDCF
:104260002C000000480000004EF68851CEF20001FC
:10427000086840F470000860BFF34F8FBFF36F8F82
:104280004FF00070E1EE100A704700003DFFFFFFA5
:10429000BC030000B8060020000000006DFFFFFF17
:1042A000C0010000220000000000002000F00BF818
:1042B000002801D0FFF7C4FF0020C046C046FEF72B
:1042C00008F900F002F80120704700F001B8000082
:1042D0000746384600F002F8FBE7000080B5C0460C
:1042E000C046024A11001820ABBEFBE726000200C0
:1042F0000148804701480047F94000080143000891
:10430000C046C046FFF7B0FFFFF7D0FF0000000037
:1043100001020304E8030000FFF7FEBFFFF7FEBF42
:10432000FFF7FEBFFFF7FEBFFFF7FEBFFFF7FEBFC1
:10433000FFF7FEBFFFF7FEBFFFF7FEBFFFF7FEBFB1
:10434000FFF7FEBFFFF7FEBFFFF7FEBFFFF7FEBFA1
:10435000FFF7FEBFFFF7FEBFFFF7FEBFFFF7FEBF91
:10436000FFF7FEBFFFF7FEBFFFF7FEBFFFF7FEBF81
:10437000FFF7FEBFFFF7FEBFFFF7FEBFFFF7FEBF71
:10438000FFF7FEBFFFF7FEBFFFF7FEBFFFF7FEBF61
:10439000FFF7FEBFFFF7FEBFFFF7FEBFFFF7FEBF51
:1043A000FFF7FEBFFFF7FEBFFFF7FEBFFFF7FEBF41
:1043B000FFF7FEBFFFF7FEBFFFF7FEBFFFF7FEBF31
:1043C000FFF7FEBFFFF7FEBFFFF7FEBFFFF7FEBF21
:1043D000FFF7FEBFFFF7FEBFFFF7FEBFFFF7FEBF11
:1043E000FFF7FEBFFFF7FEBFFFF7FEBFFFF7FEBF01
:1043F000FFF7FEBFFFF7FEBFFFF7FEBFFFF7FEBFF1
:10440000FFF7FEBFFFF7FEBFFFF7FEBFFFF7FEBFE0
:10441000FFF7FEBFFFF7FEBFFFF7FEBFFFF7FEBFD0
:10442000FFF7FEBFFFF7FEBFFFF7FEBFFFF7FEBFC0
:10443000FFF7FEBFFFF7FEBFFFF7FEBFFFF7FEBFB0
:10444000FFF7FEBFFFF7FEBFFFF7FEBFFFF7FEBFA0
:10445000FFF7FEBFFFF7FEBFFFF7FEBFFFF7FEBF90
:104460000001CE0007480008004800093D8B00000D
:01447000014A
:00000001FF
