:020000040800F2
:10000000B8040020453B0008213A0008233A0008C4
:10001000653B0008693B00086D3B000800000000DC
:10002000000000000000000000000000253A000869
:10003000273A000800000000293A00082B3A00087F
:10004000713B0008753B0008793B00087D3B0008C8
:10005000813B0008853B00083B3A0008893B0008CB
:100060008D3B0008913B0008953B0008993B000838
:100070009D3B0008A13B0008A53B0008A93B0008E8
:10008000AD3B0008B13B0008B53B00080000000094
:10009000000000000000000000000000B93B000864
:1000A000BD3B0008C13B0008C53B0008C93B000838
:1000B000CD3B0008D13B0008D53B0008D93B0008E8
:1000C000DD3B0008E13B0008E53B0008E93B000898
:1000D000ED3B0008F13B0008F53B00080000000084
:1000E000413A0008F93B0008FD3B00080000000011
:1000F000000000000000000000000000013C0008BB
:1001000000000000053C0008093C00080D3C000808
:1001100000000000000000000000000000000000DF
:10012000113C0008153C0008193C00081D3C000863
:10013000213C00080000000000000000000000005A
:10014000000000000000000000000000253C000846
:10015000293C00082D3C0008313C0008353C0008D3
:10016000393C00083D3C0008000000000000000091
:10017000000000000000000000000000000000007F
:1001800000000000413C00080000000000000000EA
:10019000453C000830B50FF2A85193B03CC90EA8F9
:1001A0000FF2AC513CC03CC90AA80FF2B4513CC09C
:1001B0003CC906A80EA93CC0DFF8704504F10C004C
:1001C000009007230122022000F00FFC78BB04F10D
:1001D0000E0005901423012004900AAA1020039019
:1001E000022100200290019010200090A08900F0D0
:1001F0003EFCE0B904F110000590142301200490A6
:1002000006AA1020039002210120029000200190F4
:100210000C200090A08900F02AFC40B9228AE189D4
:100220000FF24C5000F06AFD002013B030BD0FF209
:10023000805000F063FD472013B030BD30B5DFF8CB
:10024000F0048BB0007848BB0FF2885000F056FDE8
:100250000FF29C510CC907A80CC0002000F090FDC3
:100260004FF4FA60069005904FF480413C200490D2
:1002700007AB00200390002228200290019000206C
:100280000090084600F005FF48B30FF26C5000F0F4
:1002900035FD642000F044FF0BB030BD0FF27C51FF
:1002A0003CC907A800213CC0002001F0ECF80FF287
:1002B0007C5000F023FD00200690059004900390F0
:1002C000002307A8029000220D20019000210020A9
:1002D000009000F040FE014698A000F00FFD0BB02A
:1002E00030BD70B5DFF8444486B0A07898B90FF2FD
:1002F000585000F003FD0FF270516CC901A80121A4
:100300006CC001A800900223E0884FF6FF7200F055
:1003100045FC0120A07006B070BD70B5DFF80C443C
:1003200086B0E07898B90FF2505000F0E7FC0FF279
:1003300068516CC901A801216CC001A8009002237A
:10034000E0884FF6FF7200F029FC0120E07006B053
:1003500070BD0000F0B5DFF8D823DFF8D04389B0D6
:100360001278012A67D1DFF8CC231278002A5AD0FC
:100370000FF23451ECC903A8ECC0A0698DF81C0041
:10038000010A8DF81D10010C8DF81E10010E8DF85C
:100390001F1030B90FF2245000F0B0FC00F0BEFE88
:1003A000E061DFF89403006800EB8001490001A8D8
:1003B00001F09BF803A800901423E189A089002292
:1003C00000F0AEFB642804D101A801F096F80028E3
:1003D000F0D0A069401CA061CAD04FF4FA71B0FB04
:1003E000F1F14FF4FA7202FB11000028C0D100F0C5
:1003F00095FEE169401A00EE100AF8EE400A9FED02
:10040000CA1AC1EE200AFDEEE00A10EE903A10EE94
:10041000102A4FF4FA710FF2B04000F06FFC00F0B8
:100420007DFEE061A4E700900B46E189A08900F021
:1004300077FB09B0F0BD034660890A46411CE0889D
:1004400089B200F02AFC09B0F0BD10B50FF2B4403B
:10045000B64C84B00088ADF80000B748006800EBE7
:100460008001490001A801F040F82089811CE08842
:100470006B46022289B200F0D2FB462804D101A8C3
:1004800001F03BF80028F0D00120607004B010BDEE
:1004900070B50C46A54915460A8A521C90420CD1EB
:1004A000002000F083FC7CB163A615F8011B3046E8
:1004B00000F024FC641EF8D170BDCA89921C9042E1
:1004C00002BF28780128487070BD38B504469748A7
:1004D0000FF24C4501224261C1800FF22C4000F026
:1004E0000DFC6179284600F009FC2179284600F0CE
:1004F00005FCE178284600F001FCA178284600F0D0
:10050000FDFB6178284600F0F9FB21780FF21840D6
:10051000BDE8344000F0F2BB10B5844C00206061AF
:100520000FF20C4000F0EAFB012020700020607008
:10053000A070E0702071607110BD000025640A0099
:1005400070B50D467B4909780029144662D0784978
:10055000097800295ED1754D2989491C88426AD1E4
:10056000686A90B90FF2543000F0C8FB00F0D6FD75
:100570002862617C207C40EA0120A17C40EA0140A5
:10058000E17C40EA0160401EA862207C617C40EA78
:100590000120A17C40EA0140E17C40EA0160A96AB7
:1005A0004A1C904204D0EA6A8218511A491EE96234
:1005B000A862686A401C68623DD04FF4FA71B0FBD3
:1005C000F1F14FF4FA7202FB1100A0BB00F0A6FD9E
:1005D000296A401A00EE100AF8EE400A9FED521AFE
:1005E000C1EE200AFDEEE00A10EE903A10EE102A5D
:1005F0004FF4FA710FF2D02000F080FBE96A19B1D4
:100600000FF23C3000F07AFB00F088FD28620020F9
:10061000E86270BD45490989491C88420BD1002018
:1006200000F0C4FB3DB104A614F8011B304600F0F5
:1006300065FB6D1EF8D170BD25630000411C00787C
:10064000042800D0704710B50878052804D03E284B
:1006500005D0FF280ED010BDBDE810405CE7881C17
:10066000017801295ED1401CBDE81040B0F80110AE
:10067000401D2AE78C1C40F601412088401A06D014
:100680000E3814D0401E3CD0801E1AD010BD2B480E
:100690000078012803D1A01C831CC21D02E0A01C0D
:1006A000831C421DBDE8104099781888F0E6A01C14
:1006B000421D8178B0F80300BDE81040891EC9B220
:1006C0003EE71B48007868BB0FF2882000F016FB5D
:1006D000164A9178A01C39B1117929B9B0F80310E4
:1006E0000FF29C20118108E0D178D9B15179C9B9B4
:1006F000B0F803100FF2A0205181BDE8104000F0C7
:10070000FDBA0B48007868B9084A907820B1107992
:1007100010B90120107110BDD07818B1507908B906
:100720000120507110BD000000409C4700000020D7
:10073000B1000020340A0020603B0008B000002017
:10074000669A0C200008969EE2119EB1E0F273D9E1
:10075000669A0C200008969EE2119EB1E1F273D9D0
:10076000669A0C200008969EE2119EB1E2F273D9BF
:1007700053616D706C6520536572766963652061A5
:10078000646465642E0A545820436861722048618D
:100790006E646C6520253034582C205258204368F4
:1007A00061722048616E646C6520253034580A00FF
:1007B0004572726F72207768696C65206164646944
:1007C0006E672053616D706C652053657276696346
:1007D000652E0A00436C69656E742043726561740E
:1007E0006520436F6E6E656374696F6E0A0000006A
:1007F000AA0000E1800200004572726F72207768E3
:10080000696C65207374617274696E6720636F6EC2
:100810006E656374696F6E2E0A00000009426C7584
:10082000654E52475F4368617400000047656E651E
:1008300072616C20446973636F76657261626C6586
:10084000204D6F64652000005374617274207265DE
:100850006164696E67205458204368617220486162
:100860006E646C650A000000669A0C200008969E73
:10087000E2119EB1E1F273D9537461727420726512
:100880006164696E67205258204368617220486134
:100890006E646C650A000000669A0C200008969E43
:1008A000E2119EB1E2F273D930313233343536374A
:1008B0003839414243444546000000005465737492
:1008C0002073746172740A002564207061636B6523
:1008D00074732E20456C61707365642074696D6556
:1008E0003A202564206D732E204170702074687248
:1008F0006F7567687075743A202564206B62707339
:100900002E0A000001000000436F6E6E656374657F
:100910006420746F206465766963653A00000000A6
:10092000253032582D000000253032580A000000D2
:10093000446973636F6E6E65637465640A000000DA
:100940002564206C6F7374207061636B6574287309
:10095000290A00004556545F424C55455F474154B3
:10096000545F444953435F524541445F43484152B9
:100970005F42595F555549445F524553500A000044
:10098000545820436861722048616E646C6520256C
:100990003034580A00000000525820436861722029
:1009A00048616E646C6520253034580A00000000F0
:1009B00000B587B01822002101A800F0B0FD3F204B
:1009C000ADF80400CDF814D040F20110ADF80600E7
:1009D00000210120069001A800F057FC00284CBF20
:1009E000FF209DF8000007B000BD70B58CB0012855
:1009F0008DF81C0014460CBF022610261D463246F8
:100A00000DF11D0000F085FD701C07A9C0B2032286
:100A10004454441CE4B268466554002100F07FFD54
:100A20001822002101A800F07AFD3F20ADF8040053
:100A3000CDF814D04FF48170ADF80600002107A85E
:100A40000390601CC0B204900320069001A800F03F
:100A50001CFC002848BFFF2007D49DF8000020B9E7
:100A60001099BDF80100088000200CB070BDF1B5F0
:100A70008EB00D4616461F4602220EA907A800F0AA
:100A800048FD07AC012DA57031460CBF022510258D
:100A90002A460DF11F0000F03CFDE81CC0B2411CCD
:100AA0000755C9B214980855491C1598C9B20322B4
:100AB0000855491C1698C9B20855491C1798C9B25F
:100AC0004D1C0855EDB2189828550021684600F0D5
:100AD00026FD1822002101A800F021FD3F20ADF8DD
:100AE0000400CDF814D04FF48270ADF80600002158
:100AF00007A80390681CC0B204900320069001A8C8
:100B000000F0C3FB002848BFFF2007D49DF8000079
:100B100020B91999BDF80100088000200FB0F0BD80
:100B200033B51C46A01DA7B081281546A8BF42209A
:100B300032DA022227A907A800F0EBFC022228A93A
:100B40000DF11E0000F0E5FC2C998DF820508DF879
:100B5000214022460DF1220000F0DBFC182200218A
:100B600001A800F0DCFC3F20ADF80400CDF814D063
:100B70004FF48370ADF80600002107A80390A01D74
:100B8000C0B204900120069001A800F07EFB00286E
:100B90004CBFFF209DF8000029B030BD17B58DB0C7
:100BA0001C4602220DA907A800F0B3FC02220EA9E0
:100BB0000DF11E0000F0ADFC02220FA908A800F004
:100BC000A8FC8DF82240012C0CBF0224102412999D
:100BD00022460DF1230000F09CFC1822002101A800
:100BE00000F09DFC3F20ADF80400CDF814D04FF488
:100BF0008B70ADF80600002107A80390E01DC0B27D
:100C000004900F2002900120069001A800F03DFB07
:100C100000284CBFFF209DF8000010B010BD33B578
:100C20001446601DA7B081281D46A8BF422032DAB5
:100C3000022227A907A800F06CFC022228A90DF1C6
:100C40001E0000F066FC8DF82040224629460DF17A
:100C5000210000F05EFC1822002101A800F05FFCDA
:100C60003F20ADF80400CDF814D040F22110ADF8CB
:100C70000600002107A80390601DC0B204900F2059
:100C800002900120069001A800F0FFFA00284CBF56
:100C9000FF209DF8000029B030BD10B58EB0152A98
:100CA000144628BF422027D2ADF81C00ADF81E1014
:100CB0008DF8204019460DF1210000F02AFC182281
:100CC000002101A800F02BFC3F20ADF80400CDF876
:100CD00014D040F22310ADF80600002107A80390BD
:100CE000601D04900120069001A800F0CEFA0028B3
:100CF0004CBFFF209DF800000EB010BD0EB400B533
:100D0000A0B0024621AB8021684600F01FFC82B2F1
:100D10004FF496736946044800F064FC08B100F093
:100D200041FF20B05DF810FBE009002070B586B0EF
:100D3000044600200090DFF82461DFF824010168F8
:100D400041F00101016001A9006800F0010000907C
:100D500000980FF2181030F81450019501200290FD
:100D6000002003900220049056F8240000F0AEFF0B
:100D700056F824000022294601F07AF806B070BD2A
:100D80000FF2E801DFF8D43031F8101053F82000EA
:100D9000012201F06DB80FF2D401DFF8C03031F854
:100DA000101053F82000002201F062B80FF2BC01CD
:100DB000DFF8A82031F8101052F8200001F05CB8DC
:100DC00030B587B00446002000900D46DFF8900053
:100DD000016841F004010160006800F00400009027
:100DE000009885B90FF2880030F81400019001A92D
:100DF00000200290022003900490DFF8680050F871
:100E0000240000F063FF012D1BD10FF2640030F8C5
:100E10001400019001A900200390DFF84C0002901B
:100E2000DFF8400050F8240000F050FF0FF24400BB
:100E3000245C00220F2160B201F04BF860B201F097
:100E400071F807B030BD0FF22801DFF8182031F833
:100E5000101052F8200001F004B80000300000200B
:100E60003038024034000020000021102000000033
:100E700000200000280010B58AB08DF800008DF821
:100E800001108DF802201C460722002101A800F065
:100E900046FB1822002103A800F041FB3F20ADF8DB
:100EA0000C00CDF814D08A20ADF80E0000210320EC
:100EB000069001A807900720089003A800F0E5F924
:100EC000002848BFFF200ED49DF8040058B9BDF893
:100ED000050020800C99BDF8070008800D99BDF829
:100EE0000900088000200AB010BD70B58AB00C4619
:100EF0008DF8080015461E4607220021684600F0BE
:100F00000EFB1822002103A800F009FB3F20ADF8DA
:100F10000C00CDF81CD08A20ADF80E00002102A8EC
:100F20000590012006900720089003A800F0ADF975
:100F3000002848BFFF200CD49DF8000048B9BDF838
:100F400001002080BDF803002880BDF80500308036
:100F500000200AB070BD76B592B0199D1B9C54FA62
:100F600085F10E3129291E4628BF422054D28DF822
:100F70001C00022212A90DF11D0000F0CAFA022283
:100F800013A90DF11F0000F0C4FA9DF860001A9932
:100F90008DF822008DF821608DF823502A4609A88B
:100FA00000F0B7FA05F10800C0B207A9451C445487
:100FB000EDB21C9907A82246281800F0AAFA641975
:100FC000E4B207A802221DA9201800F0A2FAA41C6E
:100FD000E4B207A802221EA9201800F09AFA1822EB
:100FE000002101A800F09BFA3F20ADF80400CDF8E5
:100FF00014D08320ADF80600002107A80390A01CA0
:10100000C0B204900120069001A800F03EF900282B
:101010004CBFFF209DF8000014B070BD30B58FB0FC
:101020008DF81C008DF81D1014461D461022214617
:101030000DF11E0000F06DFA129814998DF82F0032
:101040008DF82E50182213988DF830000DF13100D4
:101050000160002115988DF8350001A800F05FFAB5
:101060003F20ADF80400CDF814D08620ADF806007E
:10107000002107A803901A2004900120069001A8DF
:1010800000F003F900284CBFFF209DF800000FB0CE
:1010900030BD00B58DB0ADF80400ADF806108DF888
:1010A0000820194606220DF1090000F032FA0E98C8
:1010B0008DF80F0018220F98ADF810000021BDF830
:1010C0004000ADF81200BDF84400ADF814001298CD
:1010D000ADF816001398ADF818001498ADF81A0082
:1010E00007A800F01CFA3F20ADF81C00CDF82CD06A
:1010F0009C20ADF81E00002101A8099018200A903C
:101100000F20089001200C9007A800F0BEF80028DE
:101110004CBFFF209DF800000DB000BD00F062BF85
:1011200000F063BF10B5B64C201D00F071FF04F154
:101130000C0000F06DFF04F11401201D00F07EFF93
:1011400004F1A001201D00F079FF04F59671201D27
:1011500000F074FF04F5DC71201D00F06FFF04F552
:101160001171201DBDE8104000F068BF10B5A2B09D
:101170000020009001F04EF9A14C10E0694604F106
:101180000C0000F068FF01F042F900980830FFF70A
:1011900055FA01F03FF90099201D00F04FFF04F1CE
:1011A0000C0000F038FF0028E8D0207850B90EE09D
:1011B000802201A9934801F088F8C0B210B101A8BB
:1011C000FFF73CFA01F078F80028F1D1207001F027
:1011D0001EF922B010BD38B50020009001F01DF9B5
:1011E000884C874D05E00099281D00F01DFF01F097
:1011F00014F901F061F850B3281D00F00CFF10BB8A
:101200006946281D00F027FF009800F108018022A0
:10121000204601F05AF8C0B20028E4D0009981F8C5
:101220008800009800F108010A78042A01BF897833
:1012300090F88800C01E8142D5D1009905F10C00BC
:1012400000F0FCFED3E70120287001F0E6F831BD84
:1012500030B5890583B0890D41EA8020ADF80400DE
:10126000144601208DF800001D468DF8064003222B
:1012700001A90DF1010000F04CF923460422294692
:10128000684600F0C8FF03B030BDF0B5044687B033
:1012900060880E4680052188800D40EA81255B48E4
:1012A00000680A21B0FBF1F700200090ADB202A85F
:1012B00000F0AEFEE068A3686188C2B22088FFF744
:1012C000C7FF002E5AD107B90127394605A800F0FB
:1012D0000CF94B4E05E0009902A800F0AFFE01F0BA
:1012E00096F805A800F009F9002869D106F10C006C
:1012F00000F091FE0028F4D101F08CF8694606F167
:101300000C0000F0A8FE009800F1080210780428F4
:10131000E1D10098527800F10B0190F88800C01ECE
:101320000E2A31D00F2A04D0102A49D03E2A32D0BA
:1013300008E04A88AA4243D162680F2A15D008788B
:1013400000283DD1009902A800F078FE301D00F081
:1013500062FE0028C3D001A906F10C0000F07BFE5C
:101360000199301D00F06AFEB9E762699042C8BF7A
:10137000104660610246206900F0CBF8204E0099CB
:10138000301D00F051FE2FE0B1F80120AA4217D124
:10139000C91CC01EE9E70A7863689A42D2D1626923
:1013A000401E9042C8BF104660610246491CE2E7F9
:1013B00001A902A800F04FFE0199134800F03EFE7B
:1013C00002A800F028FE0028F2D001F020F84FF02B
:1013D000FF3007B0F0BD04A902A800F03CFE04995C
:1013E00006F10C0000F02AFE02A800F014FE00280E
:1013F000F1D001F00CF8002007B0F0BD00000000B3
:10140000B806002088090020C4060020603B0008C0
:10141000F0B589B004460D4616461F460922002144
:10142000684600F07CF81822002103A800F077F845
:101430000420ADF80C00CDF81CD00120ADF80E0052
:1014400000210020059006900920089003A8FFF7CE
:101450001CFF002848BFFF2013D49DF8000080B96E
:101460009DF801002070BDF8020028809DF804005E
:101470003070BDF8050038800E99BDF8070008806F
:10148000002009B0F0BD30B58FB004460D462022D3
:10149000002107A800F043F88DF81C40202CA8BFBD
:1014A0001F24224629460DF11D0000F032F81822B3
:1014B000002101A800F033F80820ADF80400CDF8B1
:1014C00014D00920ADF80600002107A803902020C1
:1014D00004900120069001A8FFF7D7FE00284CBF1A
:1014E000FF209DF800000FB030BD10B504466160CC
:1014F000FFE7FFF713FE206010BD10B50446FFF7AD
:101500000DFE22686168801A401C81428041C00F34
:1015100010BD10B5044600F0A1FF204610BD10B567
:10152000044610460A460146204600F0D3FF2046F6
:1015300010BD8268521C8260426832B10268531C3E
:10154000036011704168491E4160704708B584B05E
:101550000023029311B90093019302E00090481E0A
:10156000019004AB694607487844183000F0E6FF64
:10157000009911B1009A00211170002858BF0298FB
:1015800005B000BDAFFFFFFF38B5050001D1012058
:1015900032BD05F13804607818B92070284600F093
:1015A00097F9242060702868C16821F40051C16057
:1015B000284600F096F82868016921F490410161FD
:1015C0002868416921F02A01FFE741612868C16864
:1015D00041F40051C1600020606020206070A07064
:1015E000002032BD2DE9F843044604F138070D46CA
:1015F0007878202891461E466DD1002D14BFB9F190
:10160000000F012068D03878012864D0012038709C
:10161000002078602120787000F0E4FC8046A4F877
:101620002490A4F8269002E015F8011B4160E08C9C
:1016300068B3401EE084A068B0F5805F18D12068D0
:10164000016809060AD416F1010FF8D06EB300F054
:10165000C9FCA0EB08008642F1D226E02988C90522
:10166000C90D41602069002814BF6D1CAD1CDEE768
:10167000206801680906D7D416F1010FF8D0A6B189
:1016800000F0B0FCA0EB08008642F1D20DE020682B
:101690000068400619D416F1010FF8D02EB100F001
:1016A000A1FCA0EB08008642F1D22068C16821F4B9
:1016B000D071C1602068416949084900416120201A
:1016C0007870B8700020387008E020207870002012
:1016D0003870BDE8F2830220BDE8F2830320BDE844
:1016E000F2832DE9F041044620680169E26821F4A3
:1016F000405111430161734AC1681140A26811430E
:101700002269114362691143E2691143C160416971
:10171000A26921F4407111434161E2696A49B2F55D
:10172000004F7CD188421CBF684988423BD101F000
:10173000E0FC054601F0DDFC064601F0DAFC074658
:1017400001F0D7FC804601F0D4FC616819225743B0
:1017500056434B00B7FBF3F7B6FBF3F65543642152
:10176000B7FBF1F701FB1766F6003236B6FBF1F670
:10177000B5FBF3F506F0F806B5FBF1F5760006EBE0
:101780000515504302FB08F6B0FBF3F0B6FBF3F689
:10179000B0FBF1F001FB1060C0003230B0FBF1F0A3
:1017A00000F0070089E001F09BFC054601F098FC81
:1017B000064601F095FC074601F092FC804601F0D8
:1017C0008FFC61681922574356434B00B7FBF3F770
:1017D000B6FBF3F655436421B7FBF1F701FB17663F
:1017E000F6003236B6FBF1F6B5FBF3F506F0F80677
:1017F000B5FBF1F5760006EB0515504302FB08F644
:10180000B0FBF3F0B6FBF3F6B0FBF1F001FB1060B8
:10181000C0003230B0FBF1F000F007004DE088422C
:101820001CBF2A4988420ED101F063FC054601F035
:1018300060FC064601F05DFC074601F05AFC80465C
:1018400001F057FC0DE001F04BFC054601F048FCAF
:10185000064601F045FC074601F042FC804601F0D7
:101860003FFC61681922574356438B00B7FBF3F7DF
:10187000B6FBF3F655436421B7FBF1F701FB17669E
:1018800036013236B5FBF3F5B6FBF1F6B5FBF1F5F3
:1018900006F0F00606EB0515504302FB08F6B0FB18
:1018A000F3F0B6FBF3F6B0FBF1F001FB10600001C2
:1018B0003230B0FBF1F000F00F0021684019886071
:1018C000BDE8F081F369FFFF001001400014014002
:1018D00010B586B000200090A74CA848016841F0E0
:1018E00001010160016801F00101009100990021EE
:1018F0000091016841F001010160016801F00101FE
:101900000091009900210091016941F400310161C9
:1019100001A9006900F400300090009804200190B3
:1019200002200290012003900220049007200590DD
:10193000204600F0CBF90820019001A9072005906E
:10194000204600F0C3F906B010BD80B58C488D4923
:1019500001604FF41651416000218160C160016156
:1019600081610C214161FFF70FFE30B10020FFF7CC
:101970001DFA642000F039FBF8E701BD10B50FF245
:101980003421814C8EB00CC90BA80FF230210CC051
:101990000CC909A80CC000F0F5FA0020FFF7C6F941
:1019A00000210020FFF70CFA01F0CCFBFFF7CDFF80
:1019B00000F053FCFFF7B6FB00F068FC06A904A892
:1019C00001F0E2FB00F062FCBDF818209DF8101059
:1019D0000FF2F010FFF792F99DF810003128A4BF24
:1019E000012020706078002807BF06220BA906227C
:1019F00009A907A8FFF78DFD07AA0621002001F01D
:101A0000EEFB20B101460FF2D010FFF777F9FEF799
:101A1000CFFF18B10FF2E010FFF770F9617820786E
:101A2000012913D101280AD10DF1120001900DF105
:101A3000160305A8009007220021012012E00DF1F5
:101A4000120305AA0DF11601012014E001280CD1A2
:101A50000DF1120001900DF1160305A80090072268
:101A600000210420FFF707FA07E00DF1120305AA91
:101A70000DF116010320FFF738FA18B10FF28C10A0
:101A8000FFF73CF901200390072340480290002211
:101A9000002001900021102000900120FFF7BEFAE5
:101AA00018B90FF27C10FFF729F9607801280CD1E2
:101AB0000FF28410FFF722F9FEF76CFB002814BF29
:101AC0000FF2B4100FF2901001E00FF2CC10FFF7FC
:101AD00015F90421012001F0B3FBFFF747FB00F0EB
:101AE00001F8FAE770B52A4C86B0207818B1FEF7F5
:101AF000A5FB002020702448407800BB254C2068BE
:101B000028B12548007810B9FEF7EBFB06E0206805
:101B100020B12248007808B9FEF7FFFB20680028B2
:101B20001EBF1D480078002809D01C48007830B13D
:101B30001B48007818B9FFF72EF9FEF786FC002045
:101B4000FFF781F9A8B90020FFF77DF90028FAD046
:101B50001048006800281EBF11480078002808D0EF
:101B60000FF254117CC9684614217CC06846FEF708
:101B7000F1FB06B070BD00000000024030380240AA
:101B8000E009002000440040B000002040E20100D5
:101B900000000020140000200400002005000020A8
:101BA0000100002080B50020FFF700F9642000F05C
:101BB0001CFAF8E7BB0000E180020000AA0000E187
:101BC0008002000048577665722025642C20465715
:101BD0007665722025640A0053657474696E672007
:101BE00042445F41444452206661696C6564203020
:101BF00078253032782E0A00474154545F496E6987
:101C000074206661696C65642E0A00004741505F6C
:101C1000496E6974206661696C65642E0A00000073
:101C2000424C4520537461636B20496E697469614D
:101C30006C697A65642E0A005345525645523A2023
:101C4000424C4520537461636B20496E697469612D
:101C50006C697A65640A0000536572766963652071
:101C60006164646564207375636365737366756C22
:101C70006C792E0A000000004572726F722077683E
:101C8000696C6520616464696E672073657276694A
:101C900063652E0A00000000434C49454E543A202B
:101CA000424C4520537461636B20496E69746961CD
:101CB0006C697A65640A0000303132333435363766
:101CC00038394142434445464748494A2DE9F84F8F
:101CD000024600230024DFF8BC91DFF8BCA16F4F5F
:101CE0004FF00F0E0120D1F800C0984000EA0C0818
:101CF000804540F0AF804D68022D18BF122D12D1E3
:101D0000DD0802EB850C03F00705DCF82060AD0070
:101D10000EFA05FB26EA0B06D1F810B00BFA05F512
:101D20003543CCF8205003261568A6406FEA060C10
:101D30000E7906F003060CEA0505A640354315604A
:101D40004D68012D18BF022D03D0112D18BF122D83
:101D50000FD19568CE680CEA0505A640354395601D
:101D6000556825EA00004D68C5F300159D402843DD
:101D70005060D0680CEA0000D1F808C00CFA04FCEE
:101D80004CEA0000D0604868C00063D50020009095
:101D900003F00306386840F4804038604FEA860C50
:101DA000386800F4804000900EFA0CF6009898080D
:101DB0005AF82050B5433A4EB24208BF002613D01D
:101DC000384EB24208BF01260ED0374EB24208BF8D
:101DD000022609D0354EB24208BF032604D0344E45
:101DE000B2420CBF0426052606FA0CFC4CEA050597
:101DF0004AF820506FEA0800D9F8005000EA050CB4
:101E00004D68ED0348BF48EA0C0CC9F800C0D9F88A
:101E1000045000EA050C4D68AD0348BF48EA0C0CBD
:101E2000C9F804C0D9F8085000EA050C4D68ED0265
:101E300048BF48EA0C0CC9F808C0D9F80CC000EA41
:101E40000C00D1F804C05FEA8C2C48BF48EA0000BF
:101E5000C9F80C005B1CA41C102BFFF443AFBDE8B9
:101E6000F18F00690840401E8041C043C00F704799
:101E700002B909048161704742695140416170476C
:101E80000C4A1368034200D1704780B5106001F01E
:101E9000FBF901BD003C01400838014044380240D4
:101EA000000002400004024000080240000C024012
:101EB00000100240143C01402A490A684FF6FF0313
:101EC0001A4000F0070042EA0020274A1043086049
:101ED000704730B4234B1B68C3F30223C3F10704DC
:101EE000052C28BF04241D1D072D34BF0023DB1E35
:101EF000012505FA04F4641E2140994005FA03F314
:101F00005B1E1A4011430901002807D5174A00F04B
:101F10000F00801800F8041C30BC7047144A81542C
:101F200030BC7047012100F01F029140114A04E0CB
:101F3000012100F01F0291400F4A400942F8201091
:101F40007047401EB0F1807F01D3012070470B49DC
:101F50000B4A4860F020107000208860072008605D
:101F6000002070470CED00E00000FA0518ED00E0DD
:101F700000E400E000E100E080E100E010E000E0CB
:101F800023ED00E080B51F48016841F40071016055
:101F9000016841F480610160016841F48071016071
:101FA0000320FFF789FF0F2000F005F800F002F88A
:101FB000002002BD704710B50446134800684FF476
:101FC0007A71B0FBF1F0FFF7BCFF002221464FF021
:101FD000FF30FFF77EFF002010BD0C480168491C50
:101FE0000160704709480068704711B581B0FFF77C
:101FF000F9FF0446FFF7F6FF0199001B8842F9D369
:1020000013BD0000003C024038000020280A0020D8
:10201000006040607047EFF3108172B60268824240
:102020000CBF0120002013E0EFF3108272B60368AA
:102030000B60486001600868416029E0EFF310829E
:1020400072B6086043684B604160486801601FE0F9
:1020500081F31088704730B4EFF3108272B60368D2
:102060000B60EFF310830068FFE772B64568046801
:102070002C6044680068446083F3108800200B687B
:1020800018600968486082F3108830BC70470860A7
:1020900082F31088704700000068DFF888138842D8
:1020A00000D0704710B586B000200090DFF878436C
:1020B000DFF87803016841F001010160016801F077
:1020C00001010091009900210091016841F0020195
:1020D0000160016801F00201009100990021009166
:1020E000016841F001010160016801F00101009106
:1020F000009900210091016841F00101016001682F
:1021000001F001010091009900210091016841F066
:1021100001010160016801F00101009100990021B5
:102120000091016841F001010160016801F00101C5
:102130000091009900210091416941F48051416171
:1021400001A9406900F48050009000984FF480701D
:1021500001900120029003900020049005902046F9
:10216000FFF7B4FD00224FF480712046FFF780FE98
:102170000820019001A902200290039003200490FE
:1021800005200590AA48FFF7A1FD4020019001A974
:102190000220029000200390032004900520059067
:1021A0002046FFF793FD8020019001A902200290B4
:1021B0000020039003200490052005902046FFF79F
:1021C00085FD0220019001200290039003200490DD
:1021D0000020059001A92046FFF778FD0122022189
:1021E0002046FFF745FE0120019001A99148029089
:1021F0000020039003200490002005902046FFF764
:1022000065FD002203210620FFF763FE0620FFF78D
:1022100089FE06B010BD2DE9F04104468648DFF87E
:102220001C8284B00D4600680A21B0FBF1F116460D
:102230001F4601A8FFF759F9F8B20090F3B22A46F9
:102240002146404600F090F820B101A8FFF755F96B
:102250000028F1D004B0BDE8F081784871490160F0
:102260004FF48271416000218160C1600161416170
:102270004FF4007181610021016241620721C16256
:102280000821C1610021816201F000B810B5664CDF
:1022900000224FF480712046FFF7EAFD0520FFF78A
:1022A000A4FE01224FF480712046FFF7E1FDBDE856
:1022B00010400520FFF799BE80B501215A48FFF76D
:1022C000D0FD012818BF002002BD2DE9F04387B0E2
:1022D00005460E46FF2017468DF8050004A80FF2AC
:1022E0006411DFF844810CC90CC000220221404671
:1022F000FFF7BEFD0F200090052302AA04A928467F
:1023000001F007F89DF80800002402281AD19DF872
:102310000C009DF80B1051EA002913D04F450EDA3E
:10232000B9460CE00F200090012301AA0DF1050130
:10233000284600F0EEFF9DF80400A055641CE4B2AE
:102340004C45EFDB012202214046FFF791FD0020C2
:1023500002E000BF0098401C009000980228F8DBC3
:10236000204607B0BDE8F0832DE9F0478846914646
:102370001E460FF2D801C6B005460CC903A80FF2DD
:10238000D401DFF8A4A00CC00CC901A800270CC020
:102390000620FFF7CDFD002202215046FFF768FD21
:1023A0000F200090052301AA03A9284600F0B1FFE1
:1023B0009DF8040002281CD14E9C9DF8050054FA9B
:1023C00086F1884212DB3EB10F200090334605AA09
:1023D0004146284600F09DFF6CB10F200090234637
:1023E00005AA4946284600F094FF04E06FF0010773
:1023F00001E04FF0FF37012202215046FFF738FD80
:102400000620FFF78FFD384646B0BDE8F08706206E
:10241000FFF788BD0620FFF78BBD09490120086042
:102420007047000000300140000002403038024098
:102430000004024000001110603B000888090020E1
:10244000143C01400B000000000000000A000000E6
:1024500000000000AA0000000000000062B38B072B
:1024600008D0521E11F8013B00F8013B00F0248017
:102470008B07F6D1830740F0208000BF103A07D3C6
:1024800030B4B1E83810103AA0E83810F9D230BCB6
:10249000530724BFB1E80810A0E8081044BF51F862
:1024A000043B40F8043BD20724BF31F8022B20F84C
:1024B000022B44BF0B7803707047083A07D3B1E88A
:1024C0000810083A40F8043B40F804CBF7D2530711
:1024D000E4E7000062F30F2262F31F42401810F09D
:1024E000030308D0C91A1FD3DB0748BF00F8012D2A
:1024F00028BF20F8022D130030B4144615461039B9
:1025000028BF20E93C00FAD8490728BF20E90C0081
:1025100048BF40F8042D890028BF20F8022D48BF8D
:1025200000F8012D30BC7047C91818BF00F8012D04
:10253000CB0728BF00F8012D704700002DE9F04FB0
:1025400080460FF2A47095B015461E46D0E90023D0
:10255000CDE9132303AF00200391B8610DF13409D5
:1025600000E065190020ADF8020013AB4FF0FF3218
:1025700029460DF1020001F0A8F80446012C04DA06
:102580002878441EA441E443E40FBDF80200252846
:102590000CBFA4F1010BA346BBF1010F0EDBAA4651
:1025A0001AF8011B0398C0470028039000F0DA8056
:1025B000B869401CBBF1010BB861F1D1BDF8020054
:1025C000252804D10020F8603861786105E00028F2
:1025D000C7D1B86906E340F0010015F8011F2029B2
:1025E000F9D023290DD02B2904D02D2906D030294C
:1025F0000AD00CE040F0020080B2EEE740F00400A8
:10260000FAE740F00800F7E740F01000F4E72A2965
:102610000ED13168316051F8042B3160002A3A62E2
:1026200004D5514240F00400396280B26D1C13E0C1
:10263000002139620BE0396A6FF00043994205D0FE
:1026400001EB810302EB4301303939626D1C2A78BA
:10265000A2F130010A29EED329782E2903D04FF0B8
:10266000FF31F9611FE015F8011F2A2907D13168F0
:1026700031606D1C51F8042B3160FA6113E00021C8
:10268000F9610BE0F9696FF00043994205D001EB65
:10269000810302EB43013039F9616D1C2A78A2F104
:1026A00030010A29EED3B8840FF24460297801F092
:1026B0001DF808B115F8010B8DF832009DF83200B5
:1026C000682804BF2878682803D162208DF832007A
:1026D0006D1C0DA8B86015F8014B252C13D0582C93
:1026E0004BD0632C00F0A380642C18BF692C7CD0E5
:1026F0006F2C42D0702C36D0732C0AD0752C18BF9A
:10270000782C3AD0B6E00120F86025208DF834000E
:10271000BAE09DF832006C283068306018D050F86C
:10272000044B30607C60D7F81CA0BAF1000F04D5D0
:10273000204600F0E7FF824607E05246002120468F
:1027400000F0FCFF08B1A0EB040AC7F810A09BE062
:1027500050F8042B306002A9404600F02DF9002803
:1027600040F192803CE23068306050F8041B3060E9
:1027700002910DA87860782155E09DF832006C2810
:102780000DD0712818BF6A2809D13068C01D20F00B
:1027900007023260D2E900010832326004E0316899
:1027A000316051F8040B316002909DF832006828C6
:1027B00002D102A8008803E0622802D102A80078B2
:1027C000029097F82400000728D5029830B344F00F
:1027D0002000782822D1F868302100F80910401C28
:1027E000411CF96000F8094018E09DF832003146BC
:1027F00000F0BCF80028029002D5F8682D2109E00D
:10280000B88C810702D5F8682B2103E0C00705D5F5
:10281000F868202100F80910401CF8600DA8F9683C
:1028200008187860214602A800F0DFF92CE09DF836
:1028300032006C2809D00120F8603068306050F810
:10284000041B30608DF834101EE03068306001AA3F
:1028500050F8041B3060ADF804100020ADF80600FD
:1028600002A94FF0FF30F861404600F0A5F80028BB
:102870000AD577E70120F86025208DF834001CB1D7
:102880000220F86089F80140386AF968401A7969CD
:10289000401A3969441A97F82400400711D42020BF
:1028A000012C8DF800000CDBA24601236A4602A928
:1028B000404600F001FA00287FF454AFBAF1010A53
:1028C000F3D1D7F80CB0BBF1000F0DF1340A0DD0E5
:1028D0001AF8011B0398C047002803903FF442AF49
:1028E000B869401CBBF1010BB861F1D1D7F814A055
:1028F0003020BAF1010F8DF800000BDB01236A468E
:1029000002A9404600F0D8F900287FF42BAFBAF1B5
:10291000010AF3D1D7F810B0D7F804A0BBF1000F2B
:102920000DD01AF8011B0398C047002803903FF40C
:1029300019AFB869401CBBF1010BB861F1D197F830
:10294000240040077FF50EAE2020012C8DF80000FA
:10295000FFF608AE01236A4602A9404600F0ACF932
:1029600000287FF4FFAE641EF4D1FBE5622815D089
:1029700068280CD06C2818BF742816D07A2814D177
:102980000A680A6052F8040B0A60002170470A685E
:102990000A6052F8040B0A6000B20BE00A680A6091
:1029A00052F8040B0A6040B204E00A680A6052F868
:1029B000040B0A60C11770472DE9F44F0D4694B01F
:1029C0002F6A002F804648BF6FF0004700F0E2FEFC
:1029D000696A401801900FF22030D0E90023CDE958
:1029E000022395F82800400702D40198412805D217
:1029F00040200DF110090190002606E000F0D0FE05
:102A00005FEA0009F8D1EBE03F1B012FC0F2948090
:102A10001498018802AA0DF1010000F019FF0028A6
:102A2000044600F19C801498008810B9641E00F1DF
:102A30009680A742C0F280802869019922189142AD
:102A400068D26E624042A969401A6969461A95F8CF
:102A50002800400710D42020012E8DF800000BDB49
:102A6000B24601236A462946404600F025F900286F
:102A700075D1BAF1010AF4D1D5F810B0BBF1000F4D
:102A8000CA460CD01AF8011B6868C0470028686065
:102A900065D0E869401CBBF1010BE861F2D1302040
:102AA0008DF80000D5F818A0BAF1010F0ADB012358
:102AB0006A462946404600F0FFF800284FD1BAF197
:102AC000010AF4D1D5F814B0D5F808A0BBF1000F75
:102AD0000CD01AF8011B6868C047002868603ED017
:102AE000E869401CBBF1010BE861F2D195F82800C0
:102AF00040070DD52020012E8DF8000008DB0123B2
:102B00006A462946404600F0D7F840BB761EF6D10B
:102B100000262E61224628690DF101014844FFF785
:102B20009DFC2869201828611498801C1490801E30
:102B3000008800287FF468AF686A2969401AA9698B
:102B4000401A6969471A95F8280040070FD4012FE9
:102B50000DDB3C4668682021C047686010B94FF023
:102B6000FF3635E0E869401C641EE861F2D12B694C
:102B70004A462946404600F09FF80028EFD1AC694C
:102B8000012C0ADB68683021C04700286860E6D065
:102B9000E869401C641EE861F4D16B69AA682946A3
:102BA000404600F089F80028D9D195F82800400760
:102BB0000CD5012F0ADB68682021C0470028686017
:102BC000CDD0E869401C7F1EE861F4D12E616E62B1
:102BD00004A881451CBF484600F048FE304601E08D
:102BE0004FF0FF3015B0BDE8F08FF0B4C2686F2928
:102BF00008BF082405D041F02003782B14BF0A2415
:102C0000102418230668642918BF6929374602D1A1
:102C1000002E48BF7F425FB9056A4DB9082C27D105
:102C200090F82810090723D530211723D1751FE00C
:102C3000B7FBF4F604FB16773037FFB25D1E3A2F70
:102C4000A4BFA1F1510C6744AF542B46370003D009
:102C500085689E18B542EBD3082C09D190F828104E
:102C6000090705D5995C302902D05B1E30219954A3
:102C70009A188260C3F11801026A4161914208DA30
:102C8000511A81614FF6EF72018D11400185F0BC40
:102C90007047002A0ED590F8282002F01402102A5E
:102CA00008D1426A0369D21A8369D21A531A012BD6
:102CB000A8BF8361F0BC7047F8B504460D461646C0
:102CC0001F46002077B116F8011B6868A0476860AE
:102CD00030B1E869401CE86100207F1EF3D1F2BDED
:102CE0004FF0FF30F2BD00000000000000000000C7
:102CF000686C747A4C0000000000000000000000C6
:102D00002DE9F041044682B02078DFF8FC53C0077B
:102D100030D5A86800F00C00042807D0A86800F09F
:102D20000C0008280AD16868400207D5286880038B
:102D300020D56068F0B90120BDE8F6816068A87010
:102D4000606858B1FFF74EF906462868800311D431
:102D5000FFF748F9801B6528F7D3F2E0FFF742F947
:102D600006462868800305D5FFF73CF9801B6528D7
:102D7000F7D3E6E02078800718D5A86810F00C0F8C
:102D800007D0A86800F00C00082826D16868400227
:102D900023D42868800702D5E0680128CBD12868B1
:102DA000216920F0F80040EAC1002860207800077F
:102DB0003FD56169DFF85473DFF8540361B3012133
:102DC0000160FFF70FF906467868800731D4FFF7F6
:102DD00009F9801B0328F7D3B3E0E068DFF8347308
:102DE00068B101203860FFF7FDF8064628688007C3
:102DF000D5D4FFF7F7F8801B0328F7D3A1E038609C
:102E0000FFF7F0F8064628688007CFD5FFF7EAF805
:102E1000801B0328F7D394E00160FFF7E3F8064630
:102E20007868800705D5FFF7DDF8801B0328F7D306
:102E300087E0207840073ED500200090DFF8D87268
:102E4000286C40F080502864286C00F0805000907E
:102E50000098386840F480703860FFF7C3F8064681
:102E60003868C00505D4FFF7BDF8801B0328F7D3E9
:102E700067E0DFF89872A0683870A06868B1FFF763
:102E8000B1F8064641F289383868800713D4FFF755
:102E9000A9F8801B4045F7D353E0FFF7A3F8064697
:102EA00041F289383868800705D5FFF79BF8801B09
:102EB0004045F7D345E0A069002845D0A96801F056
:102EC0000C0108293FF437AF0228DFF848722BD1F4
:102ED00000203866FFF786F806462868800105D589
:102EE000FFF780F8801B0328F7D32AE0E069216A06
:102EF0000843616A40EA8110A16A891EC903090C6E
:102F000040EA0140E16A40EA0160686001203866F9
:102F1000FFF768F806462868800115D4FFF762F8C5
:102F2000801B0328F7D30CE000203866FFF75AF81F
:102F300006462868800107D5FFF754F8801B032850
:102F4000F7D30320BDE8F6810020BDE8F6812DE926
:102F5000F041724E04463068884600F00F0040454C
:102F600006D286F80080306800F00F0040456DD131
:102F70002078654F800705D5B868A16820F0F0007B
:102F80000843B8602078C00754D56068012802D192
:102F90003968890305E0022818BF032803D139687E
:102FA000890103D452E0396889074FD5B968890887
:102FB00040EA8100B860FFF715F80546606801280F
:102FC0000CD1B86800F00C00042833D0FFF70AF8E1
:102FD000401B41F289318842F3D328E002280CD10A
:102FE000B86800F00C00082824D0FEF7FBFF401B57
:102FF00041F289318842F3D319E003280CD1B86833
:1030000000F00C000C2815D0FEF7ECFF401B41F23D
:1030100089318842F3D30AE0B86810F00C0F09D068
:10302000FEF7E0FF401B41F289318842F4D30320D0
:10303000BDE8F081306800F00F00804509D286F8C5
:103040000080306800F00F00404502D00120BDE84C
:10305000F0812078400705D5B868E16820F4E05099
:103060000843B8602078000706D5B868216920F4C5
:10307000604040EAC100B86000F00FF8BA680FF293
:10308000B401C2F30312515CC840254908600F2007
:10309000FEF791FF0020BDE8F0812348416801F070
:1030A0000C01042902D0082902D017E01F487047FC
:1030B00001680268520201F03F014CBF1B4A1C4AE2
:1030C000B2FBF1F102680068C0F30140C2F388125C
:1030D000401C51434000B1FBF0F07047144870476A
:1030E0000F48104A006812680FF24801C2F38222AA
:1030F00007E00B480B4A006812680FF23801C2F370
:103100004232515CC840704700380240703802407B
:10311000800E47420000474200700040003C0240E1
:1031200038000020083802400438024040787D0111
:103130000024F40000000000010203040102030463
:103140000607080900B591B0022000900120039005
:10315000062004900220069000200790102008907E
:103160004FF48070099008200A9004200B90684664
:10317000FFF7C6FD01200C90012102200D900CA844
:10318000FFF7E5FE11B000BD70B584B0064601A89A
:1031900000900C460DF10A0302AA0DF106010DF193
:1031A0000900FEF735F9C5B2A5B9BDF80600000A59
:1031B0003070BDF8060000022080BDF8041009063A
:1031C000090F40EA01102080BDF8041001F00F0142
:1031D00008432080FDF7CAFF284604B070BD10B533
:1031E0000C461146A21CA8B0812AA8BF422025DAAD
:1031F0008DF81C008DF81D4022460DF11E00FEF7D3
:1032000088F91822002101A8FEF789F93F20ADF8BE
:103210000400CDF814D00C20ADF80600002107A85A
:103220000390A01CC0B204900120069001A8FEF7F4
:103230002CF800284CBFFF209DF8000028B010BDDE
:1032400000B589B08DF804008DF805101822002112
:1032500002A8FEF764F93F20ADF80800CDF818D0B9
:103260000F20ADF80A00002101A80490022005906B
:103270000120079002A8FEF708F800284CBFFF20A5
:103280009DF8000009B000BDFDF7A5BF38B50500E9
:1032900001D1012032BD05F15004607818B92070C9
:1032A0002846FEF7F9FE022060702868016821F0C8
:1032B000400101606868A9680843E9680843296912
:1032C000084369690843A96901F400710843E96981
:1032D0000843296A0843A96A084329680860A8695D
:1032E000696A000C00F00400084329684860A86A75
:1032F000B0F5005F02D12968E86A08612868C169F1
:1033000021F40061C1610020606001206070002034
:1033100032BD2DE9F84F04460020ADF8000004F15D
:103320005006002530780128894692461F464FF006
:10333000010B08BF022000F07D8186F800B0FEF787
:1033400051FE80467078012809D06168B1F5827F0E
:1033500002BFA1680029042801D0022565E1B9F166
:10336000000F18BFBAF1000F00D00FB901255CE1C2
:103370007078012804BF052070707560C4F838A00B
:10338000E787A787C4F83090E786A7862564656439
:10339000A06AB0F5005F0AD1206801684DF6FF729F
:1033A000114001602068016841F40051016020680B
:1033B0000168490603D4016841F040010160E068FA
:1033C0000A9FB0F5006F606846D100281CBFE08EF0
:1033D000012806D1216839F8020BC860E08E401E32
:1033E000E086E08E002804BFE08F00287BD0BBF190
:1033F000000F1CBFE08E002816D020688168890766
:1034000012D539F8021BC160AB46E08E401EE08643
:10341000E08E002804BFA06AB0F5005F04D12068E8
:10342000016841F480510160E08F58B120688168E3
:10343000C90707D5C0682AF8020B4FF0010BE08FCF
:10344000401EE08717F1010FCBD0FEF7CBFDA0EBBC
:103450000800B842C5D3A0E000281CBFE08E0128B8
:1034600006D1216819F8010B0873E08E401EE08632
:10347000E08E002804BFE08F002834D0BBF1000F9D
:103480001CBFE08E002816D020688168890712D5FD
:1034900019F8011B0173AB46E08E401EE086E08EFA
:1034A000002804BFA06AB0F5005F04D1206801685D
:1034B00041F480510160E08F58B120688168C907EC
:1034C00007D5C0680AF8010B4FF0010BE08F401ED2
:1034D000E08717F1010FCBD0FEF784FDA0EB0800C9
:1034E000B842C5D359E0A06AB0F5005F13D1CDF85A
:1034F00000803B4601220121204600F09DF820B1CA
:10350000706840F00200706047E02068C068ADF865
:103510000000BDF8000020688168C90607D5716801
:1035200041F00201716001254FF6EF718160206862
:103530008068800733D417F1010FF8D02FB1FEF760
:1035400051FDA0EB0800B842F1D32068416821F09A
:10355000E00141606068B0F5827F0BD1A068B0F5F2
:10356000004F18BFB0F5806F04D12068016821F0CA
:1035700040010160A06AB0F5005F0AD120680168CF
:103580004DF6FF72114001602068016841F400515E
:1035900001600120707000203070032545E0206834
:1035A0008168090639D517F1010FF8D02FB1FEF760
:1035B00019FDA0EB0800B842F1D32068416821F062
:1035C000E00141606068B0F5827F0BD1A068B0F582
:1035D000004F18BFB0F5806F04D12068016821F05A
:1035E00040010160A06AB0F5005F0AD1206801685F
:1035F0004DF6FF72114001602068016841F40051EE
:10360000016001207070012500203070706840F06A
:10361000200070602020706007E0A16829B9009147
:10362000C1680091806800900098012070700020AF
:1036300030702846BDE8F28F2DE9F041069E044621
:103640000D4690461F46206880682840A8420CBF5F
:1036500001200020404535D017F1010FF3D027B1EC
:10366000FEF7C0FC801BB842EDD32068416821F012
:10367000E00141606068B0F5827F0BD1A068B0F5D1
:10368000004F18BFB0F5806F04D12068016821F0A9
:1036900040010160A06AB0F5005F0AD120680168AE
:1036A0004DF6FF72114001602068016841F400513D
:1036B000016004F1500001214170002101700320DC
:1036C000BDE8F0810020BDE8F081F8B504460D4664
:1036D00016461F4600F00AF93B4632462946204668
:1036E00001B0BDE8F04000F018B900000278C9B29E
:1036F0008A421AB11CBF10F8012FF9E718BF002049
:103700007047000000F10103810704D010F8011B8D
:1037100089B18107FAD10268B2F10131914311F008
:10372000803F04BF50F8042FF6E710F8011B11B1D9
:1037300010F8011BFBE7C01A70470000C9B28307ED
:1037400006D0521E22D310F8013B9942F7D11FE058
:10375000083A13D302F1040241EA012141EA01418E
:1037600050F8043B121F21BF4B40A3F1013C2CEA4F
:10377000030C1CF0803FF3D0C9B2001F083210F8D0
:10378000013B521E28BF91EA030FF8D818BF012051
:10379000401E704780B500F0A9F8012002BD00006E
:1037A00070B5054605F10F00C408C046C046E400E8
:1037B000A54232D2082C04D2082402E0083000F0DE
:1037C00055F82248026811000CD1011D0A6802B3A5
:1037D0001368A34238BF111DF8D310E01D68A5423D
:1037E0000DD2191D0B68002BF8D11268011D00E0E5
:1037F000191D0B6893420CD01D68A542F8D361B126
:103800000D682A68A2F10803A3420AD26A680A6016
:103810000FE000F0A5F80028D0D1C046C046002037
:1038200070BD63190B60121B6E685E600B681A60D6
:103830002C60096800291DBF4A68002A091D002163
:103840000160C046C04605F1080070BD200A002096
:1038500070B504460D46164600F048F83246294633
:103860002046BDE8704000F04BB8000000B970473A
:1038700038B5A0F108042068082833D310F0070FEA
:1038800030D1C046C0461848416809B18C4203D2C5
:103890006160446017E019464B680BB1A342FAD34C
:1038A0000B685D18AC421BD3A54204D12268D21824
:1038B0000A600C4607E04A681AB123681B199A424D
:1038C0000ED362604C60616851B1226813198B425B
:1038D00006D1002303600868801820604868606093
:1038E000C046C04631BD0000200A002080B5DFF888
:1038F0000C0000F04BF8806902BD0000440000207D
:1039000030B430B90FF24800D0E90045C2E90045B3
:103910001BE00170012030BC704730B431B90FF2A8
:103920003800D0E90045C3E900450EE01AB930BCC3
:103930006FF00100704708B10A7802800978481ECC
:10394000804130BCC043C00F7047002030BC70477E
:103950000000000000000000000000000000000067
:103960000749086808B1002070470648C008C00031
:1039700008600549C908C900091A0160704700BFFD
:10398000300A0020BF040020B80600207047000065
:103990000E480F4A016841F4700101600D4801684A
:1039A00041F0010101600021816001681140016066
:1039B00009494160016821F4802101600021C16052
:1039C0004FF00060054908607047000088ED00E096
:1039D000FFFFF6FE003802401030002408ED00E042
:1039E00019E050F8041BCB0744BFA9F10103591893
:1039F000121F0023042A41F8043BF9D25FEA827CBB
:103A00000B4604D54FF0000CA1F800C09B1CD10759
:103A100044BF0021197050F8042B002AE1D17047EF
:103A20007047FEE770477047704780B5FEF7D5FADC
:103A300008480168491C016001BD0120FEF720BA59
:103A400080B54FF40050FEF71BFA034901200870BF
:103A500001BD00002C0A0020350A002030B50168A5
:103A600042688468091801EB5203D20748BF4C44EE
:103A70000C30994200D130BD11F9012B11F8015BD6
:103A8000002A04F8015B02D5521CF9D1F1E7521E5D
:103A9000F4D5EEE710B5074979441831064C7C445B
:103AA000163404E00A68081D511888470146A142EF
:103AB000F8D110BD2C000000480000004EF68851DF
:103AC000CEF20001086840F470000860BFF34F8F29
:103AD000BFF36F8F4FF00070E1EE100A70470000E7
:103AE00001FFFFFF80030000B80600200000000077
:103AF0006DFFFFFF540100002400000000000020C3
:103B000000F00BF8002801D0FFF7C4FF0020C046EA
:103B1000C046FDF733FF00F002F80120704700F0C7
:103B200001B800000746384600F002F8FBE7000045
:103B300080B5C046C046024A11001820ABBEFBE764
:103B400026000200014880470148004791390008DB
:103B5000553B0008C046C046FFF7B0FFFFF7D0FF57
:103B6000E8030000FFF7FEBFFFF7FEBFFFF7FEBF51
:103B7000FFF7FEBFFFF7FEBFFFF7FEBFFFF7FEBF79
:103B8000FFF7FEBFFFF7FEBFFFF7FEBFFFF7FEBF69
:103B9000FFF7FEBFFFF7FEBFFFF7FEBFFFF7FEBF59
:103BA000FFF7FEBFFFF7FEBFFFF7FEBFFFF7FEBF49
:103BB000FFF7FEBFFFF7FEBFFFF7FEBFFFF7FEBF39
:103BC000FFF7FEBFFFF7FEBFFFF7FEBFFFF7FEBF29
:103BD000FFF7FEBFFFF7FEBFFFF7FEBFFFF7FEBF19
:103BE000FFF7FEBFFFF7FEBFFFF7FEBFFFF7FEBF09
:103BF000FFF7FEBFFFF7FEBFFFF7FEBFFFF7FEBFF9
:103C0000FFF7FEBFFFF7FEBFFFF7FEBFFFF7FEBFE8
:103C1000FFF7FEBFFFF7FEBFFFF7FEBFFFF7FEBFD8
:103C2000FFF7FEBFFFF7FEBFFFF7FEBFFFF7FEBFC8
:103C3000FFF7FEBFFFF7FEBFFFF7FEBFFFF7FEBFB8
:103C4000FFF7FEBFFFF7FEBF0001CF0008024000F4
:0A3C50000802400024F48A0000017D
:00000001FF
