:020000040800F2
:10000000F804002059380008ED360008EF360008E3
:10001000793800087D3800088138000800000000A9
:10002000000000000000000000000000F1360008A1
:10003000F336000800000000F5360008F736000827
:1000400085380008893800088D3800089138000884
:1000500095380008993800080B3700089D380008CB
:10006000A1380008A5380008A9380008AD380008F4
:10007000B1380008B5380008B9380008BD380008A4
:10008000C1380008C5380008C93800080000000061
:10009000000000000000000000000000CD38000853
:1000A000D1380008D5380008D9380008DD380008F4
:1000B000E1380008E5380008E9380008ED380008A4
:1000C000F1380008F5380008F9380008FD38000854
:1000D000013900080539000809390008000000004E
:1000E000113700080D390008113900080000000020
:1000F00000000000000000000000000015390008AA
:1001000000000000193900081D39000821390008D5
:1001100000000000000000000000000000000000DF
:1001200025390008293900082D390008313900081F
:100130003539000800000000000000000000000049
:100140000000000000000000000000003939000835
:100150003D3900084139000845390008493900088F
:100160004D3900085139000800000000000000006F
:10017000000000000000000000000000000000007F
:1001800000000000553900080000000000000000D9
:100190005939000830B50FF2885193B03CC90EA808
:1001A0000FF28C513CC03CC90AA80FF294513CC0DC
:1001B0003CC906A80EA93CC0DFF8504504F10C006C
:1001C000009007230122022000F0FFFB78BB04F11E
:1001D0000E0005901423012004900AAA1020039019
:1001E000022100200290019010200090A08900F0D0
:1001F0002EFCE0B904F110000590142301200490B6
:1002000006AA1020039002210120029000200190F4
:100210000C200090A08900F01AFC40B9228AE189E4
:100220000FF22C5000F05AFD002013B030BD0FF239
:10023000605000F053FD472013B030BD30B5DFF8FB
:10024000D0048BB0007848BB0FF2685000F046FD38
:100250000FF27C510CC907A80CC0002000F080FDF3
:100260004FF4FA60069005904FF480413C200490D2
:1002700007AB00200390002228200290019000206C
:100280000090084600F0F5FE48B30FF24C5000F025
:1002900025FD642000F034FF0BB030BD0FF25C513F
:1002A0003CC907A800213CC0002001F0DDF80FF296
:1002B0005C5000F013FD0020069005900490039020
:1002C000002307A8029000220D20019000210020A9
:1002D000009000F030FE01466FA000F0FFFC0BB074
:1002E00030BD70B5DFF8244486B0A07898B90FF21D
:1002F000385000F0F3FC0FF250516CC901A80121F5
:100300006CC001A800900223E0884FF6FF7200F055
:1003100035FC0120A07006B070BD70B5DFF8EC436D
:1003200086B0E07898B90FF2305000F0D7FC0FF2A9
:1003300048516CC901A801216CC001A8009002239A
:10034000E0884FF6FF7200F019FC0120E07006B063
:1003500070BD0000F0B50346DFF8B403DFF8AC432E
:1003600089B00078012869D1DFF8A8030078002857
:1003700000F05B800FF21051ECC903A8ECC0A0693B
:100380008DF81C00010A8DF81D10010C8DF81E104F
:10039000010E8DF81F1030B90FF2005000F09EFCD6
:1003A00000F0ACFEE061DFF87003006800EB800154
:1003B000490001A801F092F803A800901423E189F4
:1003C000A089002200F09CFB642804D101A801F060
:1003D0008CF80028F0D0A069401CA061CAD04FF46E
:1003E000FA71B0FBF1F14FF4FA7202FB1100002830
:1003F000C0D100F083FEE169401A00EE100AF8EE69
:10040000400A9FED641AC1EE200AFDEEE00A10EEEC
:10041000903A10EE102A4FF4FA710FF28C4000F06F
:100420005DFC00F06BFEE061A4E700930B46E18900
:10043000A089002200F064FB09B0F0BD60890A4683
:10044000411CE08889B200F018FC09B0F0BD10B57D
:100450000FF29040DFF8B44284B00088ADF800009D
:10046000DFF8B402006800EB8001490001A801F048
:1004700035F82089811CE0886B46022289B200F0A1
:10048000BEFB462804D101A801F02FF80028F0D0C7
:100490000120607004B010BD25640A0070B50D46DF
:1004A0009C4909780029144662D0994909780029A5
:1004B0005ED1964D2989491C88426AD1686A90B9F3
:1004C0000FF2D83000F00AFC00F018FE2862617CC0
:1004D000207C40EA0120A17C40EA0140E17C40EA26
:1004E0000160401EA862207C617C40EA0120A17C62
:1004F00040EA0140E17C40EA0160A96A4A1C90425E
:1005000004D0EA6A8218511A491EE962A862686A30
:10051000401C68623DD04FF4FA71B0FBF1F14FF42A
:10052000FA7202FB1100A0BB00F0E8FD296A401A34
:1005300000EE100AF8EE400A9FED161AC1EE200AEE
:10054000FDEEE00A10EE903A10EE102A4FF4FA7128
:100550000FF2543000F0C2FBE96A19B10FF2C0305B
:1005600000F0BCFB00F0CAFD28620020E86270BD0C
:1005700066490989491C88420BD1002000F006FC1D
:100580003DB161A614F8011B304600F0A7FB6D1EBB
:10059000F8D170BD00409C47411C0078042800D071
:1005A000704770B50878052804D03E2811D0FF2880
:1005B00039D070BD554C002060610FF2543000F00E
:1005C0008DFB0120207000206070A070E070207111
:1005D00097E0881C0178012940F094804B4C401C26
:1005E000451D6161B0F80100E0800FF214340FF294
:1005F000F82000F073FB6979204600F06FFB297941
:10060000204600F06BFBE978204600F067FBA978F4
:10061000204600F063FB6978204600F05FFB2978F4
:100620000FF2E42059E08D1C40F601412888401A61
:1006300006D00E382BD0401E53D0801E31D070BD56
:10064000324C3649208A0978401C012907BFA91C71
:10065000CD1DA91C4D1D891C8E78098881420DD1A4
:10066000002000F093FB002E4CD027A415F8011BAE
:10067000204600F033FB761EF8D170BDE089801C67
:10068000814204BF287801283CD1607070BDA81C4D
:10069000BDE870408178421D891EB0F80300C9B2E0
:1006A000FCE61B48007868BB0FF28820174C00F06E
:1006B00015FBA178A81C39B1217929B9B0F803102C
:1006C0000FF29C20218108E0E178D9B16179C9B9A4
:1006D000B0F803100FF2A0206181BDE8704000F077
:1006E000FDBA0B48007868B9084CA07820B1207991
:1006F00010B90120207170BDE07818B1607908B997
:100700000120607170BD00002563000044000020DE
:1007100041000020F4000020743800084000002050
:10072000669A0C200008969EE2119EB1E0F273D901
:10073000669A0C200008969EE2119EB1E1F273D9F0
:10074000669A0C200008969EE2119EB1E2F273D9DF
:1007500053616D706C6520536572766963652061C5
:10076000646465642E0A54582043686172204861AD
:100770006E646C6520253034582C20525820436814
:1007800061722048616E646C6520253034580A001F
:100790004572726F72207768696C65206164646964
:1007A0006E672053616D706C652053657276696366
:1007B000652E0A00436C69656E742043726561742E
:1007C0006520436F6E6E656374696F6E0A0000008A
:1007D000AA0000E1800200004572726F7220776803
:1007E000696C65207374617274696E6720636F6EE3
:1007F0006E656374696F6E2E0A00000009426C75A5
:10080000654E52475F4368617400000047656E653E
:1008100072616C20446973636F76657261626C65A6
:10082000204D6F64652000005374617274207265FE
:100830006164696E67205458204368617220486182
:100840006E646C650A000000669A0C200008969E93
:10085000E2119EB1E1F273D9537461727420726532
:100860006164696E67205258204368617220486154
:100870006E646C650A000000669A0C200008969E63
:10088000E2119EB1E2F273D930313233343536376A
:1008900038394142434445460000000054657374B2
:1008A0002073746172740A002564207061636B6543
:1008B00074732E20456C61707365642074696D6576
:1008C0003A202564206D732E204170702074687268
:1008D0006F7567687075743A202564206B62707359
:1008E0002E0A000001000000436F6E6E65637465A0
:1008F0006420746F206465766963653A00000000C7
:10090000253032582D000000253032580A000000F2
:10091000446973636F6E6E65637465640A000000FA
:100920002564206C6F7374207061636B6574287329
:10093000290A00004556545F424C55455F474154D3
:10094000545F444953435F524541445F43484152D9
:100950005F42595F555549445F524553500A000064
:10096000545820436861722048616E646C6520258C
:100970003034580A00000000525820436861722049
:1009800048616E646C6520253034580A0000000010
:1009900000B587B01822002101A800F0B8FD3F2063
:1009A000ADF80400CDF814D040F20110ADF8060007
:1009B00000210120069001A800F045FC00284CBF52
:1009C000FF209DF8000007B000BD70B58CB0012875
:1009D0008DF81C0014460CBF022610261D46324618
:1009E0000DF11D0000F08DFD701C07A9C0B203229F
:1009F0004454441CE4B268466554002100F087FD6D
:100A00001822002101A800F082FD3F20ADF804006B
:100A1000CDF814D04FF48170ADF80600002107A87E
:100A20000390601CC0B204900320069001A800F05F
:100A30000AFC002848BFFF2007D49DF8000020B919
:100A40001099BDF80100088000200CB070BDF1B510
:100A50008EB00D4616461F4602220EA907A800F0CA
:100A600050FD07AC012DA57031460CBF02251025A5
:100A70002A460DF11F0000F044FDE81CC0B2411CE5
:100A80000755C9B214980855491C1598C9B20322D4
:100A90000855491C1698C9B20855491C1798C9B27F
:100AA0004D1C0855EDB2189828550021684600F0F5
:100AB0002EFD1822002101A800F029FD3F20ADF8ED
:100AC0000400CDF814D04FF48270ADF80600002178
:100AD00007A80390681CC0B204900320069001A8E8
:100AE00000F0B1FB002848BFFF2007D49DF80000AC
:100AF00020B91999BDF80100088000200FB0F0BDA1
:100B000033B51C46A01DA7B081281546A8BF4220BA
:100B100032DA022227A907A800F0F3FC022228A952
:100B20000DF11E0000F0EDFC2C998DF820508DF891
:100B3000214022460DF1220000F0E3FC18220021A2
:100B400001A800F0E4FC3F20ADF80400CDF814D07B
:100B50004FF48370ADF80600002107A80390A01D94
:100B6000C0B204900120069001A800F06CFB0028A0
:100B70004CBFFF209DF8000029B030BD17B58DB0E7
:100B80001C4602220DA907A800F0BBFC02220EA9F8
:100B90000DF11E0000F0B5FC02220FA908A800F01C
:100BA000B0FC8DF82240012C0CBF022410241299B5
:100BB00022460DF1230000F0A4FC1822002101A818
:100BC00000F0A5FC3F20ADF80400CDF814D04FF4A0
:100BD0008B70ADF80600002107A80390E01DC0B29D
:100BE00004900F2002900120069001A800F02BFB3A
:100BF00000284CBFFF209DF8000010B010BD33B599
:100C00001446601DA7B081281D46A8BF422032DAD5
:100C1000022227A907A800F074FC022228A90DF1DE
:100C20001E0000F06EFC8DF82040224629460DF192
:100C3000210000F066FC1822002101A800F067FCEA
:100C40003F20ADF80400CDF814D040F22110ADF8EB
:100C50000600002107A80390601DC0B204900F2079
:100C600002900120069001A800F0EDFA00284CBF88
:100C7000FF209DF8000029B030BD10B58EB0152AB8
:100C8000144628BF422027D2ADF81C00ADF81E1034
:100C90008DF8204019460DF1210000F032FC182299
:100CA000002101A800F033FC3F20ADF80400CDF88E
:100CB00014D040F22310ADF80600002107A80390DD
:100CC000601D04900120069001A800F0BCFA0028E5
:100CD0004CBFFF209DF800000EB010BD0EB400B553
:100CE000A0B0024621AB8021684600F027FC82B20A
:100CF0004FF496736946044800F06EFC08B100F0AA
:100D00005FFF20B05DF810FB0000002070B586B0DA
:100D1000044600200090DFF82461DFF82401016818
:100D200041F00101016001A9006800F0010000909C
:100D300000980FF2181030F814500195012002901D
:100D4000002003900220049056F8240000F0CEFF0B
:100D500056F824000022294601F09CF806B070BD28
:100D60000FF2E801DFF8D43031F8101053F820000A
:100D7000012201F08FB80FF2D401DFF8C03031F852
:100D8000101053F82000002201F084B80FF2BC01CB
:100D9000DFF8A82031F8101052F8200001F07EB8DA
:100DA00030B587B00446002000900D46DFF8900073
:100DB000016841F004010160006800F00400009047
:100DC000009885B90FF2880030F81400019001A94D
:100DD00000200290022003900490DFF8680050F891
:100DE000240000F083FF012D1BD10FF2640030F8C6
:100DF0001400019001A900200390DFF84C0002903C
:100E0000DFF8400050F8240000F070FF0FF24400BB
:100E1000245C00220F2160B201F071F860B201F091
:100E200097F807B030BD0FF22801DFF8182031F82D
:100E3000101052F8200001F026B8000074000020C5
:100E4000303802407800002000002110200000000F
:100E500000200000280010B58AB08DF800008DF841
:100E600001108DF802201C460722002101A800F085
:100E70004EFB1822002103A800F049FB3F20ADF8EB
:100E80000C00CDF814D08A20ADF80E00002103200C
:100E9000069001A807900720089003A800F0D3F956
:100EA000002848BFFF200ED49DF8040058B9BDF8B3
:100EB000050020800C99BDF8070008800D99BDF849
:100EC0000900088000200AB010BD70B58AB00C4639
:100ED0008DF8080015461E4607220021684600F0DE
:100EE00016FB1822002103A800F011FB3F20ADF8EB
:100EF0000C00CDF81CD08A20ADF80E00002102A80D
:100F00000590012006900720089003A800F09BF9A7
:100F1000002848BFFF200CD49DF8000048B9BDF858
:100F200001002080BDF803002880BDF80500308056
:100F300000200AB070BD76B592B0199D1B9C54FA82
:100F400085F10E3129291E4628BF422054D28DF842
:100F50001C00022212A90DF11D0000F0D2FA02229B
:100F600013A90DF11F0000F0CCFA9DF860001A994A
:100F70008DF822008DF821608DF823502A4609A8AB
:100F800000F0BFFA05F10800C0B207A9451C44549F
:100F9000EDB21C9907A82246281800F0B2FA64198D
:100FA000E4B207A802221DA9201800F0AAFAA41C86
:100FB000E4B207A802221EA9201800F0A2FA182203
:100FC000002101A800F0A3FA3F20ADF80400CDF8FD
:100FD00014D08320ADF80600002107A80390A01CC0
:100FE000C0B204900120069001A800F02CF900285E
:100FF0004CBFFF209DF8000014B070BD30B58FB01D
:101000008DF81C008DF81D1014461D461022214637
:101010000DF11E0000F075FA129814998DF82F004A
:101020008DF82E50182213988DF830000DF13100F4
:101030000160002115988DF8350001A800F067FACD
:101040003F20ADF80400CDF814D08620ADF806009E
:10105000002107A803901A2004900120069001A8FF
:1010600000F0F1F800284CBFFF209DF800000FB001
:1010700030BD00B58DB0ADF80400ADF806108DF8A8
:101080000820194606220DF1090000F03AFA0E98E0
:101090008DF80F0018220F98ADF810000021BDF850
:1010A0004000ADF81200BDF84400ADF814001298ED
:1010B000ADF816001398ADF818001498ADF81A00A2
:1010C00007A800F024FA3F20ADF81C00CDF82CD082
:1010D0009C20ADF81E00002101A8099018200A905C
:1010E0000F20089001200C9007A800F0ACF8002811
:1010F0004CBFFF209DF800000DB000BD00F08CBF7C
:1011000000F08EBF10B5DFF8C443201D00F09CFF37
:1011100004F10C0000F098FF04F11401201D00F010
:10112000ADFF04F1A001201D00F0A8FF04F59671A9
:10113000201D00F0A3FF04F5DC71201D00F09EFFD0
:1011400004F51171201DBDE8104000F097BF10B5E7
:10115000A2B00020009001F07FF9DFF8704304F1A5
:101160000C0000F074FFB0B9694604F10C0000F007
:1011700091FF01F06EF900980830FFF70DFA01F0C9
:101180006BF90099201D00F079FF04F10C0000F0CC
:101190005EFF0028E8D0207858B90FE0802201A92E
:1011A000DFF82C0301F0C2F8C0B210B101A8FFF7BC
:1011B000F3F901F0B0F80028F0D1207001F049F9FE
:1011C00022B010BD30B581B00020009001F047F989
:1011D000DFF8FC42DFF8F45205E00099281D00F02A
:1011E00041FF01F03CF901F096F850B3281D00F0E2
:1011F0002EFF10BB6946281D00F04CFF009800F13F
:1012000008018022204601F091F8C0B20028E4D005
:10121000009981F88800009800F108010A78042AF2
:1012200001BF897890F88800C01E8142D5D100990D
:1012300005F10C0000F022FFD3E70120287001F037
:101240000EF901B030BD2DE9F043044687B0608847
:101250000E4680052188800D40EA81201FFA80F922
:10126000DFF8740200680A21B0FBF1F7002001905A
:1012700003A800F0E9FE60882188D4F80880E568BA
:101280008DF80A508005800D40EA8120ADF80800F5
:10129000032201208DF8000002A90DF1010000F0E9
:1012A00030F9EBB204224146684600F0CEFF002E32
:1012B0005BD107B90127394605A800F00FF9DFF81F
:1012C0000C6205E0019903A800F0D8FE01F0C1F816
:1012D00005A800F00AF900286BD106F10C0000F017
:1012E000B6FE0028F4D101F0B7F801A906F10C0010
:1012F00000F0D0FE019800F1080210780428E1D136
:101300000198527800F10B0190F88800C01E0E2A57
:1013100032D00F2A04D0102A4BD03E2A33D008E016
:101320004A884A4545D162680F2A15D008780028B6
:101330003FD1019903A800F0A1FE301D00F087FE07
:101340000028C3D0694606F10C0000F0A3FE009906
:10135000301D00F093FEB9E762699042C8BF1046A5
:1013600060610246206900F0CCF8DFF86061019905
:10137000301D00F077FE31E0B1F801204A4518D168
:10138000C91CC01EE8E70A7863689A42D1D1626935
:10139000401E9042C8BF104660610246491CE1E70A
:1013A000694603A800F076FE0099DFF8280100F0F6
:1013B00065FE03A800F04BFE0028F1D001F049F8CB
:1013C0004FF0FF3007B0BDE8F08302A903A800F09A
:1013D00061FE029906F10C0000F050FE03A800F037
:1013E00036FE0028F1D001F034F8002007B0BDE847
:1013F000F083F0B589B004460D4616461F46092213
:101400000021684600F083F81822002103A800F0AC
:101410007EF80420ADF80C00CDF81CD00120ADF80A
:101420000E0000210020059006900920089003A8D6
:10143000FFF709FF002848BFFF2013D49DF80000E4
:1014400080B99DF801002070BDF8020028809DF849
:1014500004003070BDF8050038800E99BDF8070013
:101460000880002009B0F0BD30B58FB004460D46AD
:101470002022002107A800F04AF88DF81C40202CFB
:10148000A8BF1F24224629460DF11D0000F039F89F
:101490001822002101A800F03AF80820ADF8040055
:1014A000CDF814D00920ADF80600002107A803905C
:1014B000202004900120069001A8FFF7C4FE002818
:1014C0004CBFFF209DF800000FB030BDF806002093
:1014D000C8090020040700207438000810B504462D
:1014E0006160FFF70BFE206010BD10B50446FFF7EA
:1014F00005FE22686168801A401C81428041C00F4D
:1015000010BD10B5044600F0F1FF204610BD10B527
:10151000044610460A460146204601F023F82046BC
:1015200010BD8268521C8260426832B10268531C4E
:10153000036011704168491E4160704708B584B06E
:101540000023029311B90093019302E00090481E1A
:10155000019004AB694607487844183001F036F82A
:10156000009911B1009A00211170002858BF02980B
:1015700005B000BDAFFFFFFF10B5040001D1012091
:1015800010BD94F8390020B984F83800204600F0E6
:10159000A7F9242084F839002068C16821F400519B
:1015A000C160204600F09BF82068016921F4904159
:1015B00001612068416921F02A0141612068C16808
:1015C00041F40051C1600020E063202084F839001C
:1015D00084F83A00002010BD2DE9F04104460D4684
:1015E00094F83900202817461E4675D1002D14BFE7
:1015F000002F012071D094F8380001286CD0012010
:1016000084F838000020E063212084F8390000F0DD
:1016100003FD8046A784E78403E000BF15F8011BA3
:101620004160E08C68B3401EE084A068B0F5805F44
:1016300018D12068016809060AD416F1010FF8D004
:101640006EB300F0E9FCA0EB08008642F1D226E080
:101650002988C905C90D41602069002814BF6D1C87
:10166000AD1CDEE7206801680906D7D416F1010F2A
:10167000F8D0A6B100F0D0FCA0EB08008642F1D271
:101680000DE02068006840061ED416F1010FF8D066
:101690002EB100F0C1FCA0EB08008642F1D2206818
:1016A000C16821F4D071C1602068416949084900CE
:1016B0004161202084F8390084F83A00002084F841
:1016C00038000320BDE8F081202084F83900002094
:1016D00084F83800BDE8F0810220BDE8F0812DE9F2
:1016E000F041044620680169E26821F44051114349
:1016F0000161784AC1681140A2681143226911430F
:1017000062691143E2691143C1604169A26921F430
:10171000407111434161E2696F49B2F5004F40F0F9
:10172000858088421CBF6D4988423FD101F049FD48
:10173000054601F046FD064601F043FD074601F06F
:1017400040FD804601F03DFD616819225743564334
:101750004B00B7FBF3F7B6FBF3F655436421B7FB39
:10176000F1F701FB1766F6003236B6FBF1F6B5FB72
:10177000F3F506F0F806B5FBF1F5760006EB051576
:10178000504302FB08F6B0FBF3F0B6FBF3F6B0FBF8
:10179000F1F001FB1060C0003230B0FBF1F02168C5
:1017A00000F0070040198860BDE8F08101F0FEFC00
:1017B000054601F0FBFC064601F0F8FC074601F087
:1017C000F5FC804601F0F2FC61681922574356434C
:1017D0004B00B7FBF3F7B6FBF3F655436421B7FBB9
:1017E000F1F701FB1766F6003236B6FBF1F6B5FBF2
:1017F000F3F506F0F806B5FBF1F5760006EB0515F6
:10180000504302FB08F6B0FBF3F0B6FBF3F6B0FB77
:10181000F1F001FB1060C0003230B0FBF1F0216844
:1018200000F0070040198860BDE8F08188421CBFC5
:101830002A4988420ED101F0C4FC054601F0C1FCE2
:10184000064601F0BEFC074601F0BBFC804601F0F5
:10185000B8FC0DE001F0AAFC054601F0A7FC064625
:1018600001F0A4FC074601F0A1FC804601F09EFCBB
:1018700061681922574356438B00B7FBF3F7B6FB59
:10188000F3F655436421B7FBF1F701FB1766360108
:101890003236B5FBF3F5B6FBF1F6B5FBF1F506F024
:1018A000F00606EB0515504302FB08F6B0FBF3F01B
:1018B000B6FBF3F6B0FBF1F001FB10600001323033
:1018C000B0FBF1F0216800F00F0040198860BDE81E
:1018D000F0810000F369FFFF001001400014014097
:1018E00010B586B000200090DFF8AC42DFF8AC0203
:1018F000016841F001010160016801F001010091FE
:10190000009900210091016841F001010160016826
:1019100001F001010091009900210091016941F459
:101920000031016101A9006900F4003000900098C5
:1019300004200190022002900120039002200490D4
:1019400007200590204600F0D1F90820019001A958
:1019500007200590204600F0C9F906B010BD2DE91A
:10196000F0470FF270218E4C92B00CC90BA80FF209
:101970006C210CC00CC909A80CC000F01BFB002096
:10198000FFF7C4F900210020FFF70AFA01F03CFC40
:10199000844820604FF4165060600020A060E06032
:1019A0002061A0610C2060612046FFF7E5FD30B1A9
:1019B0000020FFF7EBF9642000F032FBF8E700F0BD
:1019C00073FCFFF79FFB00F090FC06A904A801F050
:1019D0003DFC00F08AFCBDF818209DF810100FF2B5
:1019E0000420FFF77BF99DF810003128A4BF0120E7
:1019F00084F8400094F84100002807BF06220BA994
:101A0000062209A907A8FFF77CFD07AA06210020E6
:101A100001F047FC20B101460FF2DC10FFF75EF940
:101A2000FEF7B6FF18B10FF2F010FFF757F994F870
:101A3000411094F84000012913D101280AD10DF179
:101A4000120001900DF1160305A800900722002155
:101A5000012012E00DF1120305AA0DF1160101207B
:101A600014E001280CD10DF1120001900DF11603C4
:101A700005A80090072200210420FFF7ECF907E0F9
:101A80000DF1120305AA0DF116010320FFF71DFA4F
:101A900018B10FF29810FFF721F9012003900723E6
:101AA0004148029000220020019000211020009067
:101AB0000120FFF7A3FA18B90FF28410FFF70EF90F
:101AC00094F8410001280CD10FF28C10FFF706F9B1
:101AD000FEF760FB002814BF0FF2BC100FF2981045
:101AE00001E00FF2D410FFF7F9F80421012001F012
:101AF00009FC0FF2E4152D4EDFF8B490DFF8B48046
:101B00002D4FDFF8B8A02FE0386820B199F8000019
:101B100008B9FEF702FC386800281CBF98F80000DE
:101B2000002808D099F8000028B1307818B9FFF7DC
:101B300022F9FEF78CFC0020FFF775F9A0B9002010
:101B4000FFF771F90028FAD0386800281CBF3078F8
:101B5000002809D0B5E80E500DA8143DA0E80E509D
:101B600014210DA8FEF7F6FBFFF7F1FA9AF8000032
:101B700020B1FEF763FB00208AF8000094F84100D2
:101B80000028D8D138680028BED098F80000002876
:101B9000BAD1FEF7A6FBBEE7000002403038024093
:101BA000000000200044004040E201004500002009
:101BB0004900002048000020580000204400002078
:101BC00000B581B00020FFF7E1F8642000F028FAAA
:101BD000F8E70000BB0000E180020000AA0000E17D
:101BE0008002000048577665722025642C204657F5
:101BF0007665722025640A0053657474696E6720E7
:101C000042445F41444452206661696C65642030FF
:101C100078253032782E0A00474154545F496E6966
:101C200074206661696C65642E0A00004741505F4C
:101C3000496E6974206661696C65642E0A00000053
:101C4000424C4520537461636B20496E697469612D
:101C50006C697A65642E0A005345525645523A2003
:101C6000424C4520537461636B20496E697469610D
:101C70006C697A65640A0000536572766963652051
:101C80006164646564207375636365737366756C02
:101C90006C792E0A000000004572726F722077681E
:101CA000696C6520616464696E672073657276692A
:101CB00063652E0A00000000434C49454E543A200B
:101CC000424C4520537461636B20496E69746961AD
:101CD0006C697A65640A0000303132333435363746
:101CE00038394142434445464748494A2DE9F04F77
:101CF00081B0024600230024DFF8C491DFF8C4A1BC
:101D0000714F4FF00F0E0120D1F800C0984000EA4B
:101D10000C08804540F0AF804D68022D18BF122D91
:101D200012D1DD0802EB850C03F00705DCF820601A
:101D3000AD000EFA05FB26EA0B06D1F810B00BFA3F
:101D400005F53543CCF8205003261568A6406FEA08
:101D5000060C0E7906F003060CEA0505A64035438D
:101D600015604D68012D18BF022D03D0112D18BF2D
:101D7000122D0FD19568CE680CEA0505A6403543B3
:101D80009560556825EA00004D68C5F300159D4033
:101D900028435060D0680CEA0000D1F808C00CFA63
:101DA00004FC4CEA0000D0604868C00063D5002005
:101DB000009003F00306386840F4804038604FEA32
:101DC000860C386800F4804000900EFA0CF60098FB
:101DD00098085AF82050B5433C4EB24208BF00263E
:101DE00013D03B4EB24208BF01260ED0394EB2424C
:101DF00008BF022609D0384EB24208BF032604D0DD
:101E0000364EB2420CBF0426052606FA0CFC4CEAFC
:101E100005054AF820506FEA0800D9F8005000EA9A
:101E2000050C4D68ED0348BF48EA0C0CC9F800C02A
:101E3000D9F8045000EA050C4D68AD0348BF48EAE4
:101E40000C0CC9F804C0D9F8085000EA050C4D681C
:101E5000ED0248BF48EA0C0CC9F808C0D9F80CC01C
:101E600000EA0C00D1F804C05FEA8C2C48BF48EAB5
:101E70000000C9F80C005B1CA41C102BFFF443AF3E
:101E800001B0BDE8F08F00690840401E8041C043AA
:101E9000C00F704702B9090481617047426951401F
:101EA000416170470E4A1368034200D1704700B584
:101EB00081B0106001F04AFA01B000BD00000000DE
:101EC000003C014008380140443802400000024014
:101ED0000004024000080240000C024000100240D2
:101EE000143C01402C490A684FF6FF031A4000F0E9
:101EF000070042EA0020294A10430860704730B4C6
:101F0000254B1B68C3F30223C3F10704052C28BF2C
:101F100004241D1D072D34BF0023DB1E012505FAF7
:101F200004F4641E2140994005FA03F35B1E1A4035
:101F300011430901002807D5194A00F00F00801845
:101F400000F8041C30BC7047164A815430BC7047FE
:101F5000012100F01F029140134A400942F820106D
:101F60007047012100F01F029140104A400942F8D9
:101F700020107047401EB0F1807F01D301207047D0
:101F80000B494860F02081F8130D0020886007207D
:101F900008600020704700000CED00E00000FA052A
:101FA00018ED00E000E400E000E100E080E100E086
:101FB00010E000E000B5214881B0016841F40071F3
:101FC0000160016841F480610160016841F4807141
:101FD00001600320FFF786FF0F2000F006F800F0F5
:101FE00003F8002001B000BD704710B50446144846
:101FF00000684FF47A71B0FBF1F0FFF7BBFF0022ED
:1020000021464FF0FF30FFF77AFF002010BD0D484A
:102010000168491C016070470A4800687047000069
:1020200011B581B0FFF7F8FF4FEA0004FFF7F4FFA6
:102030000199001B8842F9D302B010BD003C024058
:102040007C000020280A0020006040607047EFF309
:10205000108172B6026882420CBF0120002081F319
:1020600010887047EFF3108272B603680B60486007
:1020700001600868416082F310887047EFF31082B6
:1020800072B6086043684B6041604868016082F343
:102090001088704730B4EFF3108272B603680B609B
:1020A000EFF31083006872B6456804682C604468DA
:1020B0000068446083F3108800200B68186009688A
:1020C000486082F3108830BC704700000068DFF879
:1020D0009813884200D0704710B586B00020009059
:1020E000DFF88843DFF88803016841F001010160EF
:1020F000016801F00101009100990021009101683F
:1021000041F002010160016801F0020100910099B3
:1021100000210091016841F001010160016801F0B6
:1021200001010091009900210091016841F0010135
:102130000160016801F00101009100990021009106
:10214000016841F001010160016801F001010091A5
:10215000009900210091016841F0010101600168CE
:1021600001F001010091009900210091416941F4C1
:102170008051416101A9406900F4805000900098AD
:102180004FF4807001900120029003900020049091
:1021900005902046FFF7AAFD00224FF480712046EB
:1021A000FFF778FE0820019001A902200290039019
:1021B0000320049005200590AE48FFF797FD4020CE
:1021C000019001A9022002900020039003200490B6
:1021D000052005902046FFF789FD8020019001A988
:1021E0000220029000200390032004900520059017
:1021F0002046FFF77BFD0220019001200290039012
:10220000032004900020059001A92046FFF76EFDF1
:10221000012202212046FFF73DFE0120019001A985
:102220009548029000200390032004900020059020
:102230002046FFF75BFD002203210620FFF75FFE2B
:102240000620FFF785FE06B010BD2DE9F04380465D
:102250008A48DFF82C9283B00D4600680A21B0FB53
:10226000F1F116461F4601A8FFF738F90620FFF7DF
:1022700078FE0024F8B20090F3B262194146484655
:1022800000F098F8002804D4041900263F1AE4B29C
:1022900027B101A8FFF729F90028EBD00620FFF7A6
:1022A00057FE03B0BDE8F08310B5754C6E48206052
:1022B0004FF4827060600020A060E0602061606187
:1022C0004FF40070A0610020206260620720E0628D
:1022D0000820E0610020A062204601F039F8206863
:1022E000016841F04001016010BD10B55F4C002253
:1022F0004FF480712046FFF7CDFD0520FFF790FEDB
:1023000001224FF480712046FFF7C4FDBDE8104064
:102310000520FFF785BE00B581B001215348FFF7C6
:10232000B2FD012818BF002001B000BD2DE9F04327
:102330000D4691460FF2A41185B004460CC902A8BF
:1023400000270CC072B6DFF824810022022140462B
:10235000FFF7A0FD684602A90522236811F8016B6A
:10236000DE609E68B607FCD59E68F607FCD5521E57
:10237000DB6800F8013BF0D19DF8000002280FD186
:102380009DF804009DF8031051EA002608D0B145DD
:10239000B8BF4E46F2B22946204600F08BF83746C9
:1023A000012202214046FFF775FD62B6F8B205B082
:1023B000BDE8F0832DE9F0430C4690461E460FF22F
:1023C000241185B005460CC902A800210CC068463E
:1023D000002206C0DFF8949002214846FFF75AFD1C
:1023E000684602A905222B6811F8017BDF609F680F
:1023F000BF07FCD59F68FF07FCD5521EDB6800F8BD
:10240000013BF0D19DF80000022818BF4FF0FF34C7
:1024100016D19DF80170B742B8BF6FF001040FDB11
:1024200032462146284600F02FF8BF1B0C9CFFB215
:10243000A742B8BF3C4622464146284600F024F851
:10244000012202214846FFF725FD204605B0BDE8E0
:10245000F0830620FFF77CBD0620FFF782BD094907
:102460000120086070470000003001400000024079
:102470003038024000040240000011107438000897
:10248000C8090020143C014092B1036811F801CB47
:10249000C3F80CC0D3F808C05FEA8C7C7FF5FAAFB4
:1024A000D3F808C05FEACC7CFAD5521EDB68ECD1C9
:1024B0000020704730B46AB1FF230468E360A56868
:1024C000AD07FCD5A568ED07FCD5521EE46801F800
:1024D000014BF2D130BC0020704700000B0000001F
:1024E000000000000A0000000000000062B38B073B
:1024F00008D0521E11F8013B00F8013B00F0248087
:102500008B07F6D1830740F0208000BF103A07D335
:1025100030B4B1E83810103AA0E83810F9D230BC25
:10252000530724BFB1E80810A0E8081044BF51F8D1
:10253000043B40F8043BD20724BF31F8022B20F8BB
:10254000022B44BF0B7803707047083A07D3B1E8F9
:102550000810083A40F8043B40F804CBF7D2530780
:10256000E4E7000062F30F2262F31F42401810F00C
:10257000030308D0C91A1FD3DB0748BF00F8012D99
:1025800028BF20F8022D130030B414461546103928
:1025900028BF20E93C00FAD8490728BF20E90C00F1
:1025A00048BF40F8042D890028BF20F8022D48BFFD
:1025B00000F8012D30BC7047C91818BF00F8012D74
:1025C000CB0728BF00F8012D704700002DE9F04F20
:1025D00080460FF2A47095B015461E46D0E9002340
:1025E000CDE9132303AF00200391B8610DF1340945
:1025F00000E065190020ADF8020013AB4FF0FF3288
:1026000029460DF1020000F0E8FE0446012C04DA30
:102610002878441EA441E443E40FBDF802002528B5
:102620000CBFA4F1010BA346BBF1010F0EDBAA46C0
:102630001AF8011B0398C0470028039000F0DA80C5
:10264000B869401CBBF1010BB861F1D1BDF80200C3
:10265000252804D10020F8603861786105E0002861
:10266000C7D1B86906E340F0010015F8011F202921
:10267000F9D023290DD02B2904D02D2906D03029BB
:102680000AD00CE040F0020080B2EEE740F0040017
:10269000FAE740F00800F7E740F01000F4E72A29D5
:1026A0000ED13168316051F8042B3160002A3A6252
:1026B00004D5514240F00400396280B26D1C13E031
:1026C000002139620BE0396A6FF00043994205D06E
:1026D00001EB810302EB4301303939626D1C2A782A
:1026E000A2F130010A29EED329782E2903D04FF028
:1026F000FF31F9611FE015F8011F2A2907D1316860
:1027000031606D1C51F8042B3160FA6113E0002137
:10271000F9610BE0F9696FF00043994205D001EBD4
:10272000810302EB43013039F9616D1C2A78A2F173
:1027300030010A29EED3B8840FF24460297800F002
:102740005DFE08B115F8010B8DF832009DF83200DE
:10275000682804BF2878682803D162208DF83200E9
:102760006D1C0DA8B86015F8014B252C13D0582C02
:102770004BD0632C00F0A380642C18BF692C7CD054
:102780006F2C42D0702C36D0732C0AD0752C18BF09
:10279000782C3AD0B6E00120F86025208DF834007E
:1027A000BAE09DF832006C283068306018D050F8DC
:1027B000044B30607C60D7F81CA0BAF1000F04D540
:1027C000204600F027FE824607E0524600212046C0
:1027D00000F03CFE08B1A0EB040AC7F810A09BE093
:1027E00050F8042B306002A9404600F02DF9002873
:1027F00040F192803CE23068306050F8041B306059
:1028000002910DA87860782155E09DF832006C287F
:102810000DD0712818BF6A2809D13068C01D20F07A
:1028200007023260D2E900010832326004E0316808
:10283000316051F8040B316002909DF83200682835
:1028400002D102A8008803E0622802D102A8007821
:10285000029097F82400000728D5029830B344F07E
:102860002000782822D1F868302100F80910401C97
:10287000411CF96000F8094018E09DF8320031462B
:1028800000F0BCF80028029002D5F8682D2109E07C
:10289000B88C810702D5F8682B2103E0C00705D565
:1028A000F868202100F80910401CF8600DA8F968AC
:1028B00008187860214602A800F0DFF92CE09DF8A6
:1028C00032006C2809D00120F8603068306050F880
:1028D000041B30608DF834101EE03068306001AAAF
:1028E00050F8041B3060ADF804100020ADF806006D
:1028F00002A94FF0FF30F861404600F0A5F800282B
:102900000AD577E70120F86025208DF834001CB146
:102910000220F86089F80140386AF968401A79693C
:10292000401A3969441A97F82400400711D420202E
:10293000012C8DF800000CDBA24601236A4602A997
:10294000404600F001FA00287FF454AFBAF1010AC2
:10295000F3D1D7F80CB0BBF1000F0DF1340A0DD054
:102960001AF8011B0398C047002803903FF442AFB8
:10297000B869401CBBF1010BB861F1D1D7F814A0C4
:102980003020BAF1010F8DF800000BDB01236A46FD
:1029900002A9404600F0D8F900287FF42BAFBAF125
:1029A000010AF3D1D7F810B0D7F804A0BBF1000F9B
:1029B0000DD01AF8011B0398C047002803903FF47C
:1029C00019AFB869401CBBF1010BB861F1D197F8A0
:1029D000240040077FF50EAE2020012C8DF800006A
:1029E000FFF608AE01236A4602A9404600F0ACF9A2
:1029F00000287FF4FFAE641EF4D1FBE5622815D0F9
:102A000068280CD06C2818BF742816D07A2814D1E6
:102A10000A680A6052F8040B0A60002170470A68CD
:102A20000A6052F8040B0A6000B20BE00A680A6000
:102A300052F8040B0A6040B204E00A680A6052F8D7
:102A4000040B0A60C11770472DE9F44F0D4694B08E
:102A50002F6A002F804648BF6FF0004700F022FD2C
:102A6000696A401801900FF22030D0E90023CDE9C7
:102A7000022395F82800400702D40198412805D286
:102A800040200DF110090190002606E000F010FD35
:102A90005FEA0009F8D1EBE03F1B012FC0F2948000
:102AA0001498018802AA0DF1010000F059FD0028D8
:102AB000044600F19C801498008810B9641E00F14F
:102AC0009680A742C0F2808028690199221891421D
:102AD00068D26E624042A969401A6969461A95F83F
:102AE0002800400710D42020012E8DF800000BDBB9
:102AF000B24601236A462946404600F025F90028DF
:102B000075D1BAF1010AF4D1D5F810B0BBF1000FBC
:102B1000CA460CD01AF8011B6868C04700286860D4
:102B200065D0E869401CBBF1010BE861F2D13020AF
:102B30008DF80000D5F818A0BAF1010F0ADB0123C7
:102B40006A462946404600F0FFF800284FD1BAF106
:102B5000010AF4D1D5F814B0D5F808A0BBF1000FE4
:102B60000CD01AF8011B6868C047002868603ED086
:102B7000E869401CBBF1010BE861F2D195F828002F
:102B800040070DD52020012E8DF8000008DB012321
:102B90006A462946404600F0D7F840BB761EF6D17B
:102BA00000262E61224628690DF101014844FFF7F5
:102BB0009DFC2869201828611498801C1490801EA0
:102BC000008800287FF468AF686A2969401AA969FB
:102BD000401A6969471A95F8280040070FD4012F59
:102BE0000DDB3C4668682021C047686010B94FF093
:102BF000FF3635E0E869401C641EE861F2D12B69BC
:102C00004A462946404600F09FF80028EFD1AC69BB
:102C1000012C0ADB68683021C04700286860E6D0D4
:102C2000E869401C641EE861F4D16B69AA68294612
:102C3000404600F089F80028D9D195F828004007CF
:102C40000CD5012F0ADB68682021C0470028686086
:102C5000CDD0E869401C7F1EE861F4D12E616E6220
:102C600004A881451CBF484600F088FC304601E0BE
:102C70004FF0FF3015B0BDE8F08FF0B4C2686F2997
:102C800008BF082405D041F02003782B14BF0A2484
:102C9000102418230668642918BF6929374602D111
:102CA000002E48BF7F425FB9056A4DB9082C27D175
:102CB00090F82810090723D530211723D1751FE07C
:102CC000B7FBF4F604FB16773037FFB25D1E3A2FE0
:102CD000A4BFA1F1510C6744AF542B46370003D079
:102CE00085689E18B542EBD3082C09D190F82810BE
:102CF000090705D5995C302902D05B1E3021995413
:102D00009A188260C3F11801026A4161914208DA9F
:102D1000511A81614FF6EF72018D11400185F0BCAF
:102D20007047002A0ED590F8282002F01402102ACD
:102D300008D1426A0369D21A8369D21A531A012B45
:102D4000A8BF8361F0BC7047F8B504460D4616462F
:102D50001F46002077B116F8011B6868A04768601D
:102D600030B1E869401CE86100207F1EF3D1F2BD5C
:102D70004FF0FF30F2BD0000000000000000000036
:102D8000686C747A4C000000000000000000000035
:102D9000F0B5044681B02078DFF83C54C00734D544
:102DA000A86800F00C00042807D0A86800F00C0008
:102DB00008280AD16868400207D52868800324D50E
:102DC000606810BB012001B0F0BD6068A870606849
:102DD00068B1FFF721F906462868800315D4FFF78C
:102DE0001BF9801B6528F7D3032001B0F0BDFFF766
:102DF00013F906462868800307D5FFF70DF9801BF5
:102E00006528F7D3032001B0F0BD2078800718D5DE
:102E1000A86810F00C0F07D0A86800F00C00082874
:102E200027D16868400224D42868800702D5E0686A
:102E30000128C7D12868216920F0F80040EAC100C4
:102E400028602078000747D56069DFF8907398B351
:102E50000120C7F8800EFFF7DFF80646686F80078D
:102E60003AD4FFF7D9F8801B0328F7D3032001B029
:102E7000F0BDE068DFF8647378B101203860FFF7D7
:102E8000CBF8064628688007D4D4FFF7C5F8801B26
:102E90000328F7D3032001B0F0BD3860FFF7BCF87A
:102EA000064628688007CCD5FFF7B6F8801B0328B4
:102EB000F7D3032001B0F0BDC7F8800EFFF7ACF8E0
:102EC0000646686F800707D5FFF7A6F8801B032822
:102ED000F7D3032001B0F0BD2078400743D5002090
:102EE0000090DFF8FC72286C40F080502864286C59
:102EF00000F0805000900098386840F4807038608E
:102F0000FFF78AF806463868C00507D4FFF784F84B
:102F1000801B0328F7D3032001B0F0BDA06885F81B
:102F20007000A06878B1FFF777F8064641F289375C
:102F3000286F800717D4FFF76FF8801BB842F7D3CC
:102F4000032001B0F0BDFFF767F8064641F289376C
:102F5000286F800707D5FFF75FF8801BB842F7D3CB
:102F6000032001B0F0BDA069002849D0A96801F094
:102F70000C0108293FF426AF0228DFF860722FD138
:102F800000203866FFF748F806462868800107D514
:102F9000FFF742F8801B0328F7D3032001B0F0BDF0
:102FA000E069216A0843616A40EA8110A16A891ECA
:102FB000C903090C40EA0140E16A40EA0160686027
:102FC00001203866FFF728F806462868800117D4E4
:102FD000FFF722F8801B0328F7D3032001B0F0BDD0
:102FE00000203866FFF718F806462868800107D5E4
:102FF000FFF712F8801B0328F7D3032001B0F0BDC0
:10300000002001B0F0BDF0B5734E81B00446D6F893
:1030100000040D4600F00F00A84207D286F80054C5
:10302000D6F8000400F00F00A84276D1207880077F
:1030300005D5B068A16820F0F0000843B0602078A2
:10304000C0075CD56068012802D13168890305E0BA
:10305000022818BF032805D13168890105D4012051
:1030600001B0F0BD3168890757D5B168890840EAD9
:103070008100B060FEF7D0FF0746606801280ED1DE
:10308000B06800F00C00042839D0FEF7C5FFC01B63
:1030900041F289318842F3D3032001B0F0BD022808
:1030A0000ED1B06800F00C00082828D0FEF7B4FF5D
:1030B000C01B41F289318842F3D3032001B0F0BD37
:1030C00003280ED1B06800F00C000C2817D0FEF7D2
:1030D000A3FFC01B41F289318842F3D3032001B022
:1030E000F0BDB06810F00C0F09D0FEF795FFC01BC3
:1030F00041F289318842F4D3032001B0F0BDD6F803
:10310000000400F00F0085420AD286F80054D6F879
:10311000000400F00F00A84202D0012001B0F0BD71
:103120002078400705D5B068E16820F4E0500843F6
:10313000B0602078000706D5B068216920F46040AF
:1031400040EAC100B06000F00FF8B2680FF2A801C9
:10315000C2F30312515CC840224908600F20FEF7F9
:1031600044FF002001B0F0BD2048416801F00C018F
:10317000042903D0082903D01D4870471D48704713
:1031800001680268520201F03F014CBF194A184A17
:10319000B2FBF1F102680068C0F30140C2F388128B
:1031A000401C51434000B1FBF0F070470D480E4AFF
:1031B000006812680FF24001C2F38222515CC840DD
:1031C00070470848084A006812680FF22C01C2F3E1
:1031D0004232515CC840704700380240000047420C
:1031E000007000407C000020083802400438024093
:1031F0000024F40040787D01000000000102030477
:10320000010203040607080900B591B002200090EE
:1032100001200390062004900220069000200790D1
:10322000102008904FF48070099008200A90042024
:103230000B906846FFF7ACFD01200C9001210220A5
:103240000D900CA8FFF7DFFE11B000BD70B584B083
:10325000064601A800900C460DF10A0302AA0DF1E2
:1032600006010DF10900FEF7C4F8C5B2A5B9BDF815
:103270000600000A3070BDF8060000022080BDF88C
:1032800004100906090F40EA01102080BDF804105F
:1032900001F00F0108432080FDF759FF284604B0D4
:1032A00070BD10B50C461146A21CA8B0812AA8BF5B
:1032B000422025DA8DF81C008DF81D4022460DF1C4
:1032C0001E00FEF71EF91822002101A8FEF71FF9C3
:1032D0003F20ADF80400CDF814D00C20ADF8060066
:1032E000002107A80390A01CC0B204900120069002
:1032F00001A8FDF7A8FF00284CBFFF209DF80000A3
:1033000028B010BD00B589B08DF804008DF8051007
:103310001822002102A8FEF7FAF83F20ADF80800B5
:10332000CDF818D00F20ADF80A00002101A80490B4
:10333000022005900120079002A8FDF784FF0028D5
:103340004CBFFF209DF8000009B000BDFDF73ABF5B
:1033500010B5040001D1012010BD94F8510020B92E
:1033600084F850002046FEF7B1FE022084F8510098
:103370002068016821F0400101606068A16808438D
:10338000E16808432169084361690843A16901F4C0
:1033900000710843E1690843216A0843A16A0843B0
:1033A00021680860A069616A000C00F0040008430D
:1033B00021684860A06AB0F5005F02D12168E06A28
:1033C00008612068C16921F40061C1610020606565
:1033D000012084F85100002010BDF8B504460D46C8
:1033E00016461F4600F00AF93B463246294620465B
:1033F00001B0BDE8F04000F018B900000278C9B291
:103400008A421AB11CBF10F8012FF9E718BF00203B
:103410007047000000F10103810704D010F8011B80
:1034200089B18107FAD10268B2F10131914311F0FB
:10343000803F04BF50F8042FF6E710F8011B11B1CC
:1034400010F8011BFBE7C01A70470000C9B28307E0
:1034500006D0521E22D310F8013B9942F7D11FE04B
:10346000083A13D302F1040241EA012141EA014181
:1034700050F8043B121F21BF4B40A3F1013C2CEA42
:10348000030C1CF0803FF3D0C9B2001F083210F8C3
:10349000013B521E28BF91EA030FF8D818BF012044
:1034A000401E704780B500F0A9F8012002BD000061
:1034B00070B5054605F10F00C408C046C046E400DB
:1034C000A54232D2082C04D2082402E0083000F0D1
:1034D00055F82248026811000CD1011D0A6802B398
:1034E0001368A34238BF111DF8D310E01D68A54230
:1034F0000DD2191D0B68002BF8D11268011D00E0D8
:10350000191D0B6893420CD01D68A542F8D361B118
:103510000D682A68A2F10803A3420AD26A680A6009
:103520000FE000F0A5F80028D0D1C046C04600202A
:1035300070BD63190B60121B6E685E600B681A60C9
:103540002C60096800291DBF4A68002A091D002156
:103550000160C046C04605F1080070BD200A002089
:1035600070B504460D46164600F048F83246294626
:103570002046BDE8704000F04BB8000000B970472D
:1035800038B5A0F108042068082833D310F0070FDD
:1035900030D1C046C0461848416809B18C4203D2B8
:1035A0006160446017E019464B680BB1A342FAD33F
:1035B0000B685D18AC421BD3A54204D12268D21817
:1035C0000A600C4607E04A681AB123681B199A4240
:1035D0000ED362604C60616851B1226813198B424E
:1035E00006D1002303600868801820604868606086
:1035F000C046C04631BD0000200A002080B5DFF87B
:103600000C0000F04BF8806902BD0000880000202B
:1036100030B430B90FF24800D0E90045C2E90045A6
:103620001BE00170012030BC704730B431B90FF29B
:103630003800D0E90045C3E900450EE01AB930BCB6
:103640006FF00100704708B10A7802800978481EBF
:10365000804130BCC043C00F7047002030BC704771
:10366000000000000000000000000000000000005A
:103670000749086808B1002070470648C008C00024
:1036800008600549C908C900091A0160704700BFF0
:10369000300A0020FF040020F806002070470000D8
:1036A0000E480F4BD0F8801041F47001C0F8801024
:1036B0000C490A6842F001020A6000228A600A6826
:1036C0001A400A60084A4A600A6822F480220A60A6
:1036D0000022CA604FF000610160704708ED00E011
:1036E000FFFFF6FE00380240103000247047FEE76E
:1036F00070477047704700B581B0FEF788FC0A48F4
:103700000168491C016001B000BD0120FEF7CABB81
:1037100000B581B04FF40050FEF7C4FB034901200F
:10372000087001B000BD00002C0A0020340A0020FF
:1037300019E050F8041BCB0744BFA9F10103591845
:10374000121F0023042A41F8043BF9D25FEA827C6D
:103750000B4604D54FF0000CA1F800C09B1CD1070C
:1037600044BF0021197050F8042B002AE1D17047A2
:1037700030B5016842688468091801EB5203D2072A
:1037800048BF4C440C30994200D130BD11F9012B97
:1037900011F8015B002A04F8015B02D5521CF9D133
:1037A000F1E7521EF4D5EEE710B507497944183118
:1037B000064C7C44163404E00A68081D51188847FA
:1037C0000146A142F8D110BD2C00000048000000C5
:1037D0004EF68851CEF20001086840F4700008608F
:1037E000BFF34F8FBFF36F8F4FF00070E1EE100A01
:1037F000704700003DFFFFFF40030000F806002077
:10380000000000006DFFFFFF540100002E000000CB
:103810000000002000F00BF8002801D0FFF7C4FFE3
:103820000020C046C046FEF79AF800F002F80120DA
:10383000704700F001B800000746384600F002F873
:10384000FBE7000080B5C046C046024A11001820C0
:10385000ABBEFBE726000200014880470148004755
:10386000A136000869380008C046C046FFF7B0FF1F
:10387000FFF7D0FFE8030000FFF7FEBFFFF7FEBF32
:10388000FFF7FEBFFFF7FEBFFFF7FEBFFFF7FEBF6C
:10389000FFF7FEBFFFF7FEBFFFF7FEBFFFF7FEBF5C
:1038A000FFF7FEBFFFF7FEBFFFF7FEBFFFF7FEBF4C
:1038B000FFF7FEBFFFF7FEBFFFF7FEBFFFF7FEBF3C
:1038C000FFF7FEBFFFF7FEBFFFF7FEBFFFF7FEBF2C
:1038D000FFF7FEBFFFF7FEBFFFF7FEBFFFF7FEBF1C
:1038E000FFF7FEBFFFF7FEBFFFF7FEBFFFF7FEBF0C
:1038F000FFF7FEBFFFF7FEBFFFF7FEBFFFF7FEBFFC
:10390000FFF7FEBFFFF7FEBFFFF7FEBFFFF7FEBFEB
:10391000FFF7FEBFFFF7FEBFFFF7FEBFFFF7FEBFDB
:10392000FFF7FEBFFFF7FEBFFFF7FEBFFFF7FEBFCB
:10393000FFF7FEBFFFF7FEBFFFF7FEBFFFF7FEBFBB
:10394000FFF7FEBFFFF7FEBFFFF7FEBFFFF7FEBFAB
:10395000FFF7FEBFFFF7FEBFFFF7FEBFBF0003018B
:10396000000001CF00080240000802400024F48B50
:0339700000000153
:00000001FF
