:020000040800F2
:10000000C8070020A9010008C91F0008AD1E00088C
:10001000B5010008B7010008B901000800000000A0
:10002000000000000000000000000000E1200008C7
:10003000C10B00080000000029200008E52000088E
:10004000C3010008C3010008C3010008C301000880
:10005000C3010008C3010008C90B0008C301000860
:10006000C3010008C3010008C3010008C301000860
:10007000C3010008C3010008C3010008C301000850
:10008000C3010008C3010008C3010008000000000C
:10009000000000000000000000000000C301000894
:1000A000C3010008C3010008C3010008C301000820
:1000B000C3010008C3010008C3010008C301000810
:1000C000C3010008C3010008C3010008C301000800
:1000D000C3010008C3010008C301000800000000BC
:1000E000D10B0008C3010008C30100080000000094
:1000F000000000000000000000000000C301000834
:1001000000000000C3010008C3010008C30100088B
:1001100000000000000000000000000000000000DF
:10012000C3010008C3010008C3010008C30100089F
:10013000C3010008000000000000000000000000F3
:10014000000000000000000000000000C3010008E3
:10015000C3010008C3010008C3010008C30100086F
:10016000C3010008C30100080000000000000000F7
:10017000000000000000000000000000000000007F
:1001800000000000C30100080000000000000000A3
:10019000C3010008DFF80CD000F034FA0048004733
:1001A0008D380008C80700200648804706480047E9
:1001B000FEE7FEE7FEE7FEE7FEE7FEE7FEE7FEE717
:1001C000FEE7FEE7352100089501000810B540EA7A
:1001D00001040346A40703D009E010C9121F10C38D
:1001E000042AFAD203E011F8014B03F8014B521E26
:1001F000F9D210BD10B50346C9B201E003F8011BE6
:10020000521EFBD210BD30B50B4601460020202205
:10021000012409E021FA02F59D4205D303FA02F513
:10022000491B04FA02F52844151EA2F10102F1DC73
:1002300030BD2DE9F05F0546002092469B4688467A
:100240000646814640241BE0284641464746224652
:1002500000F0F9F953465A46C01A914110D311469D
:100260001846224600F0E0F92D1A67EB01084F46C8
:1002700022460120002100F0D7F917EB00094E417A
:10028000201EA4F10104DFDC484631462A464346DD
:10029000BDE8F09F2DE9FE4F804681EA0300C00FC4
:1002A0000C46009021F0004123F00045B8EB02001D
:1002B000A94105D24046214690461C460B460246BF
:1002C00023F00040104347D0270DC7F30A00C3F3C3
:1002D0000A510290401A019040286BDAC3F31300D0
:1002E00040F4801B0098924620B10023D2EB030A11
:1002F00063EB0B0B01985946C0F14002504600F0E9
:1003000093F906460D4650465946019A00F0ABF95E
:1003100010EB08006141002487EA115284EAE77378
:100320001A4340D0009A62B3019A012A4FEA075259
:1003300015DC001B61EB02014FF0004202EA07529C
:10034000CDE90042001C41F5801132462B4600F0F9
:10035000ABF903B0BDE8F08F40462146F9E7001B3A
:1003600061EB0201001C41F5801300185B4120186D
:10037000A2F5001747EB030140EAD570B6196D41AD
:1003800011E06D084FEA360645EAC0754FEA07529C
:10039000001B61EB0201001C41F5801149084FEA86
:1003A00030000019514132462B4603B0BDE8F04FF2
:1003B00000F06BB90098012240000023D0EB02024C
:1003C00063EBE073009821464FEAE074B8EB00005D
:1003D00061EB0401E9E783F000435BE781F0004152
:1003E00058E72DE9FE4F81EA030404F0004421F0B0
:1003F000004100944FF0000B23F0004350EA010449
:100400005ED052EA03045BD0C3F30A54C1F30A5529
:100410002C44A4F2F3340194A0FB0254C1F3130161
:1004200041F48011C3F3130343F4801301FB02442E
:1004300000FB034E840A970A44EA815447EA835733
:10044000A4FB076802958D0A05FB07854FEA932CEC
:1004500004FB0C542705029D4FEA065847EA16375D
:10046000B5EB08056EEB070C870E920E47EA811775
:1004700042EA8312A7FB0201B6EB0B0164EB000416
:100480002B0D43EA0C335E1844EB1C50DA46514600
:10049000E7FB0201C5F313044FEA0B3343EA14539D
:1004A0004FEA0432019C43EA0603A4F10C040294CF
:1004B000009CCDE900B400F0F7F803B0BDE8F08F80
:1004C00000200146F9E72DE9F04D81EA030404F02C
:1004D000004B21F0004514464FF0000A23F0004184
:1004E00050EA050220D054EA01021DD0C5F30A5794
:1004F0000246C5F31303C1F31300C1F30A5640F4D7
:10050000801543F48013A7EB0608101BD64608F2AB
:10051000FD3873EB050002D308F1010801E09218E1
:100520005B41B8F1000F03DA00200146BDE8F08D11
:1005300000204FF48011064684460EE0171B73EB33
:10054000050705D3121B63EB050306434CEA010CB8
:1005500049084FEA300092185B4150EA0107EDD19B
:1005600052EA030012D082EA040083EA050108433C
:1005700005D0101BAB4106D20122002306E0002269
:100580004FF0004302E06FF0010253101AEB060037
:100590004CEB085110EB0A0041EB0B01BDE8F04DAC
:1005A00000F073B8C1F30A52C1F3130140F2FF33F4
:1005B00041F480119A4202DA00200146704740F26D
:1005C00033439A42A2F2334202DC524200F03BB87B
:1005D00000F02AB830B5041E71F1000404DB4FF0BE
:1005E0000044404264EB0101141E73F1000405DB7A
:1005F0001C464FF00043524263EB0403994208BF8C
:10060000904230BD064C074D06E0E06840F0010323
:1006100094E8070098471034AC42F6D3FFF7BEFDCC
:10062000A43D0008C43D0008202A04DB203A00FA5B
:1006300002F1002070479140C2F1200320FA03F339
:10064000194390407047202A04DB203A21FA02F037
:100650000021704721FA02F3D040C2F120029140FC
:10066000084319467047202A06DBCB17203A41FA87
:1006700002F043EAE07306E041FA02F3D040C2F12F
:100680002002914008431946704710B5141E73F1BB
:10069000000408DA401C41F1000192185B411A4342
:1006A00001D120F0010010BD2DE9F04D92469B468E
:1006B00011B1B1FA81F202E0B0FA80F22032904634
:1006C000FFF7B2FF04460F4640EA0A0041EA0B0179
:1006D00053465A46084313D0114653EA010019D035
:1006E000C8F140025046FFF7AEFF05460E465046A1
:1006F00059464246FFF798FF084305D0012004E021
:1007000020463946BDE8F08D0020054346EAE076F4
:100710002C4337430A986305E40AA0EB0800002243
:10072000FD0A44EA47540A3002D500200146E9E7B1
:10073000010510196941DDE9084500196941BDE865
:10074000F04DA2E7F0B525A193B00FC906AC84E83F
:100750000F0026A10AAC0FC984E80F0027A30EAC36
:100760000FCB84E80F00294800900723012206A937
:10077000022002F024FD18BB24480027801C01251C
:10078000102602970590CDE90365A0F10E04CDE98E
:10079000006714230AAA0221A08902F0B3FC78B9E9
:1007A00004F11000CDE904500C20CDE90256CDE94A
:1007B000000714230EAA0221A08902F0A3FC28B18D
:1007C00013A001F017FC472013B0F0BD228AE18985
:1007D00018A001F00FFC0020F6E70000669A0C203C
:1007E0000008969EE2119EB1E0F273D9669A0C2041
:1007F0000008969EE2119EB1E1F273D9669A0C2030
:100800000008969EE2119EB1E2F273D9100000201A
:100810004572726F72207768696C652061646469E3
:100820006E672053616D706C6520536572766963E5
:10083000652E0A0053616D706C6520536572766990
:1008400063652061646465642E0A545820436861BE
:10085000722048616E646C6520253034582C20521B
:100860005820436861722048616E646C65202530B1
:1008700034580A00094B30B41C8A641CA04203D1CE
:1008800030BC104603F03CB9D989891C884203D199
:100890001078012800D1587030BC70470400002047
:1008A0000C480B494FF4007201604FF482714160B3
:1008B00000218160C1600161C0E905120162072267
:1008C000C26241620822C261816200F07FBE000004
:1008D00000300140B000002070B50446114886B0D9
:1008E0000021026842F00102026000680E4E00F032
:1008F0000100059036F8140000900120CDE90101B7
:100900000A4D0220039055F82400694600F06CFA65
:1009100036F8141055F82400002200F032FB06B01F
:1009200070BD0000303802408E3D000848000020B5
:100930000449054A31F8101052F82000002200F056
:1009400020BB00008E3D0008480000200449054AF5
:1009500031F8101052F82000012200F012BB000004
:100960008E3D0008480000200349044A31F8101069
:1009700052F8200000F001BB8E3D00084800002026
:100980000349044A31F8101052F8200000F0F0BA80
:10099000903D00084C00002030B50446194887B04F
:1009A0000022036843F0040303600068174B00F063
:1009B000040005901448C1B1012914D130F8140085
:1009C00000901348CDE9010253F82400694600F075
:1009D0000BFA0D4D00222D1F0F21285700F02AFB86
:1009E000285700F01BFB07B030BD30F81400CDE9EC
:1009F000000202200290039053F82400694600F0A0
:100A0000F3F9F0E730380240903D00084C00002038
:100A10000000211010B50121034800F0A9FA0128B7
:100A200000D0002010BD00000000024070B50A4D4B
:100A30004FF4807400222146284600F0A2FA0520D7
:100A400000F0B8F901222146284600F09AFABDE8E4
:100A50007040052000F0AEB9000002402DE9F047DB
:100A600088B088468246FF2020A18DF81800D1E981
:100A70000001CDE90401DFF87C90164600242246EF
:100A80000221484600F07DFA0F27052301AA04A998
:100A90005046009700F088FE9DF80400022815D10A
:100AA000BDF8075095B1B5420ED935460CE001238B
:100AB00003AA06A95046009700F076FE9DF80C1098
:100AC00008F80410641CE4B2AC42F0D30122022105
:100AD000484600F056FA0020009000BF401C0090ED
:100AE0000228FADB08B02046BDE8F0870B000000C2
:100AF00000000000000002402DE9F04F834626A0D0
:100B00008A46C5B0D0E900104E9ECDE9431024A01E
:100B10001F46D0E90010CDE941109146002406207F
:100B200000F071FADFF8808000220221404600F0D8
:100B300028FA0F25052341AA43A95846009500F03D
:100B400033FE9DF8040102280CD0641E012202210C
:100B5000404600F016FA062000F060FA45B0204644
:100B6000BDE8F08F9DF80501B919884211D337B15E
:100B70003B4601AA51465846009500F015FE002E4E
:100B8000E4D0334601AA49465846009500F00CFED1
:100B9000DCE76FF00104D9E70A0000000000000064
:100BA000AA000000000000000000024001490120EE
:100BB00008607047143C014000F0E8B900F0FAB852
:100BC0007047062000F01FBA012000F001B90000B4
:100BD00010B54FF4005000F0FBF8024901200870F6
:100BE00010BD000040000020062000F017BA0020D1
:100BF000FFF7BAFE642000F0DDF8F8E770B50546AF
:100C00000A4801224261C18009A001F0F3F90524DC
:100C10000DA0295D01F0EEF9641E002CF8DC2978A6
:100C2000BDE870400AA001F0E5B900000400002012
:100C3000436F6E6E656374656420746F20646576BF
:100C40006963653A00000000253032582D0000002D
:100C5000253032580A00000070B5074C0025656148
:100C600006A001F0C7F9012020706570A570E5703D
:100C70002571657170BD0000040000204469736334
:100C80006F6E6E65637465640A00000070B515468A
:100C900002462D482D4C03782089401C13B12C4B63
:100CA0001B7833B182424ED12846BDE8704002F035
:100CB00027BF824247D1E06A58B926A001F09AF9CD
:100CC000FFF77AFF6062E97C286961F31F60401ECC
:100CD0002063E97C286961F31F606063216B4A1C13
:100CE000904204D0A26B411A1144491EA1632063B3
:100CF000E06A401CE06226D04FF4FA75B0FBF5F1D3
:100D000005FB110000281ED1FFF756FFA062616AA3
:100D1000DFED130A421A00EE102A294611A0B8EEA0
:100D2000400A80EE801ABDEEC10A10EE103A01F0C2
:100D300061F9A16B11B11AA001F05CF9FFF73CFF5A
:100D400060620020A06370BD02000020040000204B
:100D500001000020546573742073746172740A007A
:100D600000409C472564207061636B6574732E207E
:100D7000456C61707365642074696D653A20256403
:100D8000206D732E20417070207468726F756768D3
:100D90007075743A202564206B6270732E0A00000F
:100DA0002564206C6F7374207061636B65742873A5
:100DB000290A000031B500F0E9F8044600F0E6F831
:100DC0000099001B8842F9D338BD00F0C3BF000072
:100DD000044910B50A68024202D00860FFF7F5FF27
:100DE00010BD0000143C01402DE9F84FDFF860B160
:100DF00000224FF001084FF0030A4FF00F090BF1EA
:100E0000040E00BF0B6808FA02F42340A3426ED11F
:100E10004D68022D01D0122D0ED1D50800EB850CA6
:100E2000DCF820505607F70E09FA07F6B5430E69AD
:100E3000BE402E43CCF82060066855000F790AFAB0
:100E400005FC07F0030726EA0C06AF4037430760AE
:100E50004E68012E05D0022E03D0112E01D0122E85
:100E60000ED18668CF6826EA0C06AF40374387600C
:100E70004668A6430C79C4F300149440344344609C
:100E8000C6688C6826EA0C06AC403443C4604C68E3
:100E9000E40056D52F4C256845F48045256024682C
:100EA00022F0030504F4804400942B4C2E19D6F84C
:100EB000084895072F0F09FA07F5AC43274DA842BC
:100EC00001D1002515E0264DA84201D1012510E0F1
:100ED000244DA84201D102250BE0234DA84201D1A7
:100EE000032506E0214DA84202D1042501E028E0B7
:100EF0000525BD402543C6F80858DBF800405D468F
:100F00004E689C43F60300D51C432C60DEF800407D
:100F100075464E689C43B60300D51C432C600C4DAF
:100F200008352C684E689C43F60200D51C432C60A3
:100F3000074D0C352C684E689C43B60200D51C4307
:100F40002C60521C102AFFF45DAFBDE8F88F000042
:100F5000003C0140443802400030014000000240A3
:100F60000004024000080240000C02400010024051
:100F70000069084000D00120704742694A40426140
:100F800070470AB1816170470904FBE701480068B6
:100F9000704700005800002002480168491C0160A9
:100FA00070470000580000200B4810B5016841F45C
:100FB00000710160016841F480610160016841F4E1
:100FC00080710160032000F055F80F2000F006F852
:100FD00000F018F8002010BD003C024010B5044697
:100FE00007484FF47A710068B0FBF1F000F013FD90
:100FF00000222146501E00F01DF8002010BD000008
:1010000054000020704700F01F0201219140400968
:10101000800000F1E020C0F88011704700F01F024E
:10102000012191404009800000F1E020C0F800114A
:1010300070470000F0B40E4B1B680C46C3F302234C
:10104000C3F10705042D00D90425191D072901D274
:10105000002300E0DB1E012606FA05F1491E2140AF
:1010600099409E40761E16403143F0BC00F0ADBF63
:101070000CED00E0064900F0070208684FF6FF0398
:10108000184040EA0220034A1043086070470000FD
:101090000CED00E00000FA052DE9F047DFF864915F
:1010A00005460F46D9F8000000F00F01F8B280465F
:1010B000B94208D2014689F80010D9F8000000F0C2
:1010C0000F00B84274D128784F4C800705D52068AE
:1010D000A96820F0F000084320602878C00759D0A4
:1010E00049496868083901281AD002281BD003280A
:1010F00019D00968890700295ADA216821F003010B
:1011000001432160FFF742FF6968064641F28830DB
:10111000012911D002291DD00329824627D035E0AC
:1011200009688903E7E709688901E4E7FFF72EFF0B
:10113000811B514501D926E082462068C0F3810019
:101140000128F3D126E000BFFFF720FF811B5145A6
:1011500001D918E082462068C0F381000228F3D14B
:1011600018E000BFFFF712FF811B51450BD8206824
:10117000C0F381000328F5D10CE000BFFFF706FFA4
:10118000811B514502D90320BDE8F087206810F08B
:101190000C0FF3D1D9F80010484601F00F01B94205
:1011A00008D980F80080006800F00F00B84201D034
:1011B0000120E9E72878400705D52068E96820F490
:1011C000E050084320602878000706D52068296988
:1011D00020F4604040EAC100206000F04BF8216834
:1011E000F02292FAA2F201F0F001B2FA82F2D140BA
:1011F000064A515CC840064908600F20FFF7EEFE22
:101200000020C1E7003C024008380240923D00083F
:101210005400002008480949006809684FF4E0526A
:1012200092FAA2F201F4E051B2FA82F2D140044AF9
:10123000515CC8407047000054000020083802404C
:10124000923D000808480949006809684FF4604267
:1012500092FAA2F201F46041B2FA82F2D140044A59
:10126000515CC8407047000054000020083802401C
:10127000923D000830B51948006810F00C0118487C
:1012800012D0184C04290ED008290DD11349091F7A
:101290000A6802F03F030A68550247F6C07204D597
:1012A000B4FBF3F003E0204630BDB0FBF3F00B6875
:1012B0000968134092FAA2F2B2FA82F2D34058437C
:1012C0004FF4403292FAA2F201F44031B2FA82F2C3
:1012D000D140491C4900B0FBF1F030BD0838024054
:1012E0000024F40040787D012DE9F84F0446DFF832
:1012F000CC820078A8F1040BC007ABF1040537D00D
:10130000D8F800104046C1F38101012908D00068D7
:10131000C0F3810002280AD1DBF80000400206D5A4
:101320002868800324D56068002878D020E0A3498D
:101330002079891F0870606868B1FFF727FE0646AC
:1013400005E000BFFFF722FE801B642868D82868EC
:101350008003F7D50CE0FFF719FE064605E000BF55
:10136000FFF714FE801B6428F0D828688003F7D4A8
:101370002078934E80074FF0010A4FF0000742D5C6
:10138000D8F80010404611F00C0F08D00068C0F3E8
:10139000810002280AD1DBF80000400206D4286848
:1013A000800714D5E068012839D110E0E068D8B191
:1013B000C6F800A0FFF7EAFD814605E0FFF7E6FD6D
:1013C000A0EB09000228C1D828688007F6D5286854
:1013D000F82292FAA2F22169B2FA82F220F0F80021
:1013E0009140084328600EE03760FFF7CFFD81464B
:1013F00006E000BFFFF7CAFDA0EB090002280FD8E6
:1014000028688007F6D42078000728D56D486169E0
:10141000A1B1C0F800A0FFF7B9FD814608E0CAE01D
:1014200079E000BFFFF7B2FDA0EB0900022872D8F7
:1014300062486C3000688007F4D510E00760FFF761
:10144000A5FD814606E000BFFFF7A0FDA0EB090067
:10145000022860D859486C3000688007F4D420789E
:10146000400749D555483830016841F08051016046
:10147000006800F0805000905348016841F480718A
:101480000160FFF783FD814606E000BFFFF77EFDA8
:10149000A0EB090002283ED84B480068C005F5D5EE
:1014A000DFF81891207A09F1680989F80000A0682E
:1014B00088B1FFF76BFD009008E000BFFFF766FD05
:1014C0000099411A41F2883081426CD8D9F8000065
:1014D0008007F3D510E0FFF759FD009008E000BF4A
:1014E000FFF754FD0099411A41F2883081425AD8E1
:1014F000D9F800008007F3D4A069E0B3D8F8001051
:10150000C1F38101022956D00228376604D0FFF7C3
:101510003DFD04464AE046E0FFF738FD074604E09B
:10152000FFF734FDC01B02283DD828688001F7D49E
:10153000D4E90701084347F6C07292FAA2F2616A41
:10154000B2FA82F29140A26A4FF0FF3303EB5202EB
:101550004FF4403393FAA3F3B3FA83F39A40114361
:1015600008434FF0706292FAA2F2E16AB2FA82F294
:101570009140084300E01CE0CBF80000C6F860A0F2
:10158000FFF704FD044604E0FFF700FD001B0228FE
:1015900009D828688001F7D50BE000BFFFF7F6FCFB
:1015A000001B022802D90320BDE8F88F28688001BB
:1015B000F4D40020F8E70120F6E7000008380240E4
:1015C00000004742800E47420070004070B50400A2
:1015D00004D094F85100002510B106E0012070BD40
:1015E00084F85050204600F037F8022084F851006B
:1015F0002068016821F040010160D4E9010108433D
:10160000D4E903121143084361690843218B01F4B3
:1016100000710843E1690843216A0843A16A08434D
:1016200021680860A069042101EA1040616A08434A
:1016300021684860A06AB0F5005F02D12168E06AC5
:1016400008612068C16921F40061C16165650120FC
:1016500084F85100002070BD2DE9F04300684D4929
:1016600087B088427DD14C480024016841F00101D7
:101670000160016801F001010591016841F002017A
:101680000160016801F002010591016841F001016A
:101690000160016801F001010591016841F001015B
:1016A0000160016801F001010591016841F001014B
:1016B0000160016801F001010591016841F001013B
:1016C0000160006800F001000590334814300168A3
:1016D00041F480510160006801254FF48076CDE926
:1016E000006500F48050CDE90440CDE90254DFF8F4
:1016F000AC9069464846FFF777FB002231464846E2
:10170000FFF73FFC08200226CDE9000602AA0327C6
:101710004FF0050882E8C00169462148FFF764FBE5
:101720004020CDE9000602AA694682E890014846B9
:10173000FFF75AFB8020CDE9000602AA694682E83D
:1017400090014846FFF750FBCDE900650295CDE9D1
:10175000037469464846FFF747FB012202214846C9
:1017600000E013E0FFF70DFC0E4801A9009581E8A9
:101770009100694648460494FFF736FB0022032196
:101780000620FFF757FC0620FFF748FC07B0BDE82E
:10179000F083000000300140303802400000024079
:1017A00000040240000011102DE9F84F044600200B
:1017B0000A9F9A4693460D46ADF80000064694F8F7
:1017C00050004FF0010901280ED0012084F850008C
:1017D000FFF7DCFB804694F85100616801280CD0CB
:1017E000B1F5827F07D102E00220BDE8F88FA16841
:1017F00009B9042801D0022605E155B1BBF1000F5B
:1018000007D0BAF1000F04D094F85100012802D09B
:1018100004E00126F7E0052084F85100002060650F
:10182000C4F838B0A4F83EA0A4F83CA02563A4F8FE
:1018300036A0A4F834A020646064A06A4FF4005A73
:1018400050450AD1206801684DF6FF7211400160D1
:101850002068016841F40051016020680168490670
:1018600003D4016841F040010160E068B0F5006F09
:10187000606804D0F0B3E08E012847D07FE010B15B
:10188000E08E01283BD1216835F8020BC860E08E5C
:10189000401EE08633E000BFB9F1000F17D0E08EA4
:1018A000A8B120688168890711D535F8021BC1608D
:1018B000E08E401EE086E08E4FF0000938B9A06A45
:1018C000504504D12068016841F480510160E08FE7
:1018D00058B120688168C90707D0C0682BF8020B8F
:1018E000E08F401EE0874FF00109781C07D0FFF71A
:1018F0004DFB00E00AE0A0EB0800B84271D2E08E98
:101900000028C9D1E08F0028C6D13EE0216815F833
:10191000010B0873E08E401EE08630E0B9F1000F45
:1019200017D0E08EA8B120688168890711D515F815
:10193000011B0173E08E401EE086E08E4FF000092F
:1019400038B9A06A504504D12068016841F480513B
:101950000160E08F58B120688168C90707D0C0686E
:101960000BF8010BE08F401EE0874FF00109781C57
:1019700005D0FFF70BFBA0EB0800B84231D2E08E98
:101980000028CBD1E08F0028C8D1A06A504513D1E0
:1019900001223B4611462046CDF8008000F055FB61
:1019A00020B1606D40F0020060651AE02068C068F8
:1019B000ADF80000BDF8000020688168C90607D5B1
:1019C000616D41F0020161654FF6EF7181600126A2
:1019D0003B46012202212046CDF8008000F035FB75
:1019E00008B103260FE042463946204600F01DFBB1
:1019F00018B101262020606505E0A06818B92068AC
:101A0000C16880680090012084F85100002084F8AB
:101A100050003046E9E610B5401EB0F1807F01D39A
:101A2000012010BD4FF0E02460610F21601700F02D
:101A3000CCFA0020A06107202061002010BD70B505
:101A4000040004D094F83900002510B106E001200C
:101A500070BD84F83850204600F022F8242084F825
:101A600039002068C16821F40051C160204600F0AF
:101A7000A1FB2068016921F490410161206841695E
:101A800021F02A0141612068C16841F40051C16020
:101A9000E563202084F8390084F83A00002070BD06
:101AA00030B5194887B0016841F001010160016853
:101AB00001F001010591016841F001010160006838
:101AC00000F00100059010481030016841F4003129
:101AD00001600068012100F40030059004200090AE
:101AE0000220CDE901010724CDE90304074D694631
:101AF0002846FFF779F908200090694604942846A3
:101B0000FFF772F907B030BD3038024000000240E4
:101B10002DE9F843044690F839001E4617460D4655
:101B2000202850D135B32FB394F8380001284AD07B
:101B3000012084F838004FF00008C4F83C802120D0
:101B400084F83900FFF722FAA784E78481464FF42E
:101B50008057E08C4B46401EE084A0684FF00002A6
:101B6000B8424FF080012046009611D100F078FC79
:101B700000BB02E00120BDE8F8832888C0F308011B
:101B800020684160206908B16D1C08E0AD1C06E0CA
:101B900000F066FC70B9216815F8010B4860E08C14
:101BA0000028D6D14B46002240212046009600F066
:101BB00057FC08B10320DEE7202084F8390084F8C0
:101BC00038800020D7E70220D5E7000070B5441C1C
:101BD000007804286AD1207805282AD03E282CD005
:101BE000FF2863D134F8021FA1F5406101392ED0DE
:101BF0000E293DD02F48304D0F29007848D01129AB
:101C000054D1002852D12DA000F0F4F9A878A41CDA
:101C100008B12879B8B3E878002847D06879002857
:101C200044D1B4F8031069812FA0BDE8704000F0E2
:101C3000E1B9BDE87040FFF70FB8A178A01C0129F9
:101C400034D14188BDE87040801DFEF7D7BF2C48D5
:101C500004F10602007812F80219012805D032F8C2
:101C6000030BBDE87040FEF705BE32F8050BF8E740
:101C7000221D12F8010B801EC1B232F8020BBDE822
:101C80007040FFF703B8B4F8031029811DA0CCE71A
:101C900000280BD1A978012009B1297939B1E97857
:101CA000002903D06979002900D1687170BD2871BD
:101CB00070BD000001000020040000204556545F64
:101CC000424C55455F474154545F444953435F522A
:101CD0004541445F434841525F42595F555549442D
:101CE0005F524553500A00005258204368617220E9
:101CF00048616E646C6520253034580A000000008D
:101D000000000020545820436861722048616E64CE
:101D10006C6520253034580A0000000070B50B486F
:101D200001F070FD0948083001F06CFD084D0024F9
:101D3000C4EBC40000EB800005EB8001034801F018
:101D400070FD641CE4B2052CF2D370BD600000206D
:101D50000801002008B50020009027E0174801F096
:101D60006CFD30B115490120091F0870FEF71EFFF8
:101D700008BD6946114801F06CFD009980221048A9
:101D80000831FEF76BFE10F0FF0105D0009880F8D7
:101D9000881000F057F820B10848009901F035FD8F
:101DA00004E006480099083001F03BFDFEF7FEFE16
:101DB000FEF730FE0028D1D108BD000060000020F1
:101DC000B000002030B5A1B000242094FEF7F9FE49
:101DD00010E020A9164801F03CFDFEF705FF209811
:101DE0000830FFF7F3FEFEF7ECFE114820990838A3
:101DF00001F017FD0E4801F020FD0028E9D00C4D40
:101E00000C3D287858B90FE0802269460948FEF752
:101E100025FE10F0FF0F02D06846FFF7D7FEFEF751
:101E2000F9FD0028F0D12C70FEF7DEFE21B030BDA8
:101E300068000020B0000020014801F0FEBC000056
:101E400068000020027A00F10801042A01D0012074
:101E5000704790F888008978C01E814201D0022026
:101E60007047002070470000FEB507460D480E463B
:101E70000A2100681C46B0FBF1F1154601A800F0EC
:101E800091F9E4B2EBB23246394607480094FEF7C6
:101E900033FE002804D001A800F076F90028F1D024
:101EA000FEBD0000883D0008B0000020FEE70000F5
:101EB00010B526488CB00024007808B324A30DF197
:101EC0001C0C0FCB8CE80F000021084601F0ABFB87
:101ED00023A000F08FF805940394049407A80D2123
:101EE00006940094CDE9011000231A4619461846BD
:101EF00001F0A8F8014621A000F07CF80CB010BD5C
:101F00001FA000F077F825A1D1E90001CDE9070174
:101F10000020FEF71BFD4FF4FA603C21CDE90410D0
:101F200006902820CDE9004002904FF480400394B1
:101F300007AB0022014600F097FF0028DED019A071
:101F400000F058F86420FEF739FED7E701000020C2
:101F500009426C75654E52475F436861740000002A
:101F600047656E6572616C20446973636F76657254
:101F700061626C65204D6F646520000025640A0075
:101F8000436C69656E742043726561746520436FAC
:101F90006E6E656374696F6E0A000000AA0000E14E
:101FA000800200004572726F72207768696C65204C
:101FB0007374617274696E6720636F6E6E656374AB
:101FC000696F6E2E0A00000070470907090E00288D
:101FD00006DA00F00F0000F1E02080F8141D7047D1
:101FE00000F1E02080F800147047FEF7EFB8FEF72C
:101FF00001B900000FB4802100B5A1B023AB684641
:10200000229A00F0BBFA82B24FF4967369460548F3
:10201000FFF77EFD002801D0FEF7E9FD21B05DF855
:1020200014FB000070000020704738B50B4600928A
:1020300004460022802100F008F8002804D0606DDA
:1020400040F020006065032038BD2DE9F0411D46B9
:1020500017460E460446DDF8188035E0681C33D07C
:102060002DB1FEF793FFA0EB0800A8422CD3206807
:10207000416821F0E00141606068B0F5827F0BD1DA
:10208000A068B0F5004F02D0B0F5806F04D1206891
:10209000016821F040010160A06AB0F5005F0AD13B
:1020A000206801684DF6FF721140016020680168E8
:1020B00041F400510160012084F85100002084F8AF
:1020C00050000320BDE8F0812068806836EA0000F7
:1020D00004D00020B842C1D10020F3E70120F9E785
:1020E0007047000010B5FEF757FF02484168491CD1
:1020F000416010BD4000002030B591B002240125A0
:1021000006200094CDE903500020CDE906401020C0
:1021100008900001099008200A9004200B9068465E
:10212000FFF7E2F8CDE90C5401210CA8FEF7B4FF4B
:1021300011B030BD1048016841F4700101600F48D2
:10214000016841F0010101600C4A00210832116070
:1021500002680B4B1A400260031D0A4A1A600268AB
:1021600022F48022026005480C30016002495806C2
:10217000803908607047000088ED00E000380240B8
:10218000FFFFF6FE1030002410B50446FEF714FDE4
:102190002168401A6168401C814201D2012010BDB3
:1021A000002010BD10B504464160FEF705FD20601B
:1021B00010BD00002DE9F04104460068016921F4DA
:1021C0004052E168114301612168C86849F20C621C
:1021D00090432369A268E5691A4363692B431A4354
:1021E0000243CA602168486920F44072A069104324
:1021F0004861E1696425B1F5004F9748974A216825
:102200004FF032083FD0914201D081427CD1FFF79C
:1022100019F800EBC00101EB001061688900B0FB08
:10222000F1F6FFF70FF800EBC00101EB0010616859
:102230008900B0FBF1F0B0FBF5F06FF018014843F6
:1022400006EB800108EB0110B0FBF5F000F0F006A2
:10225000FEF7F8FF00EBC00101EB00106168890098
:10226000B0FBF1F0B0FBF5F006EB0016FEF7EAFF6D
:1022700000EBC00101EB001061688900B0FBF1F7D1
:10228000FEF7E0FFD2E0914201D081423DD1FEF75E
:10229000D9FF00EBC00101EB001061684900B0FB01
:1022A000F1F0B0FBF5F00601FEF7CCFF00EBC0014A
:1022B00001EB001061684900B0FBF1F7FEF7C2FFC7
:1022C00000EBC00101EB001061684900B0FBF1F0C8
:1022D000B0FBF5F06FF01801484307EB800108EB05
:1022E000C100B0FBF5F000F0F80006EB4006FEF789
:1022F000A9FF00EBC00101EB001061684900B0FBD1
:10230000F1F7FEF79FFF3CE055E0FEF783FF00EB9F
:10231000C00101EB001061684900B0FBF1F0B0FBB7
:10232000F5F00601FEF776FF00EBC00101EB0010AF
:1023300061684900B0FBF1F7FEF76CFF00EBC001EC
:1023400001EB001061684900B0FBF1F0B0FBF5F063
:102350006FF01801484307EB800108EBC100B0FBA8
:10236000F5F000F0F80006EB4006FEF753FF00EB37
:10237000C00101EB001061684900B0FBF1F7FEF706
:1023800049FF00EBC00101EB001061684900B0FBA0
:10239000F1F0B0FBF5F06FF01801484307EB800156
:1023A00008EBC100B0FBF5F000F0070021683044F5
:1023B0008860BDE8F081FEF72DFF00EBC00101EB66
:1023C000001061688900B0FBF1F6FEF723FF00EB17
:1023D000C00101EB001061688900B0FBF1F0B0FBB7
:1023E000F5F06FF01801484306EB800108EB01108F
:1023F000B0FBF5F000F0F006FEF70CFF00EBC001BB
:1024000001EB001061688900B0FBF1F0B0FBF5F062
:1024100006EB0016FEF7FEFE00EBC00101EB00101C
:1024200061688900B0FBF1F7FEF7F4FE00EBC00134
:1024300001EB001061688900B0FBF1F0B0FBF5F032
:102440006FF01801484307EB800108EB0110B0FB67
:10245000F5F000F00F00A9E7001401400010014062
:102460002DE9F041984617460E460446069D1DE0AC
:10247000681C1BD02DB1FEF789FDA0EB0800A84217
:1024800014D92068C16821F4D071C1602068416905
:1024900021F001014161202084F8390084F83A00DC
:1024A000002084F838000320BDE8F081206800682F
:1024B00036EA000004D00020B842D9D00020F3E76B
:1024C0000120F9E7F0B5224C85B0207818B1FFF76C
:1024D000EFFC002020701F481F4C204D4078E0B9D1
:1024E00020681F4E1F4F08B1307820B1206838B1E6
:1024F000387818B104E001F0F7FB01E001F0BEFB11
:10250000206850B1307840B1387830B1287820B99F
:102510000020FEF70DFA00F0F7FF0020FEF730FA7A
:10252000002813D10020FEF72BFA0028FAD02068EB
:1025300000280BD02878002808D014220AA1684669
:10254000FDF744FE1421684601F0ECFA05B0F0BD39
:1025500004000020000000201800002005000020DA
:10256000080000200900002030313233343536377E
:1025700038394142434445464748494A7CB5491E9B
:102580001C461546CDE90001044B6A462146284603
:1025900000F0C8F8009A002111707CBD532E00088D
:1025A00002E008C8121F08C1002AFAD1704770471C
:1025B000002001E001C1121F002AFBD1704700007A
:1025C0002DE9FF5FDDE90220010DDDF838B002439F
:1025D00018D044F61050A1F2FF3141430D140F986A
:1025E000012820D0A5EB0B00401C5FEA000A4FF049
:1025F0000004474EDFF81C91A046504616D5CAF19C
:10260000000728E00F98012443A2012808D00021E8
:1026100000980F9BC0E90021C0E90243BDE8FF9F7D
:102620006FEA0B01F4E7CBF10000DEE7074612E0AA
:10263000F80707D02246334640464946FDF7D1FE0B
:10264000804689462246334610461946FDF7C9FEA4
:1026500004460E467F10002FEAD1DDE90201BAF1EF
:10266000000F42464B4602DAFDF7BBFE01E0FDF7E4
:102670002AFF04460E460022284BFDF7ABFF03D885
:102680004FF0FF30014607E00022254B204631463F
:10269000FDF700FEFDF786FF102409E0002C0ADBA1
:1026A0000A220023FDF7C5FD019B30321A55641E36
:1026B00050EA0102F2D1641C019AC4F111031444DE
:1026C0000F9A012A03D0012208430DD10AE00843E2
:1026D00004D000204FF0110B0F9080E7A3EB0B0507
:1026E0006D1E0DE05B4504DD4FF0000205F10105B4
:1026F00004E003DA4FF00002A5F10105002AECD056
:1027000000980F99C0E90231C0E9004586E7000052
:10271000000024400000F03F300000000000F043C3
:102720000000E03F2DE9FF4F95B09B4689460646E5
:1027300000250FE2252877D100242746F84A0121F9
:10274000059400E0044316F8013F203B01FA03F032
:102750001042F7D130782A2811D06FF02F0330784B
:10276000A0F13002092A16D8059A44F0020402EBBF
:10277000820203EB42021044761C0590EFE759F801
:10278000042B0592002A03DA504244F400540590C9
:1027900044F00204761C30782E2816D116F8010F6A
:1027A00044F004042A280DD06FF02F023078A0F1F5
:1027B0003003092B09D807EB870302EB4303C71843
:1027C000761CF3E759F8047B761C30786C280FD020
:1027D00006DC4C2817D068280DD06A2814D104E0F4
:1027E000742810D07A280FD10DE044F400140AE0C8
:1027F00044F4801401E044F440147278824202D11F
:1028000004F58014761C761C307866280BD013DC17
:10281000582877D009DC002875D04528F6D04628FE
:10282000F4D047281AD19DE118E0632835D06428F8
:1028300079D0652812D195E1702873D008DC67281B
:10284000F1D069286FD06E280DD06F2806D1B5E081
:1028500073282CD0752875D0782874D05A461799CB
:1028600090476D1C75E1C4F30250022809D003287B
:102870000DD0D9F8001004280DD00D6009F104091D
:1028800067E1D9F80010EA17C1E90052F6E7D9F874
:1028900000100D80F2E70D70F0E719F8041B8DF8B9
:1028A000001000208DF80100EA46012003E059F8ED
:1028B00004AB4FF0FF3061074FF0000102D40DE090
:1028C00008F101018846B9420FDA8045F8DB1AF8B1
:1028D00008100029F4D108E008F10101884681427E
:1028E000FADB1AF808100029F6D105985B46A0EB30
:1028F000080721463846179A00F094FA284400EB5E
:10290000080507E04DE029E10DE01AF8010B5A46F1
:1029100017999047B8F10108F7D25B46214638462F
:10292000179A13E142E00A220092C4F302524FF0D8
:10293000000A022A08D059F804CB032A4FEAEC71A6
:102940000AD00DE029E02AE009F1070121F0070291
:10295000F2E802C1914609E00FFA8CFC4FEAEC71F3
:10296000042A03D14FFA8CFC4FEAEC71002907DAF4
:102970000A460021DCF1000C61EB02012D2202E08D
:10298000220504D52B228DF80420012203E0E20762
:1029900001D02022F7E7904659E00A2102E01022F8
:1029A0000DE010214FF0000A00910BE010224FF0D3
:1029B000000A44F004040827009203E008224FF0C4
:1029C000000A0092C4F30252022A05D059F804CB3F
:1029D0000021032A08D009E009F1070121F00702CC
:1029E000F2E802C1914605E01FFA8CFC042A01D1ED
:1029F0000CF0FF0C4FF00008220728D5702806D0F5
:102A0000009B83F0100353EA0A0305D00EE0402236
:102A10008DF80420012208E05CEA010206D0302291
:102A20008DF804208DF8050002229046009B83F06B
:102A3000080353EA0A030AD15CEA010201D16207E2
:102A400005D530228DF804204FF001087F1E58284C
:102A500004D034A003900EA802900DE036A0F9E750
:102A600053466046009AFDF7E4FB84460398825C77
:102A70000298401E029002705CEA0100F0D10298B8
:102A800006A9081A00F1200A600702D524F4803450
:102A900000E00127574502DDA7EB0A0000E0002017
:102AA00000EB0A01009005984144401A0590E003AC
:102AB00006D45B462146179A059800F0B3F9054401
:102AC000002706E001A85A46C05D179990476D1C83
:102AD0007F1C4745F6DBE0030CD55B462146179A81
:102AE000059800F09FF9054404E030205A461799F4
:102AF00090476D1C0099481E00900029F5DC08E005
:102B0000029802995A460078491C029117999047F9
:102B10006D1CBAF10001AAF1010AF1DC65E10000C7
:102B200009280100303132333435363738396162A3
:102B30006364656600000000303132333435363767
:102B400038394142434445460000000000F058F93E
:102B50000544761C307800287FF4ECAD19B0284687
:102B6000BDE8F08F620700D4062709F1070222F0C2
:102B7000070CFCE80223E14603F000485FEA080C7A
:102B800002D00FF2702C0DE05FEA045C02D50FF268
:102B9000682C07E05FEAC47C02D00FF2602C01E0F1
:102BA000AFF2700C4FF0FF3823F00043CDF850C067
:102BB00065280CD006DC452809D046281DD04728BA
:102BC0003DD13DE0662818D067287ED138E000214D
:102BD000112F01DB112000E0781CCDE9000106A9CE
:102BE0000EA8FFF7EDFCDDE90F010E9A039100211D
:102BF000009207F1010A04914DE04FF00040009768
:102C0000CDE9011006A90EA8FFF7DAFCDDE90F02F5
:102C100003920E9B11990022DDF80CA00093049200
:102C200011B9791C00EB010AB7EB0A0004D4C0F11A
:102C3000FF3007F1010A0490AAEB0700019044E07D
:102C4000012F00DA01270021112F01DD112000E002
:102C50003846CDE9000106A90EA8FFF7B1FCDDE971
:102C60000F010E9A0391002104910092BA462107A8
:102C70000CD40399514500DA8A46BAF1010F05DDFB
:102C8000009AAAF10101515C302908D0B84202DA59
:102C900010F1040F06DA0121CDE9011015E0AAF1C7
:102CA0000101E9E7002805DC049901440491AAEB3D
:102CB000000102E0411C514500DD8A460499401A9A
:102CC000401C01904FF000400290200704D401986E
:102CD000504501DBCDF8048000208DF84F000298AC
:102CE0000DF14F07B0F1004F25D02B200E90029828
:102CF0004FF0020800280CDA404202902D200E907E
:102D000007E00A210298FDF77EFA3031029007F8B9
:102D1000011DB8F10001A8F10108F2DC02980028B9
:102D2000EFD1791E0E980870307800F0200040F046
:102D3000450007F8020D12A8C01B00F107081498FF
:102D4000007800B1012000EB0A01019801EBE0716D
:102D500005984144401A401E0590E00306D45B46A6
:102D60002146179A059800F05DF8054414980078FC
:102D700018B15A46179990476D1CE00324D55B465D
:102D80002146179A059800F04DF805441CE0049878
:102D9000002807DBDDE90301884203DD0098405C81
:102DA000179901E0179930205A469047049805F189
:102DB0000105401C04900198401E019004D12E2072
:102DC0005A46179990476D1CBAF10001AAF1010A01
:102DD000DDDC05E017F8010B5A46179990476D1C8A
:102DE000B8F10001A8F10108F4DC5B462146179A0E
:102DF0000598ABE62D0000002B000000200000002D
:102E00002DE9F041044600251E461746880404D4E7
:102E100005E039462020B0476D1C641EF9D52846D0
:102E2000BDE8F0812DE9F041044600251E4690469C
:102E3000C80301D5302700E02027880404D505E029
:102E400041463846B0476D1C641EF9D52846BDE89A
:102E5000F0814A68002A06D00A68531C0B60107083
:102E60004868401E486070472DE9F04F8DB016ACA1
:102E700094E8E00FADF80000ADF802108DF80420E2
:102E80006C4606221946601DFFF7AFF8ADF80C60DE
:102E9000ADF81080ADF814A08DF80B50ADF80E70A1
:102EA000ADF81290ADF816B01822002106A8FFF771
:102EB0009EF83F20ADF818009C20ADF81A001820AD
:102EC000CDE908400F2007900CA80A9001200B9034
:102ED000002106A800F0F2FB002803DAFF200DB065
:102EE000BDE8F08F9DF83000F9E770B58AB015465F
:102EF0000E468DF820001C46072200216846FFF789
:102F000076F81822002102A8FFF771F83F20ADF8EB
:102F100008008A20ADF80A0008A804900120059056
:102F200007200790CDF818D0002102A800F0C6FBBA
:102F3000002802DAFF200AB070BD9DF800000028CA
:102F4000F9D1BDF801003080BDF803002880BDF83C
:102F5000050020800020EEE770B58AB01C468DF891
:102F600020008DF82110DDE90E658DF82220072262
:102F700000216846FFF73BF81822002102A8FFF75E
:102F800036F83F20ADF808008A20ADF80A0008A8FE
:102F900004900320059007200790CDF818D0002159
:102FA00002A800F08BFB002802DAFF200AB070BDF7
:102FB0009DF800000028F9D1BDF801002080BDF87F
:102FC00003003080BDF8050028800020EEE72DE9E1
:102FD000F0438FB01D46134616AA6C4692E8C00314
:102FE0008DF800008DF8011010221946A01CFEF784
:102FF000FCFF8DF812508DF813608DF81470CDF829
:1030000015808DF819901822002107A8FEF7EFFF10
:103010003F20ADF81C008620ADF81E001A20CDE937
:1030200009400DA80B9001200C90002107A800F08A
:1030300045FB002803DAFF200FB0BDE8F0839DF8C0
:103040003400F9E72DE9FF4F91B09846DDE91F59AB
:10305000DDE9216BA9190E31DDF878A0282903D903
:10306000422015B0BDE8F08F6C468DF800000127B6
:10307000022212A9601CFEF7B8FFE01C022213A96D
:10308000FEF7B3FF8DF805808DF806A08DF8075088
:103090002A46494602A8FEF7A8FF0835E8B232469C
:1030A0002654401CC5B260195946FEF79EFFA81968
:1030B000C5B26019022223A9FEF797FFAD1CEDB23D
:1030C0006019022224A9FEF790FFAD1CEDB2182270
:1030D00000210AA8FEF78BFF3F20ADF828008320CF
:1030E000ADF82A0010A80F970C94CDE90D500021DF
:1030F0000AA800F0E3FA002801DAFF20B1E79DF802
:103100004000AEE72DE9FF4F8FB00D46DDE91C8B87
:1031100007AC1F46204602220FA9DDF87CA0DDF88F
:103120008490FEF762FF03268DF81E50012D3BD0E0
:103130001025E01C2A461199FEF757FFED1C0322CB
:1031400067556D1C04F805806D1C04F805B06D1CF6
:10315000E8B21E992154401CC0B204F800A0401CE3
:10316000C0B220992154401CC5B200216846FEF728
:103170003EFF1822002101A8FEF739FF3F20ADF8DD
:1031800004004FF48270ADF806006846CDE90450A3
:1031900000210696039401A800F090FA002805DAB1
:1031A000FF2013B0BDE8F08F0225C2E79DF80000B4
:1031B0000028F6D1BDF80110A9F80010F1E72DE9BB
:1031C000F0418CB01E46DDF84880174607AD8DF8FB
:1031D0001C0001282AD010242246681CFEF705FF97
:1031E000641C03222F55641C00212E556846641C64
:1031F000FEF7FDFE1822002101A8FEF7F8FE3F2091
:10320000ADF804004FF48170ADF806006846CDE9D2
:103210000440032006900395002101A800F04EFA17
:10322000002805DAFF200CB0BDE8F0810224D3E7C6
:103230009DF800000028F6D1BDF80110A8F8001094
:10324000F1E77FB58EB06C461E46204602220EA9DD
:10325000169DFEF7CAFEA01C02220FA9FEF7C5FEAE
:10326000201D022210A9FEF7C0FE8DF80660012E77
:1032700023D01026E01D32462946FEF7B6FE18225E
:10328000002106A8F61DFEF7B2FE3F20ADF818009B
:103290004FF48B70ADF81A0007A90F2081E8510098
:1032A0000CA80A9001200B90002106A800F006FA55
:1032B000002804DAFF2012B070BD0226DAE79DF87C
:1032C0003000F8E700B587B0182200216846FEF705
:1032D0008EFE3F20ADF8000040F20110ADF8020074
:1032E00006A80490012005900021684600F0E6F948
:1032F000002802DAFF2007B000BD9DF81800FAE7A9
:103300002DE9FF41A8B09E1DDDF8C8801D46174677
:10331000802E03D942202CB0BDE8F0816C462046B7
:10332000022228A9FEF761FEA01C022229A9FEF7AD
:103330005CFE8DF804708DF80550A01D2A464146AC
:10334000FEF753FEF5B21822002120A8FEF74FFE2B
:103350003F20ADF880004FF48370ADF8820026A8BE
:103360002294CDE9235001202590002120A800F0CF
:10337000A5F9002801DAFF20CDE79DF89800CAE7FB
:10338000FFB5561DA7B01F461546802E02D9422014
:103390002BB0F0BD6C462046022227A9FEF725FE81
:1033A000A01C022228A9FEF720FE8DF80450601D03
:1033B0002A463946FEF719FEF5B21822002120A848
:1033C000FEF715FE3F20ADF8800040F22110ADF869
:1033D000820021A90F2081E8310026A82490012035
:1033E0002590002120A800F069F9002801DAFF20CB
:1033F000CEE79DF89800CBE730B58FB01446142A7D
:1034000002D942200FB030BDADF80000ADF8021077
:103410006D468DF8044022461946681DFEF7E5FD0D
:103420001822002107A8FEF7E2FD3F20ADF81C009E
:1034300040F22310ADF81E000DA8641DCDE90A402E
:1034400001200C900995002107A800F037F9002809
:1034500001DAFF20D6E79DF83400D3E700B589B044
:1034600018228DF81C008DF81D1000216846FEF70B
:10347000BEFD3F20ADF800000F20ADF8020007A808
:1034800002900220039006A80490012005900021DC
:10349000684600F013F9002802DAFF2009B000BDE9
:1034A0009DF81800FAE770B58D1CA8B01346802D62
:1034B00002D9422028B070BD8DF800006C468DF80E
:1034C00001100A4601261946A01CFEF78EFDEDB23A
:1034D0001822002120A8FEF78AFD3F20ADF88000C9
:1034E0000C20ADF8820026A825962294CDE9235021
:1034F000002120A800F0E2F8002801DAFF20D9E737
:103500009DF89800D6E700003EB50FA00068029035
:103510000E48006800EB800041006846FEF742FE5E
:103520000B4C03E06846FEF72FFE48B9208902AB3A
:10353000801C81B20222E088FFF722FF4628F1D0EA
:10354000012060703EBD000001000000883D0008C1
:103550000400002070B586B0064601A80C46009015
:1035600005AB04AA02A903A800F01DF810F0FF059E
:1035700014D1BDF80800000A3070BDF80800000240
:103580002080BDF80410C1F3031140EA011020802F
:10359000BDF8041001F00F0108432080FEF712FC73
:1035A00006B0284670BD2DE9F0418AB015460E469A
:1035B00007461C46092200216846DDF84080FEF7D8
:1035C00016FD1822002103A8FEF711FD0420ADF816
:1035D0000C000120ADF80E00002005900690092097
:1035E0000890CDF81CD0002103A800F067F800284F
:1035F00003DAFF200AB0BDE8F0819DF80000002842
:10360000F8D19DF801003870BDF8020030809DF8B7
:1036100004002870BDF805002080BDF80710A8F848
:1036200000100020E6E730B58FB00D46044620229A
:1036300000216846FEF7DBFC8DF800401F2C00D906
:103640001F2422466C462946601CFEF7CEFC182239
:10365000002108A8FEF7CBFC0820ADF820000920C7
:10366000ADF822002020CDE90A400EA80C900120E0
:103670000D90002108A800F021F8002802DAFF20B0
:103680000FB030BD9DF83800FAE77CB560F39F219C
:10369000ADF80010012014468DF802208DF80400CA
:1036A00069461D460322481DFEF79FFC234604225F
:1036B000294601A800F0A4F87CBD0000F0B50F4633
:1036C0000446018840888BB061F39F2085B24A4848
:1036D0000A210068B0FBF1F60020069004A800F073
:1036E00091F8227B61882088A368FFF7CEFFAFBBEB
:1036F00006B90126314607A8FEF754FD07A8FEF7D4
:1037000043FD00286ED1FEF797FB0028F6D1FDF7A8
:1037100058FA06A9394800F09CF8069800F1080309
:10372000017A042902D0014604A854E090F88820C8
:103730005B78D21E00F10B010E2B15D00F2B04D09D
:10374000102B4FD03E2B36D119E04B88AB4249D1DC
:1037500063680F2B03D00978F1BB2CE01DE0606992
:1037600009E06261206916E0B1F80100A84239D190
:10377000C91C6069D21E9042F3DC0246F1E70B7867
:103780006668B34217D16069521E904200DC02465F
:103790006261491C2069FEF728FC18480699083820
:1037A00000F033F804A9154800F098F9FDF71CFA69
:1037B00000200BB0F0BD014604A800F032F80F481D
:1037C000083800F03AF850B169460C4800F041F86A
:1037D0000A480099083800E004E000F022F8FDF7FC
:1037E00003FA8BE704A9054800F078F9FDF7FCF926
:1037F0004FF0FF30DDE70000883D00086800002042
:10380000FEF732BB006040607047EFF3108272B683
:103810000368C1E900300160086882F310884160E4
:103820007047EFF3108272B6086043684B604160E6
:10383000486882F3108801607047EFF3108172B618
:103840000268824201D1012000E0002081F310884B
:10385000704730B50D46EFF3108472B601682960E9
:10386000006800F008F8296800200860296884F3DF
:103870001088486030BDEFF3108172B6D0E90023A4
:103880001A6005C881F310884260704750A190B05B
:10389000D1E90001CDE906014FA1D1E90001CDE94F
:1038A0000801FDF781FB0020FDF716F8002108460E
:1038B000FDF772F8FEF720FC00F04CFAFCF7F0FF81
:1038C000FEF72CFAFDF7B2F805A904A8FFF742FEAF
:1038D000FDF7ACF8BDF814209DF8101040A0FEF7DD
:1038E00089FB9DF810000125424C302800D9257035
:1038F00060784FF00602002834D008A90CA8FEF723
:1039000074FB0CAA06210020FFF7CDFD010002D0B8
:1039100039A0FEF76FFBFFF7D5FC10B13EA0FEF714
:1039200069FB62780BA8012A22780AA91CD0012A17
:1039300028D003460A460EA95FF00300FFF7D5FA28
:1039400010B13AA0FEF756FB3D4800211022CDE908
:103950000021CDE9020507230A460120FFF737FBC6
:10396000C8B11BE006A9C9E7012A04D003460A46EC
:103970000EA90120E2E7CDE90010072200210EABDD
:10398000012005E0CDE900100EAB07220021042044
:10399000FFF7E2FAD4E72BA0FEF72CFB60780128B2
:1039A00001D02EA006E035A0FEF724FBFCF7CAFEEE
:1039B00058B13AA0FEF71EFB04210120FFF74EFD8F
:1039C000FEF700FAFEF77EFDFAE73CA0F2E7000002
:1039D000BB0000E180020000AA0000E180020000BC
:1039E00048577665722025642C20465776657220EC
:1039F00025640A000000002053657474696E672016
:103A000042445F41444452206661696C65642030E1
:103A100078253032782E0A00474154545F496E6948
:103A200074206661696C65642E0A00004741505F2E
:103A3000496E6974206661696C65642E0A00000035
:103A400040E20100424C4520537461636B20496E93
:103A5000697469616C697A65642E0A00434C494552
:103A60004E543A20424C4520537461636B20496E9A
:103A7000697469616C697A65640A0000534552563D
:103A800045523A20424C4520537461636B20496E85
:103A9000697469616C697A65640A00004572726FC5
:103AA00072207768696C6520616464696E67207351
:103AB0006572766963652E0A0000000053657276B0
:103AC000696365206164646564207375636365730D
:103AD0007366756C6C792E0A0000000038B50C46D0
:103AE000054607E069462046FFF7B3FE28460099E1
:103AF000FFF797FE2046FFF7A0FE0028F2D038BD62
:103B000070B506460D460020FCF72EFF002404E0A9
:103B1000315D03A0FEF76EFA641CAC42F8DB70BDA9
:103B200025630000F0B5394A394C89B01278012A72
:103B30000BD062890346521C95B20A46E08829469A
:103B400009B0BDE8F040FFF757BC324A1278002AAE
:103B500053D0314E01AD4FF4FA7714222FA101A8B2
:103B6000FCF734FBA0698DF81400010A8DF81510DC
:103B7000010C8DF81610010E8DF8171028B92CA025
:103B8000FEF738FAFDF718F8E061306800EB8000C6
:103B9000410006A8FEF706FB03E006A8FEF7F4FACC
:103BA00040B9009514230022E189A089FFF7A8FB02
:103BB0006428F2D0A069401CA061CED0B0FBF7F120
:103BC00007FB11000028C8D1FCF7F6FF2062E1696D
:103BD000DFED1A0A421A00EE102A394618A0B8EE94
:103BE000400A80EE801ABDEEC10A10EE103AFEF7D0
:103BF00001FAFCF7E1FFE061AFE700900B4600221D
:103C0000E189A089FFF77CFB09B0F0BD010000202D
:103C10000400002002000020883D000830313233CB
:103C200034353637383941424344454600000000B8
:103C3000546573742073746172740A0000409C4769
:103C40002564207061636B6574732E20456C617010
:103C50007365642074696D653A202564206D732E48
:103C600020417070207468726F7567687075743A5F
:103C7000202564206B6270732E0A000010B50D4C75
:103C800086B0E078002813D10BA0FEF7B3F912A399
:103C90000DF1040C0FCB8CE80F0001A8009002235B
:103CA0004FF6FF720121E088FFF7CBFA0120E070A8
:103CB00006B010BD04000020537461727420726558
:103CC0006164696E672052582043686172204861C0
:103CD0006E646C650A000000669A0C200008969ECF
:103CE000E2119EB1E2F273D910B50D4C86B0A07806
:103CF000002813D10BA0FEF77DF912A30DF1040CDF
:103D00000FCB8CE80F0001A8009002234FF6FF7242
:103D10000121E088FFF795FA0120A07006B010BDE0
:103D20000400002053746172742072656164696ECE
:103D30006720545820436861722048616E646C6546
:103D40000A000000669A0C200008969EE2119EB1BF
:103D5000E1F273D90B4810B5094901604FF41651CF
:103D6000416000218160C160016181610C2141617C
:103D7000FDF765FE002801D0FCF739FF10BD0000FB
:103D80000044004070000020E803000028002000EC
:103D900000200000000001020304010203040607E2
:103DA00008090000C43D0008000000207000000069
:103DB000A0250008343E00087000002058070000CD
:103DC000B025000800010000010000000000000014
:103DD00000000000000000000000000000000000E3
:103DE00000000000000000000000000000000000D3
:103DF00000000000000000000000000000000000C3
:103E00000000000000000000000000000000024070
:103E100000080240E80300000024F4000000000055
:103E20000000000000000000000000000000000092
:043E3000000000008E
:040000050800019559
:00000001FF
