:020000040800F2
:10000000A0070020A9010008E923000891210008A9
:10001000B5010008B7010008B901000800000000A0
:100020000000000000000000000000005D25000846
:10003000490B000800000000892400086125000821
:10004000C3010008C3010008C3010008C301000880
:10005000C3010008C3010008550B0008C3010008D4
:10006000C3010008C3010008C3010008C301000860
:10007000C3010008C3010008C3010008C301000850
:10008000C3010008C3010008C3010008000000000C
:10009000000000000000000000000000C301000894
:1000A000C3010008C3010008C3010008C301000820
:1000B000C3010008C3010008C3010008C301000810
:1000C000C3010008C3010008C3010008C301000800
:1000D000C3010008C3010008C301000800000000BC
:1000E000610B0008C3010008C30100080000000004
:1000F000000000000000000000000000C301000834
:1001000000000000C3010008C3010008C30100088B
:1001100000000000000000000000000000000000DF
:10012000C3010008C3010008C3010008C30100089F
:10013000C3010008000000000000000000000000F3
:10014000000000000000000000000000C3010008E3
:10015000C3010008C3010008C3010008C30100086F
:10016000C3010008C30100080000000000000000F7
:10017000000000000000000000000000000000007F
:1001800000000000C30100080000000000000000A3
:10019000C3010008DFF80CD000F034FA0048004733
:1001A000913F0008A0070020064880470648004706
:1001B000FEE7FEE7FEE7FEE7FEE7FEE7FEE7FEE717
:1001C000FEE7FEE7BD2500089501000810B540EAEE
:1001D00001040346A40703D009E010C9121F10C38D
:1001E000042AFAD203E011F8014B03F8014B521E26
:1001F000F9D210BD10B50346C9B201E003F8011BE6
:10020000521EFBD210BD30B50B4601460020202205
:10021000012409E021FA02F59D4205D303FA02F513
:10022000491B04FA02F52844151EA2F10102F1DC73
:1002300030BD2DE9F05F0546002092469B4688467A
:100240000646814640241BE0284641464746224652
:1002500000F0F9F953465A46C01A914110D311469D
:100260001846224600F0E0F92D1A67EB01084F46C8
:1002700022460120002100F0D7F917EB00094E417A
:10028000201EA4F10104DFDC484631462A464346DD
:10029000BDE8F09F2DE9FE4F804681EA0300C00FC4
:1002A0000C46009021F0004123F00045B8EB02001D
:1002B000A94105D24046214690461C460B460246BF
:1002C00023F00040104347D0270DC7F30A00C3F3C3
:1002D0000A510290401A019040286BDAC3F31300D0
:1002E00040F4801B0098924620B10023D2EB030A11
:1002F00063EB0B0B01985946C0F14002504600F0E9
:1003000093F906460D4650465946019A00F0ABF95E
:1003100010EB08006141002487EA115284EAE77378
:100320001A4340D0009A62B3019A012A4FEA075259
:1003300015DC001B61EB02014FF0004202EA07529C
:10034000CDE90042001C41F5801132462B4600F0F9
:10035000ABF903B0BDE8F08F40462146F9E7001B3A
:1003600061EB0201001C41F5801300185B4120186D
:10037000A2F5001747EB030140EAD570B6196D41AD
:1003800011E06D084FEA360645EAC0754FEA07529C
:10039000001B61EB0201001C41F5801149084FEA86
:1003A00030000019514132462B4603B0BDE8F04FF2
:1003B00000F06BB90098012240000023D0EB02024C
:1003C00063EBE073009821464FEAE074B8EB00005D
:1003D00061EB0401E9E783F000435BE781F0004152
:1003E00058E72DE9FE4F81EA030404F0004421F0B0
:1003F000004100944FF0000B23F0004350EA010449
:100400005ED052EA03045BD0C3F30A54C1F30A5529
:100410002C44A4F2F3340194A0FB0254C1F3130161
:1004200041F48011C3F3130343F4801301FB02442E
:1004300000FB034E840A970A44EA815447EA835733
:10044000A4FB076802958D0A05FB07854FEA932CEC
:1004500004FB0C542705029D4FEA065847EA16375D
:10046000B5EB08056EEB070C870E920E47EA811775
:1004700042EA8312A7FB0201B6EB0B0164EB000416
:100480002B0D43EA0C335E1844EB1C50DA46514600
:10049000E7FB0201C5F313044FEA0B3343EA14539D
:1004A0004FEA0432019C43EA0603A4F10C040294CF
:1004B000009CCDE900B400F0F7F803B0BDE8F08F80
:1004C00000200146F9E72DE9F04D81EA030404F02C
:1004D000004B21F0004514464FF0000A23F0004184
:1004E00050EA050220D054EA01021DD0C5F30A5794
:1004F0000246C5F31303C1F31300C1F30A5640F4D7
:10050000801543F48013A7EB0608101BD64608F2AB
:10051000FD3873EB050002D308F1010801E09218E1
:100520005B41B8F1000F03DA00200146BDE8F08D11
:1005300000204FF48011064684460EE0171B73EB33
:10054000050705D3121B63EB050306434CEA010CB8
:1005500049084FEA300092185B4150EA0107EDD19B
:1005600052EA030012D082EA040083EA050108433C
:1005700005D0101BAB4106D20122002306E0002269
:100580004FF0004302E06FF0010253101AEB060037
:100590004CEB085110EB0A0041EB0B01BDE8F04DAC
:1005A00000F073B8C1F30A52C1F3130140F2FF33F4
:1005B00041F480119A4202DA00200146704740F26D
:1005C00033439A42A2F2334202DC524200F03BB87B
:1005D00000F02AB830B5041E71F1000404DB4FF0BE
:1005E0000044404264EB0101141E73F1000405DB7A
:1005F0001C464FF00043524263EB0403994208BF8C
:10060000904230BD064C074D06E0E06840F0010323
:1006100094E8070098471034AC42F6D3FFF7BEFDCC
:100620006044000880440008202A04DB203A00FAD5
:1006300002F1002070479140C2F1200320FA03F339
:10064000194390407047202A04DB203A21FA02F037
:100650000021704721FA02F3D040C2F120029140FC
:10066000084319467047202A06DBCB17203A41FA87
:1006700002F043EAE07306E041FA02F3D040C2F12F
:100680002002914008431946704710B5141E73F1BB
:10069000000408DA401C41F1000192185B411A4342
:1006A00001D120F0010010BD2DE9F04D92469B468E
:1006B00011B1B1FA81F202E0B0FA80F22032904634
:1006C000FFF7B2FF04460F4640EA0A0041EA0B0179
:1006D00053465A46084313D0114653EA010019D035
:1006E000C8F140025046FFF7AEFF05460E465046A1
:1006F00059464246FFF798FF084305D0012004E021
:1007000020463946BDE8F08D0020054346EAE076F4
:100710002C4337430A986305E40AA0EB0800002243
:10072000FD0A44EA47540A3002D500200146E9E7B1
:10073000010510196941DDE9084500196941BDE865
:10074000F04DA2E710B592B02BA2D2E901311068AA
:10075000D268CDE90F3111920E902BA3D3E900207E
:10076000D3E902130BAC0BC40A922BA30FCB06AC3C
:100770000FC42D48072301220EA90090022002F089
:10078000CFFF044604B132E02848012110220023A3
:10079000CDE90232CDE90023CDE9041014230AAAE1
:1007A00002212148008802F04BFF044604B11EE0FC
:1007B0001F4801211022CDE90212CDE904100020CA
:1007C0000C21142306AACDE9001002211648008846
:1007D00002F036FF044604B109E0154802881348C8
:1007E000018814A001F032FE002012B010BD21A03B
:1007F00001F02CFE4720F8E7669A0C200008969E30
:10080000E2119EB1E0F273D9669A0C200008969E20
:10081000E2119EB1E1F273D9669A0C200008969E0F
:10082000E2119EB1E2F273D91600002018000020F8
:100830001A00002053616D706C65205365727669F3
:1008400063652061646465642E0A545820436861BE
:10085000722048616E646C6520253034582C20521B
:100860005820436861722048616E646C65202530B1
:1008700034580A004572726F72207768696C65207F
:10088000616464696E672053616D706C65205365A7
:1008900072766963652E0A0070B504460E461546E9
:1008A0000A480088401C844204D13146284603F09F
:1008B000B5FC09E006480088801C844204D12878F1
:1008C000012801D10349087070BD00001A00002002
:1008D000180000200C00002010B50D480D490860DC
:1008E0004FF48270486000210A488160C160016154
:1008F00041614FF400718161002101624162072171
:10090000C1620821C1610021816200F0DFFE10BDDB
:10091000003001408C00002010B50446044A32F833
:100920001410044A52F82400002200F0D7FA10BD37
:10093000484400082400002010B50446044A32F858
:100940001410044A52F82400012200F0C7FA10BD26
:10095000484400082400002010B50446044A32F838
:100960001410044A52F8240000F0B4FA10BD00003C
:10097000484400082400002010B50121034800F07D
:10098000A1FA012800D110BD0020FCE700000240C0
:1009900010B500224FF48071074800F09FFA05203F
:1009A00000F086F901221102034800F097FA0520B1
:1009B00000F07EF910BD0000000002402DE9F0417A
:1009C00088B080460F4616460025FF20079022A1DA
:1009D00003C9CDE9040100220221214800F07EFA7A
:1009E0000F20052302AA04A90090404600F0A4FFAE
:1009F0009DF8080002281BD19DF80B009DF80C10F3
:100A000040EA0124002C13DDB44200DD3446002509
:100A10000CE00F20012306AA07A90090404600F031
:100A20008BFF9DF818007855681CC5B2A542F0DB15
:100A3000012202210A4800F051FA0020019003E04F
:100A400000BF0198401C019001980228F8DB28465D
:100A500008B0BDE8F08100000B00000000000000BD
:100A6000000002402DE9F047C6B080468946164690
:100A70001C464E9D4FF0000A002726A103C9459150
:100A8000449026A103C94391429000F05EF81FB143
:100A900003F026FC03F0AEFC00220221214800F006
:100AA0001DFA0F20052342AA44A90090404600F0F9
:100AB00043FF0FB103F0F8FB9DF8080102281CD199
:100AC0009DF809016119884214DB002C07DD0F2015
:100AD000234602AA49460090404600F02DFF002D13
:100AE0000DDD0F202B4602AA31460090404600F053
:100AF00023FF04E06FF0010A01E04FF0FF3A01220A
:100B00000221084800F0EAF900F056F8504646B0D5
:100B1000BDE8F0870A00000000000000AA00000005
:100B200000000000000002400120014908607047F9
:100B3000143C014010B500F0D7F910BD10B50446C3
:100B4000204600F0B5F810BD704710B5062000F043
:100B50000DFA10BD10B5012000F0BCF810BD00006A
:100B60001CB512A103C9CDE900011248006800F4C8
:100B7000005040B14FF400500E49086000F0A5F855
:100B800031208DF800000B48006800F4804040B12F
:100B90004FF480400749086000F097F831208DF845
:100BA00001000821684603F059FB1CBD303030308D
:100BB00030303030143C014010B5062000F0E4F92C
:100BC00010BD05E00020FFF7C7FE642000F070F8BC
:100BD000F8E7000070B504460E4601200A49086097
:100BE0000A4806800AA001F031FC052504E0615D99
:100BF0000DA001F02BFC6D1E002DF8DC21780CA05F
:100C000001F024FC70BD0000040000200A00002058
:100C1000436F6E6E656374656420746F20646576DF
:100C20006963653A00000000253032582D0000004D
:100C3000253032580A00000010B50020094908602C
:100C400009A001F003FC01200B49087000200B49AA
:100C500008700B4908700B4908700B4908700B4964
:100C6000087010BD04000020446973636F6E6E65E8
:100C7000637465640A000000080000200C00002076
:100C80000D0000200E0000200F00002010000020AA
:100C900070B504460E46154604480088401C844240
:100CA00003D13146284603F0B9FA70BD1200002086
:100CB00031B5002400F018F9044600BF00F014F923
:100CC000001B00998842F9D338BD10B5044601F0E5
:100CD00097F910BD10B5044604480068204020B1C3
:100CE000024804602046FFF7F0FF10BD143C0140AD
:100CF000F8B503460A460025002400200021CDE077
:100D0000012606FA01F5166806EA0504AC4273D11D
:100D10005668022E02D05668122E13D1CF0803F166
:100D2000200656F827004E07F70E0F26BE40B043A8
:100D30004F07FF0E1669BE403043CF0803F120066F
:100D400046F8270018684F000326BE40B0431679C6
:100D500006F003064F00BE40304318605668012E6F
:100D600008D05668022E05D05668112E02D056685B
:100D7000122E13D198684F000326BE40B0434F0097
:100D8000D668BE4030439860586801268E40B04314
:100D90001679C6F300168E4030435860D8684F006D
:100DA0000326BE40B0434F009668BE403043D86033
:100DB000566806F08056B6F1805F6ED100BF0026FF
:100DC0000096384E366846F48046364F3E603E46C2
:100DD000366806F48046009600BF00BF324E8F088A
:100DE00056F827008E07370F0F26BE40B0432F4E10
:100DF000B34202D1002615E04FE02D4EB34201D19F
:100E000001260FE02B4EB34201D102260AE02A4E02
:100E1000B34201D1032605E0284EB34201D1042696
:100E200000E005268F073F0FBE4030431E4E8F085F
:100E300046F82700224E3068A043566806F48036F4
:100E4000B6F5803F00D120431D4E3060361D30681E
:100E5000A043566806F40036B6F5003F00D12043A3
:100E6000174E361D3060361D3068A043566806F4B4
:100E70008016B6F5801F00D12043114E0836306031
:100E8000361D3068A043566806F40016B6F5001FFC
:100E900000D120430A4E0C363060491C1029FFF463
:100EA0002FAFF8BD4438024008380140000002402E
:100EB0000004024000080240000C02400010024002
:100EC000003C0140024613690B400BB1012000E0D9
:100ED0000020704742694A40426170470AB181610F
:100EE00001E00B048361704701480068704700000F
:100EF0003400002002480068401C01490860704727
:100F00003400002010B50D48006840F400700B4913
:100F100008600846006840F4806008600846006881
:100F200040F480700860032000F07AF80F2000F091
:100F300007F800F019F8002010BD0000003C024046
:100F400070B50446074800684FF47A71B0FBF1F5BC
:100F5000284600F057FE00222146501E00F021F8DE
:100F6000002070BD300000207047000000BF00F07E
:100F70001F0201219140034A430942F8231000BF98
:100F80007047000080E100E000BF00F01F02012177
:100F900091404209920002F1E022C2F8001100BF24
:100FA00070472DE9F05F80460D461646002701F098
:100FB0001DFA074639462A46334601F00700C0F1BC
:100FC000070ABAF1040F02D94FF0040A01E0C0F198
:100FD000070AD14600F1040ABAF1070F02D24FF016
:100FE000000A01E0A0F1030AD4464FF0010A0AFA10
:100FF00009FAAAF1010A0AEA020A0AFA0CFA4FF0FF
:10100000010B0BFA0CFBABF1010B0BEA030B4AEAE9
:101010000B042146404601F0F1F9BDE8F09F0000C5
:1010200000BF00F00702064B19684FF6FF03194096
:10103000044B0B4343EA0221014B196000BF704788
:101040000CED00E00000FA0570B504460D460026E0
:101050006D48006800F00F00A84209D26A490D707F
:101060000846006800F00F00A84201D0012070BDC2
:10107000207800F00200022807D16448006820F0C0
:10108000F000A168084361490860207800F0010081
:10109000002877D06068012807D15C4808380068CC
:1010A000C0F34040B8B90120E1E76068022802D0EF
:1010B0006068032807D1554808380068C0F34060CD
:1010C00048B90120D3E7514808380068C0F3400010
:1010D00008B90120CBE74D48006820F003006168A3
:1010E00008434A490860FFF7FFFE0646606801288A
:1010F00010D108E0FFF7F8FE801B41F288318842EA
:1011000001D90320B3E74148006800F00C0004282F
:10111000F0D137E06068022810D108E0FFF7E4FE64
:10112000801B41F28831884201D903209FE737486C
:10113000006800F00C000828F0D123E06068032864
:1011400010D108E0FFF7D0FE801B41F288318842C1
:1011500001D903208BE72D48006800F00C000C2813
:10116000F0D10FE008E0FFF7BFFE801B41F28831AD
:10117000884201D903207AE72448006800F00C0077
:101180000028F0D12048006800F00F00A84209D9DB
:101190001D490D700846006800F00F00A84201D0FC
:1011A000012064E7207800F00400042807D11748E4
:1011B000006820F4E050E168084314490860207892
:1011C00000F00800082808D11048006820F46040AA
:1011D000216940EAC1000D49086000F04FF80B4951
:1011E000096801F0F001F02292FAA2F2B2FA82F25A
:1011F000D140074A515CC840064908600F20FFF7FC
:101200009FFE002033E70000003C02400838024007
:101210004D4400083000002001480068704700007D
:101220003000002000B5FFF7F7FF0749096801F417
:10123000E0514FF4E05292FAA2F2B2FA82F2D140B7
:10124000024A515CC84000BD083802404D440008C5
:1012500000B5FFF7E1FF0749096801F460414FF469
:10126000604292FAA2F2B2FA82F2D140024A515C92
:10127000C84000BD083802404D44000870B5002148
:10128000002200230020274C246804F00C0424B121
:10129000042C04D0082C41D103E0234840E023482B
:1012A0003EE0204C241F246804F03F011D4C241F05
:1012B000246804F4800484B11C4CB4FBF1F5194C8F
:1012C000241F246847F6C076344096FAA6F6B6FA8C
:1012D00086F6F44005FB04F20FE0134CB4FBF1F585
:1012E000104C241F246847F6C076344096FAA6F6C0
:1012F000B6FA86F6F44005FB04F20A4C241F246873
:1013000004F440344FF4403595FAA5F5B5FA85F567
:10131000EC40641C6300B2FBF3F001E0024800BF44
:1013200000BF70BD083802400024F40040787D0101
:1013300038B504460025207800F00100002848D088
:10134000DE48006800F00C0004280DD0DB4800687F
:1013500000F00C00082811D1D848001F006800F4E4
:101360008000B0F5800F09D1D44808380068C0F378
:10137000404070B3606860BB012038BD2079CF4920
:10138000891F0870606890B1FFF7AEFD054606E062
:10139000FFF7AAFD401B642801D90320EDE7C748E9
:1013A00008380068C0F340400028F1D011E0FFF792
:1013B0009BFD054606E0FFF797FD401B642801D919
:1013C0000320DAE7BD4808380068C0F34040002831
:1013D000F1D1207800F00200022869D1B7480068F6
:1013E00000F00C0058B1B548006800F00C00082867
:1013F00021D1B248001F006800F48000D8B9AF487E
:1014000008380068C0F3400020B1E068012801D02E
:101410000120B2E7A9480838006820F0F800F82257
:1014200092FAA2F2B2FA82F2216991400843A349EA
:10143000083908603CE0E06828B30120A049086052
:10144000FFF752FD054606E0FFF74EFD401B022860
:1014500001D9032091E7994808380068C0F340009B
:101460000028F1D095480838006820F0F800F822EC
:1014700092FAA2F2B2FA82F22169914008438F49AE
:101480000839086014E000208D490860FFF72CFD42
:10149000054606E0FFF728FD401B022801D903207E
:1014A0006BE7864808380068C0F340000028F1D197
:1014B000207800F0080008282CD16069A8B101202C
:1014C00080490860FFF710FD054606E0FFF70CFDB8
:1014D000401B022801D903204FE778486C30006890
:1014E000C0F340000028F1D014E0002075490860E6
:1014F000FFF7FAFC054606E0FFF7F6FC401B022862
:1015000001D9032039E76D486C300068C0F3400012
:101510000028F1D1207800F00400042857D100BF42
:101520000020009065483830006840F080506349E2
:10153000383108600846006800F08050009000BF15
:1015400000BF6148006840F480705F490860FFF7A1
:10155000CBFC054606E0FFF7C7FC401B022801D97B
:1015600003200AE75848006800F480700028F2D091
:10157000207A524968310870A068A0B1FFF7B4FC26
:10158000054608E0FFF7B0FC401B41F28831884275
:1015900001D90320F1E6494868300068C0F34000F3
:1015A0000028EFD013E0FFF79FFC054608E0FFF7A7
:1015B0009BFC401B41F28831884201D90320DCE6C4
:1015C0003E4868300068C0F340000028EFD1A069B1
:1015D000F0B33A48006800F00C00082869D0A06910
:1015E000022850D1002036490866FFF77DFC0546E9
:1015F00006E0FFF779FC401B022801D90320BCE676
:101600002E4808380068C0F340600028F1D1D4E9C2
:101610000701084347F6C07292FAA2F2B2FA82F2C8
:10162000616A914008430122A16AC2EB51014FF463
:10163000403292FAA2F2B2FA82F2914008434FF09D
:10164000706292FAA2F2B2FA82F2E16A914000E08C
:1016500031E008431949091F08600120184908664C
:10166000FFF742FC054606E0FFF73EFC401B022860
:1016700001D9032081E6114808380068C0F34060B2
:101680000028F1D017E000200D490866FFF72CFC78
:10169000054606E0FFF728FC401B022801D903207D
:1016A0006BE6064808380068C0F340600028F1D1B6
:1016B00001E0012061E600205FE6000008380240FA
:1016C00000004742800E47420070004010B50446BB
:1016D0000CB9012010BD606A00B900BFA06AB0F566
:1016E000005F00D100BF94F8510028B9002084F8B1
:1016F0005000204600F03AF8022084F8510020689B
:10170000006820F0400021680860D4E90101084326
:10171000E16808432169084361690843218B01F4AA
:1017200000710843E1690843216A0843A16A08433C
:10173000216808600421A06901EA1040616A084339
:1017400021684860A06AB0F5005F02D12168E06AB4
:1017500008612068C06920F400602168C861002029
:101760006065012084F851000020B3E710B586B011
:1017700004466C49206888427DD100BF002000905B
:101780006948006840F00100674908600846006841
:1017900000F00100009000BF00BF00BF00200090DB
:1017A0000846006840F0020008600846006800F043
:1017B0000200009000BF00BF00BF0020009008465C
:1017C000006840F0010008600846006800F0010071
:1017D000009000BF00BF00BF0020009008460068D6
:1017E00040F0010008600846006800F00100009029
:1017F00000BF00BF00BF002000900846006840F016
:10180000010008600846006800F00100009000BF79
:1018100000BF00BF002000900846006840F00100B3
:1018200008600846006800F00100009000BF00BF9B
:1018300000BF002000903C481430006840F4805005
:101840003949143108600846006800F4805000905F
:1018500000BF00BF88150190012002900390002076
:101860000490059001A93148FFF742FA00224FF495
:1018700080712E4800E052E0FFF730FB0820019015
:10188000022002900390032004900520059001A9F6
:101890002748FFF72DFA40200190022002900020F7
:1018A0000390032004900520059001A91F48FFF72D
:1018B0001FFA802001900220029000200390032054
:1018C00004900520059001A91848FFF711FA02209D
:1018D00001900120029003900320049000200590C5
:1018E00001A91248FFF704FA012202210F48FFF76D
:1018F000F5FA012001900F48029000200390032088
:1019000004900020059001A90848FFF7F1F9002292
:1019100003210620FFF745FB0620FFF735FB06B045
:1019200010BD00000030014030380240000002408D
:1019300000040240000011102DE9FF5F04460D462F
:1019400016461F46DDF838804FF0000A002003904D
:10195000029081464FF0010B019000BF94F85000B7
:10196000012803D1022004B0BDE8F09F012084F8D3
:10197000500000BFFFF7B8FA814694F851A06068A4
:101980000390BAF1010F0BD00398B0F5827F04D118
:10199000A06810B9BAF1040F02D00220019027E12B
:1019A0000DB106B117B90120019021E194F8510061
:1019B000012802D1052084F8510000206065A6634B
:1019C000E787A7872563E786A78620646064A06A07
:1019D000B0F5005F0ED100BF206800684DF6FF71C2
:1019E0000840216808602068006840F400502168C1
:1019F000086000BF2068006800F04000402805D063
:101A00002068006840F0400021680860E068B0F598
:101A1000006F4FD1606810B1E08E012806D1288890
:101A20002168C860AD1CE08E401EE0863BE0BBF143
:101A3000000F1CD0E08ED0B12068806800F002005A
:101A4000022814D128882168C860AD1CE08E401E91
:101A5000E0864FF0000BE08E48B9A06AB0F5005F59
:101A600005D12068006840F4805021680860E08F4C
:101A700068B12068806800F0010040B12068C0684B
:101A80003080B61CE08F401EE0874FF0010B08F15C
:101A9000010040B1FFF728FAA0EB0900404502D34E
:101AA00003200190A4E0E08E0028C0D1E08F002840
:101AB000BDD14EE0606810B1E08E012806D12878D3
:101AC000216808736D1CE08E401EE0863BE0BBF190
:101AD000000F1CD0E08ED0B12068806800F00200BA
:101AE000022814D115F8010B21680873E08E401EFE
:101AF000E0864FF0000BE08E48B9A06AB0F5005FB9
:101B000005D12068006840F4805021680860E08FAB
:101B100068B12068806800F0010040B12068C068AA
:101B200006F8010BE08F401EE0874FF0010B08F133
:101B3000010040B1FFF7D8F9A0EB0900404502D3FE
:101B40000320019054E0E08E0028C0D1E08F0028EF
:101B5000BDD1A06AB0F5005F15D143460122114600
:101B60002046CDF8009000F0A4FC30B1606D40F04C
:101B700002006065032001903AE02068C06880B2EE
:101B80000290BDF808002068806800F0100010285E
:101B900009D1606D40F0020060654FF6EF7021687A
:101BA0008860012001904346012202212046CDF8A1
:101BB000009000F07EFC10B10320019018E04A462E
:101BC0004146204600F061FC20B101200190202018
:101BD00060650DE0A06850B900BF0020009020684B
:101BE000C068009020688068009000BF00BF00BF00
:101BF000012084F8510000BF002084F8500000BF8D
:101C00000198B0E670B504462546681EB0F1807FA5
:101C100001D301200FE0681E4FF0E02148610F2141
:101C20004FF0FF3000F0EAFB00204FF0E021886128
:101C300007200861002070BD10B504460CB90120D2
:101C400010BDA06900B100E000BF94F8390028B9C8
:101C5000002084F83800204600F028F8242084F87A
:101C600039002068C06820F400502168C860204610
:101C700000F0ECFC2068006920F4904021680861C5
:101C80002068406920F02A00216848612068C06807
:101C900040F400502168C8600020E063202084F8F0
:101CA000390084F83A000020CAE7000010B586B079
:101CB000044600BF002000902248006840F0010068
:101CC000204908600846006800F00100009000BF4D
:101CD00000BF00BF002000900846006840F00100EF
:101CE00008600846006800F00100009000BF00BFD7
:101CF00000BF0020009013481030006840F400300E
:101D00001049103108600846006800F40030009067
:101D100000BF00BF04200190022002900120039028
:101D2000022004900720059001A90748FEF7E0FF74
:101D3000082001900720059001A90348FEF7D8FF6D
:101D400006B010BD30380240000002402DE9F843D3
:101D500004460D4616461F464FF0000994F8390018
:101D600020285CD105B116B90120BDE8F88300BF79
:101D700094F83800012801D10220F6E7012084F808
:101D8000380000BF0020E063212084F83900FFF70D
:101D9000ABF88146A684E6842BE0E08C401EE0840C
:101DA000A068B0F5805F16D14B4600228021204606
:101DB000009700F0FFFD08B10320D6E7A846B8F869
:101DC0000000C0F3080021684860206908B9AD1C14
:101DD0000FE06D1C0DE04B4600228021204600974D
:101DE00000F0E8FD08B10320BFE715F8010B2168FA
:101DF0004860E08C0028D0D14B460022402120468C
:101E0000009700F0D7FD08B10320AEE7202084F84A
:101E1000390000BF002084F8380000BFA5E7022089
:101E2000A3E700002DE9F0410546A84608F10106A8
:101E300098F80000042801D0BDE8F081307805282A
:101E400004D03E2805D0FF287BD10FE0FEF7F4FE3A
:101E500077E0B41C2078012806D1671CB7F8011080
:101E6000781DFEF7B7FE00BF00BF6AE0B41C2088F3
:101E7000A0F6014030B10E2817D00F2848D0112805
:101E80005DD11CE030480078012806D1A71C3979C3
:101E90007888FA1DFEF700FD06E0A71C39797888DE
:101EA0007A1DFEF7F9FC00BF49E0A71CBA78921E24
:101EB000D1B2B7F803007A1DFEF7EAFE3FE02348EF
:101EC0000078002823D122A000F0C0FAA71C2B48DC
:101ED000007860B12A48007848B9B7F8030029496A
:101EE00008800846018828A000F0B0FA0EE02C48CF
:101EF000007858B12B48007840B9B7F803002A4958
:101F000008800846018829A000F0A0FA00BF16E06A
:101F10000E48007890B91948007830B11848007818
:101F200018B901201649087008E01D48007828B14A
:101F30001C48007810B901201A49087000BF00BF82
:101F400000BF00BF00BF77E70000002001000020B5
:101F50004556545F424C55455F474154545F444990
:101F600053435F524541445F434841525F42595F8A
:101F7000555549445F524553500A00000D0000205A
:101F80000F00002012000020545820436861722086
:101F900048616E646C6520253034580A00000000EA
:101FA0000E00002010000020140000205258204392
:101FB0006861722048616E646C6520253034580A6F
:101FC0000000000010B50B4801F086FF0A4801F040
:101FD00083FF00240BE0C4EBC40000EB8000074A41
:101FE00002EB8001034801F08BFF601CC4B2052C9A
:101FF000F1DB10BD3800002040000020E40000208C
:1020000038B500200090FEF78FFD2EE01A4801F051
:1020100088FF10BB6946184801F094FF80220099A0
:1020200008311648FEF7CAFCC4B2002C10DD009837
:1020300080F88840009800F071F820B910480099A5
:1020400001F05EFF0FE00C48009901F048FF0AE044
:102050000948009901F043FF05E001200949087093
:10206000FEF762FD38BDFEF75FFDFEF785FC002838
:10207000CCD100BFF6E70000380000208C00002023
:10208000400000204800002030B5A1B000200090A2
:10209000FEF75BFD194801F044FF054613E0694671
:1020A000164801F04FFFFEF787FD00980830FFF754
:1020B000B9FEFEF74AFD1248009901F021FF0F48D2
:1020C00001F02FFF0546002DE9D00E48007888B1B9
:1020D0000AE0802201A90C48FEF770FCC4B2002C73
:1020E00002DD01A8FFF79EFEFEF746FC0028F0D1B6
:1020F00004490870FEF760FD21B030BD40000020AB
:1021000038000020480000208C00002010B5024854
:1021100001F007FF10BD000040000020014601F162
:1021200008021078042801D001207047937891F8B4
:102130008800C01E834201D00220F6E70020F4E7A9
:102140002DE9FE4304460D4616461F460E4800681C
:102150000A21B0FBF1F8414601A800F06FFA0EE049
:10216000F8B2F3B22A46214600900848FEF77AFCFE
:1021700000B905E001A800F053FA00B100E0EFE774
:1021800000BFBDE8FE830000444400088C0000202E
:1021900000BFFEE710B58CB028480078002825D194
:1021A00027A000F053F92DA103C9CDE90A010020B1
:1021B000FEF7C2FB4FF4FA603C220023CDE9042075
:1021C000039306902820CDE900300AAB00224FF49B
:1021D00080410290084601F0DBF804462CB121A0B2
:1021E00000F034F96420FEF7A9FC25E026A3D3E92A
:1021F00001211868DB68CDE90A13CDE90802002146
:10220000084601F02CFD24A000F020F900200390E6
:1022100004900590069008A80D2100221346CDE9F0
:10222000002102901146104601F084F9044621462F
:1022300020A000F00BF900BF0CB010BD0100002081
:10224000436C69656E742043726561746520436FE9
:102250006E6E656374696F6E0A000000AA0000E18B
:10226000800200004572726F72207768696C652089
:102270007374617274696E6720636F6E6E656374E8
:10228000696F6E2E0A00000009426C75654E524758
:102290005F4368617400000047656E6572616C2081
:1022A000446973636F76657261626C65204D6F641B
:1022B0006520000025640A00F0B585B007460C468D
:1022C00015461E464DB90094002001900220029050
:1022D000039069463846FEF70BFD012D10D100949E
:1022E000002002900748019069463846FEF700FD3D
:1022F00000220F213046FEF754FE3046FEF744FE22
:1023000005B0F0BD0000211008B500BF002000900E
:102310000C48006840F002000A490860084600685E
:1023200000F00200009000BF00BF282301225103EB
:102330000548FFF7C1FF2823012291030248FFF758
:10234000BBFF08BD303802400004024030B585B004
:1023500005460C46009401200190002002900220C6
:10236000039069462846FEF7C3FC00222146284612
:10237000FEF7B4FD05B030BD70B504460D46012230
:1023800029462046FEF7AAFD70BD70B504460D46ED
:1023900029462046FEF79EFD70BD000008B500BF2F
:1023A000002000900E48006840F004000C490860CE
:1023B0000846006800F00400009000BF00BF012143
:1023C0000848FFF7C3FF02210648FFF7BFFF0121BE
:1023D0000448FFF7D1FF02210248FFF7CDFF08BDF7
:1023E0003038024000080240704700000248006890
:1023F000C0F30220704700000CED00E010B500288B
:1024000007DA0A07140E054A00F00F031B1FD45405
:1024100003E00A07130E024A135410BD18ED00E042
:1024200000E400E070B504460D46164632462946E3
:102430002046FDF7CBFE70BD70B504460D4616462E
:10244000324629462046FDF7D5FE70BD0FB410B5C3
:10245000A2B025A82190802101A8219B249A00F0F8
:102460001BFB044600202190A2B24FF4967301A9F1
:102470000448FFF76BFC08B1FEF7A3FB22B010BCC9
:102480005DF814FB4C0000207047F8B504460D467B
:1024900016462B46002280212046009600F009F8BF
:1024A00028B1606D40F0200060650320F8BD002079
:1024B000FCE72DE9F04104460E4617461D46DDF8BF
:1024C00018803FE0681CE0B32DB1FEF70DFDA0EBD6
:1024D0000800A84236D32068406820F0E000216858
:1024E00048606068B0F5827F0DD1A068B0F5004FFC
:1024F00003D0A068B0F5806F05D12068006820F097
:10250000400021680860A06AB0F5005F0ED100BFEE
:10251000206800684DF6FF71084021680860206857
:10252000006840F400502168086000BF012084F872
:10253000510000BF002084F8500000BF0320BDE818
:10254000F081FFE7206880683040B04201D101206F
:1025500000E00020B842B5D10020F0E7704700004D
:1025600010B5FEF7C7FC03480068401C014908602D
:1025700010BD00001C00002000B591B002200090AA
:10258000012003900620049002200690002107916C
:1025900010210891C101099108210A9104210B9190
:1025A0006846FEF7C5FE01200C9002200D90012127
:1025B0000CA8FEF749FD11B000BD000014480068EA
:1025C00040F47000124908601248006840F00100B1
:1025D0001049086000200F49083108600D48006864
:1025E0000D4908400B4908600C48091D0860081F88
:1025F000006820F48020091F0860002005490C3184
:1026000008604FF0006002498039086070470000A0
:1026100088ED00E000380240FFFFF6FE1030002495
:1026200070B50446FEF786FA2168401A451C6068BA
:10263000A84201D2012070BD0020FCE770B504461D
:102640000D466560FEF776FA206070BD2DE9F04119
:10265000044600252068056925F44055E0680543D7
:10266000206805612068C56849F20C6085432169CE
:10267000A068084361690843E1690843054320688D
:10268000C5602068456925F44075A0690543206848
:102690004561E069B0F5004F7ED1C44920688842A9
:1026A00003D0C349206888425DD1FEF7D1FD00EB1D
:1026B000C00101EB001061684900B0FBF1F064213A
:1026C000B0FBF1F00601FEF7C3FD00EBC00101EB2A
:1026D000001061684900B0FBF1F7FEF7B9FD00EBAF
:1026E000C00101EB001061684900B0FBF1F064210A
:1026F000B0FBF1F000EBC00101EB0010A7EB800094
:10270000322101EBC0006421B0FBF1F000F0F800D1
:1027100006EB4006FEF79CFD00EBC00101EB00104C
:1027200061684900B0FBF1F7FEF792FD00EBC001D4
:1027300001EB001061684900B0FBF1F06421B0FBCF
:10274000F1F000EBC00101EB0010A7EB800032219B
:1027500001EBC0006421B0FBF1F000F00700304451
:102760002168886020E1FEF75DFD00EBC00101EB10
:10277000001061684900B0FBF1F06421B0FBF1F09A
:102780000601FEF74FFD00EBC00101EB0010616890
:102790004900B0FBF1F700E045E0FEF743FD00EB38
:1027A000C00101EB001061684900B0FBF1F0642149
:1027B000B0FBF1F000EBC00101EB0010A7EB8000D3
:1027C000322101EBC0006421B0FBF1F000F0F80011
:1027D00006EB4006FEF726FD00EBC00101EB001002
:1027E00061684900B0FBF1F7FEF71CFD00EBC0018A
:1027F00001EB001061684900B0FBF1F06421B0FB0F
:10280000F1F000EBC00101EB0010A7EB80003221DA
:1028100001EBC0006421B0FBF1F000F00700304490
:1028200021688860C0E061492068884203D060491F
:10283000206888425CD1FEF70BFD00EBC00101EB84
:10284000001061688900B0FBF1F6FEF701FD00EBB6
:10285000C00101EB001061688900B0FBF1F0642158
:10286000B0FBF1F000EBC00101EB0010A6EB800023
:10287000322101EB00106421B0FBF1F000F0F00612
:10288000FEF7E6FC00EBC00101EB00106168890077
:10289000B0FBF1F06421B0FBF1F006EB0016FEF79F
:1028A000D7FC00EBC00101EB001061688900B0FBB0
:1028B000F1F7FEF7CDFC00EBC00101EB0010616801
:1028C0008900B0FBF1F06421B0FBF1F000EBC00136
:1028D00001EB0010A7EB8000322101EB0010642116
:1028E000B0FBF1F000F00F003044216888605BE03D
:1028F000FEF798FC00EBC00101EB00106168890055
:10290000B0FBF1F6FEF78EFC00EBC00101EB00100E
:1029100061688900B0FBF1F06421B0FBF1F000EBDD
:10292000C00101EB0010A6EB8000322101EB00108A
:102930006421B0FBF1F000F0F006FEF773FC00EB51
:10294000C00101EB001061688900B0FBF1F0642167
:10295000B0FBF1F006EB0016FEF764FC00EBC001E3
:1029600001EB001061688900B0FBF1F7FEF75AFC3B
:1029700000EBC00101EB001061688900B0FBF1F0D1
:102980006421B0FBF1F000EBC00101EB0010A7EBFC
:102990008000322101EB00106421B0FBF1F000F067
:1029A0000F00304421688860BDE8F08100100140CC
:1029B000001401402DE9F04104460D4617469846A3
:1029C000069E21E0701CF8B12EB1FEF78DFAA0EB47
:1029D0000800B04218D92068C06820F4D07021687F
:1029E000C8602068406920F001002168486120200B
:1029F00084F8390084F83A0000BF002084F83800D9
:102A000000BF0320BDE8F081206800682840A8428C
:102A100001D1012000E00020B842D3D00020F1E72E
:102A200010B51748007820B1FFF7B4FB0020144917
:102A300008701448007808BB1348006828B1134890
:102A4000007810B901F09CFC07E00F48006820B145
:102A50000F48007808B901F059FC0B48006868B1CC
:102A60000A48007850B10A48007838B1094800781F
:102A700020B90020FDF750FF01F056F810BD00000E
:102A80000800002001000020040000200F000020AA
:102A9000100000200C0000207CB5491E1C46154685
:102AA000CDE90001044B6A462146284600F0CEF8E5
:102AB000009A002111707CBD7B330008EFF3108079
:102AC000704702E008C8121F08C1002AFAD17047F7
:102AD0007047002001E001C1121F002AFBD170479E
:102AE00080F31088704700002DE9FF5FDDE90220C8
:102AF000010DDDF838B0024318D044F61050A1F2B1
:102B0000FF3141430D140F98012820D0A5EB0B0095
:102B1000401C5FEA000A4FF00004474EDFF81C91AA
:102B2000A046504616D5CAF1000728E00F980124A8
:102B300043A2012808D0002100980F9BC0E9002182
:102B4000C0E90243BDE8FF9F6FEA0B01F4E7CBF158
:102B50000000DEE7074612E0F80707D022463346BA
:102B600040464946FDF73DFC8046894622463346AD
:102B700010461946FDF735FC04460E467F10002F1F
:102B8000EAD1DDE90201BAF1000F42464B4602DA12
:102B9000FDF727FC01E0FDF796FC04460E460022F7
:102BA000284BFDF717FD03D84FF0FF30014607E033
:102BB0000022254B20463146FDF76CFBFDF7F2FC69
:102BC000102409E0002C0ADB0A220023FDF731FB68
:102BD000019B30321A55641E50EA0102F2D1641C86
:102BE000019AC4F1110314440F9A012A03D001225F
:102BF00008430DD10AE0084304D000204FF0110B28
:102C00000F9080E7A3EB0B056D1E0DE05B4504DD27
:102C10004FF0000205F1010504E003DA4FF0000275
:102C2000A5F10105002AECD000980F99C0E9023106
:102C3000C0E9004586E70000000024400000F03FA6
:102C4000300000000000F0430000E03F2DE9FF4F9E
:102C500095B09B468946064600250FE2252877D188
:102C600000242746F84A0121059400E0044316F8A1
:102C7000013F203B01FA03F01042F7D130782A28B7
:102C800011D06FF02F033078A0F13002092A16D846
:102C9000059A44F0020402EB820203EB4202104464
:102CA000761C0590EFE759F8042B0592002A03DA09
:102CB000504244F40054059044F00204761C3078ED
:102CC0002E2816D116F8010F44F004042A280DD03E
:102CD0006FF02F023078A0F13003092B09D807EBF1
:102CE000870302EB4303C718761CF3E759F8047B0C
:102CF000761C30786C280FD006DC4C2817D068285A
:102D00000DD06A2814D104E0742810D07A280FD18D
:102D10000DE044F400140AE044F4801401E044F4AB
:102D200040147278824202D104F58014761C761C1D
:102D3000307866280BD013DC582877D009DC0028BF
:102D400075D04528F6D04628F4D047281AD19DE101
:102D500018E0632835D0642879D0652812D195E130
:102D6000702873D008DC6728F1D069286FD06E28EE
:102D70000DD06F2806D1B5E073282CD0752875D0FA
:102D8000782874D05A46179990476D1C75E1C4F3A2
:102D90000250022809D003280DD0D9F800100428C9
:102DA0000DD00D6009F1040967E1D9F80010EA17A8
:102DB000C1E90052F6E7D9F800100D80F2E70D7076
:102DC000F0E719F8041B8DF8001000208DF80100C1
:102DD000EA46012003E059F804AB4FF0FF306107E9
:102DE0004FF0000102D40DE008F101018846B9421C
:102DF0000FDA8045F8DB1AF808100029F4D108E052
:102E000008F1010188468142FADB1AF8081000290E
:102E1000F6D105985B46A0EB080721463846179A7D
:102E200000F094FA284400EB080507E04DE029E1A2
:102E30000DE01AF8010B5A4617999047B8F10108AE
:102E4000F7D25B4621463846179A13E142E00A2240
:102E50000092C4F302524FF0000A022A08D059F837
:102E600004CB032A4FEAEC710AD00DE029E02AE0F6
:102E700009F1070121F00702F2E802C1914609E0D9
:102E80000FFA8CFC4FEAEC71042A03D14FFA8CFC48
:102E90004FEAEC71002907DA0A460021DCF1000C48
:102EA00061EB02012D2202E0220504D52B228DF8D0
:102EB0000420012203E0E20701D02022F7E7904638
:102EC00059E00A2102E010220DE010214FF0000A23
:102ED00000910BE010224FF0000A44F00404082790
:102EE000009203E008224FF0000A0092C4F302525D
:102EF000022A05D059F804CB0021032A08D009E0A2
:102F000009F1070121F00702F2E802C1914605E04C
:102F10001FFA8CFC042A01D10CF0FF0C4FF00008C2
:102F2000220728D5702806D0009B83F0100353EAAF
:102F30000A0305D00EE040228DF80420012208E0AB
:102F40005CEA010206D030228DF804208DF80500DD
:102F500002229046009B83F0080353EA0A030AD139
:102F60005CEA010201D1620705D530228DF8042008
:102F70004FF001087F1E582804D034A003900EA8FB
:102F800002900DE036A0F9E753466046009AFDF73F
:102F900050F984460398825C0298401E02900270A9
:102FA0005CEA0100F0D1029806A9081A00F1200A93
:102FB000600702D524F4803400E00127574502DD84
:102FC000A7EB0A0000E0002000EB0A010090059842
:102FD0004144401A0590E00306D45B462146179A07
:102FE000059800F0B3F90544002706E001A85A4609
:102FF000C05D179990476D1C7F1C4745F6DBE003C9
:103000000CD55B462146179A059800F09FF90544B8
:1030100004E030205A46179990476D1C0099481ECD
:1030200000900029F5DC08E0029802995A460078E1
:10303000491C0291179990476D1CBAF10001AAF141
:10304000010AF1DC65E1000009280100303132336A
:1030500034353637383961626364656600000000D4
:1030600030313233343536373839414243444546BE
:103070000000000000F058F90544761C3078002864
:103080007FF4ECAD19B02846BDE8F08F620700D49C
:10309000062709F1070222F0070CFCE80223E146AB
:1030A00003F000485FEA080C02D00FF2702C0DE02C
:1030B0005FEA045C02D50FF2682C07E05FEAC47C8B
:1030C00002D00FF2602C01E0AFF2700C4FF0FF382D
:1030D00023F00043CDF850C065280CD006DC45280D
:1030E00009D046281DD047283DD13DE0662818D09C
:1030F00067287ED138E00021112F01DB112000E08C
:10310000781CCDE9000106A90EA8FFF7EDFCDDE96A
:103110000F010E9A03910021009207F1010A049118
:103120004DE04FF000400097CDE9011006A90EA830
:10313000FFF7DAFCDDE90F0203920E9B11990022E2
:10314000DDF80CA00093049211B9791C00EB010A80
:10315000B7EB0A0004D4C0F1FF3007F1010A049074
:10316000AAEB0700019044E0012F00DA01270021BB
:10317000112F01DD112000E03846CDE9000106A93C
:103180000EA8FFF7B1FCDDE90F010E9A03910021B3
:1031900004910092BA4621070CD40399514500DAF4
:1031A0008A46BAF1010F05DD009AAAF10101515CCE
:1031B000302908D0B84202DA10F1040F06DA0121F2
:1031C000CDE9011015E0AAF10101E9E7002805DCCD
:1031D000049901440491AAEB000102E0411C51450D
:1031E00000DD8A460499401A401C01904FF00040CF
:1031F0000290200704D40198504501DBCDF80480EB
:1032000000208DF84F0002980DF14F07B0F1004FEC
:1032100025D02B200E9002984FF0020800280CDADF
:10322000404202902D200E9007E00A210298FCF700
:10323000EAFF3031029007F8011DB8F10001A8F152
:103240000108F2DC02980028EFD1791E0E98087070
:10325000307800F0200040F0450007F8020D12A879
:10326000C01B00F107081498007800B1012000EBA2
:103270000A01019801EBE07105984144401A401E93
:103280000590E00306D45B462146179A059800F0A6
:103290005DF805441498007818B15A46179990477C
:1032A0006D1CE00324D55B462146179A059800F073
:1032B0004DF805441CE00498002807DBDDE9030114
:1032C000884203DD0098405C179901E0179930208F
:1032D0005A469047049805F10105401C0490019856
:1032E000401E019004D12E205A46179990476D1C1C
:1032F000BAF10001AAF1010ADDDC05E017F8010BC3
:103300005A46179990476D1CB8F10001A8F10108C1
:10331000F4DC5B462146179A0598ABE62D000000C9
:103320002B000000200000002DE9F041044600259C
:103330001E461746880404D405E039462020B047CD
:103340006D1C641EF9D52846BDE8F0812DE9F041D9
:10335000044600251E469046C80301D5302700E0EC
:103360002027880404D505E041463846B0476D1C47
:10337000641EF9D52846BDE8F0814A68002A06D0C7
:103380000A68531C0B6010704868401E4860704704
:103390002DE9F04F8DB004460D4616461F46DDE977
:1033A00018ABDDE91689ADF80440ADF806508DF88C
:1033B0000860062239460DF10900FFF733F88DF851
:1033C0000F80ADF81090ADF812A0ADF814B01A98B7
:1033D000ADF816001B98ADF818001C98ADF81A004F
:1033E0001822002107A8FFF727F83F20ADF81C009E
:1033F0009C20ADF81E0001A8099018200A900F200B
:103400000890CDF82CD001200C90002107A800F0E6
:1034100079FC002803DAFF200DB0BDE8F08F9DF89D
:103420000000F9E72DE9F04389B004460D46164641
:103430001F46DDE910898DF808408DF809508DF898
:103440000A60072200216846FEF7F6FF18220021D5
:1034500003A8FEF7F1FF3F20ADF80C008A20ADF87D
:103460000E0002A8059003200690CDF81CD007207E
:103470000890002103A800F045FC002803DAFF2093
:1034800009B0BDE8F0839DF8000010B19DF8000080
:10349000F6E7BDF801003880BDF80300A8F8000089
:1034A000BDF80500A9F800000020E9E72DE9F04F7C
:1034B0008FB004460D4616461F46DDE91AABDDE91E
:1034C00018898DF808408DF80950102231460DF109
:1034D0000A00FEF7A7FF8DF81A708DF81B808DF893
:1034E0001C90CDF81DA08DF821B01822002109A84C
:1034F000FEF7A2FF3F20ADF824008620ADF826009D
:1035000002A80B901A200C9001A80D9001200E909B
:10351000002109A800F0F6FB002803DAFF200FB015
:10352000BDE8F08F9DF8040010B19DF80400F6E7A7
:103530000020F4E72DE9FF4F91B007469846DDE9FA
:10354000216BDDE91F5ADDF878900024A8190E30B0
:10355000282803D9422015B0BDE8F08F0DF804707B
:10356000601CC4B2BDF8480012900DEB04000222AA
:1035700012A9FEF757FFA01CC4B2BDF84C0013906F
:103580000DEB0400022213A9FEF74CFFA01CC4B2ED
:103590000DF80480601CC4B20DF80490601CC4B225
:1035A0000DF80450601CC4B20DEB04002A465146CD
:1035B000FEF738FF6019C4B20DF80460601CC4B295
:1035C0000DEB040032465946FEF72CFFA019C4B299
:1035D000BDF88C0023900DEB0400022223A9FEF716
:1035E00021FFA01CC4B2BDF8900024900DEB040094
:1035F000022224A9FEF716FFA01CC4B21822002143
:103600000BA8FEF719FF3F20ADF82C008320ADF882
:103610002E00CDF834D00E940AA80F9001201090FF
:1036200000210BA800F06EFB002801DAFF2092E7D2
:103630009DF8280010B19DF828008CE700208AE74B
:103640002DE9FF4F8FB00E4617469846DDE91DABBA
:10365000DDF870900024BDF83C000F9001A9081916
:1036600002220FA9FEF7DEFEA41C01A80655641C69
:10367000012E01D1022500E0102501A908192A46D2
:103680003946FEF7CFFE6019C4B201A800F80480E5
:10369000601CC4B201A800F80490601CC4B201A868
:1036A00000F804A0601CC4B201A800F804B0601CBB
:1036B000C4B201A91F980855601CC4B220980855CF
:1036C000601CC4B20322002108A8FEF7B5FE182230
:1036D000002109A8FEF7B0FE3F20ADF824004FF40A
:1036E0008270ADF8260001A80B900C9408A80D90EC
:1036F00003200E90002109A800F004FB002803DA43
:10370000FF2013B0BDE8F08F9DF8200010B19DF8A8
:103710002000F6E7BDF82110219801800020F0E795
:103720002DE9F0478CB00646894617469846DDF8E5
:1037300050A000240DF80460641C012E01D1022564
:1037400000E010250DEB04002A464946FEF76AFE0C
:103750006019C4B20DF80470601CC4B20DF8048086
:10376000601CC4B20322002105A8FEF765FE1822E2
:10377000002106A8FEF760FE3F20ADF818004FF4C8
:103780008170ADF81A00CDF820D0099405A80A90F0
:1037900003200B90002106A800F0B4FA002803DAF9
:1037A000FF200CB0BDE8F0879DF8140010B19DF823
:1037B0001400F6E7BDF81500AAF800000020F0E7B5
:1037C000FFB58DB01E46169F0024BDF834000D9045
:1037D0000DEB040002220DA9FEF724FEA41CBDF887
:1037E00038000E900DEB040002220EA9FEF71AFE1F
:1037F000A41CBDF83C000F900DEB040002220FA9A1
:10380000FEF710FEA41C0DF80460641C012E01D10B
:10381000022500E010250DEB04002A463946FEF78C
:1038200001FE6019C4B21822002107A8FEF704FEA9
:103830003F20ADF81C004FF48B70ADF81E00CDF8A2
:1038400024D00A940F20089006A80B9001200C9019
:10385000002107A800F056FA002802DAFF2011B074
:10386000F0BD9DF81800FAE700B587B018220021D6
:1038700001A8FEF7E1FD3F20ADF8040040F2011081
:10388000ADF80600CDF814D001200690002101A863
:1038900000F038FA002802DAFF2007B000BD9DF8DA
:1038A0000000FAE7FFB5A7B016461D46309F00247A
:1038B000A81D802802DD42202BB0F0BDBDF89C0081
:1038C00027900DEB0400022227A9FEF7ABFDA01CF8
:1038D000C4B2BDF8A00028900DEB0400022228A974
:1038E000FEF7A0FDA01CC4B20DF80460601CC4B2B9
:1038F0000DF80450601CC4B20DEB04002A46394692
:10390000FEF790FD6019C4B21822002121A8FEF72D
:1039100093FD3F20ADF884004FF48370ADF886002E
:10392000CDF88CD0249420A8259001202690002149
:1039300021A800F0E7F9002801DAFF20BCE79DF894
:10394000800010B19DF88000B6E70020B4E77FB595
:10395000A8B015461E460024681D802802DD4220BE
:103960002CB070BDBDF8A000289001A90819022252
:1039700028A9FEF757FDA01CC4B2BDF8A4002990E9
:1039800001A90819022229A9FEF74CFDA01CC4B206
:1039900001A80555601CC4B201A908192A46314680
:1039A000FEF740FD6019C4B21822002122A8FEF7DC
:1039B00043FD3F20ADF8880040F22110ADF88A00A9
:1039C00001A8249025940F20239021A8269001205F
:1039D0002790002122A800F095F9002801DAFF20A5
:1039E000BEE79DF88400BBE7F0B58FB005460E46F4
:1039F00014461F46142C02D942200FB0F0BDADF87A
:103A00000450ADF806608DF80840224639460DF1A5
:103A10000900FEF707FD1822002109A8FEF70CFD9A
:103A20003F20ADF8240040F22310ADF8260001A895
:103A30000B90601D0C9008A80D9001200E900021A5
:103A400009A800F05FF9002801DAFF20D5E79DF80A
:103A50002000D2E730B589B004460D468DF8084005
:103A60008DF809501822002103A8FEF7E5FC3F203D
:103A7000ADF80C000F20ADF80E0002A80590022052
:103A8000069001A8079001200890002103A800F0EB
:103A900039F9002802DAFF2009B030BD9DF8040092
:103AA00010B19DF80400F7E70020F5E7F0B5A7B0E6
:103AB00006460D4617460024A81C802802DD422039
:103AC00027B0F0BD0DF80460601CC4B20DF80450BE
:103AD000601CC4B20DEB04002A463946FEF7A2FC76
:103AE0006019C4B21822002121A8FEF7A5FC3F20CE
:103AF000ADF884000C20ADF88600CDF88CD024946D
:103B000020A8259001202690002121A800F0FAF895
:103B1000002801DAFF20D3E79DF8800010B19DF85E
:103B20008000CDE70020CBE70EB511A00068029021
:103B30001048006800EB800041006846FEF77EFDFB
:103B400004E06846FEF76CFD00B10BE00A4800880F
:103B5000801C81B202AB022208480088FFF7F7FE02
:103B60004628EED000BF0120054908700EBD0000B8
:103B70000100000044440008120000200A00002058
:103B80000C00002070B586B005460C4601A802ABBB
:103B900004AA03A9009005A800F01FF8C6B2BEB998
:103BA000BDF80C0000122870BDF80C000006000CD7
:103BB00020802088BDF80410C1F3031140EA0110F1
:103BC00020802088BDF8041001F00F0108432080F8
:103BD000FEF75AFA304606B070BD2DE9F0418AB0C2
:103BE00004460D4616461F46DDF840800922002196
:103BF00001A8FEF721FC1822002104A8FEF71CFCF6
:103C00000420ADF810000120ADF81200002006904D
:103C1000079001A8089009200990002104A800F04D
:103C200071F8002803DAFF200AB0BDE8F0819DF8A2
:103C3000040010B19DF80400F6E79DF8050020701F
:103C4000BDF8060028809DF808003070BDF8090016
:103C50003880BDF80B00A8F800000020E4E730B57C
:103C60008FB004460D462022002101A8FEF7E4FB98
:103C70008DF804401F2C01DD1F2000E02046024685
:103C800029460DF10500FEF7CDFB1822002109A8F9
:103C9000FEF7D2FB0820ADF824000920ADF826007D
:103CA00001A80B9020200C90CDF834D001200E906C
:103CB000002109A800F026F8002802DAFF200FB042
:103CC00030BD9DF80000FAE72DE9FC4105460F469E
:103CD00014461E46384665F39F2080B2ADF80400B6
:103CE0008DF8064001208DF80000032201A9C81EAE
:103CF000FEF798FB234604223146684600F0DEF8C2
:103D0000BDE8FC812DE9F04F89B004468A46218840
:103D1000608861F39F2080B20890654800680A219E
:103D2000B0FBF1F006900020039001A800F0D4F859
:103D3000227B61882088A368FFF7C6FFBAF1000FD5
:103D400000D0A9E0069808B90120069004A80699B9
:103D5000FEF774FC94E008E004A8FEF761FC00B1F3
:103D60008FE0FEF7D3F900B900E0F5E700BFFCF7FC
:103D7000ECFE03A94F4800F0E5F8039800F10807AE
:103D80003878042806D001A8039900F0B9F8FCF7A8
:103D900013FF75E0781C0790039800F10B0503985A
:103DA00090F88800C61E079800780E2823D00F28A8
:103DB00004D010284DD03E284CD133E0A8464546CB
:103DC000B8F802100898814200D05AE060680F28C5
:103DD00004D098F8000000B153E03CE06069B042C4
:103DE00001DD304600E0606960612946D4E90402E3
:103DF000FEF718FB50E0AB465D46BBF80110089893
:103E0000814200D03DE0ED1CF61E6069B04201DD4C
:103E1000304600E0606960612946D4E90402FEF79B
:103E200001FB39E0A9464D4699F8000061688842D7
:103E300000D010E0761E6069B04201DD304600E03F
:103E40006069606109F10101D4E90402FEF7EAFA50
:103E500022E016E000BF00BF01A8039900F050F86F
:103E6000154800F05EF840B16946124800F06AF863
:103E70001148009900F044F800BFFCF79DFE00BF18
:103E800069E701A90B4800F0B7F9FCF795FE4FF080
:103E9000FF3009B0BDE8F08F0748039900F01FF824
:103EA00001A9044800F0A8F9FCF786FE0020F0E71D
:103EB0004444000840000020380000202DE9F04173
:103EC00004460D4616461F463B46324629462046C6
:103ED000FEF736F9BDE8F08100604060704770B5CC
:103EE00005460C46FEF7EAFD064672B628682060D5
:103EF00065602C60206844603046FEF7F1FD70BDBF
:103F000070B505460C46FEF7D9FD064672B625602B
:103F1000686860606C60606804603046FEF7E0FDD1
:103F200070BD70B50446FEF7C9FD064672B620683E
:103F3000A04201D1012500E000253046FEF7D0FD6A
:103F4000284670BD70B505460C46FEF7B7FD06461F
:103F500072B628682060286800F009F800202168FF
:103F60000860216848603046FEF7BAFD70BD70B544
:103F70000446FEF7A3FD054672B6D4E900010860C9
:103F8000D4E9001048602846FEF7AAFD70BD000085
:103F900090B055A003C8CDE90E0155A103C9CDE9E4
:103FA0000C01FCF7AFFF54480078012801D1FEF75F
:103FB000ABF95148007808B9FEF7F0F9FEF7DCFAE2
:103FC00000F026FAFCF788FCFDF7FCFFFCF7E0FCAC
:103FD00005A906A8FFF7D6FDFCF7DAFCBDF814200A
:103FE0009DF8181045A0FEF731FA9DF8180030280A
:103FF00002DD0120464908703F48007828B90622B2
:104000000EA90AA8FEF70EFA04E006220CA90AA8D7
:10401000FEF708FA0AAA06210020FFF747FD04462A
:104020001CB121463BA0FEF711FAFFF71DFC044628
:1040300014B140A0FEF70AFA2F48007801280FD1EA
:104040003348007801281AD107A808A909AB07222C
:10405000CDE9001000210120FFF7E4F904460EE04D
:104060002B48007801280AD107A808A909AB072224
:10407000CDE9001000210420FFF7D4F9044614B163
:1040800031A0FEF7E3F90120344900221023CDE9E5
:104090000032CDE9021007231146FFF707FA044664
:1040A00014B92FA0FEF7D2F91348007801280ED1D9
:1040B00031A0FEF7CBF9FCF745FB04461CB936A04E
:1040C000FEF7C4F906E03CA0FEF7C0F902E042A00A
:1040D000FEF7BCF904210120FFF7BCFC03E0FDF76B
:1040E000D3FFFEF79DFCFAE7BB0000E18002000071
:1040F000AA0000E180020000010000204857766518
:10410000722025642C2046577665722025640A00AB
:104110000000002053657474696E672042445F415B
:10412000444452206661696C6564203078253032E1
:10413000782E0A00474154545F496E6974206661C5
:10414000696C65642E0A00004741505F496E6974CE
:10415000206661696C65642E0A00000040E201007F
:10416000424C4520537461636B20496E69746961E8
:104170006C697A65642E0A005345525645523A20BE
:10418000424C4520537461636B20496E69746961C8
:104190006C697A65640A000053657276696365200C
:1041A0006164646564207375636365737366756CBD
:1041B0006C792E0A000000004572726F72207768D9
:1041C000696C6520616464696E67207365727669E5
:1041D00063652E0A00000000434C49454E543A20C6
:1041E000424C4520537461636B20496E6974696168
:1041F0006C697A65640A000038B505460C4607E02C
:1042000069462046FFF79EFE28460099FFF778FE94
:104210002046FFF786FE0028F2D038BD70B5044670
:104220000E462078312803D101210A48FEF7ADF867
:104230006078312803D102210648FEF7A6F8002550
:1042400004E0615D04A0FEF701F96D1CB542F8DBE6
:1042500070BD0000000802402563000038B5044628
:104260000D460C480078012809D12B4600220A4847
:104270000094018809480088FFF714FB09E008480A
:104280000088401C81B223462A4606480088FFF772
:10429000ABFB38BD010000201800002016000020F4
:1042A000140000200A00002000B585B00120009015
:1042B00009480190022002900320039000200490FE
:1042C00069460648FCF714FD002002906946034841
:1042D000FCF70EFD05B000BD00001110000002400B
:1042E00000B585B0012000900190032003900020CC
:1042F000029069460448FCF7FBFC01221146024883
:10430000FCF7ECFD05B000BD0000024000B585B033
:104310000D480078B0B90DA0FEF798F813A30FCBA5
:10432000CDE90323CDE9010101A802234FF6FF7275
:104330000121009011480088FFF742FA012002494C
:10434000087000BF05B000BD0E00002053746172FC
:10435000742072656164696E6720525820436861F9
:10436000722048616E646C650A000000669A0C2039
:104370000008969EE2119EB1E2F273D90A00002075
:1043800000B585B00D480078B0B90DA0FEF75EF815
:1043900013A30FCBCDE90323CDE9010101A802232B
:1043A0004FF6FF720121009011480088FFF708FACC
:1043B00001200249087000BF05B000BD0D000020BB
:1043C00053746172742072656164696E6720545819
:1043D00020436861722048616E646C650A000000C9
:1043E000669A0C200008969EE2119EB1E1F273D904
:1043F0000A00002008B50020009003E000BF0098EC
:10440000401C009040F2654100988842F6DB08BDF0
:1044100010B50A480A4908604FF416504860002158
:1044200007488160C160016181610C214161FDF734
:1044300003FC08B1FCF7C5FB10BD000000440040C0
:104440004C000020E80300002000002028000000AD
:10445000000102030401020304060708090000002A
:1044600080440008000000204C000000C22A000820
:10447000CC4400084C00002054070000D22A000859
:10448000000100000000000001000000000000002A
:10449000000000000000000000000000000000001C
:1044A000000000000000024000080240E803000095
:1044B0000024F400000000000000000000000000E4
:0C44C000000000000000000000000000F0
:040000050800019559
:00000001FF
