:020000040800F2
:1000000040050020B94F0008214E0008234E00088B
:1000100000000000000000000000000000000000E0
:10002000000000000000000000000000254E000855
:100030000000000000000000274E0008294E0008C4
:10004000BF1600082F180008331D00084F1E0008B7
:10005000533200083D4E0008773300084B4E00082D
:10006000374D0008974F0008A34F0008D94F0008EC
:10007000DB4F0008DD4F000800000000DF4F0008E4
:1000800000000000E14F0008000000000000000038
:10009000E34F000800000000E54F0008E74F0008AC
:1000A000E94F0008EB4F0008ED4F0008EF4F000844
:1000B000F14F0008F34F0008F54F0008F74F000814
:1000C000F1B5A4B00E0014001D004A487844FF307A
:1000D000253003C822AA03C2049600200D9001E037
:1000E0000098241800206946C88022AB0022D24321
:1000F000210001A8801C01F04EF90090012805DACA
:100100002078411E8941C943C90F00916846C088C3
:100110002528009E00D1761E012E0EDB270039789F
:100120000498249A90470490002800D109E10D9882
:10013000401C0D907F1C761EF1D16846C088252892
:1001400007D100200790089009900A900B900C901E
:1001500008E06846C0880028C2D10D98F3E001008D
:1001600001200843641C21782029F8D023290ED0CF
:100170002B2904D02D2907D030290BD00DE0010008
:100180000220084380B2EDE701000420F9E70100F6
:100190000820F6E701001020F3E72A290FD129688B
:1001A00029600A68091D29600F92002A05D551426D
:1001B0000F9101000420084380B2641C12E000216A
:1001C0000F910AE00F9A804B9A4205D093009A183B
:1001D0005200511830390F91641C21780A00303ACE
:1001E0000A2AEFD321782E2906D00021C9430E9187
:1001F00021E000BFF04C0000641C21782A2907D1BF
:10020000296829600A68091D29600E92641C12E0A1
:1002100000210E910AE00E9A6B4B9A4205D0930092
:100220009A185200511830390E91641C21780A0036
:10023000303A0A2AEFD302A9088726783100044809
:1002400078440C3001F0B5F8002803D0641C02E0BB
:100250009C4C0000002602A83A30067002A83A30F2
:100260000078682804D12178682901D1622005E04E
:100270006C2807D120786C2804D1712002A93A316A
:100280000870641C12A806902678641C300025387B
:100290002AD01C3800D1E0E0001F022800D8DCE0A2
:1002A000133800D1FFE0093800D1D6E0801E00D11C
:1002B00068E1401E00D140E1401E022800D8CCE099
:1002C000001F00D139E1401F00D197E0401E00D14E
:1002D000E9E0401E39D0C01E0BD0801E00D1E2E004
:1002E000C01E00D1DFE070E1252012A908700120B6
:1002F00075E102A83A3000786C282868286016D08A
:100300000668001D286005960E9F002F03D530005B
:1003100001F059F809E03A000021300001F05BF8E3
:10032000002801D0801B00E03800089058E10268E6
:10033000001D286002A9249800F032FA002800D499
:100340004EE10020C04325B0F0BD28682860026857
:10035000001D28600020C0430021104002AA03C2F3
:1003600012A80590069B3C2602A803C8002904D1C8
:10037000002802D10E9A002A14D0761E0096020799
:10038000120F3032D2B23A2A00DB27329A550009D6
:100390000A071043090901D1002803D0059A9F19C3
:1003A000BA42EAD33C20801B0890991905910E9916
:1003B00088420DDA081A0A9002A8008F034901400A
:1003C00002A801870CE100BFFFFFFF7FEFFF0000E5
:1003D000002900D404E102A93831097814220A4026
:1003E000102A00D0FCE00F99079A891A0A9A891AF4
:1003F0000E1A012E00DAF3E00A96F1E002A83A3074
:100400000078622819D0682806D06A280CD06C2899
:100410001BD0712808D018E0286828600168001DEA
:1004200028600D980880DBE0286828600268001DBD
:1004300028600D98C11703C2D2E0286828600168BF
:10044000001D28600D980870CAE0286828600168BF
:10045000001D28600D980860C2E02A68D21D0720A0
:1004600082432A6003CA2A6002AA03C2002902D575
:1004700007982D210AE002A8008F810702D507986E
:100480002B2103E0C00705D50798202112AA11549B
:10049000401C079012A8079940180590310002A847
:1004A00000F0AAFB9CE002A83A3000786C280BD040
:1004B000712801D06A2807D12A68D21D07208243FB
:1004C0002A6003CA2A6005E0296829600868091DB6
:1004D0002960002102AA03C202A83A3000786828E5
:1004E00003D102A803C880B20BE0622803D102A89E
:1004F00003C8C0B205E0742801D07A2804D102A84C
:1005000003C8002102AA03C202A8383000780007FD
:100510002FD502A803C8002901D1002829D0202006
:100520003043782825D10798302112AA1154401C55
:10053000411C079112A90E541BE0290002A83A3071
:10054000007800F0F8F802AA03C202A8002902DA33
:1005500007982D2109E0008F810702D507982B21EC
:1005600003E0C00705D50798202112AA1154401CAA
:10057000079012A8079940180590310002A800F0D2
:10058000A1FA2DE002A83A3000786C2809D00120A9
:100590000790286828600168001D286012A8017073
:1005A0001EE0286828600168001D286068460180F8
:1005B000002069464880C0430E906A4602A92498EC
:1005C00000F0EEF800280BD5BBE6252012A9087034
:1005D00001200790002E03D012A846700220079039
:1005E0000F980799401A0A99401A0899401A0B99CE
:1005F000401A0999401A0C99401A009002A8383004
:100600000078400711D4202069460871009801281D
:100610000BDB009E012301AA02A9249800F0A3FE8F
:10062000002800D08DE6761EF4D1079F12AE002F71
:100630000DD031780498249A90470490002800D176
:100640007FE60D98401C0D90761C7F1EF1D1302066
:10065000694608710A9E012E0ADB012301AA02A93C
:10066000249800F080FE002800D06AE6761EF4D1BF
:10067000059E089F002F0DD031780498249A90474A
:100680000490002800D15CE60D98401C0D90761C6B
:100690007F1EF1D13020694608710B9E012E0ADBC6
:1006A000012301AA02A9249800F05DFE002800D0D1
:1006B00047E6761EF4D1059808994618099F002F41
:1006C0000DD031780498249A90470490002800D1E6
:1006D00037E60D98401C0D90761C7F1EF1D130201E
:1006E000694608710C9E012E0ADB012301AA02A9AA
:1006F000249800F038FE002800D022E6761EF4D1BF
:1007000002A838300078400700D4EBE42020694686
:1007100008710098012800DAE4E4009E012301AA90
:1007200002A9249800F01FFE002800D009E6761EDA
:1007300000D1D7E4F2E70A00622822D0682819D055
:100740006A2808D06C2823D0712804D074281FD0C0
:100750007A2808D01CE01368DB1D07208343136050
:1007600003CB13607047116811600868091D1160A0
:1007700000217047116811600868091D116000B2FE
:100780000BE0116811600868091D116040B204E0B7
:10079000116811600868091D1160C11770470000D9
:1007A000F4B59AB007000C00206B002800D50E4865
:1007B000039000F01CFE616B08180690094878440D
:1007C000223003C807AA03C23820205C400702D4A5
:1007D000069841280AD209A80290402006900020DD
:1007E000059012E010470000FFFFFF7F00F004FEBD
:1007F00002900028F3D10020C04361E11A98801CC8
:100800001A9003980199401A03900398012800DA7E
:10081000D0E007AA1A98018800A8401C00F048FE02
:100820000190002800D5E2E01A980088002804D141
:100830000198401E019000D5D9E0039801998842A3
:1008400000DAB7E060690699019A8218914200D3F4
:100850009FE0002161634142206A081AA169401AA1
:10086000616A401AE169401AA16A401A049038206E
:10087000205C400711D420206946087004980128A4
:100880000BDB049D01236A462100380000F06BFD5C
:10089000002800D0ABE06D1EF4D16669029D002EE9
:1008A0000CD02978A068B847A060002800D19EE04D
:1008B000E06A401CE0626D1C761EF2D13020694671
:1008C0000870256A012D0ADB01236A4621003800E1
:1008D00000F049FD002800D089E06D1EF4D1E568E4
:1008E000A669002E0BD02978A068B847A060002820
:1008F0007DD0E06A401CE0626D1C761EF3D1302092
:1009000069460870656A012D09DB01236A462100EA
:10091000380000F028FD002869D16D1EF5D1E0688F
:10092000A1694518E669002E0BD02978A068B84760
:10093000A06000285BD0E06A401CE0626D1C761E5F
:10094000F3D1302069460870A56A012D09DB012327
:100950006A462100380000F006FD002847D16D1ED0
:10096000F5D13820205C400710D52020694608705A
:10097000049801280ADB049D01236A4621003800FF
:1009800000F0F1FC002832D16D1EF5D10020059059
:100990006061019A00A9491C02986369C01800F0BF
:1009A00093FD60690199401860611A9800880028D9
:1009B00000D023E7059800287BD1606B6169401A5D
:1009C000216A401AA169401A616A401AE169401A15
:1009D000A16A461A3820205C400711D4012E0FDB93
:1009E00035002021A068B847A060002803D100206E
:1009F000C04305905DE0E06A401CE0626D1EF0D1EE
:100A00006369029A2100380000F0ADFC0028EED1A5
:100A1000256A012D0ADB3021A068B847A0600028B4
:100A2000E5D0E06A401CE0626D1EF4D1A369E26883
:100A30002100380000F097FC0028D8D1656A012D0C
:100A40000ADB3021A068B847A0600028CFD0E06A58
:100A5000401CE0626D1EF4D1E369E068A1694218B0
:100A60002100380000F07FFC0028C0D1A56A012DCC
:100A70000ADB3021A068B847A0600028B7D0E06A40
:100A8000401CE0626D1EF4D13820205C40070DD57B
:100A9000012E0BDB35002021A068B847A06000289C
:100AA000A5D0E06A401CE0626D1EF4D100206061B8
:100AB0006063029809A9884201D000F033FD0598CF
:100AC0001BB0F0BDF3B583B0006900906846027CAE
:100AD0006F2A01D1082406E020211143782901D092
:100AE0000A2400E010243C25039803C806000F00E8
:100AF000642A01D0692A07D1002905DA00200021E3
:100B0000801BB94106000F00002F12D1002E10D11A
:100B10000398006B00280CD1082C3CD10398383086
:100B20000078000737D53B25302000993B3108700D
:100B300031E06D1E0195300039002200E31700F00E
:100B400035FD3032D2B23A2A03DB6846007C513898
:100B5000121800984255300039002200E31700F0C7
:100B600025FD06000F0001D1002E05D00398C068B6
:100B7000009949198842DCD3082C0CD103983830ED
:100B80000078000707D50098405D302803D06D1E1F
:100B90003020009948553C20401B039988610099FA
:100BA0004919039AD1600399096B884209DA081A36
:100BB000039908620398008F0E490140039801874A
:100BC00015E0002913D503993831097814220A4019
:100BD000102A0CD10399496B039A5269891A039A16
:100BE000126A891A0D1A012D01DB0398056205B0FE
:100BF000F0BD0000EFFF0000F3B591B006AD03C8F3
:100C000002AA03C212A800782021014300916129A1
:100C10000BD01198006B002801D5062003E004D109
:100C2000672902D101201199086311984168480091
:100C3000400DAB4A904225D1080310D111980068AD
:100C400000280CD103201199886112A8007861381E
:100C50001A2842D3234878448A3000900BE00320BE
:100C60001199886112A8007861381A2831D31E487A
:100C7000784474300090032200991198C06800F005
:100C800023FCF9E1012817DA119800F0C4FC0128CF
:100C900012DB002700260098612832D11198C06825
:100CA00030210170401C411C119AD16012A90978B1
:100CB00061291FD178211EE011994968894A0A40AB
:100CC00089491143119A51608849461A0027FF4308
:100CD000E1E7064878441430CCE705487844103002
:100CE000BBE700BF24420000184200001042000091
:100CF000144200005821017011984069801C11991C
:100D00004861002F03D1002468468780AAE100983B
:100D1000612800D0A1E01198046B002C01D521249A
:100D200000E0641C24B2601C0090119803C804AA5F
:100D300003C202A803C80022002300F08EFC04A80E
:100D400003C802D280221206514002AA03C2301FF9
:100D50006946888000270F7606AE761C0098012829
:100D600034DB02A803C80022002300F08FFC2DD240
:100D70001C2102A800F0A4FC02A803C800F02EFD6C
:100D800005000098C01F009001280ADB280000F031
:100D90004FFD02000B0002A803C800F0C0FD02AA2C
:100DA00003C2F61D072004E0761E2907090F3170E3
:100DB0002D11012D01DB401EF6D5401E02D4761EFA
:100DC0003770FAE7F61D00980128CADA06A8401C19
:100DD000311A06AD6D1CA14200DA0C0024B22000CD
:100DE00032D4884205DA06A909184978082900DBB7
:100DF0000F2706A9091801E0641E491E401E0A7843
:100E0000BA42F9D00F2F04D106A909184A78521C0A
:100E10004A70002806D506AD641C019800B2001D7A
:100E20006946888024B2601E0ED429180A783032B0
:100E3000D2B23A2A03DB12AB1B783A3BD2180A70C3
:100E4000401E491E0028F1D51198006B002800D4DF
:100E500008E1601E1199086304E102A803C800229A
:100E6000002300F0FAFB06D202A803C88022120673
:100E7000514002AA03C236B280487043804900F054
:100E8000DBFD694688800720019909B2421A0020DB
:100E90007C49012A20DB049202AA30CA00260F00F6
:100EA0000498C00707D532003B002000290000F05D
:100EB0001DFE04000D00049840100490300039001D
:100EC00032003B0000F012FE06000F0004980028DC
:100ED000E6D102A830C028E0544200266A4F18E04C
:100EE000FF070000FFFF0F800000E03FFE0300004F
:100EF000E00707D504A803C832003B0000F0F6FD68
:100F000006000F00641004A803C804AA0CCA00F06D
:100F1000EDFD04AA03C2002CEAD102A803C83200E6
:100F20003B0000F0A5FE02AA03C20098662803D188
:100F3000019800B20A3000E006201199096B0818E8
:100F40000490142801DB13200490302069460876B1
:100F500006AC641C0498012840DB02A803C800F01A
:100F60004FFC050008340594042428000A2100F0F1
:100F700066FD0F0028000A2100F061FD05003037F2
:100F80000598401E077028000A2100F058FD0F0048
:100F900028000A2100F053FD05000598801E0590E9
:100FA00030370770641EE0D1059C08340498083877
:100FB00004900128CEDB02A803C800F021FC00F059
:100FC00041FC02000B0002A803C800F0A8FC0022AC
:100FD0002E4B00F08BFD02AA03C2BEE706A8401C00
:100FE000201A06AD6D1C6A4605E0401E019909B243
:100FF000491E91806D1C29783029F6D00099662908
:1010000003D1019909B2491C04E0652901D10121EC
:1010100000E00021119A126B541824B2A04200DAA9
:10102000040024B221001DD4814204DA685C352812
:1010300001DB392000E030206A1800E0641E521EF7
:10104000491E13788342F9D0392802D1685C401CCC
:101050006854002906D56D1E641C019800B2401C1E
:1010600069468880019800B2009023B22A0012A835
:101070000178119800F00CF813B0F0BD97750000DE
:10108000A0860100000024400000F03F84D7974173
:10109000F3B589B014001D0000F065FE0090406AB1
:1010A0000078694608720998076B012D01DA01255D
:1010B000ACA40AA8017820200843109E662801D11C
:1010C000761C17E0672800D09EE00321C9438E42BA
:1010D00000DA9DE0BE4200DB9AE0761C09983830C9
:1010E0000078000702D4BD4200DA2F0036B2BF1BE1
:1010F00000D500270998C068019009988069019976
:101100000918009136B2012E2CDA401C3021009AC9
:101110001170012F04DA099938310978090704D5CB
:101120006946097A019A1154401C099988617042F4
:10113000874200DA7E4236B2704209994862BF198E
:10114000AF4200DA3D002DB20998C5612A002100A6
:101150000198099B9B69C01800F0B6F9781B0999A2
:101160008862E0E0B54220DA2A002100009800F011
:10117000ABF9099989694919099A9161701B099A12
:101180005062012F04DA099838300078000709D539
:101190006846007A099AD26850540998C069401C80
:1011A0000999C86109988762BDE032002100009862
:1011B00000F08AF9099880698019AD1B012F04DAC3
:1011C000099938310978090705D56946097A099AD4
:1011D000D2681154401C099988612DB2AF4200DADF
:1011E0003D002DB22A00A1190998C068099B9B698E
:1011F000C01800F069F90998806940190999886157
:10120000781B099948628EE0612914D1702015E09D
:10121000BD4205DA099938310978090700D42F0051
:101220007F1E00D500270AA80078672801D1652015
:1012300004E0452002E0412902D150200AA90870AB
:1012400009988069411C099A9161099AD2680192B2
:101250002278019B1A54641C0094012F04DA099827
:101260003830007800071CD5481C099A90616A46FE
:10127000127A019B5A54012F13DB6D1E2DB2AF421F
:1012800000DA3D002DB22A000099019B181800F0E9
:101290001BF909988069401909998861781B099997
:1012A00048620998C0680999896944180AA80078B1
:1012B0002070300003D42B206070A41C03E02D218B
:1012C0006170A41C4642002505AF08E00A2203A86D
:1012D00000F064FD04983870039E6D1C7F1C31B2D1
:1012E0000129F3DA022D08DA0AA800782021014347
:1012F000652902D130202070641C002D09D13020D6
:101300002070641C07E06D1E05A8405D3030207021
:10131000641C012DF7DA0998C06809998969401899
:10132000201A0999C86109983830007814210140C1
:10133000102914D1099840690999896940180999B7
:10134000496A40180999C96940180999896A401879
:101350000999496B884202DA081A099908620BB0A8
:10136000F0BD00003000F1B50E0014000027002B86
:101370000FD01D002178B068009A9047B060002817
:1013800006D0F06A401CF062641C6D1E01D0F1E7CB
:10139000FF433800F2BDF8B504000F0015001E0031
:1013A00000F00CFD33002A003900200000F01AFD87
:1013B000F2BDC9B200E0401C02788A4202D0002A85
:1013C000F9D100207047010000E0491C0A78002A8A
:1013D000FBD1081A7047C9B201E0401C521E002A16
:1013E00003D003788B42F8D170470020704780B556
:1013F00000F0E4FC012002BD70B505002C000F34A4
:1014000007208443C046C046A54233D2082C04D2EC
:10141000082402E0083000F085F824480268110032
:101420000CD1011D0A68002A20D01368A34212D2F1
:10143000111DF7E71D68A5420DD2191D0B68002B81
:10144000F8D11268011D00E0191D0B6893420DD000
:101450001D68A542F8D300290CD00D682A68130036
:10146000083BA3420AD26A680A600FE000F0D8FC89
:101470000028CFD1C046C046002070BD2B190B609C
:101480006E685E60121B0B681A602C600968002988
:1014900004D04A68002A01D0091D00E00021016043
:1014A000C046C0460835280070BD0000D80A00209C
:1014B00070B504000D00160000F080FC3200290019
:1014C000200000F085FC70BD124207D08B0706D0CB
:1014D0000B78491C0370401C521EF7D870478307D5
:1014E00006D00B78491C0370401C521EF9D170477E
:1014F00070B4103A03D378C9103A78C0FBD25307BE
:1015000001D318C918C001D508C908C0D20704D32F
:101510000B880380891C801C002A01D50B7803707E
:1015200070BC7047002800D1704738B508380400F7
:101530002068082836D3400734D1C046C0461A4830
:101540004168002901D08C4203D26160446019E0F7
:1015500019004B68002B01D0A342F9D30B68CD18BA
:10156000AC421DD3A54204D122689A180A600C002F
:1015700008E04A68002A03D02368E3189A420FD390
:1015800062604C60616800290AD02268A3188B420F
:1015900006D1002303600868101820604868606066
:1015A000C046C04631BD0000D80A0020124224D0F7
:1015B000994228D970B500251B4202D00C000021A9
:1015C00009E00024012649186441944200D3A41A7A
:1015D0007641F8D33100012601E0764109D20018A6
:1015E00064416D41A41A9D41F7D2A4185D41B6191A
:1015F000F5D3300022002B0070BD1B42D8D108B5B6
:1016000000F024FC08BD01D19042D3D202000B00AF
:1016100000210020704730B401004B688022120680
:101620001A4001201B031B0B4B600BD10B68002BD6
:1016300008D10DE00B686400DD0F25434D605B00B1
:101640000B60401E4C68E302F4D523031B0B4B6078
:101650004B681A434A6030BC704730B401246405BB
:101660004D00EC420BD85D00EC4208D80C001C4346
:1016700064000443144304D2994200D1904230BC28
:101680007047FCD08B42FAD18242F8E730B4012493
:1016900064054D00EC420BD85D00EC4208D80C000C
:1016A0001C4364000443144304D28B4200D18242A1
:1016B00030BC7047FCD09942FAD19042F8E7FEE77F
:1016C00070B504000D0060684000400D3F4EB04210
:1016D00007D16068000302D12068002816D00220DC
:1016E00070BD002804D12000FFF795FF01286BDAB8
:1016F000012D0DDB311A8D420AD36068002802D516
:101700000020334901E00020310503C4012070BDF1
:101710004142A942616806DA2E4A0A4028180005AB
:101720001043606047E08022120611406268120395
:10173000120B80235B0313436360401E2D180020AF
:101740002A003532352A02D36160206070BD002244
:101750001E23DB439D4204DA203522686368236040
:101760006060684211D0521E9241D243D20F2023B2
:101770001B1A25689D402A432568C54066689E401F
:101780002E4326606368C3406360606808436060FE
:101790001148824206D28020000682420ED1207873
:1017A000C0070BD52068401C20602068002805D1A8
:1017B0006068401C60600020C04370BD6068884263
:1017C000F9D120680028F6D1002070BDFF07000085
:1017D0000000F0FFFFFF0F8001000080F4464A1870
:1017E00005D200F00FF801D580174008604700F0DF
:1017F00009F80121C907884200D908004042604722
:101800004A1812D2400DC90208430121C9070843F2
:10181000520D40210901521A521C06D452421F3265
:1018200001D4D0407047C017704700207047FEE7D2
:10183000010009D5F446404200F006F80122D20723
:1018400011436047010000BF42221201D21E004234
:1018500007D002D4521E0018FCD5C10A400512055B
:10186000891870478B4200D1824205D98446100006
:1018700062468C4619006346DF184C18640D7F0DD4
:101880003AD0661C760537D0E61B352E34DCDB02F9
:101890002B43DB0A0C0DC9022943C912202E0DDB94
:1018A0001700203E06D01F00F741F3405F4000269E
:1018B000012A7741C01871410DD217E01700F74196
:1018C000F2405740F3415A40B340F3405A4000269B
:1018D000801859410AD3A21C52050FD0C207012F0C
:1018E000724117004008CB0718434908641C2405BF
:1018F0004208AF4170416141F0BC7047641C210552
:101900000020F9E76B4010E06B40ABE7F742F3D102
:10191000E943F1E72442EFD100200021ECE7F0B4E5
:101920000125ED070F005F40EED40C00871A9C41A3
:1019300005D2C01BA141D219634169406B40AE0A78
:10194000DF184C18F442E1D2640D7F0DE2D0E61BA3
:10195000362ED1DCDB022B43DB0AA4460C0DC90278
:101960002943C90A012E28DC04D1D6075208DF0713
:101970003A435B08EF0A76429041994114D03942CC
:101980003BD1B61940414941761C394204D1761CFD
:10199000001849413942FAD0B9436746B74208D9DD
:1019A000A41B24052143A7E70042EAD13642E8D12F
:1019B000A2E7E40AE10700209EE7202E0BDD203E8F
:1019C0001F00F340F7415F40012A002257417E4249
:1019D000984191410BE01700F741F2405740F34125
:1019E0005A40B340F3405A407E42904199410A0325
:1019F00003D2641EB619404149410027641E2405E4
:101A00004208AE4178416141F0BC7047F44600287D
:101A100004D4494200F013F8404260474042002994
:101A200005D45FD000F00BF840424942604749427C
:101A300000F005F84942604703460B43E6D4002214
:101A4000030A8B420BD203098B4219D243088B4203
:101A50002ED2411A00D20146524110467047FF2251
:101A600009023FD012068B4205D3121209028B42A3
:101A700001D31212090203098B4219D300E0090AAB
:101A8000C3098B4201D3CB01C01A524183098B4257
:101A900001D38B01C01A524143098B4201D34B0140
:101AA000C01A524103098B4201D30B01C01A5241A3
:101AB000C3088B4201D3CB00C01A524183088B422A
:101AC00001D38B00C01A524143088B4201D34B0013
:101AD000C01A5241884200D3401A5241CFD2014627
:101AE0001046704708B500F0B3F908BDF0B50E0018
:101AF0005E400125ED072E40B446AE0ADF184C18B3
:101B0000F44208D2F7420ED2640D01D07F0D12D1FB
:101B100000206146F0BD05D1F74201D87F0D05D107
:101B20000020C143F0BDFBD1640DF9D00020C143BA
:101B3000490549088FE0E419C902DB0229432B4318
:101B4000DB0A460DC00231438E4630B487B295B2EF
:101B50007D432E0CADB2140C7C43A419260C240436
:101B600025439CB27C43A419190C7943270CC9194D
:101B7000A4B20F043C43090C000C97B247432E0C4F
:101B8000BE193543ADB2170C4743360CBF19A6B288
:101B9000BF193E043543240C3E0C36199FB247430F
:101BA000BF19BCB23E0C89191F0C47437F183E0475
:101BB0003443390C704680B297B247432E0CBE199D
:101BC0003543ADB2170C4743360CBF19A6B2BF1947
:101BD0003E043543240C3E0C36199FB24743BF19CF
:101BE000BCB23E0C89191F0C47437F183E04344396
:101BF000390C77463F0C90B278432E0C80190604BE
:101C0000ADB22E43050CA0B22D18120C7A43501918
:101C1000020C80B2240CA4189AB27A43121914044C
:101C20002043120C89181B0C7B43C91830BCEF0AE7
:101C3000394203D1B61940414941641E6F12BF0DAC
:101C4000E41B0BDBFF19BC4211DA24050027420814
:101C5000AE417841614166463143F0BD641C05D117
:101C6000401C6141CF0201D34908F4E750E75DE72A
:101C7000F0B40E005E400125ED072E40B446AE0ADA
:101C8000DF184C18F4423BD2F74241D2640D43D0E6
:101C90007F0D38D0E41BC902DB0229432B43CF0A56
:101CA000DB0A0600B61A9F4104D2641EB6197F41B2
:101CB000B6185F416812800D24180018844222DA99
:101CC000E80C0021B6197F41B61A9F4102D2B6181E
:101CD0005F413F1C40414941F4D3241C21DD2405D0
:101CE000B6197F41B61A9F4105D33743C60737431C
:101CF0000026012F7041614166463143F0BC7047B8
:101D0000FCD1F74205D20020C14349054908F3E759
:101D100004D00020C143F1E77F0DFAD000206146D6
:101D2000ECE72442FAD1401C61410F03F6D30020B6
:101D3000E2E7FEE780B5124800F08BF811A10160E0
:101D400041608160C1600161416181610EA24262B6
:101D50008162C162016341630CA282630DA2C2630E
:101D60000164416401BD10B5054800F072F804003B
:101D70002068002801D1FFF7DDFF200010BD000022
:101D80003C000020000000002E00000066616C7323
:101D90006500000074727565000000007CB50400E9
:101DA0000E00150030002900FFF746FE0090454365
:101DB000701B0190684603C803C476BD80B5034814
:101DC00000F047F8806902BD00000000CC00002050
:101DD000002804D10EA003C803C200207047017080
:101DE00001207047002904D10BA003C803C30020C1
:101DF0007047002A02D10120C0437047002801D05B
:101E00000A7802800978481E8041C043C00F70479D
:101E100000000000000000000000000000000000C2
:101E200007490868002801D00020704705480722AC
:101E30009043086004499143091A0160704700BF4C
:101E4000E80A002047050020400700207047FEE711
:101E50007047704710B592B00EA800BF29A110229C
:101E6000FFF746FB0AA800BF2AA11022FFF740FB9C
:101E700006A800BF2BA11022FFF73AFBBD4C2000A3
:101E80000C300090072301220EA9022000F01AFC5A
:101E9000002830D120000E30059001200490102041
:101EA00003900020029001901020009014230AAAB1
:101EB0000221A08900F04BFC00281CD1200010302A
:101EC0000590012004901020039001200290002032
:101ED00001900C200090142306AA0221A08900F092
:101EE00036FC002807D1228AE18900BF11A000F04A
:101EF00071FD002004E000BF1EA000F06BFD472034
:101F000012B010BD669A0C200008969EE2119EB198
:101F1000E0F273D9669A0C200008969EE2119EB1F9
:101F2000E1F273D9669A0C200008969EE2119EB1E8
:101F3000E2F273D953616D706C65205365727669F6
:101F400063652061646465642E0A545820436861A7
:101F5000722048616E646C6520253034582C205204
:101F60005820436861722048616E646C652025309A
:101F700034580A004572726F72207768696C652068
:101F8000616464696E672053616D706C6520536590
:101F900072766963652E0A0000B58BB0AE48007892
:101FA000002826D124A000F015FD07A829A10CC9FE
:101FB0000CC0002000F04CFD8020C001FA21C900B7
:101FC000069105913C210491002103912821029161
:101FD00001910021009107AB0022010000F0EAFE10
:101FE000002826D01DA000F0F5FC642000F022FFA0
:101FF0001FE007A822A11022FFF77AFA0021002093
:1020000001F0E2F822A000F0E5FC00200690059027
:102010000490039007A802900D20019000200090EA
:1020200000230022002100F02FFE0100A3A000F0F9
:10203000D1FC0BB000BD0000436C69656E74204399
:10204000726561746520436F6E6E656374696F6E4F
:102050000A000000AA0000E1800200004572726FD1
:1020600072207768696C65207374617274696E6739
:1020700020636F6E6E656374696F6E2E0A000000D8
:1020800009426C75654E52475F43686174000000F9
:1020900047656E6572616C20446973636F76657223
:1020A00061626C65204D6F646520000010B586B0DC
:1020B000304CA078002811D109A000F08BFC01A8B9
:1020C0000FA11022FFF714FA01A8009002237D4A05
:1020D0000121E08800F0D6FB0120A07006B010BD01
:1020E00053746172742072656164696E672054581C
:1020F00020436861722048616E646C650A000000CC
:10210000669A0C200008969EE2119EB1E1F273D906
:1021100010B586B0174CE078002811D109A000F066
:1021200059FC01A80FA11022FFF7E2F901A80090C5
:102130000223644A0121E08800F0A4FB0120E07042
:1021400006B010BD53746172742072656164696E6B
:102150006720525820436861722048616E646C6544
:102160000A000000669A0C200008969EE2119EB1BB
:10217000E2F273D90000002070B588B00300504C23
:102180003548007801285ED14F480078002852D0A9
:1021900003A800BF31A11422FFF7AAF9A06903A97F
:1021A0000874020A4A74020C8A74020ECA74002867
:1021B00006D100BF88A000F00DFC00F035FEE06104
:1021C0008048006881000918490001A801F02EF834
:1021D00003A8009014230022E189A08900F014FBD9
:1021E000642804D101A801F028F80028F0D0A669DD
:1021F000761CA661CCD0FA256D0030002946FFF789
:102200001EFC6843301AC3D100F00EFEE169461A85
:10221000300001F01FF801006B4801F02AF801F0CE
:102220007DF80300320029006EA000F0D3FB00F01F
:10223000FBFDE061ACE700930B000022E189A0897F
:1022400000F0E2FA06E00A006189491C89B2E088E0
:1022500000F092FB08B070BD3901002030313233FC
:102260003435363738394142434445460000000092
:1022700010B584B0684600BF0FA10A88028051489B
:10228000006881000918490001A800F0CFFF4F4CF9
:102290006B4602222189891C89B2E08800F031FB5B
:1022A000462804D101A800F0C8FF0028F0D0012082
:1022B000607004B010BD00000100000025640A0039
:1022C00000000020FFFF00003A01002070B50D0063
:1022D00016003F49097800295FD03E490978002956
:1022E0005BD13A4C2189491C884269D1606A002837
:1022F00012D100BF38A000F06DFB00F095FD206208
:10230000307C717C09020143B07C00040843F17CFD
:1023100009060143491EA162307C717C0902014318
:10232000B07C00040843F17C09060143A26A501CFA
:10233000814204D0E06A4018801A401EE062A16227
:10234000666A761C66623BD0FA256D00300029462D
:10235000FFF775FB6843301A32D100F065FD216A42
:10236000461A300000F076FF0100174800F081FFA8
:1023700000F0D4FF03003200290000BF19A000F0D4
:1023800029FBE16A002902D025A000F023FB00F020
:102390004BFD20620020E06270BD0C490989491C98
:1023A00088420DD1002000F06FFB002D08D03400D2
:1023B0008CA62178300000F00DFB641C6D1EF8D156
:1023C00070BD0000D44F000800409C470000002072
:1023D0003A01002039010020546573742073746140
:1023E00072740A002564207061636B6574732E201B
:1023F000456C61707365642074696D653A2025646D
:10240000206D732E20417070207468726F7567683C
:102410007075743A202564206B6270732E0A000078
:102420002564206C6F7374207061636B657428730E
:10243000290A000070B5451C0078042800D0CFE0C0
:102440002878052804D03E2811D0FF283CD070BD44
:10245000654C0025656100BF71A000F0BBFA01204A
:1024600020706570A570E5702571657170BDAD1C3B
:102470002878012800D0B3E06D1C6878A978090697
:10248000090C08436D1D584C01216161E08000BFBB
:1024900059A000F09FFA00BF5DA46979200000F008
:1024A00099FA2979200000F095FAE978200000F0E7
:1024B00091FAA978200000F08DFA6978200000F0E8
:1024C00089FA297854A072E0AD1C28786978090649
:1024D000090C08434549401A06D00E3835D0401E35
:1024E00068D0801E3ED070BD3F4C208A401C4049C1
:1024F0000978012907D1AD1CA978EA781206120CD7
:102500001143EE1D06E0AD1CA978EA781206120C04
:1025100011436E1D2D7981420ED1002000F0B4FAD6
:10252000002D5DD034002FA62178300000F052FA43
:10253000641C6D1E54D0F7E7E089801C81424FD1A6
:10254000307801284CD1607070BDAD1CE8782979D5
:102550000906090C08436A1DA978891EC9B2FFF74C
:10256000B5FE70BD23480078002839D130A000F0B6
:1025700031FAAD1C1C4CA07800280BD02079002823
:1025800008D1E97828790006000C0143218100BFB9
:1025900032A00CE0E078002822D0607900281FD11A
:1025A000E97828790006000C0143618131A000F030
:1025B00011FA70BD0F480078002811D10A4CA0789C
:1025C000002805D02079002802D10120207170BD9B
:1025D000E078002804D06079002801D101206071E2
:1025E00070BD00002563000000000020010C000009
:1025F0003801002039010020436F6E6E65637465F9
:102600006420746F206465766963653A0000000099
:10261000253032582D000000253032580A000000C5
:10262000446973636F6E6E65637465640A000000CD
:102630004556545F424C55455F474154545F4449A9
:1026400053435F524541445F434841525F42595FA3
:10265000555549445F524553500A00005458204391
:102660006861722048616E646C6520253034580AB8
:1026700000000000525820436861722048616E6477
:102680006C6520253034580A0000000000B587B082
:102690001822002101A800F064FE01A83F2101805A
:1026A000C23141806846059001200690002101A8B2
:1026B00000F06AFC002801D5FF2001E068460078A0
:1026C00007B000BDF0B58DB016001F0007AC20703C
:1026D000012801D1022500E010252A00601C00F02D
:1026E0003AFE6D1CEDB266556D1CEDB267550322C6
:1026F0000021684600F035FE1822002101A800F0F4
:1027000030FE01A83F210180C331418007A803901A
:102710006D1CEDB2049568460590032006900021DB
:1027200001A800F031FC002801D5FF200DE068462B
:102730000178002901D0084607E041788278120626
:10274000120C11431298018000200DB0F0BDF1B5BC
:102750008EB00D0017001E0002220EA907A800F07F
:10276000FAFD07ACA570012D01D1022500E010256E
:102770002A003900E01C00F0EEFDED1CEDB26655BC
:102780006D1C1498EDB260556D1C1598EDB2605536
:102790006D1C1698EDB260556D1C1798EDB2605522
:1027A0006D1C1898EDB2605503220021684600F0B8
:1027B000D8FD1822002101A800F0D3FD01A83F2177
:1027C0000180C531418007A803906D1CEDB20495CE
:1027D0006846059003200690002101A800F0D4FB74
:1027E000002801D5FF200DE068460178002901D0BE
:1027F000084607E0417882781206120C11431998B6
:10280000018000200FB0F0BD73B5A8B016001C0009
:10281000A01D812801DB422032E0022228A907A85E
:1028200000F099FD07AD022229A9A81C00F093FD34
:102830002E716C7122002E99A81D00F08CFD1822BB
:10284000002101A800F08DFD01A83F210180C731C2
:10285000418007A80390A41DE4B204946846059043
:1028600001200690002101A800F08EFB002801D570
:10287000FF2005E068460078002801D0684600780F
:102880002AB070BD37B58EB01C0002220EA907A871
:1028900000F061FD07AD02220FA9A81C00F05BFD4E
:1028A000022210A9281D00F056FDAC71012C01D1A7
:1028B000022400E0102422001499E81D00F04BFDD2
:1028C0001822002101A800F04CFD01A83F21018041
:1028D000D731418007A80390E41DE4B204940F208F
:1028E00002906846059001200690002101A800F0A2
:1028F0004BFB002801D5FF2001E06846007811B0AD
:1029000030BD73B5A8B014001E00601D812801DB26
:1029100042202FE0022228A907A800F01CFD07ADE5
:10292000022229A9A81C00F016FD2C7122003100FA
:10293000681D00F010FD1822002101A800F011FD13
:1029400001A83F210180E231418007A80390641D66
:10295000E4B204940F20029068460590012006908E
:10296000002101A800F010FB002801D5FF2001E0A4
:10297000684600782AB070BD30B58FB00D001400E5
:102980001900152A01D3422022E007AB18805D8090
:102990001C71581D00F0DFFC1822002101A800F076
:1029A000E0FC01A83F210180E431418007A80390A9
:1029B000641D04946846059001200690002101A83A
:1029C00000F0E2FA002801D5FF2001E06846007817
:1029D0000FB030BD0EB400B5A0B021AB0200802115
:1029E000684600F0C9FC96235B0082B26946054840
:1029F00000F013FD002801D001F0F2F8209824B077
:102A000000470000100A002030B587B00121564A67
:102A100013680B43136012680A400092009A00BFCB
:102A20001FA24300D55A0195029100210391032171
:102A300004914E4980000C1801A9206801F05EF94C
:102A400000222900206801F037FA07B030BD0000ED
:102A500000B581B0012200BF11A14300C95A434B08
:102A60008000185801F028FA01B000BD00B581B00F
:102A7000002200BF0AA14300C95A3C4B80001858ED
:102A800001F01AFA01B000BD00B581B004A1420006
:102A9000895A364A8000105801F014FA01B000BD7E
:102AA0002000000030B587B005000C0004212E483E
:102AB00002680A430260026811400091009981682F
:102AC00001220A438260002C10D100BF25A06900BA
:102AD000405A0190002002900220039003200490AD
:102AE00001A92348AA00805801F008F9012C29D136
:102AF0001CA06900405A0190002003901D480290DC
:102B000001A91B48AA00805801F0F8F80EA0405D0A
:102B100043B29907CC0EFF22A240D143C022A2406B
:102B20001C0004D5144B2407240F083C00E0134B71
:102B3000A408A4001B191C6821400A431A6040B273
:102B400001F0FCF907B030BD0700000000B581B00E
:102B500004A14200895A064A8000105801F0A5F9E4
:102B600001B000BD002000002C1002403000002009
:102B700034000020000011101CED00E000E400E033
:102B800010B58AB01C006B46187059709A700722F5
:102B9000002101A800F0E5FB1822002103A800F0A5
:102BA000E0FB03A83F2101808A214180684605900F
:102BB0000320069001A8079007200890002103A891
:102BC00000F0E2F9002801D5FF201AE001A8017801
:102BD000002901D0084614E0417882781206120CD0
:102BE00011432180C17802791206120C11430C9A0C
:102BF0001180417982791206120C11430D980180DF
:102C000000200AB010BD70B58AB00D0014001E007F
:102C1000694608700722002101A800F0A2FB1822D3
:102C2000002103A800F09DFB03A83F2101808A2119
:102C30004180684605900120069001A80790072072
:102C40000890002103A800F09FF9002801D5FF207B
:102C500018E001A80178002901D0084612E0417867
:102C600082781206120C11432980C178027912066B
:102C7000120C11432180417982791206120C114302
:102C8000318000200AB070BDF6B591B01F00199DCB
:102C90001B9EA9190E31292901D342204EE007AC11
:102CA0002070022211A9601C00F055FB022212A91B
:102CB000E01C00F050FB67711898A071E5712A00C4
:102CC0001A992000083000F046FB0835EDB2665531
:102CD0006D1CEDB232001C99601900F03CFBAD197F
:102CE000EDB202221DA9601900F035FBAD1CEDB25A
:102CF00002221EA9601900F02EFB1822002101A853
:102D000000F02FFB01A83F2101808321418007A80B
:102D10000390AD1CEDB20495684605900120069025
:102D2000002101A800F030F9002801D5FF2005E0BE
:102D300068460078002801D06846007813B0F0BDDE
:102D400070B58EB00E0011001D0007AC20706670CB
:102D50001022A01C00F0FFFAA5741298E0741398DA
:102D6000207521001531149801F018F91598607636
:102D70001822002101A800F0F4FA01A83F210180E7
:102D80008621418007A803901A2004906846059088
:102D900001200690002101A800F0F6F8002801D5D6
:102DA000FF2005E068460078002801D068460078DA
:102DB0000EB070BD30B58DB00D00190007AC20808D
:102DC000658022710622601D00F0C5FA1098E0723D
:102DD0001198A0811298E081139820821498608243
:102DE0001598A0821698E0821822002101A800F010
:102DF000B8FA01A83F2101809C21418007A80390D7
:102E0000182004900F20029068460590012006903B
:102E1000002101A800F0B8F8002801D5FF2001E04A
:102E2000684600780DB030BD00B581B001F0E7F81C
:102E300001B000BD00B581B001F0E4F801B000BD03
:102E400010B5504C201D01F0EFF820000C3001F0BF
:102E5000EBF821001431201D01F001F92100A0310F
:102E6000201D01F0FCF8962040002118201D01F0E3
:102E7000F6F8DC2040002118201D01F0F0F8912028
:102E800080002118201D01F0EAF810BD30B5A1B076
:102E90000025009501F0A5FA3A4C20000C3001F015
:102EA000C6F8002816D1694620000C3001F0E3F87E
:102EB00001F090FA00980830FFF7BCFA01F091FA9F
:102EC0000099201D01F0CBF820000C3001F0AFF884
:102ED0000028E8D0207800280AD10EE0802201A93D
:102EE000954801F0E9F9000602D001A8FFF7A2FA1F
:102EF00001F0D1F90028F1D1257001F06BFA21B071
:102F000030BD30B581B00020009001F071FA8A4DDB
:102F100005E00099201D01F096F801F069FA01F032
:102F2000BAF900282BD0864C201D01F080F800282B
:102F300021D16946201D01F09EF8802200990831B8
:102F4000280001F0B9F9C0B20028E2D00099883118
:102F500008700098010008310A78042AD9D18978CC
:102F600088300078C01E8142D3D100990C342000F3
:102F700001F075F8D1E70120207001F039FA01B0B5
:102F800030BD000040070020F0B589B004000E00FD
:102F900060888005800D21888F020743BFB2694891
:102FA00000680A21FEF74BFD05000020019003A8F0
:102FB00001F03AF8A0680690E0686946087502A832
:102FC00061888905890D228892020A430280694638
:102FD000097D8170684601210170032202A9401C0D
:102FE00000F0B9F96846037D0422069901F0EEF875
:102FF000002E5DD1002D00D10125290007A800F089
:1030000015F904E003A801F02AF801F0E3F907A894
:1030100000F013F9002870D1494D28000C3001F060
:1030200006F80028F3D101F0DCF901A928000C30E2
:1030300001F021F8019A0832107804280199E1D1B1
:103040000B31019888300078C01E52780E2A35D096
:103050000F2A04D0102A50D03E2A39D00CE08A78AA
:10306000CB781B061B0C1A43BA4246D162680F2A62
:1030700015D00878002840D1019903A800F0EFFF8F
:10308000281D00F0D4FF0028BFD0694628000C306E
:1030900000F0F1FF0099281D00F0E1FFB5E762693B
:1030A000904200DD100060610246206900F053F993
:1030B000234D0199281D00F0C6FF31E04A788B7836
:1030C0001B061B0C1A43BA4217D1C91CC01EE6E7E7
:1030D0000A7863689A42CFD1401E6269904200DD4F
:1030E000100060610246491CDFE7694603A800F052
:1030F000C2FF0099114800F0B2FF03A800F097FF4B
:103100000028F2D001F066F90020C04310E002A9C7
:1031100003A800F0B0FF029928000C3000F09FFFD8
:1031200003A800F084FF0028F1D001F053F900203B
:1031300009B0F0BD00000000800A00204C0700200C
:1031400040070020D44F0008F0B589B006000D00FC
:1031500014001F0009220021684600F002F918221D
:10316000002103A800F0FDF803A80421018001213B
:10317000418000200590069068460790092008903D
:10318000002103A8FFF700FF002801D5FF2019E068
:1031900068460178002901D0084613E04178317073
:1031A0004188298001792170417982791206120CB7
:1031B00011433980C179027A1206120C11430E981C
:1031C0000180002009B0F0BD30B58FB004000D00C3
:1031D0002022002107A800F0C4F807A80470202CC2
:1031E00001DB1F2200E022002900401C00F0B3F8A0
:1031F0001822002101A800F0B4F801A808210180DC
:103200000921418007A8039020200490684605907A
:1032100001200690002101A8FFF7B6FE002801D585
:10322000FF2001E0684600780FB030BD10B5040003
:103230006160FFF7F9FD206010BD10B50400FFF7D5
:10324000F3FD61682268801A401C81428041C00FF2
:1032500010BDFEE79D2102000AD002D4491E92183B
:10326000FCD5C905100A1206524100D3012A484173
:10327000704730B405004D400122D20715404B186D
:103280000418240E28D01B0E2FD0FF2C34D0FF2B77
:1032900037D0E41A000209021043114343084808DA
:1032A000D10D1B1A02D2641EDB181B18DB188342D7
:1032B00000D31B1A4941F9D37F3426DDFE2C08DAEE
:1032C000E4054808C907194391416041284330BCCF
:1032D0007047FF20C005F9E728001B0E03D0FF2B25
:1032E000F5D14902F3D0D043F1E7FF2C01D14002E0
:1032F000F9D1FF20C005E9E74002F4D1FF2BF8D156
:10330000F1E728004902E2D0EDE70B020020244259
:10331000DCD15B129B1CD9D9D805D7E70122D20793
:103320000118090E7F3910D449421F310FD40018FB
:1033300005D2C0011043C84000D5D0437047C0013A
:103340001043C84005D440427047002070470042F7
:10335000F3D51000704710B50400FEF7B5F8200053
:1033600010BD10B5040010000A000100200001F09B
:103370007FF8200010BDFEE718B583B0002402944A
:10338000002902D10094019402E00090491E0191AD
:1033900003AB6946064878441630FCF791FE009965
:1033A000002900D00C70002800D4029804B010BD91
:1033B000A51B000030B581B0040001D101202AE036
:1033C000250068356878002803D12870200000F0B7
:1033D000AFFA022068702068016801229143016001
:1033E000200000F0ABF8606A002802D0200000F056
:1033F00013FA206841684F4A0A4042602068816899
:103400002A22914381602068016801220A430260F8
:10341000200000F0A5F901B030BDF1B50C001D0091
:1034200006465036707E012802D0707E22287DD15B
:10343000002C01D0002A01D1012078E0307E012843
:1034400074D0012030760020F061707E222801D1F6
:10345000322000E0122070763280728004E02188F1
:10346000C905C90D8162A41C708800283FD0401E88
:10347000708000F0C4FD070000980068C16909066B
:1034800027D40020C0438542F6D0002D04D000F0A0
:10349000B6FDC01B8542EFD200980068016880220B
:1034A0009143016000980068016820229143016007
:1034B000009800680168204A0A400260009800688D
:1034C000816801229143816072760020307603206A
:1034D0002DE00099896880225201914203D1009920
:1034E00009690029BBD021788162641CBCE700F027
:1034F00086FD0700402400980068C06920400BD179
:103500000020C0438542F6D0002DC5D000F077FDE5
:10351000C01B8542EFD2BFE7707E322801D1222046
:1035200000E0012070760020307600E0022001B03B
:10353000F0BD0000FFB7FFFFFFFEFFFFF0B581B059
:1035400004000021002025682A68844B1340A268EB
:103550001A432369134362691A43E36913432B60D7
:103560006A68A74B1340E2681A436A60A369A54AD8
:10357000954202D01E00236A3343AE68A24F374003
:103580003B43AB60A14B9D4221D1A14BDB6C9B0720
:103590009B0F04D0022B3BD026D3032B36E0012116
:1035A000E26980231B029A4200D0ADE0082900D9CD
:1035B000A0E002A2525C5200974400BF05878B9C9A
:1035C000949C9C9C980001F0B5FA40008FE0914BD0
:1035D0009D420BD18E4BDB6C0C261E40042E03D07B
:1035E000082E15D00C2E11E0042114E0954212D1C2
:1035F000874BDB6CC02636011E40130D9E42F3D074
:10360000D30C9E4204D0C0231B019E4202D002E094
:10361000022100E008219542C2D1002906D00229EA
:103620001AD004292DD0082941D094E001F082FA63
:10363000FEF708F90022AA4BFEF758FA06000F0021
:103640006068FEF7FFF802000B0030003900FEF75B
:103650000FFBFEF7D5F876E06068FEF7F3F802009E
:103660000B00A04C6A480068C00602D500209E49A5
:1036700001E000209D49FEF7FBFAFEF7C1F820604B
:1036800069E001F0DDF9FEF7DDF80022944BFEF76A
:103690002DFA06000F006068FEF7D4F802000B0058
:1036A00030003900FEF7E4FAFEF7AAF84BE0606854
:1036B000FEF7C8F802000B0000208D49FEF7D8FA8B
:1036C000FEF79EF88749086045E001F047FA4000A0
:1036D0000DE061684E480068C00601D5854807E0E6
:1036E000854805E001F0ACF9400000E05800616851
:1036F000FEF7A5F9814A02400006400E4007400F40
:1037000002432068C26026E0082924D801A0405C5A
:10371000874400BF0A10164228424242380001F096
:1037200009FA0DE001F01AFA0AE061683848006809
:10373000C00601D572480BE0724809E001F080F93B
:103740006168FEF77CF92168C86004E0184661688A
:10375000FEF775F9E86001B0F0BD0000F369FFEF16
:10376000F0B581B004002068006800070FD500F0B4
:1037700046FC0700644E8025AD032068C0692840E0
:1037800005D100F03CFCC01BB042F6D312E020682B
:103790000068400728D500F032FC07008025ED03C3
:1037A000594E2068C06928401ED100F028FCC01B7B
:1037B000B042F6D3206801688022914301602068FE
:1037C0000168202291430160206801680B4A0A4089
:1037D00002602068816801229143816068346270D0
:1037E00000202070032006E0683400202070606014
:1037F00001206070002001B0F0BD0000FFFEFFFF5F
:10380000FFCFFFFF00480040FFF4FFFF00380140FA
:1038100000100240004400402421415CC90706D545
:1038200001684A68394B1340826A1A434A6024216E
:10383000415C890706D501684A68354B1340C26A66
:103840001A434A602421415C490706D501684A6849
:10385000304B1340026B1A434A602421415C090734
:1038600006D501684A682C4B1340426B1A434A60E4
:103870002421415CC90606D501688A68274B13409C
:10388000826B1A438A602421415C890606D501684F
:103890008A68234B1340C26B1A438A602421415C1F
:1038A000490611D501684A681E4B1340026C1A4341
:1038B0004A60026C80235B039A4205D14A681A4B26
:1038C0001340426C1A434A602421415C090606D524
:1038D00001684A68154B1340806C18434860704774
:1038E000000070400C4800408084CE418084EE414E
:1038F0000000604100127A000048E801F0FF00007B
:1039000000093D000024F400F1550000FFFFFDFF19
:10391000FFFFFEFFFFFFFBFFFF7FFFFFFFEFFFFF4C
:10392000FFDFFFFFFFFFEFFFFFFF9FFFFFFFF7FF3F
:1039300030B587B001209C490A6802430A600A68D2
:1039400002400092009A0A6802430A600A68024034
:103950000092009ACA6843041343CB600424019484
:1039600002210291039004910594A025ED0501A97F
:10397000280000F0C3F908200190059401A928004F
:1039800000F0BCF907B030BDF0B593B00BA800BF94
:1039900088A10CC90CC009A888A10CC90CC000F0F2
:1039A00007FB0020FFF730F800210020FFF77AF82E
:1039B00001F000F97D487E4901609621890141604E
:1039C00000268660C660066186610C214161FFF7B2
:1039D000F1FC002806D00020FFF756F8642000F024
:1039E00011FBF8E700F020FCFFF72AFA00F03BFC9F
:1039F00006A904A801F012F900F035FC6846028B14
:103A0000017C00BF7BA0FEF7E5FF6E4D6846007CA1
:103A1000312801DB012028706878002802D10622B5
:103A20000BA901E0062209A907A8FFF794FC07AA41
:103A30000621002001F01EF9010002D072A0FEF75D
:103A4000C9FFFEF723FE002803D000BF76A0FEF7D3
:103A5000C1FF28786978012913D101280AD104A867
:103A6000801C019005A8009005AB9B1C072200213B
:103A7000012012E004AB9B1C05AA05A9891C0120AA
:103A800014E001280CD104A8801C019005A8009026
:103A900005AB9B1C072200210420FFF771F807E00B
:103AA00004AB9B1C05AA05A9891C0320FFF7ABF8F2
:103AB000002802D061A0FEF78DFF0120039042484C
:103AC000029001961020009007230022002101207F
:103AD000FFF736F9002802D15DA0FEF77BFF68787A
:103AE00001280BD160A0FEF775FFFEF7B3F900289F
:103AF00002D100BF64A002E06BA000E072A0FEF75C
:103B000069FF0421012001F0E9F8304C304F35E025
:103B10002068002805D02F480078002801D1FEF742
:103B2000F7FA206800280FD02B48007800280BD027
:103B300028480078002807D028480078002803D1BA
:103B4000FEF794FFFEF794FB0020FEF7FFFF00282E
:103B500014D10020FEF7FAFF0028FAD020680028D0
:103B60000CD01E480078002808D00DA85EA11422B1
:103B7000FDF7BEFC14210DA8FEF7FEFAFFF786F94B
:103B80003878002802D0FEF707FA3E7068780028DF
:103B9000DAD120680028BBD00F4800780028B7D1C0
:103BA000FEF784FABDE700002C100240100A002046
:103BB00000440040BB0000E180020000AA0000E1D8
:103BC000800200003801002040E2010014000020C3
:103BD000000000200500002004000020010000205B
:103BE00000B581B00020FEF74FFF642000F00AFA14
:103BF000F8E7000048577665722025642C20465768
:103C00007665722025640A0053657474696E6720B6
:103C100042445F41444452206661696C65642030CF
:103C200078253032782E0A00474154545F496E6936
:103C300074206661696C65642E0A00004741505F1C
:103C4000496E6974206661696C65642E0A00000023
:103C5000424C4520537461636B20496E69746961FD
:103C60006C697A65642E0A005345525645523A20D3
:103C7000424C4520537461636B20496E69746961DD
:103C80006C697A65640A0000536572766963652021
:103C90006164646564207375636365737366756CD2
:103CA0006C792E0A000000004572726F72207768EE
:103CB000696C6520616464696E67207365727669FA
:103CC00063652E0A00000000434C49454E543A20DB
:103CD000424C4520537461636B20496E697469617D
:103CE0006C697A65640A0000303132333435363716
:103CF00038394142434445464748494AF0B483B0C5
:103D00000022032301240D68002D00D1CAE00D68B4
:103D1000012696402E400296029D002D00D1BCE067
:103D20004D68022D01D0122D18D1D508AD004519CE
:103D30002E6A00965607F60E6F463E71009EB446F8
:103D40000F276E463679B7406646BE43B4460F69C4
:103D50006E463679B740664637432F624D68012D6F
:103D600005D0022D03D0112D01D0122D18D1866857
:103D700055006F463D716D462F790325BD40AE431A
:103D8000CD686F463F79BD40354385604668012563
:103D90009540AE434D682D0925409540354345601B
:103DA000066855006F463D716D462F790325BD406D
:103DB000ED432E40B4464F681F406E463679B740FB
:103DC000664637430760C66835408E686F463F7960
:103DD000BE402E43C6604D68ED005ED5424D2D6855
:103DE0002543414E3560414D9608B600AD1900950A
:103DF0002E6803271740BD000F27AF40BE43A02702
:103E0000FF05B84201D1002714E0394FB84201D173
:103E100001270FE0374FB84201D102270AE0364FA1
:103E2000B84201D1032705E0344FB84201D105273C
:103E300000E00627AF403743009D2F60304D2D68CE
:103E4000029FFE4300962E404D68ED0302D53500DB
:103E5000029E2E432A4D2E606E68009D35404E68AE
:103E6000B60302D52E00029D3543254E7560B66817
:103E7000009D35404E68F60202D52E00029D354366
:103E80001F4EB560F668009D35404E68B60202D5FB
:103E90002E00029D35431A4EF560521C0D68D54028
:103EA00000D034E703B0F0BC704700690840401E02
:103EB0008041C043C00F7047002A01D08161704724
:103EC0008162704742694A40426170470D4A1368F7
:103ED000034000D1704700B581B0106000F025FFAD
:103EE00001B000BD00000000341002400800014095
:103EF0000004005000080050000C0050001C00504E
:103F0000000401401404014010B48207D30EFF24C2
:103F10009C40E2438907090E9940030004D51948E3
:103F20001B071B0F083B00E017489B089B00C018AD
:103F300003681A401143016010BC70470121C0069C
:103F4000C00E81401148016070470121C006C00EBB
:103F500081400F4801607047401E8021490488421B
:103F600001D3012070470B4948600B4802681202D8
:103F7000120AC0231B061343036000208860072237
:103F80000A6070471CED00E000E400E000E100E0A2
:103F900080E100E010E000E020ED00E084460870E1
:103FA000000A4870000A8870000AC87060467047AE
:103FB00000B581B01A4801680222914301600320D4
:103FC00000F006F800F003F8002001B000BD7047D3
:103FD00010B5040000F06EFDFA218900FDF72FFDF9
:103FE000FFF7BAFF002221000020C043FFF78CFF3B
:103FF000002010BD0B480168491C0160704709484A
:104000000068704711B581B0FFF7F9FF0400FFF7B2
:10401000F6FF001B01998842F9D302B010BD0000E1
:1040200000200240E00A0020006040607047EFF38B
:10403000108172B60268824201D1012000E00020A6
:1040400081F310887047EFF3108272B603680B603B
:10405000486001600868416082F310887047EFF3A0
:10406000108272B6086043684B6041604868016026
:1040700082F31088704730B4EFF3108272B6036891
:104080000B600068EFF3108372B6046845682C601B
:1040900044680068446083F3108800200B6818604F
:1040A0000968486082F3108830BC70470068804916
:1040B000884200D07047F0B587B001247D48016880
:1040C00021430160016821400091009902260168A6
:1040D000314301600168314000910099016821433A
:1040E000016001682140009100990168214301604D
:1040F0000168214000910099016821430160016835
:10410000214000910099016821430160016821402C
:10411000009100998168820C0A438260870D0197A3
:104120000294039400250495059501A9A020C005DB
:10413000FFF7E4FD00223900A020C005FFF7BCFE18
:10414000082001900296039603270497059501A97C
:104150009F48FFF7D3FD40200190029603950497F6
:10416000059501A9A020C005FFF7C8FD802001909A
:10417000029603950497059501A9A020C005FFF7B5
:10418000BDFD0196029403940497059501A9A02012
:10419000C005FFF7B3FD01220221A020C005FFF7F3
:1041A0008BFE01949548029003950497059501A90B
:1041B000A020C005FFF7A2FD002203210520FFF784
:1041C000A3FE0520FFF7BAFE07B0F0BD70B581B0C1
:1041D00003B483B016001C000025894800680A213A
:1041E000FDF72DFC010001A8FFF720F80520FFF7DF
:1041F000ACFEE0B20090F3B20498421903998148F2
:1042000000F098F8002805D40026241A2D18EDB2E5
:10421000002C04D001A8FFF710F80028E9D00520F1
:10422000FFF78CFE06B070BD10B5764C20482060BC
:104230008220400060600020A060E060206160613A
:1042400080218900A161206260620721E16208216A
:10425000E161A062200000F06FFD2068016840224B
:104260000A43026010BD30B581B0A024E40580256A
:104270006D00002229002000FFF71EFE0520FFF739
:10428000C1FE012229002000FFF716FE0520FFF7DE
:10429000B9FE01B030BD00B581B00121A020C0053C
:1042A000FFF703FE012800D0002001B000BD000090
:1042B000003001402C100240F2B584B00700150018
:1042C000002402A866A10CC90CC072B6002202210B
:1042D000A020C005FFF7F0FD684602A905223B6853
:1042E0000E78DE60491C9E68B607FCD59E68F6070E
:1042F000FCD5DB680370401C521EF0D16846017883
:1043000002290DD101790E02C078064308D0B542CA
:1043100000DA2E00F2B20499380000F08BF8340075
:1043200001220221A020C005FFF7C6FD62B6E0B25F
:1043300005B0F0BDFCB585B005000E0002A800BFB9
:1043400049A10CC90CC068460021002206C0A02764
:10435000FF0502213800FFF7AFFD684602A90522DC
:104360002B680C78DC60491C9C68A407FCD59C6811
:10437000E407FCD5DB680370401C521EF0D1684690
:104380000178022901D0002404E04478007E8442B0
:1043900002DA0124E44312E06846027E310028007C
:1043A00000F034F86846007E241AE4B20C98844287
:1043B00000DB040022000599280000F027F8012204
:1043C00002213800FFF778FD200007B0F0BD0000A3
:1043D0000004005000B581B00520FFF7AFFD01B02B
:1043E00000BD00B581B00520FFF7AFFD01B000BDF5
:1043F000012005490860704700000000000011100E
:10440000D44F0008800A00201404014030B4002A70
:104410000DD0022304680D78E560491CA5681D4095
:10442000FCD0A568ED07FCD5E468521EF2D100204F
:1044300030BC704770B4002A0ED00223FF240568F8
:10444000EC60AE681E40FCD0AE68F607FCD5ED68A7
:104450000D70491C521EF2D1002070BC7047000044
:104460000B000000000000000A0000000000000037
:104470001206130A1A43130C1A4300BF094205D04F
:10448000830705D00270401C491EF9D17047000017
:10449000130030B414001500103902D310393CC099
:1044A000FCD2490700D30CC000D504C0890002D358
:1044B0000280801C002900D5027030BC70470000CB
:1044C000F0B583B00400B34D2078C0074FD50C2160
:1044D000E8680840082808D080204002EA681140B7
:1044E0000C290AD1E968014007D0286880033ED52D
:1044F000606800283BD10120ECE1616881420BD06B
:10450000A54AA023DB029942296809D10A402A6002
:10451000296882000A432A6029680843286009E064
:104520000A402A6029680840019001982868B94922
:10453000014029608027BF02606800280BD0FFF788
:104540005EFD06002868384011D1FFF758FD801B3A
:104550006528F7D3BBE1FFF752FD06002868384015
:1045600005D0FFF74CFD801B6528F7D3AFE120781D
:10457000800718D50C21E8680840042806D0E868B0
:1045800001400C2943D1E868C00340D428684007A3
:1045900002D5E0680128AED16868B74901402069BA
:1045A0000002084368602078C0061AD56F0DE868DD
:1045B0000C21014050D12868074002D0E069002852
:1045C00099D06868AD490140606A084368606868CE
:1045D0000002000A216A0906014369600320FFF70F
:1045E000F7FC2078000776D560690028286D63D035
:1045F000012101432965FFF702FD0600286D8007B0
:1046000069D4FFF7FCFC801B0328F7D35FE1E06867
:104610000921C943042700280FD02A681140084304
:104620002860FFF7ECFC060028683840B4D1FFF79B
:10463000E6FC801B0328F7D349E128680140296084
:10464000FFF7DDFC060028683840ACD0FFF7D7FC48
:10465000801B0328F7D33AE1E069002828681CD0C2
:10466000A90D01432960FFF7CAFC060028683840FD
:1046700005D1FFF7C4FC801B0328F7D327E1686846
:104680007E490140606A0843686068680002000A69
:10469000216A090601436960A3E78F490140296047
:1046A000FFF7ADFC0600286838409AD0FFF7A7FC5A
:1046B000801B0328F7D30AE1012188432865FFF70F
:1046C0009EFC0600286D800705D5FFF798FC801B2F
:1046D0000328F7D3FBE0207880062ED57F48A16918
:1046E0000029A96816D001220A43AA60696B012239
:1046F0000A436A6301686A0C0A430260FFF77FFCA1
:104700000600A868800718D4FFF779FC801B0328EF
:10471000F7D3DCE001229143A9600168704A0A40A6
:104720000260FFF76CFC0600A868800705D5FFF75C
:1047300066FC801B0328F7D3C9E02078400700D42B
:104740007CE000206946088080204005A96B01407C
:1047500005D1A96B0843A863012069464870AF0DD5
:1047600060480068384019D15E48006838435D49A8
:104770000860012069460870FFF741FC06005948AF
:10478000006838400AD1FFF73AFC801B6528F6D351
:104790009DE000BF00100240FFFFFEFFA168B9428C
:1047A0000FD04D48002901D1296D0EE0A022D20082
:1047B0009142296D09D108402865286D290D0143D2
:1047C0002965286D07432F6505E008402865286D99
:1047D0009749014029656F0DA06800280CD0FFF7AC
:1047E0000EFC0600286D384016D1FFF708FC801B30
:1047F00090498842F6D36AE0FFF701FC0600286D75
:10480000384009D0FFF7FBFB801B8A498842F6D36A
:104810005DE000BFFFFFFBFF68460078002805D081
:10482000304800682C4901402E48016068464078B5
:10483000002803D0A86B80490140A963A06A002822
:1048400047D0E9680C220A400C2A00D153E68027A1
:10485000BF047A49022828682CD101402960FFF75B
:10486000CEFB0600286838400AD0FFF7C8FB801B43
:104870000328F7D32BE000BFFFE0FFFFFF1FFFFF80
:10488000E8688A490140206B0843616B0143E06A94
:104890000843E8602868790801432960FFF7AFFB07
:1048A00006002868384014D1FFF7A9FB801B0328B5
:1048B000F7D30CE001402960FFF7A1FB0600286850
:1048C000384006D0FFF79BFB801B0328F7D303205B
:1048D00000E0002003B0F0BDFFFEFFFF200001401C
:1048E000FEDFFFFF00700040F2B504007048006872
:1048F000C107C90F009881420DD26D48006801219F
:104900008843009901436A4801600068C107C90FE4
:104910000098814270D1864D2078800705D5E868DF
:10492000F0218843A1680143E9602078C0074ED593
:104930006068022802D12968890308E0002802D1B2
:104940002968890503E00328296802D1890102D476
:1049500052E0490750D5E968032291430843E860D3
:10496000FFF74DFB070060680C2602280AD1E868B3
:10497000304008282BD0FFF742FBC01B2D4988424E
:10498000F5D322E003280AD1E86830400C281ED075
:10499000FFF735FBC01B27498842F5D315E00028F7
:1049A00009D1E868304012D0FFF729FBC01B21492C
:1049B0008842F6D309E0E8683040042807D0FFF7C2
:1049C0001EFBC01B1B498842F5D303202DE038484D
:1049D0000068C107C90F009881420FD334480068AE
:1049E0000121884300990143314801600068C107F3
:1049F000C90F0098814201D0012016E020784007BD
:104A000005D5E8685F490140E0680843E860207820
:104A1000000706D5E8685C4901402069C0000843EA
:104A2000E8600320FFF7D4FA002001B0F0BD0000D9
:104A3000FFFBFFFF89130000FFFFFFEFFFFFFFFEFB
:104A400000B53B4A5068D1680C230B40042B04D0BE
:104A5000082B09D00C2B09D020E01068C00601D526
:104A60004B4800BD4B4800BD4B4800BDD068D168E5
:104A70004A4B8002000F185C0902890F491CD36859
:104A8000DB0306D41268D20601D5414A02E0414A4E
:104A900000E0414A5043FCF7D2FF00BD0121000471
:104AA000400F401C8140C80300BD0000FFFF02FF13
:104AB0000020024010B51E4C6068E1680C220A40DC
:104AC000042A1DD0082A19D00C2A20D1E068E168F8
:104AD000324A8002000F105C0902890F491CE2680B
:104AE000D20306D42268D20601D5294A02E0294A17
:104AF00000E0294A5043FCF7A2FF0EE026480CE0F4
:104B00002068C00601D5224807E0224805E00121BF
:104B10000004400F401C8140C80300BF21A1E2688F
:104B20001206120F895CC8401D49086010BD0000C4
:104B30000010024000B581B0FFF782FF19A1134AAF
:104B400013681B061B0FCB5CD840154B186012680E
:104B50005205520F895CC84001B000BD00B581B05C
:104B6000FFF76EFF0FA1094A13681B061B0FCB5CF2
:104B7000D8400B4B186012689204520F895CC840F1
:104B800001B000BDFFF8FFFFFFC7FFFF0C100240A0
:104B900000093D000024F40000127A00144E0008C1
:104BA0003800002000000000010203040102030499
:104BB0000607080970B594B0154C60688021490556
:104BC0000143616013480168134A0A40C10C114354
:104BD00001600220059001250895102109910F9090
:104BE00000261096400411900001129005A8FFF7CE
:104BF00067FC00950320019002960396049601211C
:104C00006846FFF771FE20680543256014B070BD4B
:104C10003410024000700040FFE7FFFF70B584B021
:104C200005000C0001A8009002AB9B1C02AA01A980
:104C3000891C02A8401CFEF787FAC6B2002E14D1C8
:104C40006846C088000A28706846C0880002208034
:104C5000694689880906090F0901014321806846D0
:104C600080880007000F08432080FEF70FF930000E
:104C700004B070BD10B5A8B003000C001100A01C5A
:104C8000812801DB422027E007A80370447022003E
:104C9000801CFEF760FB1822002101A8FEF761FBD3
:104CA00001A83F2101800C21418007A80390A41C8A
:104CB000E4B204946846059001200690002101A802
:104CC000FEF762F9002801D5FF2005E0684600786C
:104CD000002801D06846007828B010BD00B589B022
:104CE00001AA107051701822002102A8FEF739FBAA
:104CF00002A83F2101800F21418001A804900220D9
:104D000005906846069001200790002102A8FEF752
:104D10003BF9002801D5FF2005E06846007800280F
:104D200001D06846007809B000BD00B581B0FEF73B
:104D3000E8F801B000BDFEE770B5040001D1012024
:104D400070BD2500503500266878002803D12E70EC
:104D50002000FFF7ABF9022068702068016840224C
:104D6000914301606068A1680143E06808432169DC
:104D7000014360690843A169D20011400143E06921
:104D80000843216A0143A06A084321680860A069BA
:104D9000000C04210840616A014320684160E06A18
:104DA000216808612068C169034A0A40C2616E60D7
:104DB00001206870002070BDFFF7FFFF0F480168F9
:104DC000820D0A430260C1680D4A0A40C260016850
:104DD0000C4A0A40026081680122914381600168A7
:104DE000094A0A400260C168084A0A40C2600021BC
:104DF00001618020000506490860704700100240EC
:104E00000C40FF88F6FFF6FEFFFFFBFFFFFF02FFEF
:104E100008ED00E0030406080C1018203000000024
:104E20007047FEE77047704700B581B0FFF7E2F8C2
:104E30000C480168491C016001B000BD00B581B09B
:104E40000120FFF743F801B000BD00B581B080201C
:104E50008001FFF73BF801200349087001B000BD55
:104E600000000000E40A0020EC0A002070B40121D8
:104E7000002313E00468001D0C4202D04D466D1E55
:104E800064192360241D121F042AFAD225009607F4
:104E900001D52380AD1C0A4000D02B700268001D94
:104EA000002AE7D170BC704730B5016841184468EA
:104EB00062088A188368E40701D54C461B190C3038
:104EC000914200D130BD0C7864B2491C0D78491C68
:104ED0001D705B1C002C02D5641CF9D1F0E7641E28
:104EE000F4D5EDE70000000000000000686A6C7473
:104EF0007A4C000000000000000000006E616E00AF
:104F00004E414E00696E6600494E460010B5074995
:104F100079441831064C7C44163404E0081D0A68B4
:104F2000891888470100A142F8D110BD080000008F
:104F30002400000039FFFFFFB003000040070020FD
:104F40000000000065FFFFFFB00000003600000019
:104F5000000000208268521C82604268002A06D04D
:104F60000268531C036011704168491E416070471C
:104F700000F00BF8002801D0FFF7C8FF0020C04662
:104F8000C046FEF701FD00F002F80120704780B531
:104F900000F002F801BDFEE70746384600F002F8CF
:104FA000FBE7FEE780B5C046C046024A1100182064
:104FB000ABBEFBE7260002000148804701480047DE
:104FC000BD4D0008C94F0008C046C046C046C04697
:104FD000FFF7CEFFE8030000FEE7FEE7FEE7FEE78F
:104FE000FEE7FEE7FEE7FEE7FEE7FEE7FEE7FEE799
:104FF000FEE7FEE7FEE7FEE70001CE0007500008EF
:10500000005080841EE300F8FFDC00FAFF8100D02E
:0350100000FE019E
:00000001FF
